{
	"primitive.sol": {
		"primitive": {
			"abi": [
				{
					"inputs": [],
					"name": "bs1",
					"outputs": [
						{
							"internalType": "bytes1",
							"name": "",
							"type": "bytes1"
						}
					],
					"stateMutability": "view",
					"type": "function"
				},
				{
					"inputs": [],
					"name": "defauleInt",
					"outputs": [
						{
							"internalType": "int256",
							"name": "",
							"type": "int256"
						}
					],
					"stateMutability": "view",
					"type": "function"
				},
				{
					"inputs": [],
					"name": "defaultAdr",
					"outputs": [
						{
							"internalType": "address",
							"name": "",
							"type": "address"
						}
					],
					"stateMutability": "view",
					"type": "function"
				},
				{
					"inputs": [],
					"name": "defaultBoo",
					"outputs": [
						{
							"internalType": "bool",
							"name": "",
							"type": "bool"
						}
					],
					"stateMutability": "view",
					"type": "function"
				},
				{
					"inputs": [],
					"name": "defaultUint",
					"outputs": [
						{
							"internalType": "uint256",
							"name": "",
							"type": "uint256"
						}
					],
					"stateMutability": "view",
					"type": "function"
				},
				{
					"inputs": [],
					"name": "maxInt",
					"outputs": [
						{
							"internalType": "int256",
							"name": "",
							"type": "int256"
						}
					],
					"stateMutability": "view",
					"type": "function"
				},
				{
					"inputs": [],
					"name": "minInt",
					"outputs": [
						{
							"internalType": "int256",
							"name": "",
							"type": "int256"
						}
					],
					"stateMutability": "view",
					"type": "function"
				},
				{
					"inputs": [],
					"name": "myBool",
					"outputs": [
						{
							"internalType": "bool",
							"name": "",
							"type": "bool"
						}
					],
					"stateMutability": "view",
					"type": "function"
				},
				{
					"inputs": [],
					"name": "s1",
					"outputs": [
						{
							"internalType": "bytes1",
							"name": "",
							"type": "bytes1"
						}
					],
					"stateMutability": "view",
					"type": "function"
				},
				{
					"inputs": [],
					"name": "u1",
					"outputs": [
						{
							"internalType": "uint256",
							"name": "",
							"type": "uint256"
						}
					],
					"stateMutability": "view",
					"type": "function"
				},
				{
					"inputs": [],
					"name": "u256",
					"outputs": [
						{
							"internalType": "uint256",
							"name": "",
							"type": "uint256"
						}
					],
					"stateMutability": "view",
					"type": "function"
				},
				{
					"inputs": [],
					"name": "u8",
					"outputs": [
						{
							"internalType": "uint8",
							"name": "",
							"type": "uint8"
						}
					],
					"stateMutability": "view",
					"type": "function"
				},
				{
					"inputs": [],
					"name": "uae",
					"outputs": [
						{
							"internalType": "int8",
							"name": "",
							"type": "int8"
						}
					],
					"stateMutability": "view",
					"type": "function"
				},
				{
					"inputs": [],
					"name": "uae22",
					"outputs": [
						{
							"internalType": "int256",
							"name": "",
							"type": "int256"
						}
					],
					"stateMutability": "view",
					"type": "function"
				},
				{
					"inputs": [],
					"name": "uae256",
					"outputs": [
						{
							"internalType": "int256",
							"name": "",
							"type": "int256"
						}
					],
					"stateMutability": "view",
					"type": "function"
				}
			],
			"devdoc": {
				"kind": "dev",
				"methods": {},
				"version": 1
			},
			"evm": {
				"assembly": "    /* \"primitive.sol\":58:670  contract primitive {... */\n  mstore(0x40, 0x80)\n    /* \"primitive.sol\":104:108  true */\n  0x01\n    /* \"primitive.sol\":83:108  bool public myBool = true */\n  0x00\n  dup1\n  0x0100\n  exp\n  dup2\n  sload\n  dup2\n  0xff\n  mul\n  not\n  and\n  swap1\n  dup4\n  iszero\n  iszero\n  mul\n  or\n  swap1\n  sstore\n  pop\n    /* \"primitive.sol\":155:158  112 */\n  0x70\n    /* \"primitive.sol\":137:158  uint8 public u8 = 112 */\n  0x00\n  exp(0x0100, 0x01)\n  dup2\n  sload\n  dup2\n  0xff\n  mul\n  not\n  and\n  swap1\n  dup4\n  0xff\n  and\n  mul\n  or\n  swap1\n  sstore\n  pop\n    /* \"primitive.sol\":186:189  256 */\n  0x0100\n    /* \"primitive.sol\":164:189  uint256 public u256 = 256 */\n  0x01\n  sstore\n    /* \"primitive.sol\":214:217  155 */\n  0x9b\n    /* \"primitive.sol\":195:217  uint256 public u1 =155 */\n  0x02\n  sstore\n    /* \"primitive.sol\":242:244  -1 */\n  0xffffffffffffffffffffffffffffffffffffffffffffffffffffffffffffffff\n    /* \"primitive.sol\":224:244  int8 public uae = -1 */\n  0x03\n  exp(0x0100, 0x00)\n  dup2\n  sload\n  dup2\n  0xff\n  mul\n  not\n  and\n  swap1\n  dup4\n  0x00\n  signextend\n  0xff\n  and\n  mul\n  or\n  swap1\n  sstore\n  pop\n    /* \"primitive.sol\":273:276  456 */\n  0x01c8\n    /* \"primitive.sol\":250:276  int256 public uae256 = 456 */\n  0x04\n  sstore\n    /* \"primitive.sol\":304:308  -123 */\n  0xffffffffffffffffffffffffffffffffffffffffffffffffffffffffffffff85\n    /* \"primitive.sol\":282:308  int256 public uae22 = -123 */\n  0x05\n  sstore\n    /* \"primitive.sol\":329:371  0xCA35b7d915458EF540aDe6068dFe2F44E8fa733c */\n  0xca35b7d915458ef540ade6068dfe2f44e8fa733c\n    /* \"primitive.sol\":315:371  address adr = 0xCA35b7d915458EF540aDe6068dFe2F44E8fa733c */\n  0x06\n  exp(0x0100, 0x00)\n  dup2\n  sload\n  dup2\n  0xffffffffffffffffffffffffffffffffffffffff\n  mul\n  not\n  and\n  swap1\n  dup4\n  0xffffffffffffffffffffffffffffffffffffffff\n  and\n  mul\n  or\n  swap1\n  sstore\n  pop\n    /* \"primitive.sol\":401:417  type(int256).min */\n  0x8000000000000000000000000000000000000000000000000000000000000000\n    /* \"primitive.sol\":378:417  int256 public minInt = type(int256).min */\n  0x07\n  sstore\n    /* \"primitive.sol\":446:462  type(int256).max */\n  0x7fffffffffffffffffffffffffffffffffffffffffffffffffffffffffffffff\n    /* \"primitive.sol\":423:462  int256 public maxInt = type(int256).max */\n  0x08\n  sstore\n    /* \"primitive.sol\":489:493  0xb5 */\n  0xb5\n    /* \"primitive.sol\":469:493  bytes1 public bs1 = 0xb5 */\n  0xf8\n  shl\n  0x09\n  exp(0x0100, 0x00)\n  dup2\n  sload\n  dup2\n  0xff\n  mul\n  not\n  and\n  swap1\n  dup4\n  0xf8\n  shr\n  mul\n  or\n  swap1\n  sstore\n  pop\n    /* \"primitive.sol\":518:522  0x55 */\n  0x55\n    /* \"primitive.sol\":499:522  bytes1 public s1 = 0x55 */\n  0xf8\n  shl\n  0x09\n  exp(0x0100, 0x01)\n  dup2\n  sload\n  dup2\n  0xff\n  mul\n  not\n  and\n  swap1\n  dup4\n  0xf8\n  shr\n  mul\n  or\n  swap1\n  sstore\n  pop\n    /* \"primitive.sol\":58:670  contract primitive {... */\n  callvalue\n  dup1\n  iszero\n  tag_1\n  jumpi\n  0x00\n  dup1\n  revert\ntag_1:\n  pop\n  dataSize(sub_0)\n  dup1\n  dataOffset(sub_0)\n  0x00\n  codecopy\n  0x00\n  return\nstop\n\nsub_0: assembly {\n        /* \"primitive.sol\":58:670  contract primitive {... */\n      mstore(0x40, 0x80)\n      callvalue\n      dup1\n      iszero\n      tag_1\n      jumpi\n      0x00\n      dup1\n      revert\n    tag_1:\n      pop\n      jumpi(tag_2, lt(calldatasize, 0x04))\n      shr(0xe0, calldataload(0x00))\n      dup1\n      0x71a2a3df\n      gt\n      tag_18\n      jumpi\n      dup1\n      0x9caaf2f4\n      gt\n      tag_19\n      jumpi\n      dup1\n      0x9caaf2f4\n      eq\n      tag_14\n      jumpi\n      dup1\n      0xa33a3f37\n      eq\n      tag_15\n      jumpi\n      dup1\n      0xab3a58a3\n      eq\n      tag_16\n      jumpi\n      dup1\n      0xff465184\n      eq\n      tag_17\n      jumpi\n      jump(tag_2)\n    tag_19:\n      dup1\n      0x71a2a3df\n      eq\n      tag_10\n      jumpi\n      dup1\n      0x7a4c2571\n      eq\n      tag_11\n      jumpi\n      dup1\n      0x7e4e14cc\n      eq\n      tag_12\n      jumpi\n      dup1\n      0x87f8dfbe\n      eq\n      tag_13\n      jumpi\n      jump(tag_2)\n    tag_18:\n      dup1\n      0x1aa35610\n      gt\n      tag_20\n      jumpi\n      dup1\n      0x1aa35610\n      eq\n      tag_6\n      jumpi\n      dup1\n      0x459b1acf\n      eq\n      tag_7\n      jumpi\n      dup1\n      0x6cc014de\n      eq\n      tag_8\n      jumpi\n      dup1\n      0x6deecdbe\n      eq\n      tag_9\n      jumpi\n      jump(tag_2)\n    tag_20:\n      dup1\n      0x074eef3f\n      eq\n      tag_3\n      jumpi\n      dup1\n      0x0cccc773\n      eq\n      tag_4\n      jumpi\n      dup1\n      0x1570c2cb\n      eq\n      tag_5\n      jumpi\n    tag_2:\n      0x00\n      dup1\n      revert\n        /* \"primitive.sol\":552:574  bool public defaultBoo */\n    tag_3:\n      tag_21\n      tag_22\n      jump\t// in\n    tag_21:\n      mload(0x40)\n      tag_23\n      swap2\n      swap1\n      tag_24\n      jump\t// in\n    tag_23:\n      mload(0x40)\n      dup1\n      swap2\n      sub\n      swap1\n      return\n        /* \"primitive.sol\":224:244  int8 public uae = -1 */\n    tag_4:\n      tag_25\n      tag_26\n      jump\t// in\n    tag_25:\n      mload(0x40)\n      tag_27\n      swap2\n      swap1\n      tag_28\n      jump\t// in\n    tag_27:\n      mload(0x40)\n      dup1\n      swap2\n      sub\n      swap1\n      return\n        /* \"primitive.sol\":580:606  uint256 public defaultUint */\n    tag_5:\n      tag_29\n      tag_30\n      jump\t// in\n    tag_29:\n      mload(0x40)\n      tag_31\n      swap2\n      swap1\n      tag_32\n      jump\t// in\n    tag_31:\n      mload(0x40)\n      dup1\n      swap2\n      sub\n      swap1\n      return\n        /* \"primitive.sol\":195:217  uint256 public u1 =155 */\n    tag_6:\n      tag_33\n      tag_34\n      jump\t// in\n    tag_33:\n      mload(0x40)\n      tag_35\n      swap2\n      swap1\n      tag_32\n      jump\t// in\n    tag_35:\n      mload(0x40)\n      dup1\n      swap2\n      sub\n      swap1\n      return\n        /* \"primitive.sol\":164:189  uint256 public u256 = 256 */\n    tag_7:\n      tag_36\n      tag_37\n      jump\t// in\n    tag_36:\n      mload(0x40)\n      tag_38\n      swap2\n      swap1\n      tag_32\n      jump\t// in\n    tag_38:\n      mload(0x40)\n      dup1\n      swap2\n      sub\n      swap1\n      return\n        /* \"primitive.sol\":499:522  bytes1 public s1 = 0x55 */\n    tag_8:\n      tag_39\n      tag_40\n      jump\t// in\n    tag_39:\n      mload(0x40)\n      tag_41\n      swap2\n      swap1\n      tag_42\n      jump\t// in\n    tag_41:\n      mload(0x40)\n      dup1\n      swap2\n      sub\n      swap1\n      return\n        /* \"primitive.sol\":83:108  bool public myBool = true */\n    tag_9:\n      tag_43\n      tag_44\n      jump\t// in\n    tag_43:\n      mload(0x40)\n      tag_45\n      swap2\n      swap1\n      tag_24\n      jump\t// in\n    tag_45:\n      mload(0x40)\n      dup1\n      swap2\n      sub\n      swap1\n      return\n        /* \"primitive.sol\":250:276  int256 public uae256 = 456 */\n    tag_10:\n      tag_46\n      tag_47\n      jump\t// in\n    tag_46:\n      mload(0x40)\n      tag_48\n      swap2\n      swap1\n      tag_49\n      jump\t// in\n    tag_48:\n      mload(0x40)\n      dup1\n      swap2\n      sub\n      swap1\n      return\n        /* \"primitive.sol\":423:462  int256 public maxInt = type(int256).max */\n    tag_11:\n      tag_50\n      tag_51\n      jump\t// in\n    tag_50:\n      mload(0x40)\n      tag_52\n      swap2\n      swap1\n      tag_49\n      jump\t// in\n    tag_52:\n      mload(0x40)\n      dup1\n      swap2\n      sub\n      swap1\n      return\n        /* \"primitive.sol\":378:417  int256 public minInt = type(int256).min */\n    tag_12:\n      tag_53\n      tag_54\n      jump\t// in\n    tag_53:\n      mload(0x40)\n      tag_55\n      swap2\n      swap1\n      tag_49\n      jump\t// in\n    tag_55:\n      mload(0x40)\n      dup1\n      swap2\n      sub\n      swap1\n      return\n        /* \"primitive.sol\":469:493  bytes1 public bs1 = 0xb5 */\n    tag_13:\n      tag_56\n      tag_57\n      jump\t// in\n    tag_56:\n      mload(0x40)\n      tag_58\n      swap2\n      swap1\n      tag_42\n      jump\t// in\n    tag_58:\n      mload(0x40)\n      dup1\n      swap2\n      sub\n      swap1\n      return\n        /* \"primitive.sol\":642:667  address public defaultAdr */\n    tag_14:\n      tag_59\n      tag_60\n      jump\t// in\n    tag_59:\n      mload(0x40)\n      tag_61\n      swap2\n      swap1\n      tag_62\n      jump\t// in\n    tag_61:\n      mload(0x40)\n      dup1\n      swap2\n      sub\n      swap1\n      return\n        /* \"primitive.sol\":282:308  int256 public uae22 = -123 */\n    tag_15:\n      tag_63\n      tag_64\n      jump\t// in\n    tag_63:\n      mload(0x40)\n      tag_65\n      swap2\n      swap1\n      tag_49\n      jump\t// in\n    tag_65:\n      mload(0x40)\n      dup1\n      swap2\n      sub\n      swap1\n      return\n        /* \"primitive.sol\":137:158  uint8 public u8 = 112 */\n    tag_16:\n      tag_66\n      tag_67\n      jump\t// in\n    tag_66:\n      mload(0x40)\n      tag_68\n      swap2\n      swap1\n      tag_69\n      jump\t// in\n    tag_68:\n      mload(0x40)\n      dup1\n      swap2\n      sub\n      swap1\n      return\n        /* \"primitive.sol\":612:636  int256 public defauleInt */\n    tag_17:\n      tag_70\n      tag_71\n      jump\t// in\n    tag_70:\n      mload(0x40)\n      tag_72\n      swap2\n      swap1\n      tag_49\n      jump\t// in\n    tag_72:\n      mload(0x40)\n      dup1\n      swap2\n      sub\n      swap1\n      return\n        /* \"primitive.sol\":552:574  bool public defaultBoo */\n    tag_22:\n      0x09\n      0x02\n      swap1\n      sload\n      swap1\n      0x0100\n      exp\n      swap1\n      div\n      0xff\n      and\n      dup2\n      jump\t// out\n        /* \"primitive.sol\":224:244  int8 public uae = -1 */\n    tag_26:\n      0x03\n      0x00\n      swap1\n      sload\n      swap1\n      0x0100\n      exp\n      swap1\n      div\n      0x00\n      signextend\n      dup2\n      jump\t// out\n        /* \"primitive.sol\":580:606  uint256 public defaultUint */\n    tag_30:\n      sload(0x0a)\n      dup2\n      jump\t// out\n        /* \"primitive.sol\":195:217  uint256 public u1 =155 */\n    tag_34:\n      sload(0x02)\n      dup2\n      jump\t// out\n        /* \"primitive.sol\":164:189  uint256 public u256 = 256 */\n    tag_37:\n      sload(0x01)\n      dup2\n      jump\t// out\n        /* \"primitive.sol\":499:522  bytes1 public s1 = 0x55 */\n    tag_40:\n      0x09\n      0x01\n      swap1\n      sload\n      swap1\n      0x0100\n      exp\n      swap1\n      div\n      0xf8\n      shl\n      dup2\n      jump\t// out\n        /* \"primitive.sol\":83:108  bool public myBool = true */\n    tag_44:\n      0x00\n      dup1\n      sload\n      swap1\n      0x0100\n      exp\n      swap1\n      div\n      0xff\n      and\n      dup2\n      jump\t// out\n        /* \"primitive.sol\":250:276  int256 public uae256 = 456 */\n    tag_47:\n      sload(0x04)\n      dup2\n      jump\t// out\n        /* \"primitive.sol\":423:462  int256 public maxInt = type(int256).max */\n    tag_51:\n      sload(0x08)\n      dup2\n      jump\t// out\n        /* \"primitive.sol\":378:417  int256 public minInt = type(int256).min */\n    tag_54:\n      sload(0x07)\n      dup2\n      jump\t// out\n        /* \"primitive.sol\":469:493  bytes1 public bs1 = 0xb5 */\n    tag_57:\n      0x09\n      0x00\n      swap1\n      sload\n      swap1\n      0x0100\n      exp\n      swap1\n      div\n      0xf8\n      shl\n      dup2\n      jump\t// out\n        /* \"primitive.sol\":642:667  address public defaultAdr */\n    tag_60:\n      0x0c\n      0x00\n      swap1\n      sload\n      swap1\n      0x0100\n      exp\n      swap1\n      div\n      0xffffffffffffffffffffffffffffffffffffffff\n      and\n      dup2\n      jump\t// out\n        /* \"primitive.sol\":282:308  int256 public uae22 = -123 */\n    tag_64:\n      sload(0x05)\n      dup2\n      jump\t// out\n        /* \"primitive.sol\":137:158  uint8 public u8 = 112 */\n    tag_67:\n      0x00\n      0x01\n      swap1\n      sload\n      swap1\n      0x0100\n      exp\n      swap1\n      div\n      0xff\n      and\n      dup2\n      jump\t// out\n        /* \"primitive.sol\":612:636  int256 public defauleInt */\n    tag_71:\n      sload(0x0b)\n      dup2\n      jump\t// out\n        /* \"#utility.yul\":7:97   */\n    tag_73:\n        /* \"#utility.yul\":41:48   */\n      0x00\n        /* \"#utility.yul\":84:89   */\n      dup2\n        /* \"#utility.yul\":77:90   */\n      iszero\n        /* \"#utility.yul\":70:91   */\n      iszero\n        /* \"#utility.yul\":59:91   */\n      swap1\n      pop\n        /* \"#utility.yul\":7:97   */\n      swap2\n      swap1\n      pop\n      jump\t// out\n        /* \"#utility.yul\":103:212   */\n    tag_74:\n        /* \"#utility.yul\":184:205   */\n      tag_91\n        /* \"#utility.yul\":199:204   */\n      dup2\n        /* \"#utility.yul\":184:205   */\n      tag_73\n      jump\t// in\n    tag_91:\n        /* \"#utility.yul\":179:182   */\n      dup3\n        /* \"#utility.yul\":172:206   */\n      mstore\n        /* \"#utility.yul\":103:212   */\n      pop\n      pop\n      jump\t// out\n        /* \"#utility.yul\":218:428   */\n    tag_24:\n        /* \"#utility.yul\":305:309   */\n      0x00\n        /* \"#utility.yul\":343:345   */\n      0x20\n        /* \"#utility.yul\":332:341   */\n      dup3\n        /* \"#utility.yul\":328:346   */\n      add\n        /* \"#utility.yul\":320:346   */\n      swap1\n      pop\n        /* \"#utility.yul\":356:421   */\n      tag_93\n        /* \"#utility.yul\":418:419   */\n      0x00\n        /* \"#utility.yul\":407:416   */\n      dup4\n        /* \"#utility.yul\":403:420   */\n      add\n        /* \"#utility.yul\":394:400   */\n      dup5\n        /* \"#utility.yul\":356:421   */\n      tag_74\n      jump\t// in\n    tag_93:\n        /* \"#utility.yul\":218:428   */\n      swap3\n      swap2\n      pop\n      pop\n      jump\t// out\n        /* \"#utility.yul\":434:523   */\n    tag_75:\n        /* \"#utility.yul\":468:475   */\n      0x00\n        /* \"#utility.yul\":511:516   */\n      dup2\n        /* \"#utility.yul\":508:509   */\n      0x00\n        /* \"#utility.yul\":497:517   */\n      signextend\n        /* \"#utility.yul\":486:517   */\n      swap1\n      pop\n        /* \"#utility.yul\":434:523   */\n      swap2\n      swap1\n      pop\n      jump\t// out\n        /* \"#utility.yul\":529:638   */\n    tag_76:\n        /* \"#utility.yul\":610:631   */\n      tag_96\n        /* \"#utility.yul\":625:630   */\n      dup2\n        /* \"#utility.yul\":610:631   */\n      tag_75\n      jump\t// in\n    tag_96:\n        /* \"#utility.yul\":605:608   */\n      dup3\n        /* \"#utility.yul\":598:632   */\n      mstore\n        /* \"#utility.yul\":529:638   */\n      pop\n      pop\n      jump\t// out\n        /* \"#utility.yul\":644:854   */\n    tag_28:\n        /* \"#utility.yul\":731:735   */\n      0x00\n        /* \"#utility.yul\":769:771   */\n      0x20\n        /* \"#utility.yul\":758:767   */\n      dup3\n        /* \"#utility.yul\":754:772   */\n      add\n        /* \"#utility.yul\":746:772   */\n      swap1\n      pop\n        /* \"#utility.yul\":782:847   */\n      tag_98\n        /* \"#utility.yul\":844:845   */\n      0x00\n        /* \"#utility.yul\":833:842   */\n      dup4\n        /* \"#utility.yul\":829:846   */\n      add\n        /* \"#utility.yul\":820:826   */\n      dup5\n        /* \"#utility.yul\":782:847   */\n      tag_76\n      jump\t// in\n    tag_98:\n        /* \"#utility.yul\":644:854   */\n      swap3\n      swap2\n      pop\n      pop\n      jump\t// out\n        /* \"#utility.yul\":860:937   */\n    tag_77:\n        /* \"#utility.yul\":897:904   */\n      0x00\n        /* \"#utility.yul\":926:931   */\n      dup2\n        /* \"#utility.yul\":915:931   */\n      swap1\n      pop\n        /* \"#utility.yul\":860:937   */\n      swap2\n      swap1\n      pop\n      jump\t// out\n        /* \"#utility.yul\":943:1061   */\n    tag_78:\n        /* \"#utility.yul\":1030:1054   */\n      tag_101\n        /* \"#utility.yul\":1048:1053   */\n      dup2\n        /* \"#utility.yul\":1030:1054   */\n      tag_77\n      jump\t// in\n    tag_101:\n        /* \"#utility.yul\":1025:1028   */\n      dup3\n        /* \"#utility.yul\":1018:1055   */\n      mstore\n        /* \"#utility.yul\":943:1061   */\n      pop\n      pop\n      jump\t// out\n        /* \"#utility.yul\":1067:1289   */\n    tag_32:\n        /* \"#utility.yul\":1160:1164   */\n      0x00\n        /* \"#utility.yul\":1198:1200   */\n      0x20\n        /* \"#utility.yul\":1187:1196   */\n      dup3\n        /* \"#utility.yul\":1183:1201   */\n      add\n        /* \"#utility.yul\":1175:1201   */\n      swap1\n      pop\n        /* \"#utility.yul\":1211:1282   */\n      tag_103\n        /* \"#utility.yul\":1279:1280   */\n      0x00\n        /* \"#utility.yul\":1268:1277   */\n      dup4\n        /* \"#utility.yul\":1264:1281   */\n      add\n        /* \"#utility.yul\":1255:1261   */\n      dup5\n        /* \"#utility.yul\":1211:1282   */\n      tag_78\n      jump\t// in\n    tag_103:\n        /* \"#utility.yul\":1067:1289   */\n      swap3\n      swap2\n      pop\n      pop\n      jump\t// out\n        /* \"#utility.yul\":1295:1444   */\n    tag_79:\n        /* \"#utility.yul\":1331:1338   */\n      0x00\n        /* \"#utility.yul\":1371:1437   */\n      0xff00000000000000000000000000000000000000000000000000000000000000\n        /* \"#utility.yul\":1364:1369   */\n      dup3\n        /* \"#utility.yul\":1360:1438   */\n      and\n        /* \"#utility.yul\":1349:1438   */\n      swap1\n      pop\n        /* \"#utility.yul\":1295:1444   */\n      swap2\n      swap1\n      pop\n      jump\t// out\n        /* \"#utility.yul\":1450:1565   */\n    tag_80:\n        /* \"#utility.yul\":1535:1558   */\n      tag_106\n        /* \"#utility.yul\":1552:1557   */\n      dup2\n        /* \"#utility.yul\":1535:1558   */\n      tag_79\n      jump\t// in\n    tag_106:\n        /* \"#utility.yul\":1530:1533   */\n      dup3\n        /* \"#utility.yul\":1523:1559   */\n      mstore\n        /* \"#utility.yul\":1450:1565   */\n      pop\n      pop\n      jump\t// out\n        /* \"#utility.yul\":1571:1789   */\n    tag_42:\n        /* \"#utility.yul\":1662:1666   */\n      0x00\n        /* \"#utility.yul\":1700:1702   */\n      0x20\n        /* \"#utility.yul\":1689:1698   */\n      dup3\n        /* \"#utility.yul\":1685:1703   */\n      add\n        /* \"#utility.yul\":1677:1703   */\n      swap1\n      pop\n        /* \"#utility.yul\":1713:1782   */\n      tag_108\n        /* \"#utility.yul\":1779:1780   */\n      0x00\n        /* \"#utility.yul\":1768:1777   */\n      dup4\n        /* \"#utility.yul\":1764:1781   */\n      add\n        /* \"#utility.yul\":1755:1761   */\n      dup5\n        /* \"#utility.yul\":1713:1782   */\n      tag_80\n      jump\t// in\n    tag_108:\n        /* \"#utility.yul\":1571:1789   */\n      swap3\n      swap2\n      pop\n      pop\n      jump\t// out\n        /* \"#utility.yul\":1795:1871   */\n    tag_81:\n        /* \"#utility.yul\":1831:1838   */\n      0x00\n        /* \"#utility.yul\":1860:1865   */\n      dup2\n        /* \"#utility.yul\":1849:1865   */\n      swap1\n      pop\n        /* \"#utility.yul\":1795:1871   */\n      swap2\n      swap1\n      pop\n      jump\t// out\n        /* \"#utility.yul\":1877:1992   */\n    tag_82:\n        /* \"#utility.yul\":1962:1985   */\n      tag_111\n        /* \"#utility.yul\":1979:1984   */\n      dup2\n        /* \"#utility.yul\":1962:1985   */\n      tag_81\n      jump\t// in\n    tag_111:\n        /* \"#utility.yul\":1957:1960   */\n      dup3\n        /* \"#utility.yul\":1950:1986   */\n      mstore\n        /* \"#utility.yul\":1877:1992   */\n      pop\n      pop\n      jump\t// out\n        /* \"#utility.yul\":1998:2216   */\n    tag_49:\n        /* \"#utility.yul\":2089:2093   */\n      0x00\n        /* \"#utility.yul\":2127:2129   */\n      0x20\n        /* \"#utility.yul\":2116:2125   */\n      dup3\n        /* \"#utility.yul\":2112:2130   */\n      add\n        /* \"#utility.yul\":2104:2130   */\n      swap1\n      pop\n        /* \"#utility.yul\":2140:2209   */\n      tag_113\n        /* \"#utility.yul\":2206:2207   */\n      0x00\n        /* \"#utility.yul\":2195:2204   */\n      dup4\n        /* \"#utility.yul\":2191:2208   */\n      add\n        /* \"#utility.yul\":2182:2188   */\n      dup5\n        /* \"#utility.yul\":2140:2209   */\n      tag_82\n      jump\t// in\n    tag_113:\n        /* \"#utility.yul\":1998:2216   */\n      swap3\n      swap2\n      pop\n      pop\n      jump\t// out\n        /* \"#utility.yul\":2222:2348   */\n    tag_83:\n        /* \"#utility.yul\":2259:2266   */\n      0x00\n        /* \"#utility.yul\":2299:2341   */\n      0xffffffffffffffffffffffffffffffffffffffff\n        /* \"#utility.yul\":2292:2297   */\n      dup3\n        /* \"#utility.yul\":2288:2342   */\n      and\n        /* \"#utility.yul\":2277:2342   */\n      swap1\n      pop\n        /* \"#utility.yul\":2222:2348   */\n      swap2\n      swap1\n      pop\n      jump\t// out\n        /* \"#utility.yul\":2354:2450   */\n    tag_84:\n        /* \"#utility.yul\":2391:2398   */\n      0x00\n        /* \"#utility.yul\":2420:2444   */\n      tag_116\n        /* \"#utility.yul\":2438:2443   */\n      dup3\n        /* \"#utility.yul\":2420:2444   */\n      tag_83\n      jump\t// in\n    tag_116:\n        /* \"#utility.yul\":2409:2444   */\n      swap1\n      pop\n        /* \"#utility.yul\":2354:2450   */\n      swap2\n      swap1\n      pop\n      jump\t// out\n        /* \"#utility.yul\":2456:2574   */\n    tag_85:\n        /* \"#utility.yul\":2543:2567   */\n      tag_118\n        /* \"#utility.yul\":2561:2566   */\n      dup2\n        /* \"#utility.yul\":2543:2567   */\n      tag_84\n      jump\t// in\n    tag_118:\n        /* \"#utility.yul\":2538:2541   */\n      dup3\n        /* \"#utility.yul\":2531:2568   */\n      mstore\n        /* \"#utility.yul\":2456:2574   */\n      pop\n      pop\n      jump\t// out\n        /* \"#utility.yul\":2580:2802   */\n    tag_62:\n        /* \"#utility.yul\":2673:2677   */\n      0x00\n        /* \"#utility.yul\":2711:2713   */\n      0x20\n        /* \"#utility.yul\":2700:2709   */\n      dup3\n        /* \"#utility.yul\":2696:2714   */\n      add\n        /* \"#utility.yul\":2688:2714   */\n      swap1\n      pop\n        /* \"#utility.yul\":2724:2795   */\n      tag_120\n        /* \"#utility.yul\":2792:2793   */\n      0x00\n        /* \"#utility.yul\":2781:2790   */\n      dup4\n        /* \"#utility.yul\":2777:2794   */\n      add\n        /* \"#utility.yul\":2768:2774   */\n      dup5\n        /* \"#utility.yul\":2724:2795   */\n      tag_85\n      jump\t// in\n    tag_120:\n        /* \"#utility.yul\":2580:2802   */\n      swap3\n      swap2\n      pop\n      pop\n      jump\t// out\n        /* \"#utility.yul\":2808:2894   */\n    tag_86:\n        /* \"#utility.yul\":2843:2850   */\n      0x00\n        /* \"#utility.yul\":2883:2887   */\n      0xff\n        /* \"#utility.yul\":2876:2881   */\n      dup3\n        /* \"#utility.yul\":2872:2888   */\n      and\n        /* \"#utility.yul\":2861:2888   */\n      swap1\n      pop\n        /* \"#utility.yul\":2808:2894   */\n      swap2\n      swap1\n      pop\n      jump\t// out\n        /* \"#utility.yul\":2900:3012   */\n    tag_87:\n        /* \"#utility.yul\":2983:3005   */\n      tag_123\n        /* \"#utility.yul\":2999:3004   */\n      dup2\n        /* \"#utility.yul\":2983:3005   */\n      tag_86\n      jump\t// in\n    tag_123:\n        /* \"#utility.yul\":2978:2981   */\n      dup3\n        /* \"#utility.yul\":2971:3006   */\n      mstore\n        /* \"#utility.yul\":2900:3012   */\n      pop\n      pop\n      jump\t// out\n        /* \"#utility.yul\":3018:3232   */\n    tag_69:\n        /* \"#utility.yul\":3107:3111   */\n      0x00\n        /* \"#utility.yul\":3145:3147   */\n      0x20\n        /* \"#utility.yul\":3134:3143   */\n      dup3\n        /* \"#utility.yul\":3130:3148   */\n      add\n        /* \"#utility.yul\":3122:3148   */\n      swap1\n      pop\n        /* \"#utility.yul\":3158:3225   */\n      tag_125\n        /* \"#utility.yul\":3222:3223   */\n      0x00\n        /* \"#utility.yul\":3211:3220   */\n      dup4\n        /* \"#utility.yul\":3207:3224   */\n      add\n        /* \"#utility.yul\":3198:3204   */\n      dup5\n        /* \"#utility.yul\":3158:3225   */\n      tag_87\n      jump\t// in\n    tag_125:\n        /* \"#utility.yul\":3018:3232   */\n      swap3\n      swap2\n      pop\n      pop\n      jump\t// out\n\n    auxdata: 0xa264697066735822122014bd995b0535916b311389fb5ac47ce70ddd5b015c09c6d68f822a52c5f9611d64736f6c63430008100033\n}\n",
				"bytecode": {
					"linkReferences": {},
					"object": "608060405260016000806101000a81548160ff0219169083151502179055506070600060016101000a81548160ff021916908360ff160217905550610100600155609b6002557fffffffffffffffffffffffffffffffffffffffffffffffffffffffffffffffff600360006101000a81548160ff021916908360000b60ff1602179055506101c86004557fffffffffffffffffffffffffffffffffffffffffffffffffffffffffffffff8560055573ca35b7d915458ef540ade6068dfe2f44e8fa733c600660006101000a81548173ffffffffffffffffffffffffffffffffffffffff021916908373ffffffffffffffffffffffffffffffffffffffff1602179055507f80000000000000000000000000000000000000000000000000000000000000006007557f7fffffffffffffffffffffffffffffffffffffffffffffffffffffffffffffff60085560b560f81b600960006101000a81548160ff021916908360f81c0217905550605560f81b600960016101000a81548160ff021916908360f81c021790555034801561019457600080fd5b50610576806101a46000396000f3fe608060405234801561001057600080fd5b50600436106100f55760003560e01c806371a2a3df116100975780639caaf2f4116100665780639caaf2f414610244578063a33a3f3714610262578063ab3a58a314610280578063ff4651841461029e576100f5565b806371a2a3df146101cc5780637a4c2571146101ea5780637e4e14cc1461020857806387f8dfbe14610226576100f5565b80631aa35610116100d35780631aa3561014610154578063459b1acf146101725780636cc014de146101905780636deecdbe146101ae576100f5565b8063074eef3f146100fa5780630cccc773146101185780631570c2cb14610136575b600080fd5b6101026102bc565b60405161010f919061039d565b60405180910390f35b6101206102cf565b60405161012d91906103d4565b60405180910390f35b61013e6102e2565b60405161014b9190610408565b60405180910390f35b61015c6102e8565b6040516101699190610408565b60405180910390f35b61017a6102ee565b6040516101879190610408565b60405180910390f35b6101986102f4565b6040516101a5919061045e565b60405180910390f35b6101b6610307565b6040516101c3919061039d565b60405180910390f35b6101d4610318565b6040516101e19190610492565b60405180910390f35b6101f261031e565b6040516101ff9190610492565b60405180910390f35b610210610324565b60405161021d9190610492565b60405180910390f35b61022e61032a565b60405161023b919061045e565b60405180910390f35b61024c61033d565b60405161025991906104ee565b60405180910390f35b61026a610363565b6040516102779190610492565b60405180910390f35b610288610369565b6040516102959190610525565b60405180910390f35b6102a661037c565b6040516102b39190610492565b60405180910390f35b600960029054906101000a900460ff1681565b600360009054906101000a900460000b81565b600a5481565b60025481565b60015481565b600960019054906101000a900460f81b81565b60008054906101000a900460ff1681565b60045481565b60085481565b60075481565b600960009054906101000a900460f81b81565b600c60009054906101000a900473ffffffffffffffffffffffffffffffffffffffff1681565b60055481565b600060019054906101000a900460ff1681565b600b5481565b60008115159050919050565b61039781610382565b82525050565b60006020820190506103b2600083018461038e565b92915050565b60008160000b9050919050565b6103ce816103b8565b82525050565b60006020820190506103e960008301846103c5565b92915050565b6000819050919050565b610402816103ef565b82525050565b600060208201905061041d60008301846103f9565b92915050565b60007fff0000000000000000000000000000000000000000000000000000000000000082169050919050565b61045881610423565b82525050565b6000602082019050610473600083018461044f565b92915050565b6000819050919050565b61048c81610479565b82525050565b60006020820190506104a76000830184610483565b92915050565b600073ffffffffffffffffffffffffffffffffffffffff82169050919050565b60006104d8826104ad565b9050919050565b6104e8816104cd565b82525050565b600060208201905061050360008301846104df565b92915050565b600060ff82169050919050565b61051f81610509565b82525050565b600060208201905061053a6000830184610516565b9291505056fea264697066735822122014bd995b0535916b311389fb5ac47ce70ddd5b015c09c6d68f822a52c5f9611d64736f6c63430008100033",
					"opcodes": "PUSH1 0x80 PUSH1 0x40 MSTORE PUSH1 0x1 PUSH1 0x0 DUP1 PUSH2 0x100 EXP DUP2 SLOAD DUP2 PUSH1 0xFF MUL NOT AND SWAP1 DUP4 ISZERO ISZERO MUL OR SWAP1 SSTORE POP PUSH1 0x70 PUSH1 0x0 PUSH1 0x1 PUSH2 0x100 EXP DUP2 SLOAD DUP2 PUSH1 0xFF MUL NOT AND SWAP1 DUP4 PUSH1 0xFF AND MUL OR SWAP1 SSTORE POP PUSH2 0x100 PUSH1 0x1 SSTORE PUSH1 0x9B PUSH1 0x2 SSTORE PUSH32 0xFFFFFFFFFFFFFFFFFFFFFFFFFFFFFFFFFFFFFFFFFFFFFFFFFFFFFFFFFFFFFFFF PUSH1 0x3 PUSH1 0x0 PUSH2 0x100 EXP DUP2 SLOAD DUP2 PUSH1 0xFF MUL NOT AND SWAP1 DUP4 PUSH1 0x0 SIGNEXTEND PUSH1 0xFF AND MUL OR SWAP1 SSTORE POP PUSH2 0x1C8 PUSH1 0x4 SSTORE PUSH32 0xFFFFFFFFFFFFFFFFFFFFFFFFFFFFFFFFFFFFFFFFFFFFFFFFFFFFFFFFFFFFFF85 PUSH1 0x5 SSTORE PUSH20 0xCA35B7D915458EF540ADE6068DFE2F44E8FA733C PUSH1 0x6 PUSH1 0x0 PUSH2 0x100 EXP DUP2 SLOAD DUP2 PUSH20 0xFFFFFFFFFFFFFFFFFFFFFFFFFFFFFFFFFFFFFFFF MUL NOT AND SWAP1 DUP4 PUSH20 0xFFFFFFFFFFFFFFFFFFFFFFFFFFFFFFFFFFFFFFFF AND MUL OR SWAP1 SSTORE POP PUSH32 0x8000000000000000000000000000000000000000000000000000000000000000 PUSH1 0x7 SSTORE PUSH32 0x7FFFFFFFFFFFFFFFFFFFFFFFFFFFFFFFFFFFFFFFFFFFFFFFFFFFFFFFFFFFFFFF PUSH1 0x8 SSTORE PUSH1 0xB5 PUSH1 0xF8 SHL PUSH1 0x9 PUSH1 0x0 PUSH2 0x100 EXP DUP2 SLOAD DUP2 PUSH1 0xFF MUL NOT AND SWAP1 DUP4 PUSH1 0xF8 SHR MUL OR SWAP1 SSTORE POP PUSH1 0x55 PUSH1 0xF8 SHL PUSH1 0x9 PUSH1 0x1 PUSH2 0x100 EXP DUP2 SLOAD DUP2 PUSH1 0xFF MUL NOT AND SWAP1 DUP4 PUSH1 0xF8 SHR MUL OR SWAP1 SSTORE POP CALLVALUE DUP1 ISZERO PUSH2 0x194 JUMPI PUSH1 0x0 DUP1 REVERT JUMPDEST POP PUSH2 0x576 DUP1 PUSH2 0x1A4 PUSH1 0x0 CODECOPY PUSH1 0x0 RETURN INVALID PUSH1 0x80 PUSH1 0x40 MSTORE CALLVALUE DUP1 ISZERO PUSH2 0x10 JUMPI PUSH1 0x0 DUP1 REVERT JUMPDEST POP PUSH1 0x4 CALLDATASIZE LT PUSH2 0xF5 JUMPI PUSH1 0x0 CALLDATALOAD PUSH1 0xE0 SHR DUP1 PUSH4 0x71A2A3DF GT PUSH2 0x97 JUMPI DUP1 PUSH4 0x9CAAF2F4 GT PUSH2 0x66 JUMPI DUP1 PUSH4 0x9CAAF2F4 EQ PUSH2 0x244 JUMPI DUP1 PUSH4 0xA33A3F37 EQ PUSH2 0x262 JUMPI DUP1 PUSH4 0xAB3A58A3 EQ PUSH2 0x280 JUMPI DUP1 PUSH4 0xFF465184 EQ PUSH2 0x29E JUMPI PUSH2 0xF5 JUMP JUMPDEST DUP1 PUSH4 0x71A2A3DF EQ PUSH2 0x1CC JUMPI DUP1 PUSH4 0x7A4C2571 EQ PUSH2 0x1EA JUMPI DUP1 PUSH4 0x7E4E14CC EQ PUSH2 0x208 JUMPI DUP1 PUSH4 0x87F8DFBE EQ PUSH2 0x226 JUMPI PUSH2 0xF5 JUMP JUMPDEST DUP1 PUSH4 0x1AA35610 GT PUSH2 0xD3 JUMPI DUP1 PUSH4 0x1AA35610 EQ PUSH2 0x154 JUMPI DUP1 PUSH4 0x459B1ACF EQ PUSH2 0x172 JUMPI DUP1 PUSH4 0x6CC014DE EQ PUSH2 0x190 JUMPI DUP1 PUSH4 0x6DEECDBE EQ PUSH2 0x1AE JUMPI PUSH2 0xF5 JUMP JUMPDEST DUP1 PUSH4 0x74EEF3F EQ PUSH2 0xFA JUMPI DUP1 PUSH4 0xCCCC773 EQ PUSH2 0x118 JUMPI DUP1 PUSH4 0x1570C2CB EQ PUSH2 0x136 JUMPI JUMPDEST PUSH1 0x0 DUP1 REVERT JUMPDEST PUSH2 0x102 PUSH2 0x2BC JUMP JUMPDEST PUSH1 0x40 MLOAD PUSH2 0x10F SWAP2 SWAP1 PUSH2 0x39D JUMP JUMPDEST PUSH1 0x40 MLOAD DUP1 SWAP2 SUB SWAP1 RETURN JUMPDEST PUSH2 0x120 PUSH2 0x2CF JUMP JUMPDEST PUSH1 0x40 MLOAD PUSH2 0x12D SWAP2 SWAP1 PUSH2 0x3D4 JUMP JUMPDEST PUSH1 0x40 MLOAD DUP1 SWAP2 SUB SWAP1 RETURN JUMPDEST PUSH2 0x13E PUSH2 0x2E2 JUMP JUMPDEST PUSH1 0x40 MLOAD PUSH2 0x14B SWAP2 SWAP1 PUSH2 0x408 JUMP JUMPDEST PUSH1 0x40 MLOAD DUP1 SWAP2 SUB SWAP1 RETURN JUMPDEST PUSH2 0x15C PUSH2 0x2E8 JUMP JUMPDEST PUSH1 0x40 MLOAD PUSH2 0x169 SWAP2 SWAP1 PUSH2 0x408 JUMP JUMPDEST PUSH1 0x40 MLOAD DUP1 SWAP2 SUB SWAP1 RETURN JUMPDEST PUSH2 0x17A PUSH2 0x2EE JUMP JUMPDEST PUSH1 0x40 MLOAD PUSH2 0x187 SWAP2 SWAP1 PUSH2 0x408 JUMP JUMPDEST PUSH1 0x40 MLOAD DUP1 SWAP2 SUB SWAP1 RETURN JUMPDEST PUSH2 0x198 PUSH2 0x2F4 JUMP JUMPDEST PUSH1 0x40 MLOAD PUSH2 0x1A5 SWAP2 SWAP1 PUSH2 0x45E JUMP JUMPDEST PUSH1 0x40 MLOAD DUP1 SWAP2 SUB SWAP1 RETURN JUMPDEST PUSH2 0x1B6 PUSH2 0x307 JUMP JUMPDEST PUSH1 0x40 MLOAD PUSH2 0x1C3 SWAP2 SWAP1 PUSH2 0x39D JUMP JUMPDEST PUSH1 0x40 MLOAD DUP1 SWAP2 SUB SWAP1 RETURN JUMPDEST PUSH2 0x1D4 PUSH2 0x318 JUMP JUMPDEST PUSH1 0x40 MLOAD PUSH2 0x1E1 SWAP2 SWAP1 PUSH2 0x492 JUMP JUMPDEST PUSH1 0x40 MLOAD DUP1 SWAP2 SUB SWAP1 RETURN JUMPDEST PUSH2 0x1F2 PUSH2 0x31E JUMP JUMPDEST PUSH1 0x40 MLOAD PUSH2 0x1FF SWAP2 SWAP1 PUSH2 0x492 JUMP JUMPDEST PUSH1 0x40 MLOAD DUP1 SWAP2 SUB SWAP1 RETURN JUMPDEST PUSH2 0x210 PUSH2 0x324 JUMP JUMPDEST PUSH1 0x40 MLOAD PUSH2 0x21D SWAP2 SWAP1 PUSH2 0x492 JUMP JUMPDEST PUSH1 0x40 MLOAD DUP1 SWAP2 SUB SWAP1 RETURN JUMPDEST PUSH2 0x22E PUSH2 0x32A JUMP JUMPDEST PUSH1 0x40 MLOAD PUSH2 0x23B SWAP2 SWAP1 PUSH2 0x45E JUMP JUMPDEST PUSH1 0x40 MLOAD DUP1 SWAP2 SUB SWAP1 RETURN JUMPDEST PUSH2 0x24C PUSH2 0x33D JUMP JUMPDEST PUSH1 0x40 MLOAD PUSH2 0x259 SWAP2 SWAP1 PUSH2 0x4EE JUMP JUMPDEST PUSH1 0x40 MLOAD DUP1 SWAP2 SUB SWAP1 RETURN JUMPDEST PUSH2 0x26A PUSH2 0x363 JUMP JUMPDEST PUSH1 0x40 MLOAD PUSH2 0x277 SWAP2 SWAP1 PUSH2 0x492 JUMP JUMPDEST PUSH1 0x40 MLOAD DUP1 SWAP2 SUB SWAP1 RETURN JUMPDEST PUSH2 0x288 PUSH2 0x369 JUMP JUMPDEST PUSH1 0x40 MLOAD PUSH2 0x295 SWAP2 SWAP1 PUSH2 0x525 JUMP JUMPDEST PUSH1 0x40 MLOAD DUP1 SWAP2 SUB SWAP1 RETURN JUMPDEST PUSH2 0x2A6 PUSH2 0x37C JUMP JUMPDEST PUSH1 0x40 MLOAD PUSH2 0x2B3 SWAP2 SWAP1 PUSH2 0x492 JUMP JUMPDEST PUSH1 0x40 MLOAD DUP1 SWAP2 SUB SWAP1 RETURN JUMPDEST PUSH1 0x9 PUSH1 0x2 SWAP1 SLOAD SWAP1 PUSH2 0x100 EXP SWAP1 DIV PUSH1 0xFF AND DUP2 JUMP JUMPDEST PUSH1 0x3 PUSH1 0x0 SWAP1 SLOAD SWAP1 PUSH2 0x100 EXP SWAP1 DIV PUSH1 0x0 SIGNEXTEND DUP2 JUMP JUMPDEST PUSH1 0xA SLOAD DUP2 JUMP JUMPDEST PUSH1 0x2 SLOAD DUP2 JUMP JUMPDEST PUSH1 0x1 SLOAD DUP2 JUMP JUMPDEST PUSH1 0x9 PUSH1 0x1 SWAP1 SLOAD SWAP1 PUSH2 0x100 EXP SWAP1 DIV PUSH1 0xF8 SHL DUP2 JUMP JUMPDEST PUSH1 0x0 DUP1 SLOAD SWAP1 PUSH2 0x100 EXP SWAP1 DIV PUSH1 0xFF AND DUP2 JUMP JUMPDEST PUSH1 0x4 SLOAD DUP2 JUMP JUMPDEST PUSH1 0x8 SLOAD DUP2 JUMP JUMPDEST PUSH1 0x7 SLOAD DUP2 JUMP JUMPDEST PUSH1 0x9 PUSH1 0x0 SWAP1 SLOAD SWAP1 PUSH2 0x100 EXP SWAP1 DIV PUSH1 0xF8 SHL DUP2 JUMP JUMPDEST PUSH1 0xC PUSH1 0x0 SWAP1 SLOAD SWAP1 PUSH2 0x100 EXP SWAP1 DIV PUSH20 0xFFFFFFFFFFFFFFFFFFFFFFFFFFFFFFFFFFFFFFFF AND DUP2 JUMP JUMPDEST PUSH1 0x5 SLOAD DUP2 JUMP JUMPDEST PUSH1 0x0 PUSH1 0x1 SWAP1 SLOAD SWAP1 PUSH2 0x100 EXP SWAP1 DIV PUSH1 0xFF AND DUP2 JUMP JUMPDEST PUSH1 0xB SLOAD DUP2 JUMP JUMPDEST PUSH1 0x0 DUP2 ISZERO ISZERO SWAP1 POP SWAP2 SWAP1 POP JUMP JUMPDEST PUSH2 0x397 DUP2 PUSH2 0x382 JUMP JUMPDEST DUP3 MSTORE POP POP JUMP JUMPDEST PUSH1 0x0 PUSH1 0x20 DUP3 ADD SWAP1 POP PUSH2 0x3B2 PUSH1 0x0 DUP4 ADD DUP5 PUSH2 0x38E JUMP JUMPDEST SWAP3 SWAP2 POP POP JUMP JUMPDEST PUSH1 0x0 DUP2 PUSH1 0x0 SIGNEXTEND SWAP1 POP SWAP2 SWAP1 POP JUMP JUMPDEST PUSH2 0x3CE DUP2 PUSH2 0x3B8 JUMP JUMPDEST DUP3 MSTORE POP POP JUMP JUMPDEST PUSH1 0x0 PUSH1 0x20 DUP3 ADD SWAP1 POP PUSH2 0x3E9 PUSH1 0x0 DUP4 ADD DUP5 PUSH2 0x3C5 JUMP JUMPDEST SWAP3 SWAP2 POP POP JUMP JUMPDEST PUSH1 0x0 DUP2 SWAP1 POP SWAP2 SWAP1 POP JUMP JUMPDEST PUSH2 0x402 DUP2 PUSH2 0x3EF JUMP JUMPDEST DUP3 MSTORE POP POP JUMP JUMPDEST PUSH1 0x0 PUSH1 0x20 DUP3 ADD SWAP1 POP PUSH2 0x41D PUSH1 0x0 DUP4 ADD DUP5 PUSH2 0x3F9 JUMP JUMPDEST SWAP3 SWAP2 POP POP JUMP JUMPDEST PUSH1 0x0 PUSH32 0xFF00000000000000000000000000000000000000000000000000000000000000 DUP3 AND SWAP1 POP SWAP2 SWAP1 POP JUMP JUMPDEST PUSH2 0x458 DUP2 PUSH2 0x423 JUMP JUMPDEST DUP3 MSTORE POP POP JUMP JUMPDEST PUSH1 0x0 PUSH1 0x20 DUP3 ADD SWAP1 POP PUSH2 0x473 PUSH1 0x0 DUP4 ADD DUP5 PUSH2 0x44F JUMP JUMPDEST SWAP3 SWAP2 POP POP JUMP JUMPDEST PUSH1 0x0 DUP2 SWAP1 POP SWAP2 SWAP1 POP JUMP JUMPDEST PUSH2 0x48C DUP2 PUSH2 0x479 JUMP JUMPDEST DUP3 MSTORE POP POP JUMP JUMPDEST PUSH1 0x0 PUSH1 0x20 DUP3 ADD SWAP1 POP PUSH2 0x4A7 PUSH1 0x0 DUP4 ADD DUP5 PUSH2 0x483 JUMP JUMPDEST SWAP3 SWAP2 POP POP JUMP JUMPDEST PUSH1 0x0 PUSH20 0xFFFFFFFFFFFFFFFFFFFFFFFFFFFFFFFFFFFFFFFF DUP3 AND SWAP1 POP SWAP2 SWAP1 POP JUMP JUMPDEST PUSH1 0x0 PUSH2 0x4D8 DUP3 PUSH2 0x4AD JUMP JUMPDEST SWAP1 POP SWAP2 SWAP1 POP JUMP JUMPDEST PUSH2 0x4E8 DUP2 PUSH2 0x4CD JUMP JUMPDEST DUP3 MSTORE POP POP JUMP JUMPDEST PUSH1 0x0 PUSH1 0x20 DUP3 ADD SWAP1 POP PUSH2 0x503 PUSH1 0x0 DUP4 ADD DUP5 PUSH2 0x4DF JUMP JUMPDEST SWAP3 SWAP2 POP POP JUMP JUMPDEST PUSH1 0x0 PUSH1 0xFF DUP3 AND SWAP1 POP SWAP2 SWAP1 POP JUMP JUMPDEST PUSH2 0x51F DUP2 PUSH2 0x509 JUMP JUMPDEST DUP3 MSTORE POP POP JUMP JUMPDEST PUSH1 0x0 PUSH1 0x20 DUP3 ADD SWAP1 POP PUSH2 0x53A PUSH1 0x0 DUP4 ADD DUP5 PUSH2 0x516 JUMP JUMPDEST SWAP3 SWAP2 POP POP JUMP INVALID LOG2 PUSH5 0x6970667358 0x22 SLT KECCAK256 EQ 0xBD SWAP10 JUMPDEST SDIV CALLDATALOAD SWAP2 PUSH12 0x311389FB5AC47CE70DDD5B01 0x5C MULMOD 0xC6 0xD6 DUP16 DUP3 0x2A MSTORE 0xC5 0xF9 PUSH2 0x1D64 PUSH20 0x6F6C634300081000330000000000000000000000 "
				},
				"gasEstimates": {
					"creation": {
						"codeDepositCost": "279600",
						"executionCost": "278676",
						"totalCost": "558276"
					},
					"external": {
						"bs1()": "2560",
						"defauleInt()": "2517",
						"defaultAdr()": "2536",
						"defaultBoo()": "2545",
						"defaultUint()": "2497",
						"maxInt()": "2474",
						"minInt()": "2496",
						"myBool()": "2557",
						"s1()": "2588",
						"u1()": "2452",
						"u256()": "2474",
						"u8()": "2587",
						"uae()": "2521",
						"uae22()": "2473",
						"uae256()": "2452"
					}
				},
				"methodIdentifiers": {
					"bs1()": "87f8dfbe",
					"defauleInt()": "ff465184",
					"defaultAdr()": "9caaf2f4",
					"defaultBoo()": "074eef3f",
					"defaultUint()": "1570c2cb",
					"maxInt()": "7a4c2571",
					"minInt()": "7e4e14cc",
					"myBool()": "6deecdbe",
					"s1()": "6cc014de",
					"u1()": "1aa35610",
					"u256()": "459b1acf",
					"u8()": "ab3a58a3",
					"uae()": "0cccc773",
					"uae22()": "a33a3f37",
					"uae256()": "71a2a3df"
				}
			},
			"storageLayout": {
				"storage": [
					{
						"astId": 4,
						"contract": "primitive.sol:primitive",
						"label": "myBool",
						"offset": 0,
						"slot": "0",
						"type": "t_bool"
					},
					{
						"astId": 7,
						"contract": "primitive.sol:primitive",
						"label": "u8",
						"offset": 1,
						"slot": "0",
						"type": "t_uint8"
					},
					{
						"astId": 10,
						"contract": "primitive.sol:primitive",
						"label": "u256",
						"offset": 0,
						"slot": "1",
						"type": "t_uint256"
					},
					{
						"astId": 13,
						"contract": "primitive.sol:primitive",
						"label": "u1",
						"offset": 0,
						"slot": "2",
						"type": "t_uint256"
					},
					{
						"astId": 17,
						"contract": "primitive.sol:primitive",
						"label": "uae",
						"offset": 0,
						"slot": "3",
						"type": "t_int8"
					},
					{
						"astId": 20,
						"contract": "primitive.sol:primitive",
						"label": "uae256",
						"offset": 0,
						"slot": "4",
						"type": "t_int256"
					},
					{
						"astId": 24,
						"contract": "primitive.sol:primitive",
						"label": "uae22",
						"offset": 0,
						"slot": "5",
						"type": "t_int256"
					},
					{
						"astId": 27,
						"contract": "primitive.sol:primitive",
						"label": "adr",
						"offset": 0,
						"slot": "6",
						"type": "t_address"
					},
					{
						"astId": 34,
						"contract": "primitive.sol:primitive",
						"label": "minInt",
						"offset": 0,
						"slot": "7",
						"type": "t_int256"
					},
					{
						"astId": 41,
						"contract": "primitive.sol:primitive",
						"label": "maxInt",
						"offset": 0,
						"slot": "8",
						"type": "t_int256"
					},
					{
						"astId": 44,
						"contract": "primitive.sol:primitive",
						"label": "bs1",
						"offset": 0,
						"slot": "9",
						"type": "t_bytes1"
					},
					{
						"astId": 47,
						"contract": "primitive.sol:primitive",
						"label": "s1",
						"offset": 1,
						"slot": "9",
						"type": "t_bytes1"
					},
					{
						"astId": 49,
						"contract": "primitive.sol:primitive",
						"label": "defaultBoo",
						"offset": 2,
						"slot": "9",
						"type": "t_bool"
					},
					{
						"astId": 51,
						"contract": "primitive.sol:primitive",
						"label": "defaultUint",
						"offset": 0,
						"slot": "10",
						"type": "t_uint256"
					},
					{
						"astId": 53,
						"contract": "primitive.sol:primitive",
						"label": "defauleInt",
						"offset": 0,
						"slot": "11",
						"type": "t_int256"
					},
					{
						"astId": 55,
						"contract": "primitive.sol:primitive",
						"label": "defaultAdr",
						"offset": 0,
						"slot": "12",
						"type": "t_address"
					}
				],
				"types": {
					"t_address": {
						"encoding": "inplace",
						"label": "address",
						"numberOfBytes": "20"
					},
					"t_bool": {
						"encoding": "inplace",
						"label": "bool",
						"numberOfBytes": "1"
					},
					"t_bytes1": {
						"encoding": "inplace",
						"label": "bytes1",
						"numberOfBytes": "1"
					},
					"t_int256": {
						"encoding": "inplace",
						"label": "int256",
						"numberOfBytes": "32"
					},
					"t_int8": {
						"encoding": "inplace",
						"label": "int8",
						"numberOfBytes": "1"
					},
					"t_uint256": {
						"encoding": "inplace",
						"label": "uint256",
						"numberOfBytes": "32"
					},
					"t_uint8": {
						"encoding": "inplace",
						"label": "uint8",
						"numberOfBytes": "1"
					}
				}
			},
			"userdoc": {
				"kind": "user",
				"methods": {},
				"version": 1
			}
		}
	}
}