{
	"Contracts/votingSystem.sol": {
		"votingSystem": {
			"abi": [
				{
					"inputs": [
						{
							"internalType": "string[]",
							"name": "_candidateNames",
							"type": "string[]"
						}
					],
					"stateMutability": "nonpayable",
					"type": "constructor"
				},
				{
					"anonymous": false,
					"inputs": [
						{
							"indexed": true,
							"internalType": "address",
							"name": "voter",
							"type": "address"
						},
						{
							"indexed": true,
							"internalType": "uint256",
							"name": "candidateId",
							"type": "uint256"
						}
					],
					"name": "voteCast",
					"type": "event"
				},
				{
					"inputs": [],
					"name": "MAX_VOTERS",
					"outputs": [
						{
							"internalType": "uint256",
							"name": "",
							"type": "uint256"
						}
					],
					"stateMutability": "view",
					"type": "function"
				},
				{
					"inputs": [
						{
							"internalType": "uint256",
							"name": "",
							"type": "uint256"
						},
						{
							"internalType": "uint256",
							"name": "",
							"type": "uint256"
						}
					],
					"name": "candidates",
					"outputs": [
						{
							"internalType": "string",
							"name": "name",
							"type": "string"
						},
						{
							"internalType": "uint256",
							"name": "voteCount",
							"type": "uint256"
						}
					],
					"stateMutability": "view",
					"type": "function"
				},
				{
					"inputs": [],
					"name": "closeVoting",
					"outputs": [],
					"stateMutability": "nonpayable",
					"type": "function"
				},
				{
					"inputs": [],
					"name": "electionId",
					"outputs": [
						{
							"internalType": "uint256",
							"name": "",
							"type": "uint256"
						}
					],
					"stateMutability": "view",
					"type": "function"
				},
				{
					"inputs": [],
					"name": "getAllCandidate",
					"outputs": [
						{
							"components": [
								{
									"internalType": "string",
									"name": "name",
									"type": "string"
								},
								{
									"internalType": "uint256",
									"name": "voteCount",
									"type": "uint256"
								}
							],
							"internalType": "struct votingSystem.Candidate[]",
							"name": "",
							"type": "tuple[]"
						}
					],
					"stateMutability": "view",
					"type": "function"
				},
				{
					"inputs": [
						{
							"internalType": "uint256",
							"name": "candidateId",
							"type": "uint256"
						}
					],
					"name": "getCandidateName",
					"outputs": [
						{
							"internalType": "string",
							"name": "",
							"type": "string"
						}
					],
					"stateMutability": "view",
					"type": "function"
				},
				{
					"inputs": [
						{
							"internalType": "uint256",
							"name": "candidateId",
							"type": "uint256"
						}
					],
					"name": "getResult",
					"outputs": [
						{
							"internalType": "uint256",
							"name": "",
							"type": "uint256"
						}
					],
					"stateMutability": "view",
					"type": "function"
				},
				{
					"inputs": [],
					"name": "getTiedWinners",
					"outputs": [
						{
							"internalType": "uint256[]",
							"name": "",
							"type": "uint256[]"
						}
					],
					"stateMutability": "view",
					"type": "function"
				},
				{
					"inputs": [],
					"name": "getWinner",
					"outputs": [
						{
							"internalType": "uint256",
							"name": "winnerId",
							"type": "uint256"
						}
					],
					"stateMutability": "view",
					"type": "function"
				},
				{
					"inputs": [
						{
							"internalType": "uint256",
							"name": "",
							"type": "uint256"
						},
						{
							"internalType": "address",
							"name": "",
							"type": "address"
						}
					],
					"name": "hasVoted",
					"outputs": [
						{
							"internalType": "bool",
							"name": "",
							"type": "bool"
						}
					],
					"stateMutability": "view",
					"type": "function"
				},
				{
					"inputs": [],
					"name": "isClosed",
					"outputs": [
						{
							"internalType": "bool",
							"name": "",
							"type": "bool"
						}
					],
					"stateMutability": "view",
					"type": "function"
				},
				{
					"inputs": [
						{
							"internalType": "uint256",
							"name": "",
							"type": "uint256"
						},
						{
							"internalType": "address",
							"name": "",
							"type": "address"
						}
					],
					"name": "isRegistered",
					"outputs": [
						{
							"internalType": "bool",
							"name": "",
							"type": "bool"
						}
					],
					"stateMutability": "view",
					"type": "function"
				},
				{
					"inputs": [],
					"name": "isVotingOpen",
					"outputs": [
						{
							"internalType": "bool",
							"name": "",
							"type": "bool"
						}
					],
					"stateMutability": "view",
					"type": "function"
				},
				{
					"inputs": [],
					"name": "numCandidates",
					"outputs": [
						{
							"internalType": "uint256",
							"name": "",
							"type": "uint256"
						}
					],
					"stateMutability": "view",
					"type": "function"
				},
				{
					"inputs": [],
					"name": "owner",
					"outputs": [
						{
							"internalType": "address",
							"name": "",
							"type": "address"
						}
					],
					"stateMutability": "view",
					"type": "function"
				},
				{
					"inputs": [
						{
							"internalType": "address",
							"name": "_voter",
							"type": "address"
						}
					],
					"name": "registerVoter",
					"outputs": [],
					"stateMutability": "nonpayable",
					"type": "function"
				},
				{
					"inputs": [
						{
							"internalType": "string[]",
							"name": "_candidateNames",
							"type": "string[]"
						}
					],
					"name": "resetElection",
					"outputs": [],
					"stateMutability": "nonpayable",
					"type": "function"
				},
				{
					"inputs": [
						{
							"internalType": "uint256",
							"name": "candidateId",
							"type": "uint256"
						}
					],
					"name": "vote",
					"outputs": [],
					"stateMutability": "nonpayable",
					"type": "function"
				},
				{
					"inputs": [
						{
							"internalType": "uint256",
							"name": "",
							"type": "uint256"
						}
					],
					"name": "voteCount",
					"outputs": [
						{
							"internalType": "uint256",
							"name": "",
							"type": "uint256"
						}
					],
					"stateMutability": "view",
					"type": "function"
				},
				{
					"inputs": [],
					"name": "votingDeadline",
					"outputs": [
						{
							"internalType": "uint256",
							"name": "",
							"type": "uint256"
						}
					],
					"stateMutability": "view",
					"type": "function"
				}
			],
			"devdoc": {
				"kind": "dev",
				"methods": {},
				"version": 1
			},
			"evm": {
				"assembly": "    /* \"Contracts/votingSystem.sol\":181:5369  contract votingSystem{... */\n  mstore(0x40, 0xa0)\n    /* \"Contracts/votingSystem.sol\":1152:1468  constructor(string[] memory _candidateNames){... */\n  callvalue\n  dup1\n  iszero\n  tag_1\n  jumpi\n  0x00\n  dup1\n  revert\ntag_1:\n  pop\n  mload(0x40)\n  sub(codesize, bytecodeSize)\n  dup1\n  bytecodeSize\n  dup4\n  codecopy\n  dup2\n  dup2\n  add\n  0x40\n  mstore\n  dup2\n  add\n  swap1\n  tag_2\n  swap2\n  swap1\n  tag_3\n  jump\t// in\ntag_2:\n    /* \"Contracts/votingSystem.sol\":1241:1247  1 days */\n  0x015180\n    /* \"Contracts/votingSystem.sol\":1223:1238  block.timestamp */\n  timestamp\n    /* \"Contracts/votingSystem.sol\":1223:1247  block.timestamp + 1 days */\n  tag_6\n  swap2\n  swap1\n  tag_7\n  jump\t// in\ntag_6:\n    /* \"Contracts/votingSystem.sol\":1206:1247  votingDeadline = block.timestamp + 1 days */\n  0x80\n  dup2\n  dup2\n  mstore\n  pop\n  pop\n    /* \"Contracts/votingSystem.sol\":1265:1275  msg.sender */\n  caller\n    /* \"Contracts/votingSystem.sol\":1257:1262  owner */\n  0x05\n  0x01\n    /* \"Contracts/votingSystem.sol\":1257:1275  owner = msg.sender */\n  0x0100\n  exp\n  dup2\n  sload\n  dup2\n  0xffffffffffffffffffffffffffffffffffffffff\n  mul\n  not\n  and\n  swap1\n  dup4\n  0xffffffffffffffffffffffffffffffffffffffff\n  and\n  mul\n  or\n  swap1\n  sstore\n  pop\n    /* \"Contracts/votingSystem.sol\":1301:1316  _candidateNames */\n  dup1\n    /* \"Contracts/votingSystem.sol\":1301:1323  _candidateNames.length */\n  mload\n    /* \"Contracts/votingSystem.sol\":1285:1298  numCandidates */\n  0x00\n    /* \"Contracts/votingSystem.sol\":1285:1323  numCandidates = _candidateNames.length */\n  dup2\n  swap1\n  sstore\n  pop\n    /* \"Contracts/votingSystem.sol\":1338:1347  uint256 i */\n  0x00\n    /* \"Contracts/votingSystem.sol\":1334:1462  for(uint256 i = 0; i < numCandidates ; i++){... */\ntag_8:\n    /* \"Contracts/votingSystem.sol\":1357:1370  numCandidates */\n  sload(0x00)\n    /* \"Contracts/votingSystem.sol\":1353:1354  i */\n  dup2\n    /* \"Contracts/votingSystem.sol\":1353:1370  i < numCandidates */\n  lt\n    /* \"Contracts/votingSystem.sol\":1334:1462  for(uint256 i = 0; i < numCandidates ; i++){... */\n  iszero\n  tag_9\n  jumpi\n    /* \"Contracts/votingSystem.sol\":1419:1451  Candidate(_candidateNames[i], 0) */\n  mload(0x40)\n  dup1\n  0x40\n  add\n  0x40\n  mstore\n  dup1\n    /* \"Contracts/votingSystem.sol\":1429:1444  _candidateNames */\n  dup4\n    /* \"Contracts/votingSystem.sol\":1445:1446  i */\n  dup4\n    /* \"Contracts/votingSystem.sol\":1429:1447  _candidateNames[i] */\n  dup2\n  mload\n  dup2\n  lt\n  tag_11\n  jumpi\n  tag_12\n  tag_13\n  jump\t// in\ntag_12:\ntag_11:\n  0x20\n  mul\n  0x20\n  add\n  add\n  mload\n    /* \"Contracts/votingSystem.sol\":1419:1451  Candidate(_candidateNames[i], 0) */\n  dup2\n  mstore\n  0x20\n  add\n    /* \"Contracts/votingSystem.sol\":1449:1450  0 */\n  0x00\n    /* \"Contracts/votingSystem.sol\":1419:1451  Candidate(_candidateNames[i], 0) */\n  dup2\n  mstore\n  pop\n    /* \"Contracts/votingSystem.sol\":1391:1401  candidates */\n  0x01\n    /* \"Contracts/votingSystem.sol\":1391:1413  candidates[electionId] */\n  0x00\n    /* \"Contracts/votingSystem.sol\":1402:1412  electionId */\n  sload(0x06)\n    /* \"Contracts/votingSystem.sol\":1391:1413  candidates[electionId] */\n  dup2\n  mstore\n  0x20\n  add\n  swap1\n  dup2\n  mstore\n  0x20\n  add\n  0x00\n  keccak256\n    /* \"Contracts/votingSystem.sol\":1391:1416  candidates[electionId][i] */\n  0x00\n    /* \"Contracts/votingSystem.sol\":1414:1415  i */\n  dup4\n    /* \"Contracts/votingSystem.sol\":1391:1416  candidates[electionId][i] */\n  dup2\n  mstore\n  0x20\n  add\n  swap1\n  dup2\n  mstore\n  0x20\n  add\n  0x00\n  keccak256\n    /* \"Contracts/votingSystem.sol\":1391:1451  candidates[electionId][i] = Candidate(_candidateNames[i], 0) */\n  0x00\n  dup3\n  add\n  mload\n  dup2\n  0x00\n  add\n  swap1\n  dup2\n  tag_14\n  swap2\n  swap1\n  tag_15\n  jump\t// in\ntag_14:\n  pop\n  0x20\n  dup3\n  add\n  mload\n  dup2\n  0x01\n  add\n  sstore\n  swap1\n  pop\n  pop\n    /* \"Contracts/votingSystem.sol\":1373:1376  i++ */\n  dup1\n  dup1\n  tag_16\n  swap1\n  tag_17\n  jump\t// in\ntag_16:\n  swap2\n  pop\n  pop\n    /* \"Contracts/votingSystem.sol\":1334:1462  for(uint256 i = 0; i < numCandidates ; i++){... */\n  jump(tag_8)\ntag_9:\n  pop\n    /* \"Contracts/votingSystem.sol\":1152:1468  constructor(string[] memory _candidateNames){... */\n  pop\n    /* \"Contracts/votingSystem.sol\":181:5369  contract votingSystem{... */\n  jump(tag_18)\n    /* \"#utility.yul\":7:82   */\ntag_19:\n    /* \"#utility.yul\":40:46   */\n  0x00\n    /* \"#utility.yul\":73:75   */\n  0x40\n    /* \"#utility.yul\":67:76   */\n  mload\n    /* \"#utility.yul\":57:76   */\n  swap1\n  pop\n    /* \"#utility.yul\":7:82   */\n  swap1\n  jump\t// out\n    /* \"#utility.yul\":88:205   */\ntag_20:\n    /* \"#utility.yul\":197:198   */\n  0x00\n    /* \"#utility.yul\":194:195   */\n  dup1\n    /* \"#utility.yul\":187:199   */\n  revert\n    /* \"#utility.yul\":211:328   */\ntag_21:\n    /* \"#utility.yul\":320:321   */\n  0x00\n    /* \"#utility.yul\":317:318   */\n  dup1\n    /* \"#utility.yul\":310:322   */\n  revert\n    /* \"#utility.yul\":334:451   */\ntag_22:\n    /* \"#utility.yul\":443:444   */\n  0x00\n    /* \"#utility.yul\":440:441   */\n  dup1\n    /* \"#utility.yul\":433:445   */\n  revert\n    /* \"#utility.yul\":457:559   */\ntag_23:\n    /* \"#utility.yul\":498:504   */\n  0x00\n    /* \"#utility.yul\":549:551   */\n  0x1f\n    /* \"#utility.yul\":545:552   */\n  not\n    /* \"#utility.yul\":540:542   */\n  0x1f\n    /* \"#utility.yul\":533:538   */\n  dup4\n    /* \"#utility.yul\":529:543   */\n  add\n    /* \"#utility.yul\":525:553   */\n  and\n    /* \"#utility.yul\":515:553   */\n  swap1\n  pop\n    /* \"#utility.yul\":457:559   */\n  swap2\n  swap1\n  pop\n  jump\t// out\n    /* \"#utility.yul\":565:745   */\ntag_24:\n    /* \"#utility.yul\":613:690   */\n  0x4e487b7100000000000000000000000000000000000000000000000000000000\n    /* \"#utility.yul\":610:611   */\n  0x00\n    /* \"#utility.yul\":603:691   */\n  mstore\n    /* \"#utility.yul\":710:714   */\n  0x41\n    /* \"#utility.yul\":707:708   */\n  0x04\n    /* \"#utility.yul\":700:715   */\n  mstore\n    /* \"#utility.yul\":734:738   */\n  0x24\n    /* \"#utility.yul\":731:732   */\n  0x00\n    /* \"#utility.yul\":724:739   */\n  revert\n    /* \"#utility.yul\":751:1032   */\ntag_25:\n    /* \"#utility.yul\":834:861   */\n  tag_64\n    /* \"#utility.yul\":856:860   */\n  dup3\n    /* \"#utility.yul\":834:861   */\n  tag_23\n  jump\t// in\ntag_64:\n    /* \"#utility.yul\":826:832   */\n  dup2\n    /* \"#utility.yul\":822:862   */\n  add\n    /* \"#utility.yul\":964:970   */\n  dup2\n    /* \"#utility.yul\":952:962   */\n  dup2\n    /* \"#utility.yul\":949:971   */\n  lt\n    /* \"#utility.yul\":928:946   */\n  0xffffffffffffffff\n    /* \"#utility.yul\":916:926   */\n  dup3\n    /* \"#utility.yul\":913:947   */\n  gt\n    /* \"#utility.yul\":910:972   */\n  or\n    /* \"#utility.yul\":907:995   */\n  iszero\n  tag_65\n  jumpi\n    /* \"#utility.yul\":975:993   */\n  tag_66\n  tag_24\n  jump\t// in\ntag_66:\n    /* \"#utility.yul\":907:995   */\ntag_65:\n    /* \"#utility.yul\":1015:1025   */\n  dup1\n    /* \"#utility.yul\":1011:1013   */\n  0x40\n    /* \"#utility.yul\":1004:1026   */\n  mstore\n    /* \"#utility.yul\":794:1032   */\n  pop\n    /* \"#utility.yul\":751:1032   */\n  pop\n  pop\n  jump\t// out\n    /* \"#utility.yul\":1038:1167   */\ntag_26:\n    /* \"#utility.yul\":1072:1078   */\n  0x00\n    /* \"#utility.yul\":1099:1119   */\n  tag_68\n  tag_19\n  jump\t// in\ntag_68:\n    /* \"#utility.yul\":1089:1119   */\n  swap1\n  pop\n    /* \"#utility.yul\":1128:1161   */\n  tag_69\n    /* \"#utility.yul\":1156:1160   */\n  dup3\n    /* \"#utility.yul\":1148:1154   */\n  dup3\n    /* \"#utility.yul\":1128:1161   */\n  tag_25\n  jump\t// in\ntag_69:\n    /* \"#utility.yul\":1038:1167   */\n  swap2\n  swap1\n  pop\n  jump\t// out\n    /* \"#utility.yul\":1173:1494   */\ntag_27:\n    /* \"#utility.yul\":1260:1264   */\n  0x00\n    /* \"#utility.yul\":1350:1368   */\n  0xffffffffffffffff\n    /* \"#utility.yul\":1342:1348   */\n  dup3\n    /* \"#utility.yul\":1339:1369   */\n  gt\n    /* \"#utility.yul\":1336:1392   */\n  iszero\n  tag_71\n  jumpi\n    /* \"#utility.yul\":1372:1390   */\n  tag_72\n  tag_24\n  jump\t// in\ntag_72:\n    /* \"#utility.yul\":1336:1392   */\ntag_71:\n    /* \"#utility.yul\":1422:1426   */\n  0x20\n    /* \"#utility.yul\":1414:1420   */\n  dup3\n    /* \"#utility.yul\":1410:1427   */\n  mul\n    /* \"#utility.yul\":1402:1427   */\n  swap1\n  pop\n    /* \"#utility.yul\":1482:1486   */\n  0x20\n    /* \"#utility.yul\":1476:1480   */\n  dup2\n    /* \"#utility.yul\":1472:1487   */\n  add\n    /* \"#utility.yul\":1464:1487   */\n  swap1\n  pop\n    /* \"#utility.yul\":1173:1494   */\n  swap2\n  swap1\n  pop\n  jump\t// out\n    /* \"#utility.yul\":1500:1617   */\ntag_28:\n    /* \"#utility.yul\":1609:1610   */\n  0x00\n    /* \"#utility.yul\":1606:1607   */\n  dup1\n    /* \"#utility.yul\":1599:1611   */\n  revert\n    /* \"#utility.yul\":1623:1740   */\ntag_29:\n    /* \"#utility.yul\":1732:1733   */\n  0x00\n    /* \"#utility.yul\":1729:1730   */\n  dup1\n    /* \"#utility.yul\":1722:1734   */\n  revert\n    /* \"#utility.yul\":1746:2054   */\ntag_30:\n    /* \"#utility.yul\":1808:1812   */\n  0x00\n    /* \"#utility.yul\":1898:1916   */\n  0xffffffffffffffff\n    /* \"#utility.yul\":1890:1896   */\n  dup3\n    /* \"#utility.yul\":1887:1917   */\n  gt\n    /* \"#utility.yul\":1884:1940   */\n  iszero\n  tag_76\n  jumpi\n    /* \"#utility.yul\":1920:1938   */\n  tag_77\n  tag_24\n  jump\t// in\ntag_77:\n    /* \"#utility.yul\":1884:1940   */\ntag_76:\n    /* \"#utility.yul\":1958:1987   */\n  tag_78\n    /* \"#utility.yul\":1980:1986   */\n  dup3\n    /* \"#utility.yul\":1958:1987   */\n  tag_23\n  jump\t// in\ntag_78:\n    /* \"#utility.yul\":1950:1987   */\n  swap1\n  pop\n    /* \"#utility.yul\":2042:2046   */\n  0x20\n    /* \"#utility.yul\":2036:2040   */\n  dup2\n    /* \"#utility.yul\":2032:2047   */\n  add\n    /* \"#utility.yul\":2024:2047   */\n  swap1\n  pop\n    /* \"#utility.yul\":1746:2054   */\n  swap2\n  swap1\n  pop\n  jump\t// out\n    /* \"#utility.yul\":2060:2306   */\ntag_31:\n    /* \"#utility.yul\":2141:2142   */\n  0x00\n    /* \"#utility.yul\":2151:2264   */\ntag_80:\n    /* \"#utility.yul\":2165:2171   */\n  dup4\n    /* \"#utility.yul\":2162:2163   */\n  dup2\n    /* \"#utility.yul\":2159:2172   */\n  lt\n    /* \"#utility.yul\":2151:2264   */\n  iszero\n  tag_82\n  jumpi\n    /* \"#utility.yul\":2250:2251   */\n  dup1\n    /* \"#utility.yul\":2245:2248   */\n  dup3\n    /* \"#utility.yul\":2241:2252   */\n  add\n    /* \"#utility.yul\":2235:2253   */\n  mload\n    /* \"#utility.yul\":2231:2232   */\n  dup2\n    /* \"#utility.yul\":2226:2229   */\n  dup5\n    /* \"#utility.yul\":2222:2233   */\n  add\n    /* \"#utility.yul\":2215:2254   */\n  mstore\n    /* \"#utility.yul\":2187:2189   */\n  0x20\n    /* \"#utility.yul\":2184:2185   */\n  dup2\n    /* \"#utility.yul\":2180:2190   */\n  add\n    /* \"#utility.yul\":2175:2190   */\n  swap1\n  pop\n    /* \"#utility.yul\":2151:2264   */\n  jump(tag_80)\ntag_82:\n    /* \"#utility.yul\":2298:2299   */\n  0x00\n    /* \"#utility.yul\":2289:2295   */\n  dup5\n    /* \"#utility.yul\":2284:2287   */\n  dup5\n    /* \"#utility.yul\":2280:2296   */\n  add\n    /* \"#utility.yul\":2273:2300   */\n  mstore\n    /* \"#utility.yul\":2122:2306   */\n  pop\n    /* \"#utility.yul\":2060:2306   */\n  pop\n  pop\n  pop\n  jump\t// out\n    /* \"#utility.yul\":2312:2746   */\ntag_32:\n    /* \"#utility.yul\":2401:2406   */\n  0x00\n    /* \"#utility.yul\":2426:2492   */\n  tag_84\n    /* \"#utility.yul\":2442:2491   */\n  tag_85\n    /* \"#utility.yul\":2484:2490   */\n  dup5\n    /* \"#utility.yul\":2442:2491   */\n  tag_30\n  jump\t// in\ntag_85:\n    /* \"#utility.yul\":2426:2492   */\n  tag_26\n  jump\t// in\ntag_84:\n    /* \"#utility.yul\":2417:2492   */\n  swap1\n  pop\n    /* \"#utility.yul\":2515:2521   */\n  dup3\n    /* \"#utility.yul\":2508:2513   */\n  dup2\n    /* \"#utility.yul\":2501:2522   */\n  mstore\n    /* \"#utility.yul\":2553:2557   */\n  0x20\n    /* \"#utility.yul\":2546:2551   */\n  dup2\n    /* \"#utility.yul\":2542:2558   */\n  add\n    /* \"#utility.yul\":2591:2594   */\n  dup5\n    /* \"#utility.yul\":2582:2588   */\n  dup5\n    /* \"#utility.yul\":2577:2580   */\n  dup5\n    /* \"#utility.yul\":2573:2589   */\n  add\n    /* \"#utility.yul\":2570:2595   */\n  gt\n    /* \"#utility.yul\":2567:2679   */\n  iszero\n  tag_86\n  jumpi\n    /* \"#utility.yul\":2598:2677   */\n  tag_87\n  tag_29\n  jump\t// in\ntag_87:\n    /* \"#utility.yul\":2567:2679   */\ntag_86:\n    /* \"#utility.yul\":2688:2740   */\n  tag_88\n    /* \"#utility.yul\":2733:2739   */\n  dup5\n    /* \"#utility.yul\":2728:2731   */\n  dup3\n    /* \"#utility.yul\":2723:2726   */\n  dup6\n    /* \"#utility.yul\":2688:2740   */\n  tag_31\n  jump\t// in\ntag_88:\n    /* \"#utility.yul\":2407:2746   */\n  pop\n    /* \"#utility.yul\":2312:2746   */\n  swap4\n  swap3\n  pop\n  pop\n  pop\n  jump\t// out\n    /* \"#utility.yul\":2766:3121   */\ntag_33:\n    /* \"#utility.yul\":2833:2838   */\n  0x00\n    /* \"#utility.yul\":2882:2885   */\n  dup3\n    /* \"#utility.yul\":2875:2879   */\n  0x1f\n    /* \"#utility.yul\":2867:2873   */\n  dup4\n    /* \"#utility.yul\":2863:2880   */\n  add\n    /* \"#utility.yul\":2859:2886   */\n  slt\n    /* \"#utility.yul\":2849:2971   */\n  tag_90\n  jumpi\n    /* \"#utility.yul\":2890:2969   */\n  tag_91\n  tag_22\n  jump\t// in\ntag_91:\n    /* \"#utility.yul\":2849:2971   */\ntag_90:\n    /* \"#utility.yul\":3000:3006   */\n  dup2\n    /* \"#utility.yul\":2994:3007   */\n  mload\n    /* \"#utility.yul\":3025:3115   */\n  tag_92\n    /* \"#utility.yul\":3111:3114   */\n  dup5\n    /* \"#utility.yul\":3103:3109   */\n  dup3\n    /* \"#utility.yul\":3096:3100   */\n  0x20\n    /* \"#utility.yul\":3088:3094   */\n  dup7\n    /* \"#utility.yul\":3084:3101   */\n  add\n    /* \"#utility.yul\":3025:3115   */\n  tag_32\n  jump\t// in\ntag_92:\n    /* \"#utility.yul\":3016:3115   */\n  swap2\n  pop\n    /* \"#utility.yul\":2839:3121   */\n  pop\n    /* \"#utility.yul\":2766:3121   */\n  swap3\n  swap2\n  pop\n  pop\n  jump\t// out\n    /* \"#utility.yul\":3143:4103   */\ntag_34:\n    /* \"#utility.yul\":3260:3265   */\n  0x00\n    /* \"#utility.yul\":3285:3376   */\n  tag_94\n    /* \"#utility.yul\":3301:3375   */\n  tag_95\n    /* \"#utility.yul\":3368:3374   */\n  dup5\n    /* \"#utility.yul\":3301:3375   */\n  tag_27\n  jump\t// in\ntag_95:\n    /* \"#utility.yul\":3285:3376   */\n  tag_26\n  jump\t// in\ntag_94:\n    /* \"#utility.yul\":3276:3376   */\n  swap1\n  pop\n    /* \"#utility.yul\":3396:3401   */\n  dup1\n    /* \"#utility.yul\":3425:3431   */\n  dup4\n    /* \"#utility.yul\":3418:3423   */\n  dup3\n    /* \"#utility.yul\":3411:3432   */\n  mstore\n    /* \"#utility.yul\":3459:3463   */\n  0x20\n    /* \"#utility.yul\":3452:3457   */\n  dup3\n    /* \"#utility.yul\":3448:3464   */\n  add\n    /* \"#utility.yul\":3441:3464   */\n  swap1\n  pop\n    /* \"#utility.yul\":3512:3516   */\n  0x20\n    /* \"#utility.yul\":3504:3510   */\n  dup5\n    /* \"#utility.yul\":3500:3517   */\n  mul\n    /* \"#utility.yul\":3492:3498   */\n  dup4\n    /* \"#utility.yul\":3488:3518   */\n  add\n    /* \"#utility.yul\":3541:3544   */\n  dup6\n    /* \"#utility.yul\":3533:3539   */\n  dup2\n    /* \"#utility.yul\":3530:3545   */\n  gt\n    /* \"#utility.yul\":3527:3649   */\n  iszero\n  tag_96\n  jumpi\n    /* \"#utility.yul\":3560:3639   */\n  tag_97\n  tag_28\n  jump\t// in\ntag_97:\n    /* \"#utility.yul\":3527:3649   */\ntag_96:\n    /* \"#utility.yul\":3675:3681   */\n  dup4\n    /* \"#utility.yul\":3658:4097   */\ntag_98:\n    /* \"#utility.yul\":3692:3698   */\n  dup2\n    /* \"#utility.yul\":3687:3690   */\n  dup2\n    /* \"#utility.yul\":3684:3699   */\n  lt\n    /* \"#utility.yul\":3658:4097   */\n  iszero\n  tag_100\n  jumpi\n    /* \"#utility.yul\":3774:3777   */\n  dup1\n    /* \"#utility.yul\":3768:3778   */\n  mload\n    /* \"#utility.yul\":3810:3828   */\n  0xffffffffffffffff\n    /* \"#utility.yul\":3797:3808   */\n  dup2\n    /* \"#utility.yul\":3794:3829   */\n  gt\n    /* \"#utility.yul\":3791:3913   */\n  iszero\n  tag_101\n  jumpi\n    /* \"#utility.yul\":3832:3911   */\n  tag_102\n  tag_22\n  jump\t// in\ntag_102:\n    /* \"#utility.yul\":3791:3913   */\ntag_101:\n    /* \"#utility.yul\":3956:3967   */\n  dup1\n    /* \"#utility.yul\":3948:3954   */\n  dup7\n    /* \"#utility.yul\":3944:3968   */\n  add\n    /* \"#utility.yul\":3994:4052   */\n  tag_103\n    /* \"#utility.yul\":4048:4051   */\n  dup10\n    /* \"#utility.yul\":4036:4046   */\n  dup3\n    /* \"#utility.yul\":3994:4052   */\n  tag_33\n  jump\t// in\ntag_103:\n    /* \"#utility.yul\":3989:3992   */\n  dup6\n    /* \"#utility.yul\":3982:4053   */\n  mstore\n    /* \"#utility.yul\":4082:4086   */\n  0x20\n    /* \"#utility.yul\":4077:4080   */\n  dup6\n    /* \"#utility.yul\":4073:4087   */\n  add\n    /* \"#utility.yul\":4066:4087   */\n  swap5\n  pop\n    /* \"#utility.yul\":3734:4097   */\n  pop\n  pop\n    /* \"#utility.yul\":3718:3722   */\n  0x20\n    /* \"#utility.yul\":3713:3716   */\n  dup2\n    /* \"#utility.yul\":3709:3723   */\n  add\n    /* \"#utility.yul\":3702:3723   */\n  swap1\n  pop\n    /* \"#utility.yul\":3658:4097   */\n  jump(tag_98)\ntag_100:\n    /* \"#utility.yul\":3662:3683   */\n  pop\n    /* \"#utility.yul\":3266:4103   */\n  pop\n  pop\n    /* \"#utility.yul\":3143:4103   */\n  swap4\n  swap3\n  pop\n  pop\n  pop\n  jump\t// out\n    /* \"#utility.yul\":4125:4530   */\ntag_35:\n    /* \"#utility.yul\":4217:4222   */\n  0x00\n    /* \"#utility.yul\":4266:4269   */\n  dup3\n    /* \"#utility.yul\":4259:4263   */\n  0x1f\n    /* \"#utility.yul\":4251:4257   */\n  dup4\n    /* \"#utility.yul\":4247:4264   */\n  add\n    /* \"#utility.yul\":4243:4270   */\n  slt\n    /* \"#utility.yul\":4233:4355   */\n  tag_105\n  jumpi\n    /* \"#utility.yul\":4274:4353   */\n  tag_106\n  tag_22\n  jump\t// in\ntag_106:\n    /* \"#utility.yul\":4233:4355   */\ntag_105:\n    /* \"#utility.yul\":4384:4390   */\n  dup2\n    /* \"#utility.yul\":4378:4391   */\n  mload\n    /* \"#utility.yul\":4409:4524   */\n  tag_107\n    /* \"#utility.yul\":4520:4523   */\n  dup5\n    /* \"#utility.yul\":4512:4518   */\n  dup3\n    /* \"#utility.yul\":4505:4509   */\n  0x20\n    /* \"#utility.yul\":4497:4503   */\n  dup7\n    /* \"#utility.yul\":4493:4510   */\n  add\n    /* \"#utility.yul\":4409:4524   */\n  tag_34\n  jump\t// in\ntag_107:\n    /* \"#utility.yul\":4400:4524   */\n  swap2\n  pop\n    /* \"#utility.yul\":4223:4530   */\n  pop\n    /* \"#utility.yul\":4125:4530   */\n  swap3\n  swap2\n  pop\n  pop\n  jump\t// out\n    /* \"#utility.yul\":4536:5110   */\ntag_3:\n    /* \"#utility.yul\":4641:4647   */\n  0x00\n    /* \"#utility.yul\":4690:4692   */\n  0x20\n    /* \"#utility.yul\":4678:4687   */\n  dup3\n    /* \"#utility.yul\":4669:4676   */\n  dup5\n    /* \"#utility.yul\":4665:4688   */\n  sub\n    /* \"#utility.yul\":4661:4693   */\n  slt\n    /* \"#utility.yul\":4658:4777   */\n  iszero\n  tag_109\n  jumpi\n    /* \"#utility.yul\":4696:4775   */\n  tag_110\n  tag_20\n  jump\t// in\ntag_110:\n    /* \"#utility.yul\":4658:4777   */\ntag_109:\n    /* \"#utility.yul\":4837:4838   */\n  0x00\n    /* \"#utility.yul\":4826:4835   */\n  dup3\n    /* \"#utility.yul\":4822:4839   */\n  add\n    /* \"#utility.yul\":4816:4840   */\n  mload\n    /* \"#utility.yul\":4867:4885   */\n  0xffffffffffffffff\n    /* \"#utility.yul\":4859:4865   */\n  dup2\n    /* \"#utility.yul\":4856:4886   */\n  gt\n    /* \"#utility.yul\":4853:4970   */\n  iszero\n  tag_111\n  jumpi\n    /* \"#utility.yul\":4889:4968   */\n  tag_112\n  tag_21\n  jump\t// in\ntag_112:\n    /* \"#utility.yul\":4853:4970   */\ntag_111:\n    /* \"#utility.yul\":4994:5093   */\n  tag_113\n    /* \"#utility.yul\":5085:5092   */\n  dup5\n    /* \"#utility.yul\":5076:5082   */\n  dup3\n    /* \"#utility.yul\":5065:5074   */\n  dup6\n    /* \"#utility.yul\":5061:5083   */\n  add\n    /* \"#utility.yul\":4994:5093   */\n  tag_35\n  jump\t// in\ntag_113:\n    /* \"#utility.yul\":4984:5093   */\n  swap2\n  pop\n    /* \"#utility.yul\":4787:5103   */\n  pop\n    /* \"#utility.yul\":4536:5110   */\n  swap3\n  swap2\n  pop\n  pop\n  jump\t// out\n    /* \"#utility.yul\":5116:5193   */\ntag_36:\n    /* \"#utility.yul\":5153:5160   */\n  0x00\n    /* \"#utility.yul\":5182:5187   */\n  dup2\n    /* \"#utility.yul\":5171:5187   */\n  swap1\n  pop\n    /* \"#utility.yul\":5116:5193   */\n  swap2\n  swap1\n  pop\n  jump\t// out\n    /* \"#utility.yul\":5199:5379   */\ntag_37:\n    /* \"#utility.yul\":5247:5324   */\n  0x4e487b7100000000000000000000000000000000000000000000000000000000\n    /* \"#utility.yul\":5244:5245   */\n  0x00\n    /* \"#utility.yul\":5237:5325   */\n  mstore\n    /* \"#utility.yul\":5344:5348   */\n  0x11\n    /* \"#utility.yul\":5341:5342   */\n  0x04\n    /* \"#utility.yul\":5334:5349   */\n  mstore\n    /* \"#utility.yul\":5368:5372   */\n  0x24\n    /* \"#utility.yul\":5365:5366   */\n  0x00\n    /* \"#utility.yul\":5358:5373   */\n  revert\n    /* \"#utility.yul\":5385:5576   */\ntag_7:\n    /* \"#utility.yul\":5425:5428   */\n  0x00\n    /* \"#utility.yul\":5444:5464   */\n  tag_117\n    /* \"#utility.yul\":5462:5463   */\n  dup3\n    /* \"#utility.yul\":5444:5464   */\n  tag_36\n  jump\t// in\ntag_117:\n    /* \"#utility.yul\":5439:5464   */\n  swap2\n  pop\n    /* \"#utility.yul\":5478:5498   */\n  tag_118\n    /* \"#utility.yul\":5496:5497   */\n  dup4\n    /* \"#utility.yul\":5478:5498   */\n  tag_36\n  jump\t// in\ntag_118:\n    /* \"#utility.yul\":5473:5498   */\n  swap3\n  pop\n    /* \"#utility.yul\":5521:5522   */\n  dup3\n    /* \"#utility.yul\":5518:5519   */\n  dup3\n    /* \"#utility.yul\":5514:5523   */\n  add\n    /* \"#utility.yul\":5507:5523   */\n  swap1\n  pop\n    /* \"#utility.yul\":5542:5545   */\n  dup1\n    /* \"#utility.yul\":5539:5540   */\n  dup3\n    /* \"#utility.yul\":5536:5546   */\n  gt\n    /* \"#utility.yul\":5533:5569   */\n  iszero\n  tag_119\n  jumpi\n    /* \"#utility.yul\":5549:5567   */\n  tag_120\n  tag_37\n  jump\t// in\ntag_120:\n    /* \"#utility.yul\":5533:5569   */\ntag_119:\n    /* \"#utility.yul\":5385:5576   */\n  swap3\n  swap2\n  pop\n  pop\n  jump\t// out\n    /* \"#utility.yul\":5582:5762   */\ntag_13:\n    /* \"#utility.yul\":5630:5707   */\n  0x4e487b7100000000000000000000000000000000000000000000000000000000\n    /* \"#utility.yul\":5627:5628   */\n  0x00\n    /* \"#utility.yul\":5620:5708   */\n  mstore\n    /* \"#utility.yul\":5727:5731   */\n  0x32\n    /* \"#utility.yul\":5724:5725   */\n  0x04\n    /* \"#utility.yul\":5717:5732   */\n  mstore\n    /* \"#utility.yul\":5751:5755   */\n  0x24\n    /* \"#utility.yul\":5748:5749   */\n  0x00\n    /* \"#utility.yul\":5741:5756   */\n  revert\n    /* \"#utility.yul\":5768:5867   */\ntag_38:\n    /* \"#utility.yul\":5820:5826   */\n  0x00\n    /* \"#utility.yul\":5854:5859   */\n  dup2\n    /* \"#utility.yul\":5848:5860   */\n  mload\n    /* \"#utility.yul\":5838:5860   */\n  swap1\n  pop\n    /* \"#utility.yul\":5768:5867   */\n  swap2\n  swap1\n  pop\n  jump\t// out\n    /* \"#utility.yul\":5873:6053   */\ntag_39:\n    /* \"#utility.yul\":5921:5998   */\n  0x4e487b7100000000000000000000000000000000000000000000000000000000\n    /* \"#utility.yul\":5918:5919   */\n  0x00\n    /* \"#utility.yul\":5911:5999   */\n  mstore\n    /* \"#utility.yul\":6018:6022   */\n  0x22\n    /* \"#utility.yul\":6015:6016   */\n  0x04\n    /* \"#utility.yul\":6008:6023   */\n  mstore\n    /* \"#utility.yul\":6042:6046   */\n  0x24\n    /* \"#utility.yul\":6039:6040   */\n  0x00\n    /* \"#utility.yul\":6032:6047   */\n  revert\n    /* \"#utility.yul\":6059:6379   */\ntag_40:\n    /* \"#utility.yul\":6103:6109   */\n  0x00\n    /* \"#utility.yul\":6140:6141   */\n  0x02\n    /* \"#utility.yul\":6134:6138   */\n  dup3\n    /* \"#utility.yul\":6130:6142   */\n  div\n    /* \"#utility.yul\":6120:6142   */\n  swap1\n  pop\n    /* \"#utility.yul\":6187:6188   */\n  0x01\n    /* \"#utility.yul\":6181:6185   */\n  dup3\n    /* \"#utility.yul\":6177:6189   */\n  and\n    /* \"#utility.yul\":6208:6226   */\n  dup1\n    /* \"#utility.yul\":6198:6279   */\n  tag_125\n  jumpi\n    /* \"#utility.yul\":6264:6268   */\n  0x7f\n    /* \"#utility.yul\":6256:6262   */\n  dup3\n    /* \"#utility.yul\":6252:6269   */\n  and\n    /* \"#utility.yul\":6242:6269   */\n  swap2\n  pop\n    /* \"#utility.yul\":6198:6279   */\ntag_125:\n    /* \"#utility.yul\":6326:6328   */\n  0x20\n    /* \"#utility.yul\":6318:6324   */\n  dup3\n    /* \"#utility.yul\":6315:6329   */\n  lt\n    /* \"#utility.yul\":6295:6313   */\n  dup2\n    /* \"#utility.yul\":6292:6330   */\n  sub\n    /* \"#utility.yul\":6289:6373   */\n  tag_126\n  jumpi\n    /* \"#utility.yul\":6345:6363   */\n  tag_127\n  tag_39\n  jump\t// in\ntag_127:\n    /* \"#utility.yul\":6289:6373   */\ntag_126:\n    /* \"#utility.yul\":6110:6379   */\n  pop\n    /* \"#utility.yul\":6059:6379   */\n  swap2\n  swap1\n  pop\n  jump\t// out\n    /* \"#utility.yul\":6385:6526   */\ntag_41:\n    /* \"#utility.yul\":6434:6438   */\n  0x00\n    /* \"#utility.yul\":6457:6460   */\n  dup2\n    /* \"#utility.yul\":6449:6460   */\n  swap1\n  pop\n    /* \"#utility.yul\":6480:6483   */\n  dup2\n    /* \"#utility.yul\":6477:6478   */\n  0x00\n    /* \"#utility.yul\":6470:6484   */\n  mstore\n    /* \"#utility.yul\":6514:6518   */\n  0x20\n    /* \"#utility.yul\":6511:6512   */\n  0x00\n    /* \"#utility.yul\":6501:6519   */\n  keccak256\n    /* \"#utility.yul\":6493:6519   */\n  swap1\n  pop\n    /* \"#utility.yul\":6385:6526   */\n  swap2\n  swap1\n  pop\n  jump\t// out\n    /* \"#utility.yul\":6532:6625   */\ntag_42:\n    /* \"#utility.yul\":6569:6575   */\n  0x00\n    /* \"#utility.yul\":6616:6618   */\n  0x20\n    /* \"#utility.yul\":6611:6613   */\n  0x1f\n    /* \"#utility.yul\":6604:6609   */\n  dup4\n    /* \"#utility.yul\":6600:6614   */\n  add\n    /* \"#utility.yul\":6596:6619   */\n  div\n    /* \"#utility.yul\":6586:6619   */\n  swap1\n  pop\n    /* \"#utility.yul\":6532:6625   */\n  swap2\n  swap1\n  pop\n  jump\t// out\n    /* \"#utility.yul\":6631:6738   */\ntag_43:\n    /* \"#utility.yul\":6675:6683   */\n  0x00\n    /* \"#utility.yul\":6725:6730   */\n  dup3\n    /* \"#utility.yul\":6719:6723   */\n  dup3\n    /* \"#utility.yul\":6715:6731   */\n  shl\n    /* \"#utility.yul\":6694:6731   */\n  swap1\n  pop\n    /* \"#utility.yul\":6631:6738   */\n  swap3\n  swap2\n  pop\n  pop\n  jump\t// out\n    /* \"#utility.yul\":6744:7137   */\ntag_44:\n    /* \"#utility.yul\":6813:6819   */\n  0x00\n    /* \"#utility.yul\":6863:6864   */\n  0x08\n    /* \"#utility.yul\":6851:6861   */\n  dup4\n    /* \"#utility.yul\":6847:6865   */\n  mul\n    /* \"#utility.yul\":6886:6983   */\n  tag_132\n    /* \"#utility.yul\":6916:6982   */\n  0xffffffffffffffffffffffffffffffffffffffffffffffffffffffffffffffff\n    /* \"#utility.yul\":6905:6914   */\n  dup3\n    /* \"#utility.yul\":6886:6983   */\n  tag_43\n  jump\t// in\ntag_132:\n    /* \"#utility.yul\":7004:7043   */\n  tag_133\n    /* \"#utility.yul\":7034:7042   */\n  dup7\n    /* \"#utility.yul\":7023:7032   */\n  dup4\n    /* \"#utility.yul\":7004:7043   */\n  tag_43\n  jump\t// in\ntag_133:\n    /* \"#utility.yul\":6992:7043   */\n  swap6\n  pop\n    /* \"#utility.yul\":7076:7080   */\n  dup1\n    /* \"#utility.yul\":7072:7081   */\n  not\n    /* \"#utility.yul\":7065:7070   */\n  dup5\n    /* \"#utility.yul\":7061:7082   */\n  and\n    /* \"#utility.yul\":7052:7082   */\n  swap4\n  pop\n    /* \"#utility.yul\":7125:7129   */\n  dup1\n    /* \"#utility.yul\":7115:7123   */\n  dup7\n    /* \"#utility.yul\":7111:7130   */\n  and\n    /* \"#utility.yul\":7104:7109   */\n  dup5\n    /* \"#utility.yul\":7101:7131   */\n  or\n    /* \"#utility.yul\":7091:7131   */\n  swap3\n  pop\n    /* \"#utility.yul\":6820:7137   */\n  pop\n  pop\n    /* \"#utility.yul\":6744:7137   */\n  swap4\n  swap3\n  pop\n  pop\n  pop\n  jump\t// out\n    /* \"#utility.yul\":7143:7203   */\ntag_45:\n    /* \"#utility.yul\":7171:7174   */\n  0x00\n    /* \"#utility.yul\":7192:7197   */\n  dup2\n    /* \"#utility.yul\":7185:7197   */\n  swap1\n  pop\n    /* \"#utility.yul\":7143:7203   */\n  swap2\n  swap1\n  pop\n  jump\t// out\n    /* \"#utility.yul\":7209:7351   */\ntag_46:\n    /* \"#utility.yul\":7259:7268   */\n  0x00\n    /* \"#utility.yul\":7292:7345   */\n  tag_136\n    /* \"#utility.yul\":7310:7344   */\n  tag_137\n    /* \"#utility.yul\":7319:7343   */\n  tag_138\n    /* \"#utility.yul\":7337:7342   */\n  dup5\n    /* \"#utility.yul\":7319:7343   */\n  tag_36\n  jump\t// in\ntag_138:\n    /* \"#utility.yul\":7310:7344   */\n  tag_45\n  jump\t// in\ntag_137:\n    /* \"#utility.yul\":7292:7345   */\n  tag_36\n  jump\t// in\ntag_136:\n    /* \"#utility.yul\":7279:7345   */\n  swap1\n  pop\n    /* \"#utility.yul\":7209:7351   */\n  swap2\n  swap1\n  pop\n  jump\t// out\n    /* \"#utility.yul\":7357:7432   */\ntag_47:\n    /* \"#utility.yul\":7400:7403   */\n  0x00\n    /* \"#utility.yul\":7421:7426   */\n  dup2\n    /* \"#utility.yul\":7414:7426   */\n  swap1\n  pop\n    /* \"#utility.yul\":7357:7432   */\n  swap2\n  swap1\n  pop\n  jump\t// out\n    /* \"#utility.yul\":7438:7707   */\ntag_48:\n    /* \"#utility.yul\":7548:7587   */\n  tag_141\n    /* \"#utility.yul\":7579:7586   */\n  dup4\n    /* \"#utility.yul\":7548:7587   */\n  tag_46\n  jump\t// in\ntag_141:\n    /* \"#utility.yul\":7609:7700   */\n  tag_142\n    /* \"#utility.yul\":7658:7699   */\n  tag_143\n    /* \"#utility.yul\":7682:7698   */\n  dup3\n    /* \"#utility.yul\":7658:7699   */\n  tag_47\n  jump\t// in\ntag_143:\n    /* \"#utility.yul\":7650:7656   */\n  dup5\n    /* \"#utility.yul\":7643:7647   */\n  dup5\n    /* \"#utility.yul\":7637:7648   */\n  sload\n    /* \"#utility.yul\":7609:7700   */\n  tag_44\n  jump\t// in\ntag_142:\n    /* \"#utility.yul\":7603:7607   */\n  dup3\n    /* \"#utility.yul\":7596:7701   */\n  sstore\n    /* \"#utility.yul\":7514:7707   */\n  pop\n    /* \"#utility.yul\":7438:7707   */\n  pop\n  pop\n  pop\n  jump\t// out\n    /* \"#utility.yul\":7713:7786   */\ntag_49:\n    /* \"#utility.yul\":7758:7761   */\n  0x00\n    /* \"#utility.yul\":7713:7786   */\n  swap1\n  jump\t// out\n    /* \"#utility.yul\":7792:7981   */\ntag_50:\n    /* \"#utility.yul\":7869:7901   */\n  tag_146\n  tag_49\n  jump\t// in\ntag_146:\n    /* \"#utility.yul\":7910:7975   */\n  tag_147\n    /* \"#utility.yul\":7968:7974   */\n  dup2\n    /* \"#utility.yul\":7960:7966   */\n  dup5\n    /* \"#utility.yul\":7954:7958   */\n  dup5\n    /* \"#utility.yul\":7910:7975   */\n  tag_48\n  jump\t// in\ntag_147:\n    /* \"#utility.yul\":7845:7981   */\n  pop\n    /* \"#utility.yul\":7792:7981   */\n  pop\n  pop\n  jump\t// out\n    /* \"#utility.yul\":7987:8173   */\ntag_51:\n    /* \"#utility.yul\":8047:8167   */\ntag_149:\n    /* \"#utility.yul\":8064:8067   */\n  dup2\n    /* \"#utility.yul\":8057:8062   */\n  dup2\n    /* \"#utility.yul\":8054:8068   */\n  lt\n    /* \"#utility.yul\":8047:8167   */\n  iszero\n  tag_151\n  jumpi\n    /* \"#utility.yul\":8118:8157   */\n  tag_152\n    /* \"#utility.yul\":8155:8156   */\n  0x00\n    /* \"#utility.yul\":8148:8153   */\n  dup3\n    /* \"#utility.yul\":8118:8157   */\n  tag_50\n  jump\t// in\ntag_152:\n    /* \"#utility.yul\":8091:8092   */\n  0x01\n    /* \"#utility.yul\":8084:8089   */\n  dup2\n    /* \"#utility.yul\":8080:8093   */\n  add\n    /* \"#utility.yul\":8071:8093   */\n  swap1\n  pop\n    /* \"#utility.yul\":8047:8167   */\n  jump(tag_149)\ntag_151:\n    /* \"#utility.yul\":7987:8173   */\n  pop\n  pop\n  jump\t// out\n    /* \"#utility.yul\":8179:8722   */\ntag_52:\n    /* \"#utility.yul\":8280:8282   */\n  0x1f\n    /* \"#utility.yul\":8275:8278   */\n  dup3\n    /* \"#utility.yul\":8272:8283   */\n  gt\n    /* \"#utility.yul\":8269:8715   */\n  iszero\n  tag_154\n  jumpi\n    /* \"#utility.yul\":8314:8352   */\n  tag_155\n    /* \"#utility.yul\":8346:8351   */\n  dup2\n    /* \"#utility.yul\":8314:8352   */\n  tag_41\n  jump\t// in\ntag_155:\n    /* \"#utility.yul\":8398:8427   */\n  tag_156\n    /* \"#utility.yul\":8416:8426   */\n  dup5\n    /* \"#utility.yul\":8398:8427   */\n  tag_42\n  jump\t// in\ntag_156:\n    /* \"#utility.yul\":8388:8396   */\n  dup2\n    /* \"#utility.yul\":8384:8428   */\n  add\n    /* \"#utility.yul\":8581:8583   */\n  0x20\n    /* \"#utility.yul\":8569:8579   */\n  dup6\n    /* \"#utility.yul\":8566:8584   */\n  lt\n    /* \"#utility.yul\":8563:8612   */\n  iszero\n  tag_157\n  jumpi\n    /* \"#utility.yul\":8602:8610   */\n  dup2\n    /* \"#utility.yul\":8587:8610   */\n  swap1\n  pop\n    /* \"#utility.yul\":8563:8612   */\ntag_157:\n    /* \"#utility.yul\":8625:8705   */\n  tag_158\n    /* \"#utility.yul\":8681:8703   */\n  tag_159\n    /* \"#utility.yul\":8699:8702   */\n  dup6\n    /* \"#utility.yul\":8681:8703   */\n  tag_42\n  jump\t// in\ntag_159:\n    /* \"#utility.yul\":8671:8679   */\n  dup4\n    /* \"#utility.yul\":8667:8704   */\n  add\n    /* \"#utility.yul\":8654:8665   */\n  dup3\n    /* \"#utility.yul\":8625:8705   */\n  tag_51\n  jump\t// in\ntag_158:\n    /* \"#utility.yul\":8284:8715   */\n  pop\n  pop\n    /* \"#utility.yul\":8269:8715   */\ntag_154:\n    /* \"#utility.yul\":8179:8722   */\n  pop\n  pop\n  pop\n  jump\t// out\n    /* \"#utility.yul\":8728:8845   */\ntag_53:\n    /* \"#utility.yul\":8782:8790   */\n  0x00\n    /* \"#utility.yul\":8832:8837   */\n  dup3\n    /* \"#utility.yul\":8826:8830   */\n  dup3\n    /* \"#utility.yul\":8822:8838   */\n  shr\n    /* \"#utility.yul\":8801:8838   */\n  swap1\n  pop\n    /* \"#utility.yul\":8728:8845   */\n  swap3\n  swap2\n  pop\n  pop\n  jump\t// out\n    /* \"#utility.yul\":8851:9020   */\ntag_54:\n    /* \"#utility.yul\":8895:8901   */\n  0x00\n    /* \"#utility.yul\":8928:8979   */\n  tag_162\n    /* \"#utility.yul\":8976:8977   */\n  0x00\n    /* \"#utility.yul\":8972:8978   */\n  not\n    /* \"#utility.yul\":8964:8969   */\n  dup5\n    /* \"#utility.yul\":8961:8962   */\n  0x08\n    /* \"#utility.yul\":8957:8970   */\n  mul\n    /* \"#utility.yul\":8928:8979   */\n  tag_53\n  jump\t// in\ntag_162:\n    /* \"#utility.yul\":8924:8980   */\n  not\n    /* \"#utility.yul\":9009:9013   */\n  dup1\n    /* \"#utility.yul\":9003:9007   */\n  dup4\n    /* \"#utility.yul\":8999:9014   */\n  and\n    /* \"#utility.yul\":8989:9014   */\n  swap2\n  pop\n    /* \"#utility.yul\":8902:9020   */\n  pop\n    /* \"#utility.yul\":8851:9020   */\n  swap3\n  swap2\n  pop\n  pop\n  jump\t// out\n    /* \"#utility.yul\":9025:9320   */\ntag_55:\n    /* \"#utility.yul\":9101:9105   */\n  0x00\n    /* \"#utility.yul\":9247:9276   */\n  tag_164\n    /* \"#utility.yul\":9272:9275   */\n  dup4\n    /* \"#utility.yul\":9266:9270   */\n  dup4\n    /* \"#utility.yul\":9247:9276   */\n  tag_54\n  jump\t// in\ntag_164:\n    /* \"#utility.yul\":9239:9276   */\n  swap2\n  pop\n    /* \"#utility.yul\":9309:9312   */\n  dup3\n    /* \"#utility.yul\":9306:9307   */\n  0x02\n    /* \"#utility.yul\":9302:9313   */\n  mul\n    /* \"#utility.yul\":9296:9300   */\n  dup3\n    /* \"#utility.yul\":9293:9314   */\n  or\n    /* \"#utility.yul\":9285:9314   */\n  swap1\n  pop\n    /* \"#utility.yul\":9025:9320   */\n  swap3\n  swap2\n  pop\n  pop\n  jump\t// out\n    /* \"#utility.yul\":9325:10720   */\ntag_15:\n    /* \"#utility.yul\":9442:9479   */\n  tag_166\n    /* \"#utility.yul\":9475:9478   */\n  dup3\n    /* \"#utility.yul\":9442:9479   */\n  tag_38\n  jump\t// in\ntag_166:\n    /* \"#utility.yul\":9544:9562   */\n  0xffffffffffffffff\n    /* \"#utility.yul\":9536:9542   */\n  dup2\n    /* \"#utility.yul\":9533:9563   */\n  gt\n    /* \"#utility.yul\":9530:9586   */\n  iszero\n  tag_167\n  jumpi\n    /* \"#utility.yul\":9566:9584   */\n  tag_168\n  tag_24\n  jump\t// in\ntag_168:\n    /* \"#utility.yul\":9530:9586   */\ntag_167:\n    /* \"#utility.yul\":9610:9648   */\n  tag_169\n    /* \"#utility.yul\":9642:9646   */\n  dup3\n    /* \"#utility.yul\":9636:9647   */\n  sload\n    /* \"#utility.yul\":9610:9648   */\n  tag_40\n  jump\t// in\ntag_169:\n    /* \"#utility.yul\":9695:9762   */\n  tag_170\n    /* \"#utility.yul\":9755:9761   */\n  dup3\n    /* \"#utility.yul\":9747:9753   */\n  dup3\n    /* \"#utility.yul\":9741:9745   */\n  dup6\n    /* \"#utility.yul\":9695:9762   */\n  tag_52\n  jump\t// in\ntag_170:\n    /* \"#utility.yul\":9789:9790   */\n  0x00\n    /* \"#utility.yul\":9813:9817   */\n  0x20\n    /* \"#utility.yul\":9800:9817   */\n  swap1\n  pop\n    /* \"#utility.yul\":9845:9847   */\n  0x1f\n    /* \"#utility.yul\":9837:9843   */\n  dup4\n    /* \"#utility.yul\":9834:9848   */\n  gt\n    /* \"#utility.yul\":9862:9863   */\n  0x01\n    /* \"#utility.yul\":9857:10475   */\n  dup2\n  eq\n  tag_172\n  jumpi\n    /* \"#utility.yul\":10519:10520   */\n  0x00\n    /* \"#utility.yul\":10536:10542   */\n  dup5\n    /* \"#utility.yul\":10533:10610   */\n  iszero\n  tag_173\n  jumpi\n    /* \"#utility.yul\":10585:10594   */\n  dup3\n    /* \"#utility.yul\":10580:10583   */\n  dup8\n    /* \"#utility.yul\":10576:10595   */\n  add\n    /* \"#utility.yul\":10570:10596   */\n  mload\n    /* \"#utility.yul\":10561:10596   */\n  swap1\n  pop\n    /* \"#utility.yul\":10533:10610   */\ntag_173:\n    /* \"#utility.yul\":10636:10703   */\n  tag_174\n    /* \"#utility.yul\":10696:10702   */\n  dup6\n    /* \"#utility.yul\":10689:10694   */\n  dup3\n    /* \"#utility.yul\":10636:10703   */\n  tag_55\n  jump\t// in\ntag_174:\n    /* \"#utility.yul\":10630:10634   */\n  dup7\n    /* \"#utility.yul\":10623:10704   */\n  sstore\n    /* \"#utility.yul\":10492:10714   */\n  pop\n    /* \"#utility.yul\":9827:10714   */\n  jump(tag_171)\n    /* \"#utility.yul\":9857:10475   */\ntag_172:\n    /* \"#utility.yul\":9909:9913   */\n  0x1f\n    /* \"#utility.yul\":9905:9914   */\n  not\n    /* \"#utility.yul\":9897:9903   */\n  dup5\n    /* \"#utility.yul\":9893:9915   */\n  and\n    /* \"#utility.yul\":9943:9980   */\n  tag_175\n    /* \"#utility.yul\":9975:9979   */\n  dup7\n    /* \"#utility.yul\":9943:9980   */\n  tag_41\n  jump\t// in\ntag_175:\n    /* \"#utility.yul\":10002:10003   */\n  0x00\n    /* \"#utility.yul\":10016:10224   */\ntag_176:\n    /* \"#utility.yul\":10030:10037   */\n  dup3\n    /* \"#utility.yul\":10027:10028   */\n  dup2\n    /* \"#utility.yul\":10024:10038   */\n  lt\n    /* \"#utility.yul\":10016:10224   */\n  iszero\n  tag_178\n  jumpi\n    /* \"#utility.yul\":10109:10118   */\n  dup5\n    /* \"#utility.yul\":10104:10107   */\n  dup10\n    /* \"#utility.yul\":10100:10119   */\n  add\n    /* \"#utility.yul\":10094:10120   */\n  mload\n    /* \"#utility.yul\":10086:10092   */\n  dup3\n    /* \"#utility.yul\":10079:10121   */\n  sstore\n    /* \"#utility.yul\":10160:10161   */\n  0x01\n    /* \"#utility.yul\":10152:10158   */\n  dup3\n    /* \"#utility.yul\":10148:10162   */\n  add\n    /* \"#utility.yul\":10138:10162   */\n  swap2\n  pop\n    /* \"#utility.yul\":10207:10209   */\n  0x20\n    /* \"#utility.yul\":10196:10205   */\n  dup6\n    /* \"#utility.yul\":10192:10210   */\n  add\n    /* \"#utility.yul\":10179:10210   */\n  swap5\n  pop\n    /* \"#utility.yul\":10053:10057   */\n  0x20\n    /* \"#utility.yul\":10050:10051   */\n  dup2\n    /* \"#utility.yul\":10046:10058   */\n  add\n    /* \"#utility.yul\":10041:10058   */\n  swap1\n  pop\n    /* \"#utility.yul\":10016:10224   */\n  jump(tag_176)\ntag_178:\n    /* \"#utility.yul\":10252:10258   */\n  dup7\n    /* \"#utility.yul\":10243:10250   */\n  dup4\n    /* \"#utility.yul\":10240:10259   */\n  lt\n    /* \"#utility.yul\":10237:10416   */\n  iszero\n  tag_179\n  jumpi\n    /* \"#utility.yul\":10310:10319   */\n  dup5\n    /* \"#utility.yul\":10305:10308   */\n  dup10\n    /* \"#utility.yul\":10301:10320   */\n  add\n    /* \"#utility.yul\":10295:10321   */\n  mload\n    /* \"#utility.yul\":10353:10401   */\n  tag_180\n    /* \"#utility.yul\":10395:10399   */\n  0x1f\n    /* \"#utility.yul\":10387:10393   */\n  dup10\n    /* \"#utility.yul\":10383:10400   */\n  and\n    /* \"#utility.yul\":10372:10381   */\n  dup3\n    /* \"#utility.yul\":10353:10401   */\n  tag_54\n  jump\t// in\ntag_180:\n    /* \"#utility.yul\":10345:10351   */\n  dup4\n    /* \"#utility.yul\":10338:10402   */\n  sstore\n    /* \"#utility.yul\":10260:10416   */\n  pop\n    /* \"#utility.yul\":10237:10416   */\ntag_179:\n    /* \"#utility.yul\":10462:10463   */\n  0x01\n    /* \"#utility.yul\":10458:10459   */\n  0x02\n    /* \"#utility.yul\":10450:10456   */\n  dup9\n    /* \"#utility.yul\":10446:10460   */\n  mul\n    /* \"#utility.yul\":10442:10464   */\n  add\n    /* \"#utility.yul\":10436:10440   */\n  dup9\n    /* \"#utility.yul\":10429:10465   */\n  sstore\n    /* \"#utility.yul\":9864:10475   */\n  pop\n  pop\n  pop\n    /* \"#utility.yul\":9827:10714   */\ntag_171:\n  pop\n    /* \"#utility.yul\":9417:10720   */\n  pop\n  pop\n  pop\n    /* \"#utility.yul\":9325:10720   */\n  pop\n  pop\n  jump\t// out\n    /* \"#utility.yul\":10726:10959   */\ntag_17:\n    /* \"#utility.yul\":10765:10768   */\n  0x00\n    /* \"#utility.yul\":10788:10812   */\n  tag_182\n    /* \"#utility.yul\":10806:10811   */\n  dup3\n    /* \"#utility.yul\":10788:10812   */\n  tag_36\n  jump\t// in\ntag_182:\n    /* \"#utility.yul\":10779:10812   */\n  swap2\n  pop\n    /* \"#utility.yul\":10834:10900   */\n  0xffffffffffffffffffffffffffffffffffffffffffffffffffffffffffffffff\n    /* \"#utility.yul\":10827:10832   */\n  dup3\n    /* \"#utility.yul\":10824:10901   */\n  sub\n    /* \"#utility.yul\":10821:10924   */\n  tag_183\n  jumpi\n    /* \"#utility.yul\":10904:10922   */\n  tag_184\n  tag_37\n  jump\t// in\ntag_184:\n    /* \"#utility.yul\":10821:10924   */\ntag_183:\n    /* \"#utility.yul\":10951:10952   */\n  0x01\n    /* \"#utility.yul\":10944:10949   */\n  dup3\n    /* \"#utility.yul\":10940:10953   */\n  add\n    /* \"#utility.yul\":10933:10953   */\n  swap1\n  pop\n    /* \"#utility.yul\":10726:10959   */\n  swap2\n  swap1\n  pop\n  jump\t// out\n    /* \"Contracts/votingSystem.sol\":181:5369  contract votingSystem{... */\ntag_18:\n  mload(0x80)\n  codecopy(0x00, dataOffset(sub_0), dataSize(sub_0))\n  0x00\n  assignImmutable(\"0x5bc0457d8881b800fd1bc0d6df907345b3bf287e43a5790ded3d08dbacf9c03a\")\n  return(0x00, dataSize(sub_0))\nstop\n\nsub_0: assembly {\n        /* \"Contracts/votingSystem.sol\":181:5369  contract votingSystem{... */\n      mstore(0x40, 0x80)\n      callvalue\n      dup1\n      iszero\n      tag_1\n      jumpi\n      0x00\n      dup1\n      revert\n    tag_1:\n      pop\n      jumpi(tag_2, lt(calldatasize, 0x04))\n      shr(0xe0, calldataload(0x00))\n      dup1\n      0x87cb7877\n      gt\n      tag_23\n      jumpi\n      dup1\n      0xc2b6b58c\n      gt\n      tag_24\n      jumpi\n      dup1\n      0xc2b6b58c\n      eq\n      tag_18\n      jumpi\n      dup1\n      0xc631b292\n      eq\n      tag_19\n      jumpi\n      dup1\n      0xe13804a7\n      eq\n      tag_20\n      jumpi\n      dup1\n      0xefd5297c\n      eq\n      tag_21\n      jumpi\n      dup1\n      0xfa7f1bae\n      eq\n      tag_22\n      jumpi\n      jump(tag_2)\n    tag_24:\n      dup1\n      0x87cb7877\n      eq\n      tag_13\n      jumpi\n      dup1\n      0x8da5cb5b\n      eq\n      tag_14\n      jumpi\n      dup1\n      0x8e7ea5b2\n      eq\n      tag_15\n      jumpi\n      dup1\n      0x995e4339\n      eq\n      tag_16\n      jumpi\n      dup1\n      0xb81f6e18\n      eq\n      tag_17\n      jumpi\n      jump(tag_2)\n    tag_23:\n      dup1\n      0x3ceed692\n      gt\n      tag_25\n      jumpi\n      dup1\n      0x3ceed692\n      eq\n      tag_8\n      jumpi\n      dup1\n      0x43859632\n      eq\n      tag_9\n      jumpi\n      dup1\n      0x4fc8a20d\n      eq\n      tag_10\n      jumpi\n      dup1\n      0x5216509a\n      eq\n      tag_11\n      jumpi\n      dup1\n      0x7de14242\n      eq\n      tag_12\n      jumpi\n      jump(tag_2)\n    tag_25:\n      dup1\n      0x0121b93f\n      eq\n      tag_3\n      jumpi\n      dup1\n      0x036ee850\n      eq\n      tag_4\n      jumpi\n      dup1\n      0x051364d4\n      eq\n      tag_5\n      jumpi\n      dup1\n      0x29fe4047\n      eq\n      tag_6\n      jumpi\n      dup1\n      0x38db6dd3\n      eq\n      tag_7\n      jumpi\n    tag_2:\n      0x00\n      dup1\n      revert\n        /* \"Contracts/votingSystem.sol\":2191:3020  function vote( uint256 candidateId ) public {... */\n    tag_3:\n      tag_26\n      0x04\n      dup1\n      calldatasize\n      sub\n      dup2\n      add\n      swap1\n      tag_27\n      swap2\n      swap1\n      tag_28\n      jump\t// in\n    tag_27:\n      tag_29\n      jump\t// in\n    tag_26:\n      stop\n        /* \"Contracts/votingSystem.sol\":724:763  uint256 public immutable votingDeadline */\n    tag_4:\n      tag_30\n      tag_31\n      jump\t// in\n    tag_30:\n      mload(0x40)\n      tag_32\n      swap2\n      swap1\n      tag_33\n      jump\t// in\n    tag_32:\n      mload(0x40)\n      dup1\n      swap2\n      sub\n      swap1\n      return\n        /* \"Contracts/votingSystem.sol\":971:996  uint256 public electionId */\n    tag_5:\n      tag_34\n      tag_35\n      jump\t// in\n    tag_34:\n      mload(0x40)\n      tag_36\n      swap2\n      swap1\n      tag_33\n      jump\t// in\n    tag_36:\n      mload(0x40)\n      dup1\n      swap2\n      sub\n      swap1\n      return\n        /* \"Contracts/votingSystem.sol\":4957:5366  function resetElection(string[] memory _candidateNames) public {... */\n    tag_6:\n      tag_37\n      0x04\n      dup1\n      calldatasize\n      sub\n      dup2\n      add\n      swap1\n      tag_38\n      swap2\n      swap1\n      tag_39\n      jump\t// in\n    tag_38:\n      tag_40\n      jump\t// in\n    tag_37:\n      stop\n        /* \"Contracts/votingSystem.sol\":1474:1723  function registerVoter(address _voter) public {... */\n    tag_7:\n      tag_41\n      0x04\n      dup1\n      calldatasize\n      sub\n      dup2\n      add\n      swap1\n      tag_42\n      swap2\n      swap1\n      tag_43\n      jump\t// in\n    tag_42:\n      tag_44\n      jump\t// in\n    tag_41:\n      stop\n        /* \"Contracts/votingSystem.sol\":630:670  uint256 public constant MAX_VOTERS = 100 */\n    tag_8:\n      tag_45\n      tag_46\n      jump\t// in\n    tag_45:\n      mload(0x40)\n      tag_47\n      swap2\n      swap1\n      tag_33\n      jump\t// in\n    tag_47:\n      mload(0x40)\n      dup1\n      swap2\n      sub\n      swap1\n      return\n        /* \"Contracts/votingSystem.sol\":460:522  mapping( uint256 => mapping(address => bool)) public  hasVoted */\n    tag_9:\n      tag_48\n      0x04\n      dup1\n      calldatasize\n      sub\n      dup2\n      add\n      swap1\n      tag_49\n      swap2\n      swap1\n      tag_50\n      jump\t// in\n    tag_49:\n      tag_51\n      jump\t// in\n    tag_48:\n      mload(0x40)\n      tag_52\n      swap2\n      swap1\n      tag_53\n      jump\t// in\n    tag_52:\n      mload(0x40)\n      dup1\n      swap2\n      sub\n      swap1\n      return\n        /* \"Contracts/votingSystem.sol\":528:573  mapping( uint256 => uint256) public voteCount */\n    tag_10:\n      tag_54\n      0x04\n      dup1\n      calldatasize\n      sub\n      dup2\n      add\n      swap1\n      tag_55\n      swap2\n      swap1\n      tag_28\n      jump\t// in\n    tag_55:\n      tag_56\n      jump\t// in\n    tag_54:\n      mload(0x40)\n      tag_57\n      swap2\n      swap1\n      tag_33\n      jump\t// in\n    tag_57:\n      mload(0x40)\n      dup1\n      swap2\n      sub\n      swap1\n      return\n        /* \"Contracts/votingSystem.sol\":280:308  uint256 public numCandidates */\n    tag_11:\n      tag_58\n      tag_59\n      jump\t// in\n    tag_58:\n      mload(0x40)\n      tag_60\n      swap2\n      swap1\n      tag_33\n      jump\t// in\n    tag_60:\n      mload(0x40)\n      dup1\n      swap2\n      sub\n      swap1\n      return\n        /* \"Contracts/votingSystem.sol\":315:383  mapping( uint256 => mapping(uint256 => Candidate)) public candidates */\n    tag_12:\n      tag_61\n      0x04\n      dup1\n      calldatasize\n      sub\n      dup2\n      add\n      swap1\n      tag_62\n      swap2\n      swap1\n      tag_63\n      jump\t// in\n    tag_62:\n      tag_64\n      jump\t// in\n    tag_61:\n      mload(0x40)\n      tag_65\n      swap3\n      swap2\n      swap1\n      tag_66\n      jump\t// in\n    tag_65:\n      mload(0x40)\n      dup1\n      swap2\n      sub\n      swap1\n      return\n        /* \"Contracts/votingSystem.sol\":3618:4443  function getTiedWinners() public view returns (uint256 [] memory){... */\n    tag_13:\n      tag_67\n      tag_68\n      jump\t// in\n    tag_67:\n      mload(0x40)\n      tag_69\n      swap2\n      swap1\n      tag_70\n      jump\t// in\n    tag_69:\n      mload(0x40)\n      dup1\n      swap2\n      sub\n      swap1\n      return\n        /* \"Contracts/votingSystem.sol\":945:965  address public owner */\n    tag_14:\n      tag_71\n      tag_72\n      jump\t// in\n    tag_71:\n      mload(0x40)\n      tag_73\n      swap2\n      swap1\n      tag_74\n      jump\t// in\n    tag_73:\n      mload(0x40)\n      dup1\n      swap2\n      sub\n      swap1\n      return\n        /* \"Contracts/votingSystem.sol\":3237:3612  function getWinner() public view returns (uint256 winnerId){... */\n    tag_15:\n      tag_75\n      tag_76\n      jump\t// in\n    tag_75:\n      mload(0x40)\n      tag_77\n      swap2\n      swap1\n      tag_33\n      jump\t// in\n    tag_77:\n      mload(0x40)\n      dup1\n      swap2\n      sub\n      swap1\n      return\n        /* \"Contracts/votingSystem.sol\":3026:3231  function getResult(uint256 candidateId) public view returns (uint256){... */\n    tag_16:\n      tag_78\n      0x04\n      dup1\n      calldatasize\n      sub\n      dup2\n      add\n      swap1\n      tag_79\n      swap2\n      swap1\n      tag_28\n      jump\t// in\n    tag_79:\n      tag_80\n      jump\t// in\n    tag_78:\n      mload(0x40)\n      tag_81\n      swap2\n      swap1\n      tag_33\n      jump\t// in\n    tag_81:\n      mload(0x40)\n      dup1\n      swap2\n      sub\n      swap1\n      return\n        /* \"Contracts/votingSystem.sol\":389:454  mapping( uint256 => mapping(address => bool)) public isRegistered */\n    tag_17:\n      tag_82\n      0x04\n      dup1\n      calldatasize\n      sub\n      dup2\n      add\n      swap1\n      tag_83\n      swap2\n      swap1\n      tag_50\n      jump\t// in\n    tag_83:\n      tag_84\n      jump\t// in\n    tag_82:\n      mload(0x40)\n      tag_85\n      swap2\n      swap1\n      tag_53\n      jump\t// in\n    tag_85:\n      mload(0x40)\n      dup1\n      swap2\n      sub\n      swap1\n      return\n        /* \"Contracts/votingSystem.sol\":827:847  bool public isClosed */\n    tag_18:\n      tag_86\n      tag_87\n      jump\t// in\n    tag_86:\n      mload(0x40)\n      tag_88\n      swap2\n      swap1\n      tag_53\n      jump\t// in\n    tag_88:\n      mload(0x40)\n      dup1\n      swap2\n      sub\n      swap1\n      return\n        /* \"Contracts/votingSystem.sol\":1778:1974  function closeVoting() public {... */\n    tag_19:\n      tag_89\n      tag_90\n      jump\t// in\n    tag_89:\n      stop\n        /* \"Contracts/votingSystem.sol\":4449:4665  function getCandidateName(uint256 candidateId) public view returns (string memory){... */\n    tag_20:\n      tag_91\n      0x04\n      dup1\n      calldatasize\n      sub\n      dup2\n      add\n      swap1\n      tag_92\n      swap2\n      swap1\n      tag_28\n      jump\t// in\n    tag_92:\n      tag_93\n      jump\t// in\n    tag_91:\n      mload(0x40)\n      tag_94\n      swap2\n      swap1\n      tag_95\n      jump\t// in\n    tag_94:\n      mload(0x40)\n      dup1\n      swap2\n      sub\n      swap1\n      return\n        /* \"Contracts/votingSystem.sol\":4671:4951  function getAllCandidate() public view returns(Candidate[] memory){... */\n    tag_21:\n      tag_96\n      tag_97\n      jump\t// in\n    tag_96:\n      mload(0x40)\n      tag_98\n      swap2\n      swap1\n      tag_99\n      jump\t// in\n    tag_98:\n      mload(0x40)\n      dup1\n      swap2\n      sub\n      swap1\n      return\n        /* \"Contracts/votingSystem.sol\":2034:2156  function   isVotingOpen() public view returns (bool){... */\n    tag_22:\n      tag_100\n      tag_101\n      jump\t// in\n    tag_100:\n      mload(0x40)\n      tag_102\n      swap2\n      swap1\n      tag_53\n      jump\t// in\n    tag_102:\n      mload(0x40)\n      dup1\n      swap2\n      sub\n      swap1\n      return\n        /* \"Contracts/votingSystem.sol\":2191:3020  function vote( uint256 candidateId ) public {... */\n    tag_29:\n        /* \"Contracts/votingSystem.sol\":2267:2280  numCandidates */\n      sload(0x00)\n        /* \"Contracts/votingSystem.sol\":2253:2264  candidateId */\n      dup2\n        /* \"Contracts/votingSystem.sol\":2253:2280  candidateId < numCandidates */\n      lt\n        /* \"Contracts/votingSystem.sol\":2245:2304  require(candidateId < numCandidates,\"Invalid candidate id\") */\n      tag_104\n      jumpi\n      mload(0x40)\n      0x08c379a000000000000000000000000000000000000000000000000000000000\n      dup2\n      mstore\n      0x04\n      add\n      tag_105\n      swap1\n      tag_106\n      jump\t// in\n    tag_105:\n      mload(0x40)\n      dup1\n      swap2\n      sub\n      swap1\n      revert\n    tag_104:\n        /* \"Contracts/votingSystem.sol\":2362:2376  isVotingOpen() */\n      tag_107\n        /* \"Contracts/votingSystem.sol\":2362:2374  isVotingOpen */\n      tag_101\n        /* \"Contracts/votingSystem.sol\":2362:2376  isVotingOpen() */\n      jump\t// in\n    tag_107:\n        /* \"Contracts/votingSystem.sol\":2354:2398  require(isVotingOpen(),\"Voting is not open\") */\n      tag_108\n      jumpi\n      mload(0x40)\n      0x08c379a000000000000000000000000000000000000000000000000000000000\n      dup2\n      mstore\n      0x04\n      add\n      tag_109\n      swap1\n      tag_110\n      jump\t// in\n    tag_109:\n      mload(0x40)\n      dup1\n      swap2\n      sub\n      swap1\n      revert\n    tag_108:\n        /* \"Contracts/votingSystem.sol\":2416:2428  isRegistered */\n      0x02\n        /* \"Contracts/votingSystem.sol\":2416:2440  isRegistered[electionId] */\n      0x00\n        /* \"Contracts/votingSystem.sol\":2429:2439  electionId */\n      sload(0x06)\n        /* \"Contracts/votingSystem.sol\":2416:2440  isRegistered[electionId] */\n      dup2\n      mstore\n      0x20\n      add\n      swap1\n      dup2\n      mstore\n      0x20\n      add\n      0x00\n      keccak256\n        /* \"Contracts/votingSystem.sol\":2416:2452  isRegistered[electionId][msg.sender] */\n      0x00\n        /* \"Contracts/votingSystem.sol\":2441:2451  msg.sender */\n      caller\n        /* \"Contracts/votingSystem.sol\":2416:2452  isRegistered[electionId][msg.sender] */\n      0xffffffffffffffffffffffffffffffffffffffff\n      and\n      0xffffffffffffffffffffffffffffffffffffffff\n      and\n      dup2\n      mstore\n      0x20\n      add\n      swap1\n      dup2\n      mstore\n      0x20\n      add\n      0x00\n      keccak256\n      0x00\n      swap1\n      sload\n      swap1\n      0x0100\n      exp\n      swap1\n      div\n      0xff\n      and\n        /* \"Contracts/votingSystem.sol\":2408:2487  require(isRegistered[electionId][msg.sender], \"you are not registered to vote\") */\n      tag_111\n      jumpi\n      mload(0x40)\n      0x08c379a000000000000000000000000000000000000000000000000000000000\n      dup2\n      mstore\n      0x04\n      add\n      tag_112\n      swap1\n      tag_113\n      jump\t// in\n    tag_112:\n      mload(0x40)\n      dup1\n      swap2\n      sub\n      swap1\n      revert\n    tag_111:\n        /* \"Contracts/votingSystem.sol\":2553:2561  hasVoted */\n      0x03\n        /* \"Contracts/votingSystem.sol\":2553:2573  hasVoted[electionId] */\n      0x00\n        /* \"Contracts/votingSystem.sol\":2562:2572  electionId */\n      sload(0x06)\n        /* \"Contracts/votingSystem.sol\":2553:2573  hasVoted[electionId] */\n      dup2\n      mstore\n      0x20\n      add\n      swap1\n      dup2\n      mstore\n      0x20\n      add\n      0x00\n      keccak256\n        /* \"Contracts/votingSystem.sol\":2553:2585  hasVoted[electionId][msg.sender] */\n      0x00\n        /* \"Contracts/votingSystem.sol\":2574:2584  msg.sender */\n      caller\n        /* \"Contracts/votingSystem.sol\":2553:2585  hasVoted[electionId][msg.sender] */\n      0xffffffffffffffffffffffffffffffffffffffff\n      and\n      0xffffffffffffffffffffffffffffffffffffffff\n      and\n      dup2\n      mstore\n      0x20\n      add\n      swap1\n      dup2\n      mstore\n      0x20\n      add\n      0x00\n      keccak256\n      0x00\n      swap1\n      sload\n      swap1\n      0x0100\n      exp\n      swap1\n      div\n      0xff\n      and\n        /* \"Contracts/votingSystem.sol\":2552:2585  !hasVoted[electionId][msg.sender] */\n      iszero\n        /* \"Contracts/votingSystem.sol\":2544:2602  require(!hasVoted[electionId][msg.sender],\"Already Voted\") */\n      tag_114\n      jumpi\n      mload(0x40)\n      0x08c379a000000000000000000000000000000000000000000000000000000000\n      dup2\n      mstore\n      0x04\n      add\n      tag_115\n      swap1\n      tag_116\n      jump\t// in\n    tag_115:\n      mload(0x40)\n      dup1\n      swap2\n      sub\n      swap1\n      revert\n    tag_114:\n        /* \"Contracts/votingSystem.sol\":667:670  100 */\n      0x64\n        /* \"Contracts/votingSystem.sol\":2674:2683  voteCount */\n      0x04\n        /* \"Contracts/votingSystem.sol\":2674:2695  voteCount[electionId] */\n      0x00\n        /* \"Contracts/votingSystem.sol\":2684:2694  electionId */\n      sload(0x06)\n        /* \"Contracts/votingSystem.sol\":2674:2695  voteCount[electionId] */\n      dup2\n      mstore\n      0x20\n      add\n      swap1\n      dup2\n      mstore\n      0x20\n      add\n      0x00\n      keccak256\n      sload\n        /* \"Contracts/votingSystem.sol\":2674:2707  voteCount[electionId]< MAX_VOTERS */\n      lt\n        /* \"Contracts/votingSystem.sol\":2666:2730  require(voteCount[electionId]< MAX_VOTERS, \"Max voters reached\") */\n      tag_117\n      jumpi\n      mload(0x40)\n      0x08c379a000000000000000000000000000000000000000000000000000000000\n      dup2\n      mstore\n      0x04\n      add\n      tag_118\n      swap1\n      tag_119\n      jump\t// in\n    tag_118:\n      mload(0x40)\n      dup1\n      swap2\n      sub\n      swap1\n      revert\n    tag_117:\n        /* \"Contracts/votingSystem.sol\":2831:2835  true */\n      0x01\n        /* \"Contracts/votingSystem.sol\":2796:2804  hasVoted */\n      0x03\n        /* \"Contracts/votingSystem.sol\":2796:2816  hasVoted[electionId] */\n      0x00\n        /* \"Contracts/votingSystem.sol\":2805:2815  electionId */\n      sload(0x06)\n        /* \"Contracts/votingSystem.sol\":2796:2816  hasVoted[electionId] */\n      dup2\n      mstore\n      0x20\n      add\n      swap1\n      dup2\n      mstore\n      0x20\n      add\n      0x00\n      keccak256\n        /* \"Contracts/votingSystem.sol\":2796:2828  hasVoted[electionId][msg.sender] */\n      0x00\n        /* \"Contracts/votingSystem.sol\":2817:2827  msg.sender */\n      caller\n        /* \"Contracts/votingSystem.sol\":2796:2828  hasVoted[electionId][msg.sender] */\n      0xffffffffffffffffffffffffffffffffffffffff\n      and\n      0xffffffffffffffffffffffffffffffffffffffff\n      and\n      dup2\n      mstore\n      0x20\n      add\n      swap1\n      dup2\n      mstore\n      0x20\n      add\n      0x00\n      keccak256\n      0x00\n        /* \"Contracts/votingSystem.sol\":2796:2835  hasVoted[electionId][msg.sender] = true */\n      0x0100\n      exp\n      dup2\n      sload\n      dup2\n      0xff\n      mul\n      not\n      and\n      swap1\n      dup4\n      iszero\n      iszero\n      mul\n      or\n      swap1\n      sstore\n      pop\n        /* \"Contracts/votingSystem.sol\":2846:2856  candidates */\n      0x01\n        /* \"Contracts/votingSystem.sol\":2846:2868  candidates[electionId] */\n      0x00\n        /* \"Contracts/votingSystem.sol\":2857:2867  electionId */\n      sload(0x06)\n        /* \"Contracts/votingSystem.sol\":2846:2868  candidates[electionId] */\n      dup2\n      mstore\n      0x20\n      add\n      swap1\n      dup2\n      mstore\n      0x20\n      add\n      0x00\n      keccak256\n        /* \"Contracts/votingSystem.sol\":2846:2881  candidates[electionId][candidateId] */\n      0x00\n        /* \"Contracts/votingSystem.sol\":2869:2880  candidateId */\n      dup3\n        /* \"Contracts/votingSystem.sol\":2846:2881  candidates[electionId][candidateId] */\n      dup2\n      mstore\n      0x20\n      add\n      swap1\n      dup2\n      mstore\n      0x20\n      add\n      0x00\n      keccak256\n        /* \"Contracts/votingSystem.sol\":2846:2891  candidates[electionId][candidateId].voteCount */\n      0x01\n      add\n      0x00\n        /* \"Contracts/votingSystem.sol\":2846:2893  candidates[electionId][candidateId].voteCount++ */\n      dup2\n      sload\n      dup1\n      swap3\n      swap2\n      swap1\n      tag_120\n      swap1\n      tag_121\n      jump\t// in\n    tag_120:\n      swap2\n      swap1\n      pop\n      sstore\n      pop\n        /* \"Contracts/votingSystem.sol\":2942:2951  voteCount */\n      0x04\n        /* \"Contracts/votingSystem.sol\":2942:2963  voteCount[electionId] */\n      0x00\n        /* \"Contracts/votingSystem.sol\":2952:2962  electionId */\n      sload(0x06)\n        /* \"Contracts/votingSystem.sol\":2942:2963  voteCount[electionId] */\n      dup2\n      mstore\n      0x20\n      add\n      swap1\n      dup2\n      mstore\n      0x20\n      add\n      0x00\n      keccak256\n      0x00\n        /* \"Contracts/votingSystem.sol\":2942:2965  voteCount[electionId]++ */\n      dup2\n      sload\n      dup1\n      swap3\n      swap2\n      swap1\n      tag_122\n      swap1\n      tag_121\n      jump\t// in\n    tag_122:\n      swap2\n      swap1\n      pop\n      sstore\n      pop\n        /* \"Contracts/votingSystem.sol\":3001:3012  candidateId */\n      dup1\n        /* \"Contracts/votingSystem.sol\":2989:2999  msg.sender */\n      caller\n        /* \"Contracts/votingSystem.sol\":2980:3013  voteCast(msg.sender, candidateId) */\n      0xffffffffffffffffffffffffffffffffffffffff\n      and\n      0xb6863b9cfc6da0e0313a58a7af7891ccb06314edfe1ed6c02ef59b35891d8a54\n      mload(0x40)\n      mload(0x40)\n      dup1\n      swap2\n      sub\n      swap1\n      log3\n        /* \"Contracts/votingSystem.sol\":2191:3020  function vote( uint256 candidateId ) public {... */\n      pop\n      jump\t// out\n        /* \"Contracts/votingSystem.sol\":724:763  uint256 public immutable votingDeadline */\n    tag_31:\n      immutable(\"0x5bc0457d8881b800fd1bc0d6df907345b3bf287e43a5790ded3d08dbacf9c03a\")\n      dup2\n      jump\t// out\n        /* \"Contracts/votingSystem.sol\":971:996  uint256 public electionId */\n    tag_35:\n      sload(0x06)\n      dup2\n      jump\t// out\n        /* \"Contracts/votingSystem.sol\":4957:5366  function resetElection(string[] memory _candidateNames) public {... */\n    tag_40:\n        /* \"Contracts/votingSystem.sol\":5052:5057  owner */\n      0x05\n      0x01\n      swap1\n      sload\n      swap1\n      0x0100\n      exp\n      swap1\n      div\n      0xffffffffffffffffffffffffffffffffffffffff\n      and\n        /* \"Contracts/votingSystem.sol\":5038:5057  msg.sender == owner */\n      0xffffffffffffffffffffffffffffffffffffffff\n      and\n        /* \"Contracts/votingSystem.sol\":5038:5048  msg.sender */\n      caller\n        /* \"Contracts/votingSystem.sol\":5038:5057  msg.sender == owner */\n      0xffffffffffffffffffffffffffffffffffffffff\n      and\n      eq\n        /* \"Contracts/votingSystem.sol\":5030:5091  require(msg.sender == owner, \"only owner can reset election\") */\n      tag_124\n      jumpi\n      mload(0x40)\n      0x08c379a000000000000000000000000000000000000000000000000000000000\n      dup2\n      mstore\n      0x04\n      add\n      tag_125\n      swap1\n      tag_126\n      jump\t// in\n    tag_125:\n      mload(0x40)\n      dup1\n      swap2\n      sub\n      swap1\n      revert\n    tag_124:\n        /* \"Contracts/votingSystem.sol\":5101:5111  electionId */\n      0x06\n      0x00\n        /* \"Contracts/votingSystem.sol\":5101:5113  electionId++ */\n      dup2\n      sload\n      dup1\n      swap3\n      swap2\n      swap1\n      tag_127\n      swap1\n      tag_121\n      jump\t// in\n    tag_127:\n      swap2\n      swap1\n      pop\n      sstore\n      pop\n        /* \"Contracts/votingSystem.sol\":5139:5154  _candidateNames */\n      dup1\n        /* \"Contracts/votingSystem.sol\":5139:5161  _candidateNames.length */\n      mload\n        /* \"Contracts/votingSystem.sol\":5123:5136  numCandidates */\n      0x00\n        /* \"Contracts/votingSystem.sol\":5123:5161  numCandidates = _candidateNames.length */\n      dup2\n      swap1\n      sstore\n      pop\n        /* \"Contracts/votingSystem.sol\":5182:5187  false */\n      0x00\n        /* \"Contracts/votingSystem.sol\":5171:5179  isClosed */\n      0x05\n      0x00\n        /* \"Contracts/votingSystem.sol\":5171:5187  isClosed = false */\n      0x0100\n      exp\n      dup2\n      sload\n      dup2\n      0xff\n      mul\n      not\n      and\n      swap1\n      dup4\n      iszero\n      iszero\n      mul\n      or\n      swap1\n      sstore\n      pop\n        /* \"Contracts/votingSystem.sol\":5202:5211  uint256 i */\n      0x00\n        /* \"Contracts/votingSystem.sol\":5198:5324  for(uint256 i= 0; i < numCandidates; i++){... */\n    tag_128:\n        /* \"Contracts/votingSystem.sol\":5220:5233  numCandidates */\n      sload(0x00)\n        /* \"Contracts/votingSystem.sol\":5216:5217  i */\n      dup2\n        /* \"Contracts/votingSystem.sol\":5216:5233  i < numCandidates */\n      lt\n        /* \"Contracts/votingSystem.sol\":5198:5324  for(uint256 i= 0; i < numCandidates; i++){... */\n      iszero\n      tag_129\n      jumpi\n        /* \"Contracts/votingSystem.sol\":5281:5313  Candidate(_candidateNames[i], 0) */\n      mload(0x40)\n      dup1\n      0x40\n      add\n      0x40\n      mstore\n      dup1\n        /* \"Contracts/votingSystem.sol\":5291:5306  _candidateNames */\n      dup4\n        /* \"Contracts/votingSystem.sol\":5307:5308  i */\n      dup4\n        /* \"Contracts/votingSystem.sol\":5291:5309  _candidateNames[i] */\n      dup2\n      mload\n      dup2\n      lt\n      tag_131\n      jumpi\n      tag_132\n      tag_133\n      jump\t// in\n    tag_132:\n    tag_131:\n      0x20\n      mul\n      0x20\n      add\n      add\n      mload\n        /* \"Contracts/votingSystem.sol\":5281:5313  Candidate(_candidateNames[i], 0) */\n      dup2\n      mstore\n      0x20\n      add\n        /* \"Contracts/votingSystem.sol\":5311:5312  0 */\n      0x00\n        /* \"Contracts/votingSystem.sol\":5281:5313  Candidate(_candidateNames[i], 0) */\n      dup2\n      mstore\n      pop\n        /* \"Contracts/votingSystem.sol\":5253:5263  candidates */\n      0x01\n        /* \"Contracts/votingSystem.sol\":5253:5275  candidates[electionId] */\n      0x00\n        /* \"Contracts/votingSystem.sol\":5264:5274  electionId */\n      sload(0x06)\n        /* \"Contracts/votingSystem.sol\":5253:5275  candidates[electionId] */\n      dup2\n      mstore\n      0x20\n      add\n      swap1\n      dup2\n      mstore\n      0x20\n      add\n      0x00\n      keccak256\n        /* \"Contracts/votingSystem.sol\":5253:5278  candidates[electionId][i] */\n      0x00\n        /* \"Contracts/votingSystem.sol\":5276:5277  i */\n      dup4\n        /* \"Contracts/votingSystem.sol\":5253:5278  candidates[electionId][i] */\n      dup2\n      mstore\n      0x20\n      add\n      swap1\n      dup2\n      mstore\n      0x20\n      add\n      0x00\n      keccak256\n        /* \"Contracts/votingSystem.sol\":5253:5313  candidates[electionId][i] = Candidate(_candidateNames[i], 0) */\n      0x00\n      dup3\n      add\n      mload\n      dup2\n      0x00\n      add\n      swap1\n      dup2\n      tag_134\n      swap2\n      swap1\n      tag_135\n      jump\t// in\n    tag_134:\n      pop\n      0x20\n      dup3\n      add\n      mload\n      dup2\n      0x01\n      add\n      sstore\n      swap1\n      pop\n      pop\n        /* \"Contracts/votingSystem.sol\":5235:5238  i++ */\n      dup1\n      dup1\n      tag_136\n      swap1\n      tag_121\n      jump\t// in\n    tag_136:\n      swap2\n      pop\n      pop\n        /* \"Contracts/votingSystem.sol\":5198:5324  for(uint256 i= 0; i < numCandidates; i++){... */\n      jump(tag_128)\n    tag_129:\n      pop\n        /* \"Contracts/votingSystem.sol\":5358:5359  0 */\n      0x00\n        /* \"Contracts/votingSystem.sol\":5334:5343  voteCount */\n      0x04\n        /* \"Contracts/votingSystem.sol\":5334:5355  voteCount[electionId] */\n      0x00\n        /* \"Contracts/votingSystem.sol\":5344:5354  electionId */\n      sload(0x06)\n        /* \"Contracts/votingSystem.sol\":5334:5355  voteCount[electionId] */\n      dup2\n      mstore\n      0x20\n      add\n      swap1\n      dup2\n      mstore\n      0x20\n      add\n      0x00\n      keccak256\n        /* \"Contracts/votingSystem.sol\":5334:5359  voteCount[electionId] = 0 */\n      dup2\n      swap1\n      sstore\n      pop\n        /* \"Contracts/votingSystem.sol\":4957:5366  function resetElection(string[] memory _candidateNames) public {... */\n      pop\n      jump\t// out\n        /* \"Contracts/votingSystem.sol\":1474:1723  function registerVoter(address _voter) public {... */\n    tag_44:\n        /* \"Contracts/votingSystem.sol\":1552:1557  owner */\n      0x05\n      0x01\n      swap1\n      sload\n      swap1\n      0x0100\n      exp\n      swap1\n      div\n      0xffffffffffffffffffffffffffffffffffffffff\n      and\n        /* \"Contracts/votingSystem.sol\":1538:1557  msg.sender == owner */\n      0xffffffffffffffffffffffffffffffffffffffff\n      and\n        /* \"Contracts/votingSystem.sol\":1538:1548  msg.sender */\n      caller\n        /* \"Contracts/votingSystem.sol\":1538:1557  msg.sender == owner */\n      0xffffffffffffffffffffffffffffffffffffffff\n      and\n      eq\n        /* \"Contracts/votingSystem.sol\":1530:1593  require(msg.sender == owner, \"only owner can register a voter\") */\n      tag_138\n      jumpi\n      mload(0x40)\n      0x08c379a000000000000000000000000000000000000000000000000000000000\n      dup2\n      mstore\n      0x04\n      add\n      tag_139\n      swap1\n      tag_140\n      jump\t// in\n    tag_139:\n      mload(0x40)\n      dup1\n      swap2\n      sub\n      swap1\n      revert\n    tag_138:\n        /* \"Contracts/votingSystem.sol\":1612:1624  isRegistered */\n      0x02\n        /* \"Contracts/votingSystem.sol\":1612:1636  isRegistered[electionId] */\n      0x00\n        /* \"Contracts/votingSystem.sol\":1625:1635  electionId */\n      sload(0x06)\n        /* \"Contracts/votingSystem.sol\":1612:1636  isRegistered[electionId] */\n      dup2\n      mstore\n      0x20\n      add\n      swap1\n      dup2\n      mstore\n      0x20\n      add\n      0x00\n      keccak256\n        /* \"Contracts/votingSystem.sol\":1612:1644  isRegistered[electionId][_voter] */\n      0x00\n        /* \"Contracts/votingSystem.sol\":1637:1643  _voter */\n      dup3\n        /* \"Contracts/votingSystem.sol\":1612:1644  isRegistered[electionId][_voter] */\n      0xffffffffffffffffffffffffffffffffffffffff\n      and\n      0xffffffffffffffffffffffffffffffffffffffff\n      and\n      dup2\n      mstore\n      0x20\n      add\n      swap1\n      dup2\n      mstore\n      0x20\n      add\n      0x00\n      keccak256\n      0x00\n      swap1\n      sload\n      swap1\n      0x0100\n      exp\n      swap1\n      div\n      0xff\n      and\n        /* \"Contracts/votingSystem.sol\":1611:1644  !isRegistered[electionId][_voter] */\n      iszero\n        /* \"Contracts/votingSystem.sol\":1603:1666  require(!isRegistered[electionId][_voter],\"already registered\") */\n      tag_141\n      jumpi\n      mload(0x40)\n      0x08c379a000000000000000000000000000000000000000000000000000000000\n      dup2\n      mstore\n      0x04\n      add\n      tag_142\n      swap1\n      tag_143\n      jump\t// in\n    tag_142:\n      mload(0x40)\n      dup1\n      swap2\n      sub\n      swap1\n      revert\n    tag_141:\n        /* \"Contracts/votingSystem.sol\":1712:1716  true */\n      0x01\n        /* \"Contracts/votingSystem.sol\":1677:1689  isRegistered */\n      0x02\n        /* \"Contracts/votingSystem.sol\":1677:1701  isRegistered[electionId] */\n      0x00\n        /* \"Contracts/votingSystem.sol\":1690:1700  electionId */\n      sload(0x06)\n        /* \"Contracts/votingSystem.sol\":1677:1701  isRegistered[electionId] */\n      dup2\n      mstore\n      0x20\n      add\n      swap1\n      dup2\n      mstore\n      0x20\n      add\n      0x00\n      keccak256\n        /* \"Contracts/votingSystem.sol\":1677:1709  isRegistered[electionId][_voter] */\n      0x00\n        /* \"Contracts/votingSystem.sol\":1702:1708  _voter */\n      dup4\n        /* \"Contracts/votingSystem.sol\":1677:1709  isRegistered[electionId][_voter] */\n      0xffffffffffffffffffffffffffffffffffffffff\n      and\n      0xffffffffffffffffffffffffffffffffffffffff\n      and\n      dup2\n      mstore\n      0x20\n      add\n      swap1\n      dup2\n      mstore\n      0x20\n      add\n      0x00\n      keccak256\n      0x00\n        /* \"Contracts/votingSystem.sol\":1677:1716  isRegistered[electionId][_voter] = true */\n      0x0100\n      exp\n      dup2\n      sload\n      dup2\n      0xff\n      mul\n      not\n      and\n      swap1\n      dup4\n      iszero\n      iszero\n      mul\n      or\n      swap1\n      sstore\n      pop\n        /* \"Contracts/votingSystem.sol\":1474:1723  function registerVoter(address _voter) public {... */\n      pop\n      jump\t// out\n        /* \"Contracts/votingSystem.sol\":630:670  uint256 public constant MAX_VOTERS = 100 */\n    tag_46:\n        /* \"Contracts/votingSystem.sol\":667:670  100 */\n      0x64\n        /* \"Contracts/votingSystem.sol\":630:670  uint256 public constant MAX_VOTERS = 100 */\n      dup2\n      jump\t// out\n        /* \"Contracts/votingSystem.sol\":460:522  mapping( uint256 => mapping(address => bool)) public  hasVoted */\n    tag_51:\n      mstore(0x20, 0x03)\n      dup2\n      0x00\n      mstore\n      mstore(0x20, keccak256(0x00, 0x40))\n      dup1\n      0x00\n      mstore\n      keccak256(0x00, 0x40)\n      0x00\n      swap2\n      pop\n      swap2\n      pop\n      swap1\n      sload\n      swap1\n      0x0100\n      exp\n      swap1\n      div\n      0xff\n      and\n      dup2\n      jump\t// out\n        /* \"Contracts/votingSystem.sol\":528:573  mapping( uint256 => uint256) public voteCount */\n    tag_56:\n      mstore(0x20, 0x04)\n      dup1\n      0x00\n      mstore\n      keccak256(0x00, 0x40)\n      0x00\n      swap2\n      pop\n      swap1\n      pop\n      sload\n      dup2\n      jump\t// out\n        /* \"Contracts/votingSystem.sol\":280:308  uint256 public numCandidates */\n    tag_59:\n      sload(0x00)\n      dup2\n      jump\t// out\n        /* \"Contracts/votingSystem.sol\":315:383  mapping( uint256 => mapping(uint256 => Candidate)) public candidates */\n    tag_64:\n      mstore(0x20, 0x01)\n      dup2\n      0x00\n      mstore\n      mstore(0x20, keccak256(0x00, 0x40))\n      dup1\n      0x00\n      mstore\n      keccak256(0x00, 0x40)\n      0x00\n      swap2\n      pop\n      swap2\n      pop\n      pop\n      dup1\n      0x00\n      add\n      dup1\n      sload\n      tag_144\n      swap1\n      tag_145\n      jump\t// in\n    tag_144:\n      dup1\n      0x1f\n      add\n      0x20\n      dup1\n      swap2\n      div\n      mul\n      0x20\n      add\n      mload(0x40)\n      swap1\n      dup2\n      add\n      0x40\n      mstore\n      dup1\n      swap3\n      swap2\n      swap1\n      dup2\n      dup2\n      mstore\n      0x20\n      add\n      dup3\n      dup1\n      sload\n      tag_146\n      swap1\n      tag_145\n      jump\t// in\n    tag_146:\n      dup1\n      iszero\n      tag_147\n      jumpi\n      dup1\n      0x1f\n      lt\n      tag_148\n      jumpi\n      0x0100\n      dup1\n      dup4\n      sload\n      div\n      mul\n      dup4\n      mstore\n      swap2\n      0x20\n      add\n      swap2\n      jump(tag_147)\n    tag_148:\n      dup3\n      add\n      swap2\n      swap1\n      0x00\n      mstore\n      keccak256(0x00, 0x20)\n      swap1\n    tag_149:\n      dup2\n      sload\n      dup2\n      mstore\n      swap1\n      0x01\n      add\n      swap1\n      0x20\n      add\n      dup1\n      dup4\n      gt\n      tag_149\n      jumpi\n      dup3\n      swap1\n      sub\n      0x1f\n      and\n      dup3\n      add\n      swap2\n    tag_147:\n      pop\n      pop\n      pop\n      pop\n      pop\n      swap1\n      dup1\n      0x01\n      add\n      sload\n      swap1\n      pop\n      dup3\n      jump\t// out\n        /* \"Contracts/votingSystem.sol\":3618:4443  function getTiedWinners() public view returns (uint256 [] memory){... */\n    tag_68:\n        /* \"Contracts/votingSystem.sol\":3665:3682  uint256 [] memory */\n      0x60\n        /* \"Contracts/votingSystem.sol\":3693:3709  uint256 maxVotes */\n      0x00\n        /* \"Contracts/votingSystem.sol\":3728:3737  uint256 i */\n      dup1\n        /* \"Contracts/votingSystem.sol\":3723:3917  for (uint256 i= 0; i<numCandidates ; i++){... */\n    tag_151:\n        /* \"Contracts/votingSystem.sol\":3744:3757  numCandidates */\n      sload(0x00)\n        /* \"Contracts/votingSystem.sol\":3742:3743  i */\n      dup2\n        /* \"Contracts/votingSystem.sol\":3742:3757  i<numCandidates */\n      lt\n        /* \"Contracts/votingSystem.sol\":3723:3917  for (uint256 i= 0; i<numCandidates ; i++){... */\n      iszero\n      tag_152\n      jumpi\n        /* \"Contracts/votingSystem.sol\":3819:3827  maxVotes */\n      dup2\n        /* \"Contracts/votingSystem.sol\":3781:3791  candidates */\n      0x01\n        /* \"Contracts/votingSystem.sol\":3781:3803  candidates[electionId] */\n      0x00\n        /* \"Contracts/votingSystem.sol\":3792:3802  electionId */\n      sload(0x06)\n        /* \"Contracts/votingSystem.sol\":3781:3803  candidates[electionId] */\n      dup2\n      mstore\n      0x20\n      add\n      swap1\n      dup2\n      mstore\n      0x20\n      add\n      0x00\n      keccak256\n        /* \"Contracts/votingSystem.sol\":3781:3806  candidates[electionId][i] */\n      0x00\n        /* \"Contracts/votingSystem.sol\":3804:3805  i */\n      dup4\n        /* \"Contracts/votingSystem.sol\":3781:3806  candidates[electionId][i] */\n      dup2\n      mstore\n      0x20\n      add\n      swap1\n      dup2\n      mstore\n      0x20\n      add\n      0x00\n      keccak256\n        /* \"Contracts/votingSystem.sol\":3781:3816  candidates[electionId][i].voteCount */\n      0x01\n      add\n      sload\n        /* \"Contracts/votingSystem.sol\":3781:3827  candidates[electionId][i].voteCount > maxVotes */\n      gt\n        /* \"Contracts/votingSystem.sol\":3778:3907  if(candidates[electionId][i].voteCount > maxVotes){... */\n      iszero\n      tag_154\n      jumpi\n        /* \"Contracts/votingSystem.sol\":3857:3867  candidates */\n      0x01\n        /* \"Contracts/votingSystem.sol\":3857:3879  candidates[electionId] */\n      0x00\n        /* \"Contracts/votingSystem.sol\":3868:3878  electionId */\n      sload(0x06)\n        /* \"Contracts/votingSystem.sol\":3857:3879  candidates[electionId] */\n      dup2\n      mstore\n      0x20\n      add\n      swap1\n      dup2\n      mstore\n      0x20\n      add\n      0x00\n      keccak256\n        /* \"Contracts/votingSystem.sol\":3857:3882  candidates[electionId][i] */\n      0x00\n        /* \"Contracts/votingSystem.sol\":3880:3881  i */\n      dup3\n        /* \"Contracts/votingSystem.sol\":3857:3882  candidates[electionId][i] */\n      dup2\n      mstore\n      0x20\n      add\n      swap1\n      dup2\n      mstore\n      0x20\n      add\n      0x00\n      keccak256\n        /* \"Contracts/votingSystem.sol\":3857:3892  candidates[electionId][i].voteCount */\n      0x01\n      add\n      sload\n        /* \"Contracts/votingSystem.sol\":3846:3892  maxVotes = candidates[electionId][i].voteCount */\n      swap2\n      pop\n        /* \"Contracts/votingSystem.sol\":3778:3907  if(candidates[electionId][i].voteCount > maxVotes){... */\n    tag_154:\n        /* \"Contracts/votingSystem.sol\":3760:3763  i++ */\n      dup1\n      dup1\n      tag_155\n      swap1\n      tag_121\n      jump\t// in\n    tag_155:\n      swap2\n      pop\n      pop\n        /* \"Contracts/votingSystem.sol\":3723:3917  for (uint256 i= 0; i<numCandidates ; i++){... */\n      jump(tag_151)\n    tag_152:\n      pop\n        /* \"Contracts/votingSystem.sol\":3927:3940  uint256 count */\n      0x00\n        /* \"Contracts/votingSystem.sol\":3959:3968  uint256 i */\n      dup1\n        /* \"Contracts/votingSystem.sol\":3954:4112  for (uint256 i = 0; i<numCandidates ; i++){... */\n    tag_156:\n        /* \"Contracts/votingSystem.sol\":3976:3989  numCandidates */\n      sload(0x00)\n        /* \"Contracts/votingSystem.sol\":3974:3975  i */\n      dup2\n        /* \"Contracts/votingSystem.sol\":3974:3989  i<numCandidates */\n      lt\n        /* \"Contracts/votingSystem.sol\":3954:4112  for (uint256 i = 0; i<numCandidates ; i++){... */\n      iszero\n      tag_157\n      jumpi\n        /* \"Contracts/votingSystem.sol\":4053:4061  maxVotes */\n      dup3\n        /* \"Contracts/votingSystem.sol\":4014:4024  candidates */\n      0x01\n        /* \"Contracts/votingSystem.sol\":4014:4036  candidates[electionId] */\n      0x00\n        /* \"Contracts/votingSystem.sol\":4025:4035  electionId */\n      sload(0x06)\n        /* \"Contracts/votingSystem.sol\":4014:4036  candidates[electionId] */\n      dup2\n      mstore\n      0x20\n      add\n      swap1\n      dup2\n      mstore\n      0x20\n      add\n      0x00\n      keccak256\n        /* \"Contracts/votingSystem.sol\":4014:4039  candidates[electionId][i] */\n      0x00\n        /* \"Contracts/votingSystem.sol\":4037:4038  i */\n      dup4\n        /* \"Contracts/votingSystem.sol\":4014:4039  candidates[electionId][i] */\n      dup2\n      mstore\n      0x20\n      add\n      swap1\n      dup2\n      mstore\n      0x20\n      add\n      0x00\n      keccak256\n        /* \"Contracts/votingSystem.sol\":4014:4049  candidates[electionId][i].voteCount */\n      0x01\n      add\n      sload\n        /* \"Contracts/votingSystem.sol\":4014:4061  candidates[electionId][i].voteCount == maxVotes */\n      sub\n        /* \"Contracts/votingSystem.sol\":4010:4102  if (candidates[electionId][i].voteCount == maxVotes){... */\n      tag_159\n      jumpi\n        /* \"Contracts/votingSystem.sol\":4080:4087  count++ */\n      dup2\n      dup1\n      tag_160\n      swap1\n      tag_121\n      jump\t// in\n    tag_160:\n      swap3\n      pop\n      pop\n        /* \"Contracts/votingSystem.sol\":4010:4102  if (candidates[electionId][i].voteCount == maxVotes){... */\n    tag_159:\n        /* \"Contracts/votingSystem.sol\":3992:3995  i++ */\n      dup1\n      dup1\n      tag_161\n      swap1\n      tag_121\n      jump\t// in\n    tag_161:\n      swap2\n      pop\n      pop\n        /* \"Contracts/votingSystem.sol\":3954:4112  for (uint256 i = 0; i<numCandidates ; i++){... */\n      jump(tag_156)\n    tag_157:\n      pop\n        /* \"Contracts/votingSystem.sol\":4122:4150  uint256[] memory tiedWinners */\n      0x00\n        /* \"Contracts/votingSystem.sol\":4168:4173  count */\n      dup2\n        /* \"Contracts/votingSystem.sol\":4153:4174  new  uint256[](count) */\n      0xffffffffffffffff\n      dup2\n      gt\n      iszero\n      tag_162\n      jumpi\n      tag_163\n      tag_164\n      jump\t// in\n    tag_163:\n    tag_162:\n      mload(0x40)\n      swap1\n      dup1\n      dup3\n      mstore\n      dup1\n      0x20\n      mul\n      0x20\n      add\n      dup3\n      add\n      0x40\n      mstore\n      dup1\n      iszero\n      tag_165\n      jumpi\n      dup2\n      0x20\n      add\n      0x20\n      dup3\n      mul\n      dup1\n      calldatasize\n      dup4\n      calldatacopy\n      dup1\n      dup3\n      add\n      swap2\n      pop\n      pop\n      swap1\n      pop\n    tag_165:\n      pop\n        /* \"Contracts/votingSystem.sol\":4122:4174  uint256[] memory tiedWinners = new  uint256[](count) */\n      swap1\n      pop\n        /* \"Contracts/votingSystem.sol\":4185:4198  uint256 index */\n      0x00\n        /* \"Contracts/votingSystem.sol\":4218:4227  uint256 i */\n      dup1\n        /* \"Contracts/votingSystem.sol\":4213:4408  for (uint256 i=0 ; i<numCandidates ; i++){... */\n    tag_166:\n        /* \"Contracts/votingSystem.sol\":4234:4247  numCandidates */\n      sload(0x00)\n        /* \"Contracts/votingSystem.sol\":4232:4233  i */\n      dup2\n        /* \"Contracts/votingSystem.sol\":4232:4247  i<numCandidates */\n      lt\n        /* \"Contracts/votingSystem.sol\":4213:4408  for (uint256 i=0 ; i<numCandidates ; i++){... */\n      iszero\n      tag_167\n      jumpi\n        /* \"Contracts/votingSystem.sol\":4310:4318  maxVotes */\n      dup5\n        /* \"Contracts/votingSystem.sol\":4271:4281  candidates */\n      0x01\n        /* \"Contracts/votingSystem.sol\":4271:4293  candidates[electionId] */\n      0x00\n        /* \"Contracts/votingSystem.sol\":4282:4292  electionId */\n      sload(0x06)\n        /* \"Contracts/votingSystem.sol\":4271:4293  candidates[electionId] */\n      dup2\n      mstore\n      0x20\n      add\n      swap1\n      dup2\n      mstore\n      0x20\n      add\n      0x00\n      keccak256\n        /* \"Contracts/votingSystem.sol\":4271:4296  candidates[electionId][i] */\n      0x00\n        /* \"Contracts/votingSystem.sol\":4294:4295  i */\n      dup4\n        /* \"Contracts/votingSystem.sol\":4271:4296  candidates[electionId][i] */\n      dup2\n      mstore\n      0x20\n      add\n      swap1\n      dup2\n      mstore\n      0x20\n      add\n      0x00\n      keccak256\n        /* \"Contracts/votingSystem.sol\":4271:4306  candidates[electionId][i].voteCount */\n      0x01\n      add\n      sload\n        /* \"Contracts/votingSystem.sol\":4271:4318  candidates[electionId][i].voteCount == maxVotes */\n      sub\n        /* \"Contracts/votingSystem.sol\":4268:4398  if(candidates[electionId][i].voteCount == maxVotes){... */\n      tag_169\n      jumpi\n        /* \"Contracts/votingSystem.sol\":4357:4358  i */\n      dup1\n        /* \"Contracts/votingSystem.sol\":4337:4348  tiedWinners */\n      dup4\n        /* \"Contracts/votingSystem.sol\":4349:4354  index */\n      dup4\n        /* \"Contracts/votingSystem.sol\":4337:4355  tiedWinners[index] */\n      dup2\n      mload\n      dup2\n      lt\n      tag_170\n      jumpi\n      tag_171\n      tag_133\n      jump\t// in\n    tag_171:\n    tag_170:\n      0x20\n      mul\n      0x20\n      add\n      add\n        /* \"Contracts/votingSystem.sol\":4337:4358  tiedWinners[index]= i */\n      dup2\n      dup2\n      mstore\n      pop\n      pop\n        /* \"Contracts/votingSystem.sol\":4376:4383  index++ */\n      dup2\n      dup1\n      tag_172\n      swap1\n      tag_121\n      jump\t// in\n    tag_172:\n      swap3\n      pop\n      pop\n        /* \"Contracts/votingSystem.sol\":4268:4398  if(candidates[electionId][i].voteCount == maxVotes){... */\n    tag_169:\n        /* \"Contracts/votingSystem.sol\":4250:4253  i++ */\n      dup1\n      dup1\n      tag_173\n      swap1\n      tag_121\n      jump\t// in\n    tag_173:\n      swap2\n      pop\n      pop\n        /* \"Contracts/votingSystem.sol\":4213:4408  for (uint256 i=0 ; i<numCandidates ; i++){... */\n      jump(tag_166)\n    tag_167:\n      pop\n        /* \"Contracts/votingSystem.sol\":4425:4436  tiedWinners */\n      dup2\n        /* \"Contracts/votingSystem.sol\":4418:4436  return tiedWinners */\n      swap5\n      pop\n      pop\n      pop\n      pop\n      pop\n        /* \"Contracts/votingSystem.sol\":3618:4443  function getTiedWinners() public view returns (uint256 [] memory){... */\n      swap1\n      jump\t// out\n        /* \"Contracts/votingSystem.sol\":945:965  address public owner */\n    tag_72:\n      0x05\n      0x01\n      swap1\n      sload\n      swap1\n      0x0100\n      exp\n      swap1\n      div\n      0xffffffffffffffffffffffffffffffffffffffff\n      and\n      dup2\n      jump\t// out\n        /* \"Contracts/votingSystem.sol\":3237:3612  function getWinner() public view returns (uint256 winnerId){... */\n    tag_76:\n        /* \"Contracts/votingSystem.sol\":3279:3295  uint256 winnerId */\n      0x00\n        /* \"Contracts/votingSystem.sol\":3306:3322  uint256 maxVotes */\n      dup1\n        /* \"Contracts/votingSystem.sol\":3325:3326  0 */\n      0x00\n        /* \"Contracts/votingSystem.sol\":3306:3326  uint256 maxVotes = 0 */\n      swap1\n      pop\n        /* \"Contracts/votingSystem.sol\":3347:3348  0 */\n      0x00\n        /* \"Contracts/votingSystem.sol\":3336:3348  winnerId = 0 */\n      swap2\n      pop\n        /* \"Contracts/votingSystem.sol\":3363:3372  uint256 i */\n      0x00\n        /* \"Contracts/votingSystem.sol\":3373:3374  1 */\n      0x01\n        /* \"Contracts/votingSystem.sol\":3363:3374  uint256 i=1 */\n      swap1\n      pop\n        /* \"Contracts/votingSystem.sol\":3359:3580  for(uint256 i=1 ; i< numCandidates; i++){... */\n    tag_175:\n        /* \"Contracts/votingSystem.sol\":3380:3393  numCandidates */\n      sload(0x00)\n        /* \"Contracts/votingSystem.sol\":3377:3378  i */\n      dup2\n        /* \"Contracts/votingSystem.sol\":3377:3393  i< numCandidates */\n      lt\n        /* \"Contracts/votingSystem.sol\":3359:3580  for(uint256 i=1 ; i< numCandidates; i++){... */\n      iszero\n      tag_176\n      jumpi\n        /* \"Contracts/votingSystem.sol\":3453:3461  maxVotes */\n      dup2\n        /* \"Contracts/votingSystem.sol\":3417:3427  candidates */\n      0x01\n        /* \"Contracts/votingSystem.sol\":3417:3439  candidates[electionId] */\n      0x00\n        /* \"Contracts/votingSystem.sol\":3428:3438  electionId */\n      sload(0x06)\n        /* \"Contracts/votingSystem.sol\":3417:3439  candidates[electionId] */\n      dup2\n      mstore\n      0x20\n      add\n      swap1\n      dup2\n      mstore\n      0x20\n      add\n      0x00\n      keccak256\n        /* \"Contracts/votingSystem.sol\":3417:3442  candidates[electionId][i] */\n      0x00\n        /* \"Contracts/votingSystem.sol\":3440:3441  i */\n      dup4\n        /* \"Contracts/votingSystem.sol\":3417:3442  candidates[electionId][i] */\n      dup2\n      mstore\n      0x20\n      add\n      swap1\n      dup2\n      mstore\n      0x20\n      add\n      0x00\n      keccak256\n        /* \"Contracts/votingSystem.sol\":3417:3452  candidates[electionId][i].voteCount */\n      0x01\n      add\n      sload\n        /* \"Contracts/votingSystem.sol\":3417:3461  candidates[electionId][i].voteCount>maxVotes */\n      gt\n        /* \"Contracts/votingSystem.sol\":3413:3570  if (candidates[electionId][i].voteCount>maxVotes){... */\n      iszero\n      tag_178\n      jumpi\n        /* \"Contracts/votingSystem.sol\":3491:3501  candidates */\n      0x01\n        /* \"Contracts/votingSystem.sol\":3491:3513  candidates[electionId] */\n      0x00\n        /* \"Contracts/votingSystem.sol\":3502:3512  electionId */\n      sload(0x06)\n        /* \"Contracts/votingSystem.sol\":3491:3513  candidates[electionId] */\n      dup2\n      mstore\n      0x20\n      add\n      swap1\n      dup2\n      mstore\n      0x20\n      add\n      0x00\n      keccak256\n        /* \"Contracts/votingSystem.sol\":3491:3516  candidates[electionId][i] */\n      0x00\n        /* \"Contracts/votingSystem.sol\":3514:3515  i */\n      dup3\n        /* \"Contracts/votingSystem.sol\":3491:3516  candidates[electionId][i] */\n      dup2\n      mstore\n      0x20\n      add\n      swap1\n      dup2\n      mstore\n      0x20\n      add\n      0x00\n      keccak256\n        /* \"Contracts/votingSystem.sol\":3491:3526  candidates[electionId][i].voteCount */\n      0x01\n      add\n      sload\n        /* \"Contracts/votingSystem.sol\":3480:3526  maxVotes = candidates[electionId][i].voteCount */\n      swap2\n      pop\n        /* \"Contracts/votingSystem.sol\":3554:3555  i */\n      dup1\n        /* \"Contracts/votingSystem.sol\":3544:3555  winnerId= i */\n      swap3\n      pop\n        /* \"Contracts/votingSystem.sol\":3413:3570  if (candidates[electionId][i].voteCount>maxVotes){... */\n    tag_178:\n        /* \"Contracts/votingSystem.sol\":3395:3398  i++ */\n      dup1\n      dup1\n      tag_179\n      swap1\n      tag_121\n      jump\t// in\n    tag_179:\n      swap2\n      pop\n      pop\n        /* \"Contracts/votingSystem.sol\":3359:3580  for(uint256 i=1 ; i< numCandidates; i++){... */\n      jump(tag_175)\n    tag_176:\n      pop\n        /* \"Contracts/votingSystem.sol\":3590:3605  return winnerId */\n      pop\n        /* \"Contracts/votingSystem.sol\":3237:3612  function getWinner() public view returns (uint256 winnerId){... */\n      swap1\n      jump\t// out\n        /* \"Contracts/votingSystem.sol\":3026:3231  function getResult(uint256 candidateId) public view returns (uint256){... */\n    tag_80:\n        /* \"Contracts/votingSystem.sol\":3087:3094  uint256 */\n      0x00\n        /* \"Contracts/votingSystem.sol\":3127:3140  numCandidates */\n      dup1\n      sload\n        /* \"Contracts/votingSystem.sol\":3113:3124  candidateId */\n      dup3\n        /* \"Contracts/votingSystem.sol\":3113:3140  candidateId < numCandidates */\n      lt\n        /* \"Contracts/votingSystem.sol\":3105:3162  require(candidateId < numCandidates, \"Invalid Candidate\") */\n      tag_181\n      jumpi\n      mload(0x40)\n      0x08c379a000000000000000000000000000000000000000000000000000000000\n      dup2\n      mstore\n      0x04\n      add\n      tag_182\n      swap1\n      tag_183\n      jump\t// in\n    tag_182:\n      mload(0x40)\n      dup1\n      swap2\n      sub\n      swap1\n      revert\n    tag_181:\n        /* \"Contracts/votingSystem.sol\":3179:3189  candidates */\n      0x01\n        /* \"Contracts/votingSystem.sol\":3179:3201  candidates[electionId] */\n      0x00\n        /* \"Contracts/votingSystem.sol\":3190:3200  electionId */\n      sload(0x06)\n        /* \"Contracts/votingSystem.sol\":3179:3201  candidates[electionId] */\n      dup2\n      mstore\n      0x20\n      add\n      swap1\n      dup2\n      mstore\n      0x20\n      add\n      0x00\n      keccak256\n        /* \"Contracts/votingSystem.sol\":3179:3214  candidates[electionId][candidateId] */\n      0x00\n        /* \"Contracts/votingSystem.sol\":3202:3213  candidateId */\n      dup4\n        /* \"Contracts/votingSystem.sol\":3179:3214  candidates[electionId][candidateId] */\n      dup2\n      mstore\n      0x20\n      add\n      swap1\n      dup2\n      mstore\n      0x20\n      add\n      0x00\n      keccak256\n        /* \"Contracts/votingSystem.sol\":3179:3224  candidates[electionId][candidateId].voteCount */\n      0x01\n      add\n      sload\n        /* \"Contracts/votingSystem.sol\":3172:3224  return candidates[electionId][candidateId].voteCount */\n      swap1\n      pop\n        /* \"Contracts/votingSystem.sol\":3026:3231  function getResult(uint256 candidateId) public view returns (uint256){... */\n      swap2\n      swap1\n      pop\n      jump\t// out\n        /* \"Contracts/votingSystem.sol\":389:454  mapping( uint256 => mapping(address => bool)) public isRegistered */\n    tag_84:\n      mstore(0x20, 0x02)\n      dup2\n      0x00\n      mstore\n      mstore(0x20, keccak256(0x00, 0x40))\n      dup1\n      0x00\n      mstore\n      keccak256(0x00, 0x40)\n      0x00\n      swap2\n      pop\n      swap2\n      pop\n      swap1\n      sload\n      swap1\n      0x0100\n      exp\n      swap1\n      div\n      0xff\n      and\n      dup2\n      jump\t// out\n        /* \"Contracts/votingSystem.sol\":827:847  bool public isClosed */\n    tag_87:\n      0x05\n      0x00\n      swap1\n      sload\n      swap1\n      0x0100\n      exp\n      swap1\n      div\n      0xff\n      and\n      dup2\n      jump\t// out\n        /* \"Contracts/votingSystem.sol\":1778:1974  function closeVoting() public {... */\n    tag_90:\n        /* \"Contracts/votingSystem.sol\":1827:1835  isClosed */\n      0x05\n      0x00\n      swap1\n      sload\n      swap1\n      0x0100\n      exp\n      swap1\n      div\n      0xff\n      and\n        /* \"Contracts/votingSystem.sol\":1826:1835  !isClosed */\n      iszero\n        /* \"Contracts/votingSystem.sol\":1818:1859  require(!isClosed, \"it is already close\") */\n      tag_185\n      jumpi\n      mload(0x40)\n      0x08c379a000000000000000000000000000000000000000000000000000000000\n      dup2\n      mstore\n      0x04\n      add\n      tag_186\n      swap1\n      tag_187\n      jump\t// in\n    tag_186:\n      mload(0x40)\n      dup1\n      swap2\n      sub\n      swap1\n      revert\n    tag_185:\n        /* \"Contracts/votingSystem.sol\":1891:1896  owner */\n      0x05\n      0x01\n      swap1\n      sload\n      swap1\n      0x0100\n      exp\n      swap1\n      div\n      0xffffffffffffffffffffffffffffffffffffffff\n      and\n        /* \"Contracts/votingSystem.sol\":1877:1896  msg.sender == owner */\n      0xffffffffffffffffffffffffffffffffffffffff\n      and\n        /* \"Contracts/votingSystem.sol\":1877:1887  msg.sender */\n      caller\n        /* \"Contracts/votingSystem.sol\":1877:1896  msg.sender == owner */\n      0xffffffffffffffffffffffffffffffffffffffff\n      and\n      eq\n        /* \"Contracts/votingSystem.sol\":1869:1942  require(msg.sender == owner,\"only the owner can close the voting system\") */\n      tag_188\n      jumpi\n      mload(0x40)\n      0x08c379a000000000000000000000000000000000000000000000000000000000\n      dup2\n      mstore\n      0x04\n      add\n      tag_189\n      swap1\n      tag_190\n      jump\t// in\n    tag_189:\n      mload(0x40)\n      dup1\n      swap2\n      sub\n      swap1\n      revert\n    tag_188:\n        /* \"Contracts/votingSystem.sol\":1963:1967  true */\n      0x01\n        /* \"Contracts/votingSystem.sol\":1952:1960  isClosed */\n      0x05\n      0x00\n        /* \"Contracts/votingSystem.sol\":1952:1967  isClosed = true */\n      0x0100\n      exp\n      dup2\n      sload\n      dup2\n      0xff\n      mul\n      not\n      and\n      swap1\n      dup4\n      iszero\n      iszero\n      mul\n      or\n      swap1\n      sstore\n      pop\n        /* \"Contracts/votingSystem.sol\":1778:1974  function closeVoting() public {... */\n      jump\t// out\n        /* \"Contracts/votingSystem.sol\":4449:4665  function getCandidateName(uint256 candidateId) public view returns (string memory){... */\n    tag_93:\n        /* \"Contracts/votingSystem.sol\":4517:4530  string memory */\n      0x60\n        /* \"Contracts/votingSystem.sol\":4563:4576  numCandidates */\n      sload(0x00)\n        /* \"Contracts/votingSystem.sol\":4549:4560  candidateId */\n      dup3\n        /* \"Contracts/votingSystem.sol\":4549:4576  candidateId < numCandidates */\n      lt\n        /* \"Contracts/votingSystem.sol\":4541:4601  require(candidateId < numCandidates, \"invalid candidate ID\") */\n      tag_192\n      jumpi\n      mload(0x40)\n      0x08c379a000000000000000000000000000000000000000000000000000000000\n      dup2\n      mstore\n      0x04\n      add\n      tag_193\n      swap1\n      tag_194\n      jump\t// in\n    tag_193:\n      mload(0x40)\n      dup1\n      swap2\n      sub\n      swap1\n      revert\n    tag_192:\n        /* \"Contracts/votingSystem.sol\":4618:4628  candidates */\n      0x01\n        /* \"Contracts/votingSystem.sol\":4618:4640  candidates[electionId] */\n      0x00\n        /* \"Contracts/votingSystem.sol\":4629:4639  electionId */\n      sload(0x06)\n        /* \"Contracts/votingSystem.sol\":4618:4640  candidates[electionId] */\n      dup2\n      mstore\n      0x20\n      add\n      swap1\n      dup2\n      mstore\n      0x20\n      add\n      0x00\n      keccak256\n        /* \"Contracts/votingSystem.sol\":4618:4653  candidates[electionId][candidateId] */\n      0x00\n        /* \"Contracts/votingSystem.sol\":4641:4652  candidateId */\n      dup4\n        /* \"Contracts/votingSystem.sol\":4618:4653  candidates[electionId][candidateId] */\n      dup2\n      mstore\n      0x20\n      add\n      swap1\n      dup2\n      mstore\n      0x20\n      add\n      0x00\n      keccak256\n        /* \"Contracts/votingSystem.sol\":4618:4658  candidates[electionId][candidateId].name */\n      0x00\n      add\n        /* \"Contracts/votingSystem.sol\":4611:4658  return candidates[electionId][candidateId].name */\n      dup1\n      sload\n      tag_195\n      swap1\n      tag_145\n      jump\t// in\n    tag_195:\n      dup1\n      0x1f\n      add\n      0x20\n      dup1\n      swap2\n      div\n      mul\n      0x20\n      add\n      mload(0x40)\n      swap1\n      dup2\n      add\n      0x40\n      mstore\n      dup1\n      swap3\n      swap2\n      swap1\n      dup2\n      dup2\n      mstore\n      0x20\n      add\n      dup3\n      dup1\n      sload\n      tag_196\n      swap1\n      tag_145\n      jump\t// in\n    tag_196:\n      dup1\n      iszero\n      tag_197\n      jumpi\n      dup1\n      0x1f\n      lt\n      tag_198\n      jumpi\n      0x0100\n      dup1\n      dup4\n      sload\n      div\n      mul\n      dup4\n      mstore\n      swap2\n      0x20\n      add\n      swap2\n      jump(tag_197)\n    tag_198:\n      dup3\n      add\n      swap2\n      swap1\n      0x00\n      mstore\n      keccak256(0x00, 0x20)\n      swap1\n    tag_199:\n      dup2\n      sload\n      dup2\n      mstore\n      swap1\n      0x01\n      add\n      swap1\n      0x20\n      add\n      dup1\n      dup4\n      gt\n      tag_199\n      jumpi\n      dup3\n      swap1\n      sub\n      0x1f\n      and\n      dup3\n      add\n      swap2\n    tag_197:\n      pop\n      pop\n      pop\n      pop\n      pop\n      swap1\n      pop\n        /* \"Contracts/votingSystem.sol\":4449:4665  function getCandidateName(uint256 candidateId) public view returns (string memory){... */\n      swap2\n      swap1\n      pop\n      jump\t// out\n        /* \"Contracts/votingSystem.sol\":4671:4951  function getAllCandidate() public view returns(Candidate[] memory){... */\n    tag_97:\n        /* \"Contracts/votingSystem.sol\":4718:4736  Candidate[] memory */\n      0x60\n        /* \"Contracts/votingSystem.sol\":4747:4772  Candidate[] memory result */\n      0x00\n        /* \"Contracts/votingSystem.sol\":4792:4805  numCandidates */\n      dup1\n      sload\n        /* \"Contracts/votingSystem.sol\":4775:4806  new  Candidate[](numCandidates) */\n      0xffffffffffffffff\n      dup2\n      gt\n      iszero\n      tag_201\n      jumpi\n      tag_202\n      tag_164\n      jump\t// in\n    tag_202:\n    tag_201:\n      mload(0x40)\n      swap1\n      dup1\n      dup3\n      mstore\n      dup1\n      0x20\n      mul\n      0x20\n      add\n      dup3\n      add\n      0x40\n      mstore\n      dup1\n      iszero\n      tag_203\n      jumpi\n      dup2\n      0x20\n      add\n    tag_204:\n      tag_205\n      tag_206\n      jump\t// in\n    tag_205:\n      dup2\n      mstore\n      0x20\n      add\n      swap1\n      0x01\n      swap1\n      sub\n      swap1\n      dup2\n      tag_204\n      jumpi\n      swap1\n      pop\n    tag_203:\n      pop\n        /* \"Contracts/votingSystem.sol\":4747:4806  Candidate[] memory result = new  Candidate[](numCandidates) */\n      swap1\n      pop\n        /* \"Contracts/votingSystem.sol\":4820:4829  uint256 i */\n      0x00\n        /* \"Contracts/votingSystem.sol\":4816:4921  for(uint256 i = 0 ; i < numCandidates; i++){... */\n    tag_207:\n        /* \"Contracts/votingSystem.sol\":4840:4853  numCandidates */\n      sload(0x00)\n        /* \"Contracts/votingSystem.sol\":4836:4837  i */\n      dup2\n        /* \"Contracts/votingSystem.sol\":4836:4853  i < numCandidates */\n      lt\n        /* \"Contracts/votingSystem.sol\":4816:4921  for(uint256 i = 0 ; i < numCandidates; i++){... */\n      iszero\n      tag_208\n      jumpi\n        /* \"Contracts/votingSystem.sol\":4885:4895  candidates */\n      0x01\n        /* \"Contracts/votingSystem.sol\":4885:4907  candidates[electionId] */\n      0x00\n        /* \"Contracts/votingSystem.sol\":4896:4906  electionId */\n      sload(0x06)\n        /* \"Contracts/votingSystem.sol\":4885:4907  candidates[electionId] */\n      dup2\n      mstore\n      0x20\n      add\n      swap1\n      dup2\n      mstore\n      0x20\n      add\n      0x00\n      keccak256\n        /* \"Contracts/votingSystem.sol\":4885:4910  candidates[electionId][i] */\n      0x00\n        /* \"Contracts/votingSystem.sol\":4908:4909  i */\n      dup3\n        /* \"Contracts/votingSystem.sol\":4885:4910  candidates[electionId][i] */\n      dup2\n      mstore\n      0x20\n      add\n      swap1\n      dup2\n      mstore\n      0x20\n      add\n      0x00\n      keccak256\n        /* \"Contracts/votingSystem.sol\":4873:4910  result[i] = candidates[electionId][i] */\n      mload(0x40)\n      dup1\n      0x40\n      add\n      0x40\n      mstore\n      swap1\n      dup2\n      0x00\n      dup3\n      add\n      dup1\n      sload\n      tag_210\n      swap1\n      tag_145\n      jump\t// in\n    tag_210:\n      dup1\n      0x1f\n      add\n      0x20\n      dup1\n      swap2\n      div\n      mul\n      0x20\n      add\n      mload(0x40)\n      swap1\n      dup2\n      add\n      0x40\n      mstore\n      dup1\n      swap3\n      swap2\n      swap1\n      dup2\n      dup2\n      mstore\n      0x20\n      add\n      dup3\n      dup1\n      sload\n      tag_211\n      swap1\n      tag_145\n      jump\t// in\n    tag_211:\n      dup1\n      iszero\n      tag_212\n      jumpi\n      dup1\n      0x1f\n      lt\n      tag_213\n      jumpi\n      0x0100\n      dup1\n      dup4\n      sload\n      div\n      mul\n      dup4\n      mstore\n      swap2\n      0x20\n      add\n      swap2\n      jump(tag_212)\n    tag_213:\n      dup3\n      add\n      swap2\n      swap1\n      0x00\n      mstore\n      keccak256(0x00, 0x20)\n      swap1\n    tag_214:\n      dup2\n      sload\n      dup2\n      mstore\n      swap1\n      0x01\n      add\n      swap1\n      0x20\n      add\n      dup1\n      dup4\n      gt\n      tag_214\n      jumpi\n      dup3\n      swap1\n      sub\n      0x1f\n      and\n      dup3\n      add\n      swap2\n    tag_212:\n      pop\n      pop\n      pop\n      pop\n      pop\n      dup2\n      mstore\n      0x20\n      add\n      0x01\n      dup3\n      add\n      sload\n      dup2\n      mstore\n      pop\n      pop\n        /* \"Contracts/votingSystem.sol\":4873:4879  result */\n      dup3\n        /* \"Contracts/votingSystem.sol\":4880:4881  i */\n      dup3\n        /* \"Contracts/votingSystem.sol\":4873:4882  result[i] */\n      dup2\n      mload\n      dup2\n      lt\n      tag_215\n      jumpi\n      tag_216\n      tag_133\n      jump\t// in\n    tag_216:\n    tag_215:\n      0x20\n      mul\n      0x20\n      add\n      add\n        /* \"Contracts/votingSystem.sol\":4873:4910  result[i] = candidates[electionId][i] */\n      dup2\n      swap1\n      mstore\n      pop\n        /* \"Contracts/votingSystem.sol\":4855:4858  i++ */\n      dup1\n      dup1\n      tag_217\n      swap1\n      tag_121\n      jump\t// in\n    tag_217:\n      swap2\n      pop\n      pop\n        /* \"Contracts/votingSystem.sol\":4816:4921  for(uint256 i = 0 ; i < numCandidates; i++){... */\n      jump(tag_207)\n    tag_208:\n      pop\n        /* \"Contracts/votingSystem.sol\":4938:4944  result */\n      dup1\n        /* \"Contracts/votingSystem.sol\":4931:4944  return result */\n      swap2\n      pop\n      pop\n        /* \"Contracts/votingSystem.sol\":4671:4951  function getAllCandidate() public view returns(Candidate[] memory){... */\n      swap1\n      jump\t// out\n        /* \"Contracts/votingSystem.sol\":2034:2156  function   isVotingOpen() public view returns (bool){... */\n    tag_101:\n        /* \"Contracts/votingSystem.sol\":2081:2085  bool */\n      0x00\n        /* \"Contracts/votingSystem.sol\":2121:2135  votingDeadline */\n      immutable(\"0x5bc0457d8881b800fd1bc0d6df907345b3bf287e43a5790ded3d08dbacf9c03a\")\n        /* \"Contracts/votingSystem.sol\":2103:2118  block.timestamp */\n      timestamp\n        /* \"Contracts/votingSystem.sol\":2103:2135  block.timestamp < votingDeadline */\n      lt\n        /* \"Contracts/votingSystem.sol\":2103:2148  block.timestamp < votingDeadline && !isClosed */\n      dup1\n      iszero\n      tag_219\n      jumpi\n      pop\n        /* \"Contracts/votingSystem.sol\":2140:2148  isClosed */\n      0x05\n      0x00\n      swap1\n      sload\n      swap1\n      0x0100\n      exp\n      swap1\n      div\n      0xff\n      and\n        /* \"Contracts/votingSystem.sol\":2139:2148  !isClosed */\n      iszero\n        /* \"Contracts/votingSystem.sol\":2103:2148  block.timestamp < votingDeadline && !isClosed */\n    tag_219:\n        /* \"Contracts/votingSystem.sol\":2096:2148  return block.timestamp < votingDeadline && !isClosed */\n      swap1\n      pop\n        /* \"Contracts/votingSystem.sol\":2034:2156  function   isVotingOpen() public view returns (bool){... */\n      swap1\n      jump\t// out\n    tag_206:\n      mload(0x40)\n      dup1\n      0x40\n      add\n      0x40\n      mstore\n      dup1\n      0x60\n      dup2\n      mstore\n      0x20\n      add\n      0x00\n      dup2\n      mstore\n      pop\n      swap1\n      jump\t// out\n        /* \"#utility.yul\":7:82   */\n    tag_220:\n        /* \"#utility.yul\":40:46   */\n      0x00\n        /* \"#utility.yul\":73:75   */\n      0x40\n        /* \"#utility.yul\":67:76   */\n      mload\n        /* \"#utility.yul\":57:76   */\n      swap1\n      pop\n        /* \"#utility.yul\":7:82   */\n      swap1\n      jump\t// out\n        /* \"#utility.yul\":88:205   */\n    tag_221:\n        /* \"#utility.yul\":197:198   */\n      0x00\n        /* \"#utility.yul\":194:195   */\n      dup1\n        /* \"#utility.yul\":187:199   */\n      revert\n        /* \"#utility.yul\":211:328   */\n    tag_222:\n        /* \"#utility.yul\":320:321   */\n      0x00\n        /* \"#utility.yul\":317:318   */\n      dup1\n        /* \"#utility.yul\":310:322   */\n      revert\n        /* \"#utility.yul\":334:411   */\n    tag_223:\n        /* \"#utility.yul\":371:378   */\n      0x00\n        /* \"#utility.yul\":400:405   */\n      dup2\n        /* \"#utility.yul\":389:405   */\n      swap1\n      pop\n        /* \"#utility.yul\":334:411   */\n      swap2\n      swap1\n      pop\n      jump\t// out\n        /* \"#utility.yul\":417:539   */\n    tag_224:\n        /* \"#utility.yul\":490:514   */\n      tag_314\n        /* \"#utility.yul\":508:513   */\n      dup2\n        /* \"#utility.yul\":490:514   */\n      tag_223\n      jump\t// in\n    tag_314:\n        /* \"#utility.yul\":483:488   */\n      dup2\n        /* \"#utility.yul\":480:515   */\n      eq\n        /* \"#utility.yul\":470:533   */\n      tag_315\n      jumpi\n        /* \"#utility.yul\":529:530   */\n      0x00\n        /* \"#utility.yul\":526:527   */\n      dup1\n        /* \"#utility.yul\":519:531   */\n      revert\n        /* \"#utility.yul\":470:533   */\n    tag_315:\n        /* \"#utility.yul\":417:539   */\n      pop\n      jump\t// out\n        /* \"#utility.yul\":545:684   */\n    tag_225:\n        /* \"#utility.yul\":591:596   */\n      0x00\n        /* \"#utility.yul\":629:635   */\n      dup2\n        /* \"#utility.yul\":616:636   */\n      calldataload\n        /* \"#utility.yul\":607:636   */\n      swap1\n      pop\n        /* \"#utility.yul\":645:678   */\n      tag_317\n        /* \"#utility.yul\":672:677   */\n      dup2\n        /* \"#utility.yul\":645:678   */\n      tag_224\n      jump\t// in\n    tag_317:\n        /* \"#utility.yul\":545:684   */\n      swap3\n      swap2\n      pop\n      pop\n      jump\t// out\n        /* \"#utility.yul\":690:1019   */\n    tag_28:\n        /* \"#utility.yul\":749:755   */\n      0x00\n        /* \"#utility.yul\":798:800   */\n      0x20\n        /* \"#utility.yul\":786:795   */\n      dup3\n        /* \"#utility.yul\":777:784   */\n      dup5\n        /* \"#utility.yul\":773:796   */\n      sub\n        /* \"#utility.yul\":769:801   */\n      slt\n        /* \"#utility.yul\":766:885   */\n      iszero\n      tag_319\n      jumpi\n        /* \"#utility.yul\":804:883   */\n      tag_320\n      tag_221\n      jump\t// in\n    tag_320:\n        /* \"#utility.yul\":766:885   */\n    tag_319:\n        /* \"#utility.yul\":924:925   */\n      0x00\n        /* \"#utility.yul\":949:1002   */\n      tag_321\n        /* \"#utility.yul\":994:1001   */\n      dup5\n        /* \"#utility.yul\":985:991   */\n      dup3\n        /* \"#utility.yul\":974:983   */\n      dup6\n        /* \"#utility.yul\":970:992   */\n      add\n        /* \"#utility.yul\":949:1002   */\n      tag_225\n      jump\t// in\n    tag_321:\n        /* \"#utility.yul\":939:1002   */\n      swap2\n      pop\n        /* \"#utility.yul\":895:1012   */\n      pop\n        /* \"#utility.yul\":690:1019   */\n      swap3\n      swap2\n      pop\n      pop\n      jump\t// out\n        /* \"#utility.yul\":1025:1143   */\n    tag_226:\n        /* \"#utility.yul\":1112:1136   */\n      tag_323\n        /* \"#utility.yul\":1130:1135   */\n      dup2\n        /* \"#utility.yul\":1112:1136   */\n      tag_223\n      jump\t// in\n    tag_323:\n        /* \"#utility.yul\":1107:1110   */\n      dup3\n        /* \"#utility.yul\":1100:1137   */\n      mstore\n        /* \"#utility.yul\":1025:1143   */\n      pop\n      pop\n      jump\t// out\n        /* \"#utility.yul\":1149:1371   */\n    tag_33:\n        /* \"#utility.yul\":1242:1246   */\n      0x00\n        /* \"#utility.yul\":1280:1282   */\n      0x20\n        /* \"#utility.yul\":1269:1278   */\n      dup3\n        /* \"#utility.yul\":1265:1283   */\n      add\n        /* \"#utility.yul\":1257:1283   */\n      swap1\n      pop\n        /* \"#utility.yul\":1293:1364   */\n      tag_325\n        /* \"#utility.yul\":1361:1362   */\n      0x00\n        /* \"#utility.yul\":1350:1359   */\n      dup4\n        /* \"#utility.yul\":1346:1363   */\n      add\n        /* \"#utility.yul\":1337:1343   */\n      dup5\n        /* \"#utility.yul\":1293:1364   */\n      tag_226\n      jump\t// in\n    tag_325:\n        /* \"#utility.yul\":1149:1371   */\n      swap3\n      swap2\n      pop\n      pop\n      jump\t// out\n        /* \"#utility.yul\":1377:1494   */\n    tag_227:\n        /* \"#utility.yul\":1486:1487   */\n      0x00\n        /* \"#utility.yul\":1483:1484   */\n      dup1\n        /* \"#utility.yul\":1476:1488   */\n      revert\n        /* \"#utility.yul\":1500:1602   */\n    tag_228:\n        /* \"#utility.yul\":1541:1547   */\n      0x00\n        /* \"#utility.yul\":1592:1594   */\n      0x1f\n        /* \"#utility.yul\":1588:1595   */\n      not\n        /* \"#utility.yul\":1583:1585   */\n      0x1f\n        /* \"#utility.yul\":1576:1581   */\n      dup4\n        /* \"#utility.yul\":1572:1586   */\n      add\n        /* \"#utility.yul\":1568:1596   */\n      and\n        /* \"#utility.yul\":1558:1596   */\n      swap1\n      pop\n        /* \"#utility.yul\":1500:1602   */\n      swap2\n      swap1\n      pop\n      jump\t// out\n        /* \"#utility.yul\":1608:1788   */\n    tag_164:\n        /* \"#utility.yul\":1656:1733   */\n      0x4e487b7100000000000000000000000000000000000000000000000000000000\n        /* \"#utility.yul\":1653:1654   */\n      0x00\n        /* \"#utility.yul\":1646:1734   */\n      mstore\n        /* \"#utility.yul\":1753:1757   */\n      0x41\n        /* \"#utility.yul\":1750:1751   */\n      0x04\n        /* \"#utility.yul\":1743:1758   */\n      mstore\n        /* \"#utility.yul\":1777:1781   */\n      0x24\n        /* \"#utility.yul\":1774:1775   */\n      0x00\n        /* \"#utility.yul\":1767:1782   */\n      revert\n        /* \"#utility.yul\":1794:2075   */\n    tag_229:\n        /* \"#utility.yul\":1877:1904   */\n      tag_330\n        /* \"#utility.yul\":1899:1903   */\n      dup3\n        /* \"#utility.yul\":1877:1904   */\n      tag_228\n      jump\t// in\n    tag_330:\n        /* \"#utility.yul\":1869:1875   */\n      dup2\n        /* \"#utility.yul\":1865:1905   */\n      add\n        /* \"#utility.yul\":2007:2013   */\n      dup2\n        /* \"#utility.yul\":1995:2005   */\n      dup2\n        /* \"#utility.yul\":1992:2014   */\n      lt\n        /* \"#utility.yul\":1971:1989   */\n      0xffffffffffffffff\n        /* \"#utility.yul\":1959:1969   */\n      dup3\n        /* \"#utility.yul\":1956:1990   */\n      gt\n        /* \"#utility.yul\":1953:2015   */\n      or\n        /* \"#utility.yul\":1950:2038   */\n      iszero\n      tag_331\n      jumpi\n        /* \"#utility.yul\":2018:2036   */\n      tag_332\n      tag_164\n      jump\t// in\n    tag_332:\n        /* \"#utility.yul\":1950:2038   */\n    tag_331:\n        /* \"#utility.yul\":2058:2068   */\n      dup1\n        /* \"#utility.yul\":2054:2056   */\n      0x40\n        /* \"#utility.yul\":2047:2069   */\n      mstore\n        /* \"#utility.yul\":1837:2075   */\n      pop\n        /* \"#utility.yul\":1794:2075   */\n      pop\n      pop\n      jump\t// out\n        /* \"#utility.yul\":2081:2210   */\n    tag_230:\n        /* \"#utility.yul\":2115:2121   */\n      0x00\n        /* \"#utility.yul\":2142:2162   */\n      tag_334\n      tag_220\n      jump\t// in\n    tag_334:\n        /* \"#utility.yul\":2132:2162   */\n      swap1\n      pop\n        /* \"#utility.yul\":2171:2204   */\n      tag_335\n        /* \"#utility.yul\":2199:2203   */\n      dup3\n        /* \"#utility.yul\":2191:2197   */\n      dup3\n        /* \"#utility.yul\":2171:2204   */\n      tag_229\n      jump\t// in\n    tag_335:\n        /* \"#utility.yul\":2081:2210   */\n      swap2\n      swap1\n      pop\n      jump\t// out\n        /* \"#utility.yul\":2216:2537   */\n    tag_231:\n        /* \"#utility.yul\":2303:2307   */\n      0x00\n        /* \"#utility.yul\":2393:2411   */\n      0xffffffffffffffff\n        /* \"#utility.yul\":2385:2391   */\n      dup3\n        /* \"#utility.yul\":2382:2412   */\n      gt\n        /* \"#utility.yul\":2379:2435   */\n      iszero\n      tag_337\n      jumpi\n        /* \"#utility.yul\":2415:2433   */\n      tag_338\n      tag_164\n      jump\t// in\n    tag_338:\n        /* \"#utility.yul\":2379:2435   */\n    tag_337:\n        /* \"#utility.yul\":2465:2469   */\n      0x20\n        /* \"#utility.yul\":2457:2463   */\n      dup3\n        /* \"#utility.yul\":2453:2470   */\n      mul\n        /* \"#utility.yul\":2445:2470   */\n      swap1\n      pop\n        /* \"#utility.yul\":2525:2529   */\n      0x20\n        /* \"#utility.yul\":2519:2523   */\n      dup2\n        /* \"#utility.yul\":2515:2530   */\n      add\n        /* \"#utility.yul\":2507:2530   */\n      swap1\n      pop\n        /* \"#utility.yul\":2216:2537   */\n      swap2\n      swap1\n      pop\n      jump\t// out\n        /* \"#utility.yul\":2543:2660   */\n    tag_232:\n        /* \"#utility.yul\":2652:2653   */\n      0x00\n        /* \"#utility.yul\":2649:2650   */\n      dup1\n        /* \"#utility.yul\":2642:2654   */\n      revert\n        /* \"#utility.yul\":2666:2783   */\n    tag_233:\n        /* \"#utility.yul\":2775:2776   */\n      0x00\n        /* \"#utility.yul\":2772:2773   */\n      dup1\n        /* \"#utility.yul\":2765:2777   */\n      revert\n        /* \"#utility.yul\":2789:3097   */\n    tag_234:\n        /* \"#utility.yul\":2851:2855   */\n      0x00\n        /* \"#utility.yul\":2941:2959   */\n      0xffffffffffffffff\n        /* \"#utility.yul\":2933:2939   */\n      dup3\n        /* \"#utility.yul\":2930:2960   */\n      gt\n        /* \"#utility.yul\":2927:2983   */\n      iszero\n      tag_342\n      jumpi\n        /* \"#utility.yul\":2963:2981   */\n      tag_343\n      tag_164\n      jump\t// in\n    tag_343:\n        /* \"#utility.yul\":2927:2983   */\n    tag_342:\n        /* \"#utility.yul\":3001:3030   */\n      tag_344\n        /* \"#utility.yul\":3023:3029   */\n      dup3\n        /* \"#utility.yul\":3001:3030   */\n      tag_228\n      jump\t// in\n    tag_344:\n        /* \"#utility.yul\":2993:3030   */\n      swap1\n      pop\n        /* \"#utility.yul\":3085:3089   */\n      0x20\n        /* \"#utility.yul\":3079:3083   */\n      dup2\n        /* \"#utility.yul\":3075:3090   */\n      add\n        /* \"#utility.yul\":3067:3090   */\n      swap1\n      pop\n        /* \"#utility.yul\":2789:3097   */\n      swap2\n      swap1\n      pop\n      jump\t// out\n        /* \"#utility.yul\":3103:3249   */\n    tag_235:\n        /* \"#utility.yul\":3200:3206   */\n      dup3\n        /* \"#utility.yul\":3195:3198   */\n      dup2\n        /* \"#utility.yul\":3190:3193   */\n      dup4\n        /* \"#utility.yul\":3177:3207   */\n      calldatacopy\n        /* \"#utility.yul\":3241:3242   */\n      0x00\n        /* \"#utility.yul\":3232:3238   */\n      dup4\n        /* \"#utility.yul\":3227:3230   */\n      dup4\n        /* \"#utility.yul\":3223:3239   */\n      add\n        /* \"#utility.yul\":3216:3243   */\n      mstore\n        /* \"#utility.yul\":3103:3249   */\n      pop\n      pop\n      pop\n      jump\t// out\n        /* \"#utility.yul\":3255:3680   */\n    tag_236:\n        /* \"#utility.yul\":3333:3338   */\n      0x00\n        /* \"#utility.yul\":3358:3424   */\n      tag_347\n        /* \"#utility.yul\":3374:3423   */\n      tag_348\n        /* \"#utility.yul\":3416:3422   */\n      dup5\n        /* \"#utility.yul\":3374:3423   */\n      tag_234\n      jump\t// in\n    tag_348:\n        /* \"#utility.yul\":3358:3424   */\n      tag_230\n      jump\t// in\n    tag_347:\n        /* \"#utility.yul\":3349:3424   */\n      swap1\n      pop\n        /* \"#utility.yul\":3447:3453   */\n      dup3\n        /* \"#utility.yul\":3440:3445   */\n      dup2\n        /* \"#utility.yul\":3433:3454   */\n      mstore\n        /* \"#utility.yul\":3485:3489   */\n      0x20\n        /* \"#utility.yul\":3478:3483   */\n      dup2\n        /* \"#utility.yul\":3474:3490   */\n      add\n        /* \"#utility.yul\":3523:3526   */\n      dup5\n        /* \"#utility.yul\":3514:3520   */\n      dup5\n        /* \"#utility.yul\":3509:3512   */\n      dup5\n        /* \"#utility.yul\":3505:3521   */\n      add\n        /* \"#utility.yul\":3502:3527   */\n      gt\n        /* \"#utility.yul\":3499:3611   */\n      iszero\n      tag_349\n      jumpi\n        /* \"#utility.yul\":3530:3609   */\n      tag_350\n      tag_233\n      jump\t// in\n    tag_350:\n        /* \"#utility.yul\":3499:3611   */\n    tag_349:\n        /* \"#utility.yul\":3620:3674   */\n      tag_351\n        /* \"#utility.yul\":3667:3673   */\n      dup5\n        /* \"#utility.yul\":3662:3665   */\n      dup3\n        /* \"#utility.yul\":3657:3660   */\n      dup6\n        /* \"#utility.yul\":3620:3674   */\n      tag_235\n      jump\t// in\n    tag_351:\n        /* \"#utility.yul\":3339:3680   */\n      pop\n        /* \"#utility.yul\":3255:3680   */\n      swap4\n      swap3\n      pop\n      pop\n      pop\n      jump\t// out\n        /* \"#utility.yul\":3700:4040   */\n    tag_237:\n        /* \"#utility.yul\":3756:3761   */\n      0x00\n        /* \"#utility.yul\":3805:3808   */\n      dup3\n        /* \"#utility.yul\":3798:3802   */\n      0x1f\n        /* \"#utility.yul\":3790:3796   */\n      dup4\n        /* \"#utility.yul\":3786:3803   */\n      add\n        /* \"#utility.yul\":3782:3809   */\n      slt\n        /* \"#utility.yul\":3772:3894   */\n      tag_353\n      jumpi\n        /* \"#utility.yul\":3813:3892   */\n      tag_354\n      tag_227\n      jump\t// in\n    tag_354:\n        /* \"#utility.yul\":3772:3894   */\n    tag_353:\n        /* \"#utility.yul\":3930:3936   */\n      dup2\n        /* \"#utility.yul\":3917:3937   */\n      calldataload\n        /* \"#utility.yul\":3955:4034   */\n      tag_355\n        /* \"#utility.yul\":4030:4033   */\n      dup5\n        /* \"#utility.yul\":4022:4028   */\n      dup3\n        /* \"#utility.yul\":4015:4019   */\n      0x20\n        /* \"#utility.yul\":4007:4013   */\n      dup7\n        /* \"#utility.yul\":4003:4020   */\n      add\n        /* \"#utility.yul\":3955:4034   */\n      tag_236\n      jump\t// in\n    tag_355:\n        /* \"#utility.yul\":3946:4034   */\n      swap2\n      pop\n        /* \"#utility.yul\":3762:4040   */\n      pop\n        /* \"#utility.yul\":3700:4040   */\n      swap3\n      swap2\n      pop\n      pop\n      jump\t// out\n        /* \"#utility.yul\":4062:5007   */\n    tag_238:\n        /* \"#utility.yul\":4168:4173   */\n      0x00\n        /* \"#utility.yul\":4193:4284   */\n      tag_357\n        /* \"#utility.yul\":4209:4283   */\n      tag_358\n        /* \"#utility.yul\":4276:4282   */\n      dup5\n        /* \"#utility.yul\":4209:4283   */\n      tag_231\n      jump\t// in\n    tag_358:\n        /* \"#utility.yul\":4193:4284   */\n      tag_230\n      jump\t// in\n    tag_357:\n        /* \"#utility.yul\":4184:4284   */\n      swap1\n      pop\n        /* \"#utility.yul\":4304:4309   */\n      dup1\n        /* \"#utility.yul\":4333:4339   */\n      dup4\n        /* \"#utility.yul\":4326:4331   */\n      dup3\n        /* \"#utility.yul\":4319:4340   */\n      mstore\n        /* \"#utility.yul\":4367:4371   */\n      0x20\n        /* \"#utility.yul\":4360:4365   */\n      dup3\n        /* \"#utility.yul\":4356:4372   */\n      add\n        /* \"#utility.yul\":4349:4372   */\n      swap1\n      pop\n        /* \"#utility.yul\":4420:4424   */\n      0x20\n        /* \"#utility.yul\":4412:4418   */\n      dup5\n        /* \"#utility.yul\":4408:4425   */\n      mul\n        /* \"#utility.yul\":4400:4406   */\n      dup4\n        /* \"#utility.yul\":4396:4426   */\n      add\n        /* \"#utility.yul\":4449:4452   */\n      dup6\n        /* \"#utility.yul\":4441:4447   */\n      dup2\n        /* \"#utility.yul\":4438:4453   */\n      gt\n        /* \"#utility.yul\":4435:4557   */\n      iszero\n      tag_359\n      jumpi\n        /* \"#utility.yul\":4468:4547   */\n      tag_360\n      tag_232\n      jump\t// in\n    tag_360:\n        /* \"#utility.yul\":4435:4557   */\n    tag_359:\n        /* \"#utility.yul\":4583:4589   */\n      dup4\n        /* \"#utility.yul\":4566:5001   */\n    tag_361:\n        /* \"#utility.yul\":4600:4606   */\n      dup2\n        /* \"#utility.yul\":4595:4598   */\n      dup2\n        /* \"#utility.yul\":4592:4607   */\n      lt\n        /* \"#utility.yul\":4566:5001   */\n      iszero\n      tag_363\n      jumpi\n        /* \"#utility.yul\":4689:4692   */\n      dup1\n        /* \"#utility.yul\":4676:4693   */\n      calldataload\n        /* \"#utility.yul\":4725:4743   */\n      0xffffffffffffffff\n        /* \"#utility.yul\":4712:4723   */\n      dup2\n        /* \"#utility.yul\":4709:4744   */\n      gt\n        /* \"#utility.yul\":4706:4828   */\n      iszero\n      tag_364\n      jumpi\n        /* \"#utility.yul\":4747:4826   */\n      tag_365\n      tag_227\n      jump\t// in\n    tag_365:\n        /* \"#utility.yul\":4706:4828   */\n    tag_364:\n        /* \"#utility.yul\":4871:4882   */\n      dup1\n        /* \"#utility.yul\":4863:4869   */\n      dup7\n        /* \"#utility.yul\":4859:4883   */\n      add\n        /* \"#utility.yul\":4909:4956   */\n      tag_366\n        /* \"#utility.yul\":4952:4955   */\n      dup10\n        /* \"#utility.yul\":4940:4950   */\n      dup3\n        /* \"#utility.yul\":4909:4956   */\n      tag_237\n      jump\t// in\n    tag_366:\n        /* \"#utility.yul\":4904:4907   */\n      dup6\n        /* \"#utility.yul\":4897:4957   */\n      mstore\n        /* \"#utility.yul\":4986:4990   */\n      0x20\n        /* \"#utility.yul\":4981:4984   */\n      dup6\n        /* \"#utility.yul\":4977:4991   */\n      add\n        /* \"#utility.yul\":4970:4991   */\n      swap5\n      pop\n        /* \"#utility.yul\":4642:5001   */\n      pop\n      pop\n        /* \"#utility.yul\":4626:4630   */\n      0x20\n        /* \"#utility.yul\":4621:4624   */\n      dup2\n        /* \"#utility.yul\":4617:4631   */\n      add\n        /* \"#utility.yul\":4610:4631   */\n      swap1\n      pop\n        /* \"#utility.yul\":4566:5001   */\n      jump(tag_361)\n    tag_363:\n        /* \"#utility.yul\":4570:4591   */\n      pop\n        /* \"#utility.yul\":4174:5007   */\n      pop\n      pop\n        /* \"#utility.yul\":4062:5007   */\n      swap4\n      swap3\n      pop\n      pop\n      pop\n      jump\t// out\n        /* \"#utility.yul\":5029:5419   */\n    tag_239:\n        /* \"#utility.yul\":5110:5115   */\n      0x00\n        /* \"#utility.yul\":5159:5162   */\n      dup3\n        /* \"#utility.yul\":5152:5156   */\n      0x1f\n        /* \"#utility.yul\":5144:5150   */\n      dup4\n        /* \"#utility.yul\":5140:5157   */\n      add\n        /* \"#utility.yul\":5136:5163   */\n      slt\n        /* \"#utility.yul\":5126:5248   */\n      tag_368\n      jumpi\n        /* \"#utility.yul\":5167:5246   */\n      tag_369\n      tag_227\n      jump\t// in\n    tag_369:\n        /* \"#utility.yul\":5126:5248   */\n    tag_368:\n        /* \"#utility.yul\":5284:5290   */\n      dup2\n        /* \"#utility.yul\":5271:5291   */\n      calldataload\n        /* \"#utility.yul\":5309:5413   */\n      tag_370\n        /* \"#utility.yul\":5409:5412   */\n      dup5\n        /* \"#utility.yul\":5401:5407   */\n      dup3\n        /* \"#utility.yul\":5394:5398   */\n      0x20\n        /* \"#utility.yul\":5386:5392   */\n      dup7\n        /* \"#utility.yul\":5382:5399   */\n      add\n        /* \"#utility.yul\":5309:5413   */\n      tag_238\n      jump\t// in\n    tag_370:\n        /* \"#utility.yul\":5300:5413   */\n      swap2\n      pop\n        /* \"#utility.yul\":5116:5419   */\n      pop\n        /* \"#utility.yul\":5029:5419   */\n      swap3\n      swap2\n      pop\n      pop\n      jump\t// out\n        /* \"#utility.yul\":5425:5984   */\n    tag_39:\n        /* \"#utility.yul\":5519:5525   */\n      0x00\n        /* \"#utility.yul\":5568:5570   */\n      0x20\n        /* \"#utility.yul\":5556:5565   */\n      dup3\n        /* \"#utility.yul\":5547:5554   */\n      dup5\n        /* \"#utility.yul\":5543:5566   */\n      sub\n        /* \"#utility.yul\":5539:5571   */\n      slt\n        /* \"#utility.yul\":5536:5655   */\n      iszero\n      tag_372\n      jumpi\n        /* \"#utility.yul\":5574:5653   */\n      tag_373\n      tag_221\n      jump\t// in\n    tag_373:\n        /* \"#utility.yul\":5536:5655   */\n    tag_372:\n        /* \"#utility.yul\":5722:5723   */\n      0x00\n        /* \"#utility.yul\":5711:5720   */\n      dup3\n        /* \"#utility.yul\":5707:5724   */\n      add\n        /* \"#utility.yul\":5694:5725   */\n      calldataload\n        /* \"#utility.yul\":5752:5770   */\n      0xffffffffffffffff\n        /* \"#utility.yul\":5744:5750   */\n      dup2\n        /* \"#utility.yul\":5741:5771   */\n      gt\n        /* \"#utility.yul\":5738:5855   */\n      iszero\n      tag_374\n      jumpi\n        /* \"#utility.yul\":5774:5853   */\n      tag_375\n      tag_222\n      jump\t// in\n    tag_375:\n        /* \"#utility.yul\":5738:5855   */\n    tag_374:\n        /* \"#utility.yul\":5879:5967   */\n      tag_376\n        /* \"#utility.yul\":5959:5966   */\n      dup5\n        /* \"#utility.yul\":5950:5956   */\n      dup3\n        /* \"#utility.yul\":5939:5948   */\n      dup6\n        /* \"#utility.yul\":5935:5957   */\n      add\n        /* \"#utility.yul\":5879:5967   */\n      tag_239\n      jump\t// in\n    tag_376:\n        /* \"#utility.yul\":5869:5967   */\n      swap2\n      pop\n        /* \"#utility.yul\":5665:5977   */\n      pop\n        /* \"#utility.yul\":5425:5984   */\n      swap3\n      swap2\n      pop\n      pop\n      jump\t// out\n        /* \"#utility.yul\":5990:6116   */\n    tag_240:\n        /* \"#utility.yul\":6027:6034   */\n      0x00\n        /* \"#utility.yul\":6067:6109   */\n      0xffffffffffffffffffffffffffffffffffffffff\n        /* \"#utility.yul\":6060:6065   */\n      dup3\n        /* \"#utility.yul\":6056:6110   */\n      and\n        /* \"#utility.yul\":6045:6110   */\n      swap1\n      pop\n        /* \"#utility.yul\":5990:6116   */\n      swap2\n      swap1\n      pop\n      jump\t// out\n        /* \"#utility.yul\":6122:6218   */\n    tag_241:\n        /* \"#utility.yul\":6159:6166   */\n      0x00\n        /* \"#utility.yul\":6188:6212   */\n      tag_379\n        /* \"#utility.yul\":6206:6211   */\n      dup3\n        /* \"#utility.yul\":6188:6212   */\n      tag_240\n      jump\t// in\n    tag_379:\n        /* \"#utility.yul\":6177:6212   */\n      swap1\n      pop\n        /* \"#utility.yul\":6122:6218   */\n      swap2\n      swap1\n      pop\n      jump\t// out\n        /* \"#utility.yul\":6224:6346   */\n    tag_242:\n        /* \"#utility.yul\":6297:6321   */\n      tag_381\n        /* \"#utility.yul\":6315:6320   */\n      dup2\n        /* \"#utility.yul\":6297:6321   */\n      tag_241\n      jump\t// in\n    tag_381:\n        /* \"#utility.yul\":6290:6295   */\n      dup2\n        /* \"#utility.yul\":6287:6322   */\n      eq\n        /* \"#utility.yul\":6277:6340   */\n      tag_382\n      jumpi\n        /* \"#utility.yul\":6336:6337   */\n      0x00\n        /* \"#utility.yul\":6333:6334   */\n      dup1\n        /* \"#utility.yul\":6326:6338   */\n      revert\n        /* \"#utility.yul\":6277:6340   */\n    tag_382:\n        /* \"#utility.yul\":6224:6346   */\n      pop\n      jump\t// out\n        /* \"#utility.yul\":6352:6491   */\n    tag_243:\n        /* \"#utility.yul\":6398:6403   */\n      0x00\n        /* \"#utility.yul\":6436:6442   */\n      dup2\n        /* \"#utility.yul\":6423:6443   */\n      calldataload\n        /* \"#utility.yul\":6414:6443   */\n      swap1\n      pop\n        /* \"#utility.yul\":6452:6485   */\n      tag_384\n        /* \"#utility.yul\":6479:6484   */\n      dup2\n        /* \"#utility.yul\":6452:6485   */\n      tag_242\n      jump\t// in\n    tag_384:\n        /* \"#utility.yul\":6352:6491   */\n      swap3\n      swap2\n      pop\n      pop\n      jump\t// out\n        /* \"#utility.yul\":6497:6826   */\n    tag_43:\n        /* \"#utility.yul\":6556:6562   */\n      0x00\n        /* \"#utility.yul\":6605:6607   */\n      0x20\n        /* \"#utility.yul\":6593:6602   */\n      dup3\n        /* \"#utility.yul\":6584:6591   */\n      dup5\n        /* \"#utility.yul\":6580:6603   */\n      sub\n        /* \"#utility.yul\":6576:6608   */\n      slt\n        /* \"#utility.yul\":6573:6692   */\n      iszero\n      tag_386\n      jumpi\n        /* \"#utility.yul\":6611:6690   */\n      tag_387\n      tag_221\n      jump\t// in\n    tag_387:\n        /* \"#utility.yul\":6573:6692   */\n    tag_386:\n        /* \"#utility.yul\":6731:6732   */\n      0x00\n        /* \"#utility.yul\":6756:6809   */\n      tag_388\n        /* \"#utility.yul\":6801:6808   */\n      dup5\n        /* \"#utility.yul\":6792:6798   */\n      dup3\n        /* \"#utility.yul\":6781:6790   */\n      dup6\n        /* \"#utility.yul\":6777:6799   */\n      add\n        /* \"#utility.yul\":6756:6809   */\n      tag_243\n      jump\t// in\n    tag_388:\n        /* \"#utility.yul\":6746:6809   */\n      swap2\n      pop\n        /* \"#utility.yul\":6702:6819   */\n      pop\n        /* \"#utility.yul\":6497:6826   */\n      swap3\n      swap2\n      pop\n      pop\n      jump\t// out\n        /* \"#utility.yul\":6832:7306   */\n    tag_50:\n        /* \"#utility.yul\":6900:6906   */\n      0x00\n        /* \"#utility.yul\":6908:6914   */\n      dup1\n        /* \"#utility.yul\":6957:6959   */\n      0x40\n        /* \"#utility.yul\":6945:6954   */\n      dup4\n        /* \"#utility.yul\":6936:6943   */\n      dup6\n        /* \"#utility.yul\":6932:6955   */\n      sub\n        /* \"#utility.yul\":6928:6960   */\n      slt\n        /* \"#utility.yul\":6925:7044   */\n      iszero\n      tag_390\n      jumpi\n        /* \"#utility.yul\":6963:7042   */\n      tag_391\n      tag_221\n      jump\t// in\n    tag_391:\n        /* \"#utility.yul\":6925:7044   */\n    tag_390:\n        /* \"#utility.yul\":7083:7084   */\n      0x00\n        /* \"#utility.yul\":7108:7161   */\n      tag_392\n        /* \"#utility.yul\":7153:7160   */\n      dup6\n        /* \"#utility.yul\":7144:7150   */\n      dup3\n        /* \"#utility.yul\":7133:7142   */\n      dup7\n        /* \"#utility.yul\":7129:7151   */\n      add\n        /* \"#utility.yul\":7108:7161   */\n      tag_225\n      jump\t// in\n    tag_392:\n        /* \"#utility.yul\":7098:7161   */\n      swap3\n      pop\n        /* \"#utility.yul\":7054:7171   */\n      pop\n        /* \"#utility.yul\":7210:7212   */\n      0x20\n        /* \"#utility.yul\":7236:7289   */\n      tag_393\n        /* \"#utility.yul\":7281:7288   */\n      dup6\n        /* \"#utility.yul\":7272:7278   */\n      dup3\n        /* \"#utility.yul\":7261:7270   */\n      dup7\n        /* \"#utility.yul\":7257:7279   */\n      add\n        /* \"#utility.yul\":7236:7289   */\n      tag_243\n      jump\t// in\n    tag_393:\n        /* \"#utility.yul\":7226:7289   */\n      swap2\n      pop\n        /* \"#utility.yul\":7181:7299   */\n      pop\n        /* \"#utility.yul\":6832:7306   */\n      swap3\n      pop\n      swap3\n      swap1\n      pop\n      jump\t// out\n        /* \"#utility.yul\":7312:7402   */\n    tag_244:\n        /* \"#utility.yul\":7346:7353   */\n      0x00\n        /* \"#utility.yul\":7389:7394   */\n      dup2\n        /* \"#utility.yul\":7382:7395   */\n      iszero\n        /* \"#utility.yul\":7375:7396   */\n      iszero\n        /* \"#utility.yul\":7364:7396   */\n      swap1\n      pop\n        /* \"#utility.yul\":7312:7402   */\n      swap2\n      swap1\n      pop\n      jump\t// out\n        /* \"#utility.yul\":7408:7517   */\n    tag_245:\n        /* \"#utility.yul\":7489:7510   */\n      tag_396\n        /* \"#utility.yul\":7504:7509   */\n      dup2\n        /* \"#utility.yul\":7489:7510   */\n      tag_244\n      jump\t// in\n    tag_396:\n        /* \"#utility.yul\":7484:7487   */\n      dup3\n        /* \"#utility.yul\":7477:7511   */\n      mstore\n        /* \"#utility.yul\":7408:7517   */\n      pop\n      pop\n      jump\t// out\n        /* \"#utility.yul\":7523:7733   */\n    tag_53:\n        /* \"#utility.yul\":7610:7614   */\n      0x00\n        /* \"#utility.yul\":7648:7650   */\n      0x20\n        /* \"#utility.yul\":7637:7646   */\n      dup3\n        /* \"#utility.yul\":7633:7651   */\n      add\n        /* \"#utility.yul\":7625:7651   */\n      swap1\n      pop\n        /* \"#utility.yul\":7661:7726   */\n      tag_398\n        /* \"#utility.yul\":7723:7724   */\n      0x00\n        /* \"#utility.yul\":7712:7721   */\n      dup4\n        /* \"#utility.yul\":7708:7725   */\n      add\n        /* \"#utility.yul\":7699:7705   */\n      dup5\n        /* \"#utility.yul\":7661:7726   */\n      tag_245\n      jump\t// in\n    tag_398:\n        /* \"#utility.yul\":7523:7733   */\n      swap3\n      swap2\n      pop\n      pop\n      jump\t// out\n        /* \"#utility.yul\":7739:8213   */\n    tag_63:\n        /* \"#utility.yul\":7807:7813   */\n      0x00\n        /* \"#utility.yul\":7815:7821   */\n      dup1\n        /* \"#utility.yul\":7864:7866   */\n      0x40\n        /* \"#utility.yul\":7852:7861   */\n      dup4\n        /* \"#utility.yul\":7843:7850   */\n      dup6\n        /* \"#utility.yul\":7839:7862   */\n      sub\n        /* \"#utility.yul\":7835:7867   */\n      slt\n        /* \"#utility.yul\":7832:7951   */\n      iszero\n      tag_400\n      jumpi\n        /* \"#utility.yul\":7870:7949   */\n      tag_401\n      tag_221\n      jump\t// in\n    tag_401:\n        /* \"#utility.yul\":7832:7951   */\n    tag_400:\n        /* \"#utility.yul\":7990:7991   */\n      0x00\n        /* \"#utility.yul\":8015:8068   */\n      tag_402\n        /* \"#utility.yul\":8060:8067   */\n      dup6\n        /* \"#utility.yul\":8051:8057   */\n      dup3\n        /* \"#utility.yul\":8040:8049   */\n      dup7\n        /* \"#utility.yul\":8036:8058   */\n      add\n        /* \"#utility.yul\":8015:8068   */\n      tag_225\n      jump\t// in\n    tag_402:\n        /* \"#utility.yul\":8005:8068   */\n      swap3\n      pop\n        /* \"#utility.yul\":7961:8078   */\n      pop\n        /* \"#utility.yul\":8117:8119   */\n      0x20\n        /* \"#utility.yul\":8143:8196   */\n      tag_403\n        /* \"#utility.yul\":8188:8195   */\n      dup6\n        /* \"#utility.yul\":8179:8185   */\n      dup3\n        /* \"#utility.yul\":8168:8177   */\n      dup7\n        /* \"#utility.yul\":8164:8186   */\n      add\n        /* \"#utility.yul\":8143:8196   */\n      tag_225\n      jump\t// in\n    tag_403:\n        /* \"#utility.yul\":8133:8196   */\n      swap2\n      pop\n        /* \"#utility.yul\":8088:8206   */\n      pop\n        /* \"#utility.yul\":7739:8213   */\n      swap3\n      pop\n      swap3\n      swap1\n      pop\n      jump\t// out\n        /* \"#utility.yul\":8219:8318   */\n    tag_246:\n        /* \"#utility.yul\":8271:8277   */\n      0x00\n        /* \"#utility.yul\":8305:8310   */\n      dup2\n        /* \"#utility.yul\":8299:8311   */\n      mload\n        /* \"#utility.yul\":8289:8311   */\n      swap1\n      pop\n        /* \"#utility.yul\":8219:8318   */\n      swap2\n      swap1\n      pop\n      jump\t// out\n        /* \"#utility.yul\":8324:8493   */\n    tag_247:\n        /* \"#utility.yul\":8408:8419   */\n      0x00\n        /* \"#utility.yul\":8442:8448   */\n      dup3\n        /* \"#utility.yul\":8437:8440   */\n      dup3\n        /* \"#utility.yul\":8430:8449   */\n      mstore\n        /* \"#utility.yul\":8482:8486   */\n      0x20\n        /* \"#utility.yul\":8477:8480   */\n      dup3\n        /* \"#utility.yul\":8473:8487   */\n      add\n        /* \"#utility.yul\":8458:8487   */\n      swap1\n      pop\n        /* \"#utility.yul\":8324:8493   */\n      swap3\n      swap2\n      pop\n      pop\n      jump\t// out\n        /* \"#utility.yul\":8499:8745   */\n    tag_248:\n        /* \"#utility.yul\":8580:8581   */\n      0x00\n        /* \"#utility.yul\":8590:8703   */\n    tag_407:\n        /* \"#utility.yul\":8604:8610   */\n      dup4\n        /* \"#utility.yul\":8601:8602   */\n      dup2\n        /* \"#utility.yul\":8598:8611   */\n      lt\n        /* \"#utility.yul\":8590:8703   */\n      iszero\n      tag_409\n      jumpi\n        /* \"#utility.yul\":8689:8690   */\n      dup1\n        /* \"#utility.yul\":8684:8687   */\n      dup3\n        /* \"#utility.yul\":8680:8691   */\n      add\n        /* \"#utility.yul\":8674:8692   */\n      mload\n        /* \"#utility.yul\":8670:8671   */\n      dup2\n        /* \"#utility.yul\":8665:8668   */\n      dup5\n        /* \"#utility.yul\":8661:8672   */\n      add\n        /* \"#utility.yul\":8654:8693   */\n      mstore\n        /* \"#utility.yul\":8626:8628   */\n      0x20\n        /* \"#utility.yul\":8623:8624   */\n      dup2\n        /* \"#utility.yul\":8619:8629   */\n      add\n        /* \"#utility.yul\":8614:8629   */\n      swap1\n      pop\n        /* \"#utility.yul\":8590:8703   */\n      jump(tag_407)\n    tag_409:\n        /* \"#utility.yul\":8737:8738   */\n      0x00\n        /* \"#utility.yul\":8728:8734   */\n      dup5\n        /* \"#utility.yul\":8723:8726   */\n      dup5\n        /* \"#utility.yul\":8719:8735   */\n      add\n        /* \"#utility.yul\":8712:8739   */\n      mstore\n        /* \"#utility.yul\":8561:8745   */\n      pop\n        /* \"#utility.yul\":8499:8745   */\n      pop\n      pop\n      pop\n      jump\t// out\n        /* \"#utility.yul\":8751:9128   */\n    tag_249:\n        /* \"#utility.yul\":8839:8842   */\n      0x00\n        /* \"#utility.yul\":8867:8906   */\n      tag_411\n        /* \"#utility.yul\":8900:8905   */\n      dup3\n        /* \"#utility.yul\":8867:8906   */\n      tag_246\n      jump\t// in\n    tag_411:\n        /* \"#utility.yul\":8922:8993   */\n      tag_412\n        /* \"#utility.yul\":8986:8992   */\n      dup2\n        /* \"#utility.yul\":8981:8984   */\n      dup6\n        /* \"#utility.yul\":8922:8993   */\n      tag_247\n      jump\t// in\n    tag_412:\n        /* \"#utility.yul\":8915:8993   */\n      swap4\n      pop\n        /* \"#utility.yul\":9002:9067   */\n      tag_413\n        /* \"#utility.yul\":9060:9066   */\n      dup2\n        /* \"#utility.yul\":9055:9058   */\n      dup6\n        /* \"#utility.yul\":9048:9052   */\n      0x20\n        /* \"#utility.yul\":9041:9046   */\n      dup7\n        /* \"#utility.yul\":9037:9053   */\n      add\n        /* \"#utility.yul\":9002:9067   */\n      tag_248\n      jump\t// in\n    tag_413:\n        /* \"#utility.yul\":9092:9121   */\n      tag_414\n        /* \"#utility.yul\":9114:9120   */\n      dup2\n        /* \"#utility.yul\":9092:9121   */\n      tag_228\n      jump\t// in\n    tag_414:\n        /* \"#utility.yul\":9087:9090   */\n      dup5\n        /* \"#utility.yul\":9083:9122   */\n      add\n        /* \"#utility.yul\":9076:9122   */\n      swap2\n      pop\n        /* \"#utility.yul\":8843:9128   */\n      pop\n        /* \"#utility.yul\":8751:9128   */\n      swap3\n      swap2\n      pop\n      pop\n      jump\t// out\n        /* \"#utility.yul\":9134:9557   */\n    tag_66:\n        /* \"#utility.yul\":9275:9279   */\n      0x00\n        /* \"#utility.yul\":9313:9315   */\n      0x40\n        /* \"#utility.yul\":9302:9311   */\n      dup3\n        /* \"#utility.yul\":9298:9316   */\n      add\n        /* \"#utility.yul\":9290:9316   */\n      swap1\n      pop\n        /* \"#utility.yul\":9362:9371   */\n      dup2\n        /* \"#utility.yul\":9356:9360   */\n      dup2\n        /* \"#utility.yul\":9352:9372   */\n      sub\n        /* \"#utility.yul\":9348:9349   */\n      0x00\n        /* \"#utility.yul\":9337:9346   */\n      dup4\n        /* \"#utility.yul\":9333:9350   */\n      add\n        /* \"#utility.yul\":9326:9373   */\n      mstore\n        /* \"#utility.yul\":9390:9468   */\n      tag_416\n        /* \"#utility.yul\":9463:9467   */\n      dup2\n        /* \"#utility.yul\":9454:9460   */\n      dup6\n        /* \"#utility.yul\":9390:9468   */\n      tag_249\n      jump\t// in\n    tag_416:\n        /* \"#utility.yul\":9382:9468   */\n      swap1\n      pop\n        /* \"#utility.yul\":9478:9550   */\n      tag_417\n        /* \"#utility.yul\":9546:9548   */\n      0x20\n        /* \"#utility.yul\":9535:9544   */\n      dup4\n        /* \"#utility.yul\":9531:9549   */\n      add\n        /* \"#utility.yul\":9522:9528   */\n      dup5\n        /* \"#utility.yul\":9478:9550   */\n      tag_226\n      jump\t// in\n    tag_417:\n        /* \"#utility.yul\":9134:9557   */\n      swap4\n      swap3\n      pop\n      pop\n      pop\n      jump\t// out\n        /* \"#utility.yul\":9563:9677   */\n    tag_250:\n        /* \"#utility.yul\":9630:9636   */\n      0x00\n        /* \"#utility.yul\":9664:9669   */\n      dup2\n        /* \"#utility.yul\":9658:9670   */\n      mload\n        /* \"#utility.yul\":9648:9670   */\n      swap1\n      pop\n        /* \"#utility.yul\":9563:9677   */\n      swap2\n      swap1\n      pop\n      jump\t// out\n        /* \"#utility.yul\":9683:9867   */\n    tag_251:\n        /* \"#utility.yul\":9782:9793   */\n      0x00\n        /* \"#utility.yul\":9816:9822   */\n      dup3\n        /* \"#utility.yul\":9811:9814   */\n      dup3\n        /* \"#utility.yul\":9804:9823   */\n      mstore\n        /* \"#utility.yul\":9856:9860   */\n      0x20\n        /* \"#utility.yul\":9851:9854   */\n      dup3\n        /* \"#utility.yul\":9847:9861   */\n      add\n        /* \"#utility.yul\":9832:9861   */\n      swap1\n      pop\n        /* \"#utility.yul\":9683:9867   */\n      swap3\n      swap2\n      pop\n      pop\n      jump\t// out\n        /* \"#utility.yul\":9873:10005   */\n    tag_252:\n        /* \"#utility.yul\":9940:9944   */\n      0x00\n        /* \"#utility.yul\":9963:9966   */\n      dup2\n        /* \"#utility.yul\":9955:9966   */\n      swap1\n      pop\n        /* \"#utility.yul\":9993:9997   */\n      0x20\n        /* \"#utility.yul\":9988:9991   */\n      dup3\n        /* \"#utility.yul\":9984:9998   */\n      add\n        /* \"#utility.yul\":9976:9998   */\n      swap1\n      pop\n        /* \"#utility.yul\":9873:10005   */\n      swap2\n      swap1\n      pop\n      jump\t// out\n        /* \"#utility.yul\":10011:10119   */\n    tag_253:\n        /* \"#utility.yul\":10088:10112   */\n      tag_422\n        /* \"#utility.yul\":10106:10111   */\n      dup2\n        /* \"#utility.yul\":10088:10112   */\n      tag_223\n      jump\t// in\n    tag_422:\n        /* \"#utility.yul\":10083:10086   */\n      dup3\n        /* \"#utility.yul\":10076:10113   */\n      mstore\n        /* \"#utility.yul\":10011:10119   */\n      pop\n      pop\n      jump\t// out\n        /* \"#utility.yul\":10125:10304   */\n    tag_254:\n        /* \"#utility.yul\":10194:10204   */\n      0x00\n        /* \"#utility.yul\":10215:10261   */\n      tag_424\n        /* \"#utility.yul\":10257:10260   */\n      dup4\n        /* \"#utility.yul\":10249:10255   */\n      dup4\n        /* \"#utility.yul\":10215:10261   */\n      tag_253\n      jump\t// in\n    tag_424:\n        /* \"#utility.yul\":10293:10297   */\n      0x20\n        /* \"#utility.yul\":10288:10291   */\n      dup4\n        /* \"#utility.yul\":10284:10298   */\n      add\n        /* \"#utility.yul\":10270:10298   */\n      swap1\n      pop\n        /* \"#utility.yul\":10125:10304   */\n      swap3\n      swap2\n      pop\n      pop\n      jump\t// out\n        /* \"#utility.yul\":10310:10423   */\n    tag_255:\n        /* \"#utility.yul\":10380:10384   */\n      0x00\n        /* \"#utility.yul\":10412:10416   */\n      0x20\n        /* \"#utility.yul\":10407:10410   */\n      dup3\n        /* \"#utility.yul\":10403:10417   */\n      add\n        /* \"#utility.yul\":10395:10417   */\n      swap1\n      pop\n        /* \"#utility.yul\":10310:10423   */\n      swap2\n      swap1\n      pop\n      jump\t// out\n        /* \"#utility.yul\":10459:11191   */\n    tag_256:\n        /* \"#utility.yul\":10578:10581   */\n      0x00\n        /* \"#utility.yul\":10607:10661   */\n      tag_427\n        /* \"#utility.yul\":10655:10660   */\n      dup3\n        /* \"#utility.yul\":10607:10661   */\n      tag_250\n      jump\t// in\n    tag_427:\n        /* \"#utility.yul\":10677:10763   */\n      tag_428\n        /* \"#utility.yul\":10756:10762   */\n      dup2\n        /* \"#utility.yul\":10751:10754   */\n      dup6\n        /* \"#utility.yul\":10677:10763   */\n      tag_251\n      jump\t// in\n    tag_428:\n        /* \"#utility.yul\":10670:10763   */\n      swap4\n      pop\n        /* \"#utility.yul\":10787:10843   */\n      tag_429\n        /* \"#utility.yul\":10837:10842   */\n      dup4\n        /* \"#utility.yul\":10787:10843   */\n      tag_252\n      jump\t// in\n    tag_429:\n        /* \"#utility.yul\":10866:10873   */\n      dup1\n        /* \"#utility.yul\":10897:10898   */\n      0x00\n        /* \"#utility.yul\":10882:11166   */\n    tag_430:\n        /* \"#utility.yul\":10907:10913   */\n      dup4\n        /* \"#utility.yul\":10904:10905   */\n      dup2\n        /* \"#utility.yul\":10901:10914   */\n      lt\n        /* \"#utility.yul\":10882:11166   */\n      iszero\n      tag_432\n      jumpi\n        /* \"#utility.yul\":10983:10989   */\n      dup2\n        /* \"#utility.yul\":10977:10990   */\n      mload\n        /* \"#utility.yul\":11010:11073   */\n      tag_433\n        /* \"#utility.yul\":11069:11072   */\n      dup9\n        /* \"#utility.yul\":11054:11067   */\n      dup3\n        /* \"#utility.yul\":11010:11073   */\n      tag_254\n      jump\t// in\n    tag_433:\n        /* \"#utility.yul\":11003:11073   */\n      swap8\n      pop\n        /* \"#utility.yul\":11096:11156   */\n      tag_434\n        /* \"#utility.yul\":11149:11155   */\n      dup4\n        /* \"#utility.yul\":11096:11156   */\n      tag_255\n      jump\t// in\n    tag_434:\n        /* \"#utility.yul\":11086:11156   */\n      swap3\n      pop\n        /* \"#utility.yul\":10942:11166   */\n      pop\n        /* \"#utility.yul\":10929:10930   */\n      0x01\n        /* \"#utility.yul\":10926:10927   */\n      dup2\n        /* \"#utility.yul\":10922:10931   */\n      add\n        /* \"#utility.yul\":10917:10931   */\n      swap1\n      pop\n        /* \"#utility.yul\":10882:11166   */\n      jump(tag_430)\n    tag_432:\n        /* \"#utility.yul\":10886:10900   */\n      pop\n        /* \"#utility.yul\":11182:11185   */\n      dup6\n        /* \"#utility.yul\":11175:11185   */\n      swap4\n      pop\n        /* \"#utility.yul\":10583:11191   */\n      pop\n      pop\n      pop\n        /* \"#utility.yul\":10459:11191   */\n      swap3\n      swap2\n      pop\n      pop\n      jump\t// out\n        /* \"#utility.yul\":11197:11570   */\n    tag_70:\n        /* \"#utility.yul\":11340:11344   */\n      0x00\n        /* \"#utility.yul\":11378:11380   */\n      0x20\n        /* \"#utility.yul\":11367:11376   */\n      dup3\n        /* \"#utility.yul\":11363:11381   */\n      add\n        /* \"#utility.yul\":11355:11381   */\n      swap1\n      pop\n        /* \"#utility.yul\":11427:11436   */\n      dup2\n        /* \"#utility.yul\":11421:11425   */\n      dup2\n        /* \"#utility.yul\":11417:11437   */\n      sub\n        /* \"#utility.yul\":11413:11414   */\n      0x00\n        /* \"#utility.yul\":11402:11411   */\n      dup4\n        /* \"#utility.yul\":11398:11415   */\n      add\n        /* \"#utility.yul\":11391:11438   */\n      mstore\n        /* \"#utility.yul\":11455:11563   */\n      tag_436\n        /* \"#utility.yul\":11558:11562   */\n      dup2\n        /* \"#utility.yul\":11549:11555   */\n      dup5\n        /* \"#utility.yul\":11455:11563   */\n      tag_256\n      jump\t// in\n    tag_436:\n        /* \"#utility.yul\":11447:11563   */\n      swap1\n      pop\n        /* \"#utility.yul\":11197:11570   */\n      swap3\n      swap2\n      pop\n      pop\n      jump\t// out\n        /* \"#utility.yul\":11576:11694   */\n    tag_257:\n        /* \"#utility.yul\":11663:11687   */\n      tag_438\n        /* \"#utility.yul\":11681:11686   */\n      dup2\n        /* \"#utility.yul\":11663:11687   */\n      tag_241\n      jump\t// in\n    tag_438:\n        /* \"#utility.yul\":11658:11661   */\n      dup3\n        /* \"#utility.yul\":11651:11688   */\n      mstore\n        /* \"#utility.yul\":11576:11694   */\n      pop\n      pop\n      jump\t// out\n        /* \"#utility.yul\":11700:11922   */\n    tag_74:\n        /* \"#utility.yul\":11793:11797   */\n      0x00\n        /* \"#utility.yul\":11831:11833   */\n      0x20\n        /* \"#utility.yul\":11820:11829   */\n      dup3\n        /* \"#utility.yul\":11816:11834   */\n      add\n        /* \"#utility.yul\":11808:11834   */\n      swap1\n      pop\n        /* \"#utility.yul\":11844:11915   */\n      tag_440\n        /* \"#utility.yul\":11912:11913   */\n      0x00\n        /* \"#utility.yul\":11901:11910   */\n      dup4\n        /* \"#utility.yul\":11897:11914   */\n      add\n        /* \"#utility.yul\":11888:11894   */\n      dup5\n        /* \"#utility.yul\":11844:11915   */\n      tag_257\n      jump\t// in\n    tag_440:\n        /* \"#utility.yul\":11700:11922   */\n      swap3\n      swap2\n      pop\n      pop\n      jump\t// out\n        /* \"#utility.yul\":11928:12241   */\n    tag_95:\n        /* \"#utility.yul\":12041:12045   */\n      0x00\n        /* \"#utility.yul\":12079:12081   */\n      0x20\n        /* \"#utility.yul\":12068:12077   */\n      dup3\n        /* \"#utility.yul\":12064:12082   */\n      add\n        /* \"#utility.yul\":12056:12082   */\n      swap1\n      pop\n        /* \"#utility.yul\":12128:12137   */\n      dup2\n        /* \"#utility.yul\":12122:12126   */\n      dup2\n        /* \"#utility.yul\":12118:12138   */\n      sub\n        /* \"#utility.yul\":12114:12115   */\n      0x00\n        /* \"#utility.yul\":12103:12112   */\n      dup4\n        /* \"#utility.yul\":12099:12116   */\n      add\n        /* \"#utility.yul\":12092:12139   */\n      mstore\n        /* \"#utility.yul\":12156:12234   */\n      tag_442\n        /* \"#utility.yul\":12229:12233   */\n      dup2\n        /* \"#utility.yul\":12220:12226   */\n      dup5\n        /* \"#utility.yul\":12156:12234   */\n      tag_249\n      jump\t// in\n    tag_442:\n        /* \"#utility.yul\":12148:12234   */\n      swap1\n      pop\n        /* \"#utility.yul\":11928:12241   */\n      swap3\n      swap2\n      pop\n      pop\n      jump\t// out\n        /* \"#utility.yul\":12247:12386   */\n    tag_258:\n        /* \"#utility.yul\":12339:12345   */\n      0x00\n        /* \"#utility.yul\":12373:12378   */\n      dup2\n        /* \"#utility.yul\":12367:12379   */\n      mload\n        /* \"#utility.yul\":12357:12379   */\n      swap1\n      pop\n        /* \"#utility.yul\":12247:12386   */\n      swap2\n      swap1\n      pop\n      jump\t// out\n        /* \"#utility.yul\":12392:12601   */\n    tag_259:\n        /* \"#utility.yul\":12516:12527   */\n      0x00\n        /* \"#utility.yul\":12550:12556   */\n      dup3\n        /* \"#utility.yul\":12545:12548   */\n      dup3\n        /* \"#utility.yul\":12538:12557   */\n      mstore\n        /* \"#utility.yul\":12590:12594   */\n      0x20\n        /* \"#utility.yul\":12585:12588   */\n      dup3\n        /* \"#utility.yul\":12581:12595   */\n      add\n        /* \"#utility.yul\":12566:12595   */\n      swap1\n      pop\n        /* \"#utility.yul\":12392:12601   */\n      swap3\n      swap2\n      pop\n      pop\n      jump\t// out\n        /* \"#utility.yul\":12607:12764   */\n    tag_260:\n        /* \"#utility.yul\":12699:12703   */\n      0x00\n        /* \"#utility.yul\":12722:12725   */\n      dup2\n        /* \"#utility.yul\":12714:12725   */\n      swap1\n      pop\n        /* \"#utility.yul\":12752:12756   */\n      0x20\n        /* \"#utility.yul\":12747:12750   */\n      dup3\n        /* \"#utility.yul\":12743:12757   */\n      add\n        /* \"#utility.yul\":12735:12757   */\n      swap1\n      pop\n        /* \"#utility.yul\":12607:12764   */\n      swap2\n      swap1\n      pop\n      jump\t// out\n        /* \"#utility.yul\":12770:12929   */\n    tag_261:\n        /* \"#utility.yul\":12844:12855   */\n      0x00\n        /* \"#utility.yul\":12878:12884   */\n      dup3\n        /* \"#utility.yul\":12873:12876   */\n      dup3\n        /* \"#utility.yul\":12866:12885   */\n      mstore\n        /* \"#utility.yul\":12918:12922   */\n      0x20\n        /* \"#utility.yul\":12913:12916   */\n      dup3\n        /* \"#utility.yul\":12909:12923   */\n      add\n        /* \"#utility.yul\":12894:12923   */\n      swap1\n      pop\n        /* \"#utility.yul\":12770:12929   */\n      swap3\n      swap2\n      pop\n      pop\n      jump\t// out\n        /* \"#utility.yul\":12935:13292   */\n    tag_262:\n        /* \"#utility.yul\":13013:13016   */\n      0x00\n        /* \"#utility.yul\":13041:13080   */\n      tag_448\n        /* \"#utility.yul\":13074:13079   */\n      dup3\n        /* \"#utility.yul\":13041:13080   */\n      tag_246\n      jump\t// in\n    tag_448:\n        /* \"#utility.yul\":13096:13157   */\n      tag_449\n        /* \"#utility.yul\":13150:13156   */\n      dup2\n        /* \"#utility.yul\":13145:13148   */\n      dup6\n        /* \"#utility.yul\":13096:13157   */\n      tag_261\n      jump\t// in\n    tag_449:\n        /* \"#utility.yul\":13089:13157   */\n      swap4\n      pop\n        /* \"#utility.yul\":13166:13231   */\n      tag_450\n        /* \"#utility.yul\":13224:13230   */\n      dup2\n        /* \"#utility.yul\":13219:13222   */\n      dup6\n        /* \"#utility.yul\":13212:13216   */\n      0x20\n        /* \"#utility.yul\":13205:13210   */\n      dup7\n        /* \"#utility.yul\":13201:13217   */\n      add\n        /* \"#utility.yul\":13166:13231   */\n      tag_248\n      jump\t// in\n    tag_450:\n        /* \"#utility.yul\":13256:13285   */\n      tag_451\n        /* \"#utility.yul\":13278:13284   */\n      dup2\n        /* \"#utility.yul\":13256:13285   */\n      tag_228\n      jump\t// in\n    tag_451:\n        /* \"#utility.yul\":13251:13254   */\n      dup5\n        /* \"#utility.yul\":13247:13286   */\n      add\n        /* \"#utility.yul\":13240:13286   */\n      swap2\n      pop\n        /* \"#utility.yul\":13017:13292   */\n      pop\n        /* \"#utility.yul\":12935:13292   */\n      swap3\n      swap2\n      pop\n      pop\n      jump\t// out\n        /* \"#utility.yul\":13368:13969   */\n    tag_263:\n        /* \"#utility.yul\":13477:13480   */\n      0x00\n        /* \"#utility.yul\":13513:13517   */\n      0x40\n        /* \"#utility.yul\":13508:13511   */\n      dup4\n        /* \"#utility.yul\":13504:13518   */\n      add\n        /* \"#utility.yul\":13600:13604   */\n      0x00\n        /* \"#utility.yul\":13593:13598   */\n      dup4\n        /* \"#utility.yul\":13589:13605   */\n      add\n        /* \"#utility.yul\":13583:13606   */\n      mload\n        /* \"#utility.yul\":13653:13656   */\n      dup5\n        /* \"#utility.yul\":13647:13651   */\n      dup3\n        /* \"#utility.yul\":13643:13657   */\n      sub\n        /* \"#utility.yul\":13636:13640   */\n      0x00\n        /* \"#utility.yul\":13631:13634   */\n      dup7\n        /* \"#utility.yul\":13627:13641   */\n      add\n        /* \"#utility.yul\":13620:13658   */\n      mstore\n        /* \"#utility.yul\":13679:13752   */\n      tag_453\n        /* \"#utility.yul\":13747:13751   */\n      dup3\n        /* \"#utility.yul\":13733:13745   */\n      dup3\n        /* \"#utility.yul\":13679:13752   */\n      tag_262\n      jump\t// in\n    tag_453:\n        /* \"#utility.yul\":13671:13752   */\n      swap2\n      pop\n        /* \"#utility.yul\":13528:13763   */\n      pop\n        /* \"#utility.yul\":13850:13854   */\n      0x20\n        /* \"#utility.yul\":13843:13848   */\n      dup4\n        /* \"#utility.yul\":13839:13855   */\n      add\n        /* \"#utility.yul\":13833:13856   */\n      mload\n        /* \"#utility.yul\":13869:13932   */\n      tag_454\n        /* \"#utility.yul\":13926:13930   */\n      0x20\n        /* \"#utility.yul\":13921:13924   */\n      dup7\n        /* \"#utility.yul\":13917:13931   */\n      add\n        /* \"#utility.yul\":13903:13915   */\n      dup3\n        /* \"#utility.yul\":13869:13932   */\n      tag_253\n      jump\t// in\n    tag_454:\n        /* \"#utility.yul\":13773:13942   */\n      pop\n        /* \"#utility.yul\":13959:13963   */\n      dup1\n        /* \"#utility.yul\":13952:13963   */\n      swap2\n      pop\n        /* \"#utility.yul\":13482:13969   */\n      pop\n        /* \"#utility.yul\":13368:13969   */\n      swap3\n      swap2\n      pop\n      pop\n      jump\t// out\n        /* \"#utility.yul\":13975:14231   */\n    tag_264:\n        /* \"#utility.yul\":14094:14104   */\n      0x00\n        /* \"#utility.yul\":14129:14225   */\n      tag_456\n        /* \"#utility.yul\":14221:14224   */\n      dup4\n        /* \"#utility.yul\":14213:14219   */\n      dup4\n        /* \"#utility.yul\":14129:14225   */\n      tag_263\n      jump\t// in\n    tag_456:\n        /* \"#utility.yul\":14115:14225   */\n      swap1\n      pop\n        /* \"#utility.yul\":13975:14231   */\n      swap3\n      swap2\n      pop\n      pop\n      jump\t// out\n        /* \"#utility.yul\":14237:14375   */\n    tag_265:\n        /* \"#utility.yul\":14332:14336   */\n      0x00\n        /* \"#utility.yul\":14364:14368   */\n      0x20\n        /* \"#utility.yul\":14359:14362   */\n      dup3\n        /* \"#utility.yul\":14355:14369   */\n      add\n        /* \"#utility.yul\":14347:14369   */\n      swap1\n      pop\n        /* \"#utility.yul\":14237:14375   */\n      swap2\n      swap1\n      pop\n      jump\t// out\n        /* \"#utility.yul\":14455:15566   */\n    tag_266:\n        /* \"#utility.yul\":14624:14627   */\n      0x00\n        /* \"#utility.yul\":14653:14732   */\n      tag_459\n        /* \"#utility.yul\":14726:14731   */\n      dup3\n        /* \"#utility.yul\":14653:14732   */\n      tag_258\n      jump\t// in\n    tag_459:\n        /* \"#utility.yul\":14748:14859   */\n      tag_460\n        /* \"#utility.yul\":14852:14858   */\n      dup2\n        /* \"#utility.yul\":14847:14850   */\n      dup6\n        /* \"#utility.yul\":14748:14859   */\n      tag_259\n      jump\t// in\n    tag_460:\n        /* \"#utility.yul\":14741:14859   */\n      swap4\n      pop\n        /* \"#utility.yul\":14885:14888   */\n      dup4\n        /* \"#utility.yul\":14930:14934   */\n      0x20\n        /* \"#utility.yul\":14922:14928   */\n      dup3\n        /* \"#utility.yul\":14918:14935   */\n      mul\n        /* \"#utility.yul\":14913:14916   */\n      dup6\n        /* \"#utility.yul\":14909:14936   */\n      add\n        /* \"#utility.yul\":14960:15041   */\n      tag_461\n        /* \"#utility.yul\":15035:15040   */\n      dup6\n        /* \"#utility.yul\":14960:15041   */\n      tag_260\n      jump\t// in\n    tag_461:\n        /* \"#utility.yul\":15064:15071   */\n      dup1\n        /* \"#utility.yul\":15095:15096   */\n      0x00\n        /* \"#utility.yul\":15080:15521   */\n    tag_462:\n        /* \"#utility.yul\":15105:15111   */\n      dup6\n        /* \"#utility.yul\":15102:15103   */\n      dup2\n        /* \"#utility.yul\":15099:15112   */\n      lt\n        /* \"#utility.yul\":15080:15521   */\n      iszero\n      tag_464\n      jumpi\n        /* \"#utility.yul\":15176:15185   */\n      dup5\n        /* \"#utility.yul\":15170:15174   */\n      dup5\n        /* \"#utility.yul\":15166:15186   */\n      sub\n        /* \"#utility.yul\":15161:15164   */\n      dup10\n        /* \"#utility.yul\":15154:15187   */\n      mstore\n        /* \"#utility.yul\":15227:15233   */\n      dup2\n        /* \"#utility.yul\":15221:15234   */\n      mload\n        /* \"#utility.yul\":15255:15369   */\n      tag_465\n        /* \"#utility.yul\":15364:15368   */\n      dup6\n        /* \"#utility.yul\":15349:15362   */\n      dup3\n        /* \"#utility.yul\":15255:15369   */\n      tag_264\n      jump\t// in\n    tag_465:\n        /* \"#utility.yul\":15247:15369   */\n      swap5\n      pop\n        /* \"#utility.yul\":15392:15477   */\n      tag_466\n        /* \"#utility.yul\":15470:15476   */\n      dup4\n        /* \"#utility.yul\":15392:15477   */\n      tag_265\n      jump\t// in\n    tag_466:\n        /* \"#utility.yul\":15382:15477   */\n      swap3\n      pop\n        /* \"#utility.yul\":15506:15510   */\n      0x20\n        /* \"#utility.yul\":15501:15504   */\n      dup11\n        /* \"#utility.yul\":15497:15511   */\n      add\n        /* \"#utility.yul\":15490:15511   */\n      swap10\n      pop\n        /* \"#utility.yul\":15140:15521   */\n      pop\n        /* \"#utility.yul\":15127:15128   */\n      0x01\n        /* \"#utility.yul\":15124:15125   */\n      dup2\n        /* \"#utility.yul\":15120:15129   */\n      add\n        /* \"#utility.yul\":15115:15129   */\n      swap1\n      pop\n        /* \"#utility.yul\":15080:15521   */\n      jump(tag_462)\n    tag_464:\n        /* \"#utility.yul\":15084:15098   */\n      pop\n        /* \"#utility.yul\":15537:15541   */\n      dup3\n        /* \"#utility.yul\":15530:15541   */\n      swap8\n      pop\n        /* \"#utility.yul\":15557:15560   */\n      dup8\n        /* \"#utility.yul\":15550:15560   */\n      swap6\n      pop\n        /* \"#utility.yul\":14629:15566   */\n      pop\n      pop\n      pop\n      pop\n      pop\n        /* \"#utility.yul\":14455:15566   */\n      swap3\n      swap2\n      pop\n      pop\n      jump\t// out\n        /* \"#utility.yul\":15572:16045   */\n    tag_99:\n        /* \"#utility.yul\":15765:15769   */\n      0x00\n        /* \"#utility.yul\":15803:15805   */\n      0x20\n        /* \"#utility.yul\":15792:15801   */\n      dup3\n        /* \"#utility.yul\":15788:15806   */\n      add\n        /* \"#utility.yul\":15780:15806   */\n      swap1\n      pop\n        /* \"#utility.yul\":15852:15861   */\n      dup2\n        /* \"#utility.yul\":15846:15850   */\n      dup2\n        /* \"#utility.yul\":15842:15862   */\n      sub\n        /* \"#utility.yul\":15838:15839   */\n      0x00\n        /* \"#utility.yul\":15827:15836   */\n      dup4\n        /* \"#utility.yul\":15823:15840   */\n      add\n        /* \"#utility.yul\":15816:15863   */\n      mstore\n        /* \"#utility.yul\":15880:16038   */\n      tag_468\n        /* \"#utility.yul\":16033:16037   */\n      dup2\n        /* \"#utility.yul\":16024:16030   */\n      dup5\n        /* \"#utility.yul\":15880:16038   */\n      tag_266\n      jump\t// in\n    tag_468:\n        /* \"#utility.yul\":15872:16038   */\n      swap1\n      pop\n        /* \"#utility.yul\":15572:16045   */\n      swap3\n      swap2\n      pop\n      pop\n      jump\t// out\n        /* \"#utility.yul\":16051:16221   */\n    tag_267:\n        /* \"#utility.yul\":16191:16213   */\n      0x496e76616c69642063616e646964617465206964000000000000000000000000\n        /* \"#utility.yul\":16187:16188   */\n      0x00\n        /* \"#utility.yul\":16179:16185   */\n      dup3\n        /* \"#utility.yul\":16175:16189   */\n      add\n        /* \"#utility.yul\":16168:16214   */\n      mstore\n        /* \"#utility.yul\":16051:16221   */\n      pop\n      jump\t// out\n        /* \"#utility.yul\":16227:16593   */\n    tag_268:\n        /* \"#utility.yul\":16369:16372   */\n      0x00\n        /* \"#utility.yul\":16390:16457   */\n      tag_471\n        /* \"#utility.yul\":16454:16456   */\n      0x14\n        /* \"#utility.yul\":16449:16452   */\n      dup4\n        /* \"#utility.yul\":16390:16457   */\n      tag_247\n      jump\t// in\n    tag_471:\n        /* \"#utility.yul\":16383:16457   */\n      swap2\n      pop\n        /* \"#utility.yul\":16466:16559   */\n      tag_472\n        /* \"#utility.yul\":16555:16558   */\n      dup3\n        /* \"#utility.yul\":16466:16559   */\n      tag_267\n      jump\t// in\n    tag_472:\n        /* \"#utility.yul\":16584:16586   */\n      0x20\n        /* \"#utility.yul\":16579:16582   */\n      dup3\n        /* \"#utility.yul\":16575:16587   */\n      add\n        /* \"#utility.yul\":16568:16587   */\n      swap1\n      pop\n        /* \"#utility.yul\":16227:16593   */\n      swap2\n      swap1\n      pop\n      jump\t// out\n        /* \"#utility.yul\":16599:17018   */\n    tag_106:\n        /* \"#utility.yul\":16765:16769   */\n      0x00\n        /* \"#utility.yul\":16803:16805   */\n      0x20\n        /* \"#utility.yul\":16792:16801   */\n      dup3\n        /* \"#utility.yul\":16788:16806   */\n      add\n        /* \"#utility.yul\":16780:16806   */\n      swap1\n      pop\n        /* \"#utility.yul\":16852:16861   */\n      dup2\n        /* \"#utility.yul\":16846:16850   */\n      dup2\n        /* \"#utility.yul\":16842:16862   */\n      sub\n        /* \"#utility.yul\":16838:16839   */\n      0x00\n        /* \"#utility.yul\":16827:16836   */\n      dup4\n        /* \"#utility.yul\":16823:16840   */\n      add\n        /* \"#utility.yul\":16816:16863   */\n      mstore\n        /* \"#utility.yul\":16880:17011   */\n      tag_474\n        /* \"#utility.yul\":17006:17010   */\n      dup2\n        /* \"#utility.yul\":16880:17011   */\n      tag_268\n      jump\t// in\n    tag_474:\n        /* \"#utility.yul\":16872:17011   */\n      swap1\n      pop\n        /* \"#utility.yul\":16599:17018   */\n      swap2\n      swap1\n      pop\n      jump\t// out\n        /* \"#utility.yul\":17024:17192   */\n    tag_269:\n        /* \"#utility.yul\":17164:17184   */\n      0x566f74696e67206973206e6f74206f70656e0000000000000000000000000000\n        /* \"#utility.yul\":17160:17161   */\n      0x00\n        /* \"#utility.yul\":17152:17158   */\n      dup3\n        /* \"#utility.yul\":17148:17162   */\n      add\n        /* \"#utility.yul\":17141:17185   */\n      mstore\n        /* \"#utility.yul\":17024:17192   */\n      pop\n      jump\t// out\n        /* \"#utility.yul\":17198:17564   */\n    tag_270:\n        /* \"#utility.yul\":17340:17343   */\n      0x00\n        /* \"#utility.yul\":17361:17428   */\n      tag_477\n        /* \"#utility.yul\":17425:17427   */\n      0x12\n        /* \"#utility.yul\":17420:17423   */\n      dup4\n        /* \"#utility.yul\":17361:17428   */\n      tag_247\n      jump\t// in\n    tag_477:\n        /* \"#utility.yul\":17354:17428   */\n      swap2\n      pop\n        /* \"#utility.yul\":17437:17530   */\n      tag_478\n        /* \"#utility.yul\":17526:17529   */\n      dup3\n        /* \"#utility.yul\":17437:17530   */\n      tag_269\n      jump\t// in\n    tag_478:\n        /* \"#utility.yul\":17555:17557   */\n      0x20\n        /* \"#utility.yul\":17550:17553   */\n      dup3\n        /* \"#utility.yul\":17546:17558   */\n      add\n        /* \"#utility.yul\":17539:17558   */\n      swap1\n      pop\n        /* \"#utility.yul\":17198:17564   */\n      swap2\n      swap1\n      pop\n      jump\t// out\n        /* \"#utility.yul\":17570:17989   */\n    tag_110:\n        /* \"#utility.yul\":17736:17740   */\n      0x00\n        /* \"#utility.yul\":17774:17776   */\n      0x20\n        /* \"#utility.yul\":17763:17772   */\n      dup3\n        /* \"#utility.yul\":17759:17777   */\n      add\n        /* \"#utility.yul\":17751:17777   */\n      swap1\n      pop\n        /* \"#utility.yul\":17823:17832   */\n      dup2\n        /* \"#utility.yul\":17817:17821   */\n      dup2\n        /* \"#utility.yul\":17813:17833   */\n      sub\n        /* \"#utility.yul\":17809:17810   */\n      0x00\n        /* \"#utility.yul\":17798:17807   */\n      dup4\n        /* \"#utility.yul\":17794:17811   */\n      add\n        /* \"#utility.yul\":17787:17834   */\n      mstore\n        /* \"#utility.yul\":17851:17982   */\n      tag_480\n        /* \"#utility.yul\":17977:17981   */\n      dup2\n        /* \"#utility.yul\":17851:17982   */\n      tag_270\n      jump\t// in\n    tag_480:\n        /* \"#utility.yul\":17843:17982   */\n      swap1\n      pop\n        /* \"#utility.yul\":17570:17989   */\n      swap2\n      swap1\n      pop\n      jump\t// out\n        /* \"#utility.yul\":17995:18175   */\n    tag_271:\n        /* \"#utility.yul\":18135:18167   */\n      0x796f7520617265206e6f74207265676973746572656420746f20766f74650000\n        /* \"#utility.yul\":18131:18132   */\n      0x00\n        /* \"#utility.yul\":18123:18129   */\n      dup3\n        /* \"#utility.yul\":18119:18133   */\n      add\n        /* \"#utility.yul\":18112:18168   */\n      mstore\n        /* \"#utility.yul\":17995:18175   */\n      pop\n      jump\t// out\n        /* \"#utility.yul\":18181:18547   */\n    tag_272:\n        /* \"#utility.yul\":18323:18326   */\n      0x00\n        /* \"#utility.yul\":18344:18411   */\n      tag_483\n        /* \"#utility.yul\":18408:18410   */\n      0x1e\n        /* \"#utility.yul\":18403:18406   */\n      dup4\n        /* \"#utility.yul\":18344:18411   */\n      tag_247\n      jump\t// in\n    tag_483:\n        /* \"#utility.yul\":18337:18411   */\n      swap2\n      pop\n        /* \"#utility.yul\":18420:18513   */\n      tag_484\n        /* \"#utility.yul\":18509:18512   */\n      dup3\n        /* \"#utility.yul\":18420:18513   */\n      tag_271\n      jump\t// in\n    tag_484:\n        /* \"#utility.yul\":18538:18540   */\n      0x20\n        /* \"#utility.yul\":18533:18536   */\n      dup3\n        /* \"#utility.yul\":18529:18541   */\n      add\n        /* \"#utility.yul\":18522:18541   */\n      swap1\n      pop\n        /* \"#utility.yul\":18181:18547   */\n      swap2\n      swap1\n      pop\n      jump\t// out\n        /* \"#utility.yul\":18553:18972   */\n    tag_113:\n        /* \"#utility.yul\":18719:18723   */\n      0x00\n        /* \"#utility.yul\":18757:18759   */\n      0x20\n        /* \"#utility.yul\":18746:18755   */\n      dup3\n        /* \"#utility.yul\":18742:18760   */\n      add\n        /* \"#utility.yul\":18734:18760   */\n      swap1\n      pop\n        /* \"#utility.yul\":18806:18815   */\n      dup2\n        /* \"#utility.yul\":18800:18804   */\n      dup2\n        /* \"#utility.yul\":18796:18816   */\n      sub\n        /* \"#utility.yul\":18792:18793   */\n      0x00\n        /* \"#utility.yul\":18781:18790   */\n      dup4\n        /* \"#utility.yul\":18777:18794   */\n      add\n        /* \"#utility.yul\":18770:18817   */\n      mstore\n        /* \"#utility.yul\":18834:18965   */\n      tag_486\n        /* \"#utility.yul\":18960:18964   */\n      dup2\n        /* \"#utility.yul\":18834:18965   */\n      tag_272\n      jump\t// in\n    tag_486:\n        /* \"#utility.yul\":18826:18965   */\n      swap1\n      pop\n        /* \"#utility.yul\":18553:18972   */\n      swap2\n      swap1\n      pop\n      jump\t// out\n        /* \"#utility.yul\":18978:19141   */\n    tag_273:\n        /* \"#utility.yul\":19118:19133   */\n      0x416c726561647920566f74656400000000000000000000000000000000000000\n        /* \"#utility.yul\":19114:19115   */\n      0x00\n        /* \"#utility.yul\":19106:19112   */\n      dup3\n        /* \"#utility.yul\":19102:19116   */\n      add\n        /* \"#utility.yul\":19095:19134   */\n      mstore\n        /* \"#utility.yul\":18978:19141   */\n      pop\n      jump\t// out\n        /* \"#utility.yul\":19147:19513   */\n    tag_274:\n        /* \"#utility.yul\":19289:19292   */\n      0x00\n        /* \"#utility.yul\":19310:19377   */\n      tag_489\n        /* \"#utility.yul\":19374:19376   */\n      0x0d\n        /* \"#utility.yul\":19369:19372   */\n      dup4\n        /* \"#utility.yul\":19310:19377   */\n      tag_247\n      jump\t// in\n    tag_489:\n        /* \"#utility.yul\":19303:19377   */\n      swap2\n      pop\n        /* \"#utility.yul\":19386:19479   */\n      tag_490\n        /* \"#utility.yul\":19475:19478   */\n      dup3\n        /* \"#utility.yul\":19386:19479   */\n      tag_273\n      jump\t// in\n    tag_490:\n        /* \"#utility.yul\":19504:19506   */\n      0x20\n        /* \"#utility.yul\":19499:19502   */\n      dup3\n        /* \"#utility.yul\":19495:19507   */\n      add\n        /* \"#utility.yul\":19488:19507   */\n      swap1\n      pop\n        /* \"#utility.yul\":19147:19513   */\n      swap2\n      swap1\n      pop\n      jump\t// out\n        /* \"#utility.yul\":19519:19938   */\n    tag_116:\n        /* \"#utility.yul\":19685:19689   */\n      0x00\n        /* \"#utility.yul\":19723:19725   */\n      0x20\n        /* \"#utility.yul\":19712:19721   */\n      dup3\n        /* \"#utility.yul\":19708:19726   */\n      add\n        /* \"#utility.yul\":19700:19726   */\n      swap1\n      pop\n        /* \"#utility.yul\":19772:19781   */\n      dup2\n        /* \"#utility.yul\":19766:19770   */\n      dup2\n        /* \"#utility.yul\":19762:19782   */\n      sub\n        /* \"#utility.yul\":19758:19759   */\n      0x00\n        /* \"#utility.yul\":19747:19756   */\n      dup4\n        /* \"#utility.yul\":19743:19760   */\n      add\n        /* \"#utility.yul\":19736:19783   */\n      mstore\n        /* \"#utility.yul\":19800:19931   */\n      tag_492\n        /* \"#utility.yul\":19926:19930   */\n      dup2\n        /* \"#utility.yul\":19800:19931   */\n      tag_274\n      jump\t// in\n    tag_492:\n        /* \"#utility.yul\":19792:19931   */\n      swap1\n      pop\n        /* \"#utility.yul\":19519:19938   */\n      swap2\n      swap1\n      pop\n      jump\t// out\n        /* \"#utility.yul\":19944:20112   */\n    tag_275:\n        /* \"#utility.yul\":20084:20104   */\n      0x4d617820766f7465727320726561636865640000000000000000000000000000\n        /* \"#utility.yul\":20080:20081   */\n      0x00\n        /* \"#utility.yul\":20072:20078   */\n      dup3\n        /* \"#utility.yul\":20068:20082   */\n      add\n        /* \"#utility.yul\":20061:20105   */\n      mstore\n        /* \"#utility.yul\":19944:20112   */\n      pop\n      jump\t// out\n        /* \"#utility.yul\":20118:20484   */\n    tag_276:\n        /* \"#utility.yul\":20260:20263   */\n      0x00\n        /* \"#utility.yul\":20281:20348   */\n      tag_495\n        /* \"#utility.yul\":20345:20347   */\n      0x12\n        /* \"#utility.yul\":20340:20343   */\n      dup4\n        /* \"#utility.yul\":20281:20348   */\n      tag_247\n      jump\t// in\n    tag_495:\n        /* \"#utility.yul\":20274:20348   */\n      swap2\n      pop\n        /* \"#utility.yul\":20357:20450   */\n      tag_496\n        /* \"#utility.yul\":20446:20449   */\n      dup3\n        /* \"#utility.yul\":20357:20450   */\n      tag_275\n      jump\t// in\n    tag_496:\n        /* \"#utility.yul\":20475:20477   */\n      0x20\n        /* \"#utility.yul\":20470:20473   */\n      dup3\n        /* \"#utility.yul\":20466:20478   */\n      add\n        /* \"#utility.yul\":20459:20478   */\n      swap1\n      pop\n        /* \"#utility.yul\":20118:20484   */\n      swap2\n      swap1\n      pop\n      jump\t// out\n        /* \"#utility.yul\":20490:20909   */\n    tag_119:\n        /* \"#utility.yul\":20656:20660   */\n      0x00\n        /* \"#utility.yul\":20694:20696   */\n      0x20\n        /* \"#utility.yul\":20683:20692   */\n      dup3\n        /* \"#utility.yul\":20679:20697   */\n      add\n        /* \"#utility.yul\":20671:20697   */\n      swap1\n      pop\n        /* \"#utility.yul\":20743:20752   */\n      dup2\n        /* \"#utility.yul\":20737:20741   */\n      dup2\n        /* \"#utility.yul\":20733:20753   */\n      sub\n        /* \"#utility.yul\":20729:20730   */\n      0x00\n        /* \"#utility.yul\":20718:20727   */\n      dup4\n        /* \"#utility.yul\":20714:20731   */\n      add\n        /* \"#utility.yul\":20707:20754   */\n      mstore\n        /* \"#utility.yul\":20771:20902   */\n      tag_498\n        /* \"#utility.yul\":20897:20901   */\n      dup2\n        /* \"#utility.yul\":20771:20902   */\n      tag_276\n      jump\t// in\n    tag_498:\n        /* \"#utility.yul\":20763:20902   */\n      swap1\n      pop\n        /* \"#utility.yul\":20490:20909   */\n      swap2\n      swap1\n      pop\n      jump\t// out\n        /* \"#utility.yul\":20915:21095   */\n    tag_277:\n        /* \"#utility.yul\":20963:21040   */\n      0x4e487b7100000000000000000000000000000000000000000000000000000000\n        /* \"#utility.yul\":20960:20961   */\n      0x00\n        /* \"#utility.yul\":20953:21041   */\n      mstore\n        /* \"#utility.yul\":21060:21064   */\n      0x11\n        /* \"#utility.yul\":21057:21058   */\n      0x04\n        /* \"#utility.yul\":21050:21065   */\n      mstore\n        /* \"#utility.yul\":21084:21088   */\n      0x24\n        /* \"#utility.yul\":21081:21082   */\n      0x00\n        /* \"#utility.yul\":21074:21089   */\n      revert\n        /* \"#utility.yul\":21101:21334   */\n    tag_121:\n        /* \"#utility.yul\":21140:21143   */\n      0x00\n        /* \"#utility.yul\":21163:21187   */\n      tag_501\n        /* \"#utility.yul\":21181:21186   */\n      dup3\n        /* \"#utility.yul\":21163:21187   */\n      tag_223\n      jump\t// in\n    tag_501:\n        /* \"#utility.yul\":21154:21187   */\n      swap2\n      pop\n        /* \"#utility.yul\":21209:21275   */\n      0xffffffffffffffffffffffffffffffffffffffffffffffffffffffffffffffff\n        /* \"#utility.yul\":21202:21207   */\n      dup3\n        /* \"#utility.yul\":21199:21276   */\n      sub\n        /* \"#utility.yul\":21196:21299   */\n      tag_502\n      jumpi\n        /* \"#utility.yul\":21279:21297   */\n      tag_503\n      tag_277\n      jump\t// in\n    tag_503:\n        /* \"#utility.yul\":21196:21299   */\n    tag_502:\n        /* \"#utility.yul\":21326:21327   */\n      0x01\n        /* \"#utility.yul\":21319:21324   */\n      dup3\n        /* \"#utility.yul\":21315:21328   */\n      add\n        /* \"#utility.yul\":21308:21328   */\n      swap1\n      pop\n        /* \"#utility.yul\":21101:21334   */\n      swap2\n      swap1\n      pop\n      jump\t// out\n        /* \"#utility.yul\":21340:21519   */\n    tag_278:\n        /* \"#utility.yul\":21480:21511   */\n      0x6f6e6c79206f776e65722063616e20726573657420656c656374696f6e000000\n        /* \"#utility.yul\":21476:21477   */\n      0x00\n        /* \"#utility.yul\":21468:21474   */\n      dup3\n        /* \"#utility.yul\":21464:21478   */\n      add\n        /* \"#utility.yul\":21457:21512   */\n      mstore\n        /* \"#utility.yul\":21340:21519   */\n      pop\n      jump\t// out\n        /* \"#utility.yul\":21525:21891   */\n    tag_279:\n        /* \"#utility.yul\":21667:21670   */\n      0x00\n        /* \"#utility.yul\":21688:21755   */\n      tag_506\n        /* \"#utility.yul\":21752:21754   */\n      0x1d\n        /* \"#utility.yul\":21747:21750   */\n      dup4\n        /* \"#utility.yul\":21688:21755   */\n      tag_247\n      jump\t// in\n    tag_506:\n        /* \"#utility.yul\":21681:21755   */\n      swap2\n      pop\n        /* \"#utility.yul\":21764:21857   */\n      tag_507\n        /* \"#utility.yul\":21853:21856   */\n      dup3\n        /* \"#utility.yul\":21764:21857   */\n      tag_278\n      jump\t// in\n    tag_507:\n        /* \"#utility.yul\":21882:21884   */\n      0x20\n        /* \"#utility.yul\":21877:21880   */\n      dup3\n        /* \"#utility.yul\":21873:21885   */\n      add\n        /* \"#utility.yul\":21866:21885   */\n      swap1\n      pop\n        /* \"#utility.yul\":21525:21891   */\n      swap2\n      swap1\n      pop\n      jump\t// out\n        /* \"#utility.yul\":21897:22316   */\n    tag_126:\n        /* \"#utility.yul\":22063:22067   */\n      0x00\n        /* \"#utility.yul\":22101:22103   */\n      0x20\n        /* \"#utility.yul\":22090:22099   */\n      dup3\n        /* \"#utility.yul\":22086:22104   */\n      add\n        /* \"#utility.yul\":22078:22104   */\n      swap1\n      pop\n        /* \"#utility.yul\":22150:22159   */\n      dup2\n        /* \"#utility.yul\":22144:22148   */\n      dup2\n        /* \"#utility.yul\":22140:22160   */\n      sub\n        /* \"#utility.yul\":22136:22137   */\n      0x00\n        /* \"#utility.yul\":22125:22134   */\n      dup4\n        /* \"#utility.yul\":22121:22138   */\n      add\n        /* \"#utility.yul\":22114:22161   */\n      mstore\n        /* \"#utility.yul\":22178:22309   */\n      tag_509\n        /* \"#utility.yul\":22304:22308   */\n      dup2\n        /* \"#utility.yul\":22178:22309   */\n      tag_279\n      jump\t// in\n    tag_509:\n        /* \"#utility.yul\":22170:22309   */\n      swap1\n      pop\n        /* \"#utility.yul\":21897:22316   */\n      swap2\n      swap1\n      pop\n      jump\t// out\n        /* \"#utility.yul\":22322:22502   */\n    tag_133:\n        /* \"#utility.yul\":22370:22447   */\n      0x4e487b7100000000000000000000000000000000000000000000000000000000\n        /* \"#utility.yul\":22367:22368   */\n      0x00\n        /* \"#utility.yul\":22360:22448   */\n      mstore\n        /* \"#utility.yul\":22467:22471   */\n      0x32\n        /* \"#utility.yul\":22464:22465   */\n      0x04\n        /* \"#utility.yul\":22457:22472   */\n      mstore\n        /* \"#utility.yul\":22491:22495   */\n      0x24\n        /* \"#utility.yul\":22488:22489   */\n      0x00\n        /* \"#utility.yul\":22481:22496   */\n      revert\n        /* \"#utility.yul\":22508:22688   */\n    tag_280:\n        /* \"#utility.yul\":22556:22633   */\n      0x4e487b7100000000000000000000000000000000000000000000000000000000\n        /* \"#utility.yul\":22553:22554   */\n      0x00\n        /* \"#utility.yul\":22546:22634   */\n      mstore\n        /* \"#utility.yul\":22653:22657   */\n      0x22\n        /* \"#utility.yul\":22650:22651   */\n      0x04\n        /* \"#utility.yul\":22643:22658   */\n      mstore\n        /* \"#utility.yul\":22677:22681   */\n      0x24\n        /* \"#utility.yul\":22674:22675   */\n      0x00\n        /* \"#utility.yul\":22667:22682   */\n      revert\n        /* \"#utility.yul\":22694:23014   */\n    tag_145:\n        /* \"#utility.yul\":22738:22744   */\n      0x00\n        /* \"#utility.yul\":22775:22776   */\n      0x02\n        /* \"#utility.yul\":22769:22773   */\n      dup3\n        /* \"#utility.yul\":22765:22777   */\n      div\n        /* \"#utility.yul\":22755:22777   */\n      swap1\n      pop\n        /* \"#utility.yul\":22822:22823   */\n      0x01\n        /* \"#utility.yul\":22816:22820   */\n      dup3\n        /* \"#utility.yul\":22812:22824   */\n      and\n        /* \"#utility.yul\":22843:22861   */\n      dup1\n        /* \"#utility.yul\":22833:22914   */\n      tag_513\n      jumpi\n        /* \"#utility.yul\":22899:22903   */\n      0x7f\n        /* \"#utility.yul\":22891:22897   */\n      dup3\n        /* \"#utility.yul\":22887:22904   */\n      and\n        /* \"#utility.yul\":22877:22904   */\n      swap2\n      pop\n        /* \"#utility.yul\":22833:22914   */\n    tag_513:\n        /* \"#utility.yul\":22961:22963   */\n      0x20\n        /* \"#utility.yul\":22953:22959   */\n      dup3\n        /* \"#utility.yul\":22950:22964   */\n      lt\n        /* \"#utility.yul\":22930:22948   */\n      dup2\n        /* \"#utility.yul\":22927:22965   */\n      sub\n        /* \"#utility.yul\":22924:23008   */\n      tag_514\n      jumpi\n        /* \"#utility.yul\":22980:22998   */\n      tag_515\n      tag_280\n      jump\t// in\n    tag_515:\n        /* \"#utility.yul\":22924:23008   */\n    tag_514:\n        /* \"#utility.yul\":22745:23014   */\n      pop\n        /* \"#utility.yul\":22694:23014   */\n      swap2\n      swap1\n      pop\n      jump\t// out\n        /* \"#utility.yul\":23020:23161   */\n    tag_281:\n        /* \"#utility.yul\":23069:23073   */\n      0x00\n        /* \"#utility.yul\":23092:23095   */\n      dup2\n        /* \"#utility.yul\":23084:23095   */\n      swap1\n      pop\n        /* \"#utility.yul\":23115:23118   */\n      dup2\n        /* \"#utility.yul\":23112:23113   */\n      0x00\n        /* \"#utility.yul\":23105:23119   */\n      mstore\n        /* \"#utility.yul\":23149:23153   */\n      0x20\n        /* \"#utility.yul\":23146:23147   */\n      0x00\n        /* \"#utility.yul\":23136:23154   */\n      keccak256\n        /* \"#utility.yul\":23128:23154   */\n      swap1\n      pop\n        /* \"#utility.yul\":23020:23161   */\n      swap2\n      swap1\n      pop\n      jump\t// out\n        /* \"#utility.yul\":23167:23260   */\n    tag_282:\n        /* \"#utility.yul\":23204:23210   */\n      0x00\n        /* \"#utility.yul\":23251:23253   */\n      0x20\n        /* \"#utility.yul\":23246:23248   */\n      0x1f\n        /* \"#utility.yul\":23239:23244   */\n      dup4\n        /* \"#utility.yul\":23235:23249   */\n      add\n        /* \"#utility.yul\":23231:23254   */\n      div\n        /* \"#utility.yul\":23221:23254   */\n      swap1\n      pop\n        /* \"#utility.yul\":23167:23260   */\n      swap2\n      swap1\n      pop\n      jump\t// out\n        /* \"#utility.yul\":23266:23373   */\n    tag_283:\n        /* \"#utility.yul\":23310:23318   */\n      0x00\n        /* \"#utility.yul\":23360:23365   */\n      dup3\n        /* \"#utility.yul\":23354:23358   */\n      dup3\n        /* \"#utility.yul\":23350:23366   */\n      shl\n        /* \"#utility.yul\":23329:23366   */\n      swap1\n      pop\n        /* \"#utility.yul\":23266:23373   */\n      swap3\n      swap2\n      pop\n      pop\n      jump\t// out\n        /* \"#utility.yul\":23379:23772   */\n    tag_284:\n        /* \"#utility.yul\":23448:23454   */\n      0x00\n        /* \"#utility.yul\":23498:23499   */\n      0x08\n        /* \"#utility.yul\":23486:23496   */\n      dup4\n        /* \"#utility.yul\":23482:23500   */\n      mul\n        /* \"#utility.yul\":23521:23618   */\n      tag_520\n        /* \"#utility.yul\":23551:23617   */\n      0xffffffffffffffffffffffffffffffffffffffffffffffffffffffffffffffff\n        /* \"#utility.yul\":23540:23549   */\n      dup3\n        /* \"#utility.yul\":23521:23618   */\n      tag_283\n      jump\t// in\n    tag_520:\n        /* \"#utility.yul\":23639:23678   */\n      tag_521\n        /* \"#utility.yul\":23669:23677   */\n      dup7\n        /* \"#utility.yul\":23658:23667   */\n      dup4\n        /* \"#utility.yul\":23639:23678   */\n      tag_283\n      jump\t// in\n    tag_521:\n        /* \"#utility.yul\":23627:23678   */\n      swap6\n      pop\n        /* \"#utility.yul\":23711:23715   */\n      dup1\n        /* \"#utility.yul\":23707:23716   */\n      not\n        /* \"#utility.yul\":23700:23705   */\n      dup5\n        /* \"#utility.yul\":23696:23717   */\n      and\n        /* \"#utility.yul\":23687:23717   */\n      swap4\n      pop\n        /* \"#utility.yul\":23760:23764   */\n      dup1\n        /* \"#utility.yul\":23750:23758   */\n      dup7\n        /* \"#utility.yul\":23746:23765   */\n      and\n        /* \"#utility.yul\":23739:23744   */\n      dup5\n        /* \"#utility.yul\":23736:23766   */\n      or\n        /* \"#utility.yul\":23726:23766   */\n      swap3\n      pop\n        /* \"#utility.yul\":23455:23772   */\n      pop\n      pop\n        /* \"#utility.yul\":23379:23772   */\n      swap4\n      swap3\n      pop\n      pop\n      pop\n      jump\t// out\n        /* \"#utility.yul\":23778:23838   */\n    tag_285:\n        /* \"#utility.yul\":23806:23809   */\n      0x00\n        /* \"#utility.yul\":23827:23832   */\n      dup2\n        /* \"#utility.yul\":23820:23832   */\n      swap1\n      pop\n        /* \"#utility.yul\":23778:23838   */\n      swap2\n      swap1\n      pop\n      jump\t// out\n        /* \"#utility.yul\":23844:23986   */\n    tag_286:\n        /* \"#utility.yul\":23894:23903   */\n      0x00\n        /* \"#utility.yul\":23927:23980   */\n      tag_524\n        /* \"#utility.yul\":23945:23979   */\n      tag_525\n        /* \"#utility.yul\":23954:23978   */\n      tag_526\n        /* \"#utility.yul\":23972:23977   */\n      dup5\n        /* \"#utility.yul\":23954:23978   */\n      tag_223\n      jump\t// in\n    tag_526:\n        /* \"#utility.yul\":23945:23979   */\n      tag_285\n      jump\t// in\n    tag_525:\n        /* \"#utility.yul\":23927:23980   */\n      tag_223\n      jump\t// in\n    tag_524:\n        /* \"#utility.yul\":23914:23980   */\n      swap1\n      pop\n        /* \"#utility.yul\":23844:23986   */\n      swap2\n      swap1\n      pop\n      jump\t// out\n        /* \"#utility.yul\":23992:24067   */\n    tag_287:\n        /* \"#utility.yul\":24035:24038   */\n      0x00\n        /* \"#utility.yul\":24056:24061   */\n      dup2\n        /* \"#utility.yul\":24049:24061   */\n      swap1\n      pop\n        /* \"#utility.yul\":23992:24067   */\n      swap2\n      swap1\n      pop\n      jump\t// out\n        /* \"#utility.yul\":24073:24342   */\n    tag_288:\n        /* \"#utility.yul\":24183:24222   */\n      tag_529\n        /* \"#utility.yul\":24214:24221   */\n      dup4\n        /* \"#utility.yul\":24183:24222   */\n      tag_286\n      jump\t// in\n    tag_529:\n        /* \"#utility.yul\":24244:24335   */\n      tag_530\n        /* \"#utility.yul\":24293:24334   */\n      tag_531\n        /* \"#utility.yul\":24317:24333   */\n      dup3\n        /* \"#utility.yul\":24293:24334   */\n      tag_287\n      jump\t// in\n    tag_531:\n        /* \"#utility.yul\":24285:24291   */\n      dup5\n        /* \"#utility.yul\":24278:24282   */\n      dup5\n        /* \"#utility.yul\":24272:24283   */\n      sload\n        /* \"#utility.yul\":24244:24335   */\n      tag_284\n      jump\t// in\n    tag_530:\n        /* \"#utility.yul\":24238:24242   */\n      dup3\n        /* \"#utility.yul\":24231:24336   */\n      sstore\n        /* \"#utility.yul\":24149:24342   */\n      pop\n        /* \"#utility.yul\":24073:24342   */\n      pop\n      pop\n      pop\n      jump\t// out\n        /* \"#utility.yul\":24348:24421   */\n    tag_289:\n        /* \"#utility.yul\":24393:24396   */\n      0x00\n        /* \"#utility.yul\":24348:24421   */\n      swap1\n      jump\t// out\n        /* \"#utility.yul\":24427:24616   */\n    tag_290:\n        /* \"#utility.yul\":24504:24536   */\n      tag_534\n      tag_289\n      jump\t// in\n    tag_534:\n        /* \"#utility.yul\":24545:24610   */\n      tag_535\n        /* \"#utility.yul\":24603:24609   */\n      dup2\n        /* \"#utility.yul\":24595:24601   */\n      dup5\n        /* \"#utility.yul\":24589:24593   */\n      dup5\n        /* \"#utility.yul\":24545:24610   */\n      tag_288\n      jump\t// in\n    tag_535:\n        /* \"#utility.yul\":24480:24616   */\n      pop\n        /* \"#utility.yul\":24427:24616   */\n      pop\n      pop\n      jump\t// out\n        /* \"#utility.yul\":24622:24808   */\n    tag_291:\n        /* \"#utility.yul\":24682:24802   */\n    tag_537:\n        /* \"#utility.yul\":24699:24702   */\n      dup2\n        /* \"#utility.yul\":24692:24697   */\n      dup2\n        /* \"#utility.yul\":24689:24703   */\n      lt\n        /* \"#utility.yul\":24682:24802   */\n      iszero\n      tag_539\n      jumpi\n        /* \"#utility.yul\":24753:24792   */\n      tag_540\n        /* \"#utility.yul\":24790:24791   */\n      0x00\n        /* \"#utility.yul\":24783:24788   */\n      dup3\n        /* \"#utility.yul\":24753:24792   */\n      tag_290\n      jump\t// in\n    tag_540:\n        /* \"#utility.yul\":24726:24727   */\n      0x01\n        /* \"#utility.yul\":24719:24724   */\n      dup2\n        /* \"#utility.yul\":24715:24728   */\n      add\n        /* \"#utility.yul\":24706:24728   */\n      swap1\n      pop\n        /* \"#utility.yul\":24682:24802   */\n      jump(tag_537)\n    tag_539:\n        /* \"#utility.yul\":24622:24808   */\n      pop\n      pop\n      jump\t// out\n        /* \"#utility.yul\":24814:25357   */\n    tag_292:\n        /* \"#utility.yul\":24915:24917   */\n      0x1f\n        /* \"#utility.yul\":24910:24913   */\n      dup3\n        /* \"#utility.yul\":24907:24918   */\n      gt\n        /* \"#utility.yul\":24904:25350   */\n      iszero\n      tag_542\n      jumpi\n        /* \"#utility.yul\":24949:24987   */\n      tag_543\n        /* \"#utility.yul\":24981:24986   */\n      dup2\n        /* \"#utility.yul\":24949:24987   */\n      tag_281\n      jump\t// in\n    tag_543:\n        /* \"#utility.yul\":25033:25062   */\n      tag_544\n        /* \"#utility.yul\":25051:25061   */\n      dup5\n        /* \"#utility.yul\":25033:25062   */\n      tag_282\n      jump\t// in\n    tag_544:\n        /* \"#utility.yul\":25023:25031   */\n      dup2\n        /* \"#utility.yul\":25019:25063   */\n      add\n        /* \"#utility.yul\":25216:25218   */\n      0x20\n        /* \"#utility.yul\":25204:25214   */\n      dup6\n        /* \"#utility.yul\":25201:25219   */\n      lt\n        /* \"#utility.yul\":25198:25247   */\n      iszero\n      tag_545\n      jumpi\n        /* \"#utility.yul\":25237:25245   */\n      dup2\n        /* \"#utility.yul\":25222:25245   */\n      swap1\n      pop\n        /* \"#utility.yul\":25198:25247   */\n    tag_545:\n        /* \"#utility.yul\":25260:25340   */\n      tag_546\n        /* \"#utility.yul\":25316:25338   */\n      tag_547\n        /* \"#utility.yul\":25334:25337   */\n      dup6\n        /* \"#utility.yul\":25316:25338   */\n      tag_282\n      jump\t// in\n    tag_547:\n        /* \"#utility.yul\":25306:25314   */\n      dup4\n        /* \"#utility.yul\":25302:25339   */\n      add\n        /* \"#utility.yul\":25289:25300   */\n      dup3\n        /* \"#utility.yul\":25260:25340   */\n      tag_291\n      jump\t// in\n    tag_546:\n        /* \"#utility.yul\":24919:25350   */\n      pop\n      pop\n        /* \"#utility.yul\":24904:25350   */\n    tag_542:\n        /* \"#utility.yul\":24814:25357   */\n      pop\n      pop\n      pop\n      jump\t// out\n        /* \"#utility.yul\":25363:25480   */\n    tag_293:\n        /* \"#utility.yul\":25417:25425   */\n      0x00\n        /* \"#utility.yul\":25467:25472   */\n      dup3\n        /* \"#utility.yul\":25461:25465   */\n      dup3\n        /* \"#utility.yul\":25457:25473   */\n      shr\n        /* \"#utility.yul\":25436:25473   */\n      swap1\n      pop\n        /* \"#utility.yul\":25363:25480   */\n      swap3\n      swap2\n      pop\n      pop\n      jump\t// out\n        /* \"#utility.yul\":25486:25655   */\n    tag_294:\n        /* \"#utility.yul\":25530:25536   */\n      0x00\n        /* \"#utility.yul\":25563:25614   */\n      tag_550\n        /* \"#utility.yul\":25611:25612   */\n      0x00\n        /* \"#utility.yul\":25607:25613   */\n      not\n        /* \"#utility.yul\":25599:25604   */\n      dup5\n        /* \"#utility.yul\":25596:25597   */\n      0x08\n        /* \"#utility.yul\":25592:25605   */\n      mul\n        /* \"#utility.yul\":25563:25614   */\n      tag_293\n      jump\t// in\n    tag_550:\n        /* \"#utility.yul\":25559:25615   */\n      not\n        /* \"#utility.yul\":25644:25648   */\n      dup1\n        /* \"#utility.yul\":25638:25642   */\n      dup4\n        /* \"#utility.yul\":25634:25649   */\n      and\n        /* \"#utility.yul\":25624:25649   */\n      swap2\n      pop\n        /* \"#utility.yul\":25537:25655   */\n      pop\n        /* \"#utility.yul\":25486:25655   */\n      swap3\n      swap2\n      pop\n      pop\n      jump\t// out\n        /* \"#utility.yul\":25660:25955   */\n    tag_295:\n        /* \"#utility.yul\":25736:25740   */\n      0x00\n        /* \"#utility.yul\":25882:25911   */\n      tag_552\n        /* \"#utility.yul\":25907:25910   */\n      dup4\n        /* \"#utility.yul\":25901:25905   */\n      dup4\n        /* \"#utility.yul\":25882:25911   */\n      tag_294\n      jump\t// in\n    tag_552:\n        /* \"#utility.yul\":25874:25911   */\n      swap2\n      pop\n        /* \"#utility.yul\":25944:25947   */\n      dup3\n        /* \"#utility.yul\":25941:25942   */\n      0x02\n        /* \"#utility.yul\":25937:25948   */\n      mul\n        /* \"#utility.yul\":25931:25935   */\n      dup3\n        /* \"#utility.yul\":25928:25949   */\n      or\n        /* \"#utility.yul\":25920:25949   */\n      swap1\n      pop\n        /* \"#utility.yul\":25660:25955   */\n      swap3\n      swap2\n      pop\n      pop\n      jump\t// out\n        /* \"#utility.yul\":25960:27355   */\n    tag_135:\n        /* \"#utility.yul\":26077:26114   */\n      tag_554\n        /* \"#utility.yul\":26110:26113   */\n      dup3\n        /* \"#utility.yul\":26077:26114   */\n      tag_246\n      jump\t// in\n    tag_554:\n        /* \"#utility.yul\":26179:26197   */\n      0xffffffffffffffff\n        /* \"#utility.yul\":26171:26177   */\n      dup2\n        /* \"#utility.yul\":26168:26198   */\n      gt\n        /* \"#utility.yul\":26165:26221   */\n      iszero\n      tag_555\n      jumpi\n        /* \"#utility.yul\":26201:26219   */\n      tag_556\n      tag_164\n      jump\t// in\n    tag_556:\n        /* \"#utility.yul\":26165:26221   */\n    tag_555:\n        /* \"#utility.yul\":26245:26283   */\n      tag_557\n        /* \"#utility.yul\":26277:26281   */\n      dup3\n        /* \"#utility.yul\":26271:26282   */\n      sload\n        /* \"#utility.yul\":26245:26283   */\n      tag_145\n      jump\t// in\n    tag_557:\n        /* \"#utility.yul\":26330:26397   */\n      tag_558\n        /* \"#utility.yul\":26390:26396   */\n      dup3\n        /* \"#utility.yul\":26382:26388   */\n      dup3\n        /* \"#utility.yul\":26376:26380   */\n      dup6\n        /* \"#utility.yul\":26330:26397   */\n      tag_292\n      jump\t// in\n    tag_558:\n        /* \"#utility.yul\":26424:26425   */\n      0x00\n        /* \"#utility.yul\":26448:26452   */\n      0x20\n        /* \"#utility.yul\":26435:26452   */\n      swap1\n      pop\n        /* \"#utility.yul\":26480:26482   */\n      0x1f\n        /* \"#utility.yul\":26472:26478   */\n      dup4\n        /* \"#utility.yul\":26469:26483   */\n      gt\n        /* \"#utility.yul\":26497:26498   */\n      0x01\n        /* \"#utility.yul\":26492:27110   */\n      dup2\n      eq\n      tag_560\n      jumpi\n        /* \"#utility.yul\":27154:27155   */\n      0x00\n        /* \"#utility.yul\":27171:27177   */\n      dup5\n        /* \"#utility.yul\":27168:27245   */\n      iszero\n      tag_561\n      jumpi\n        /* \"#utility.yul\":27220:27229   */\n      dup3\n        /* \"#utility.yul\":27215:27218   */\n      dup8\n        /* \"#utility.yul\":27211:27230   */\n      add\n        /* \"#utility.yul\":27205:27231   */\n      mload\n        /* \"#utility.yul\":27196:27231   */\n      swap1\n      pop\n        /* \"#utility.yul\":27168:27245   */\n    tag_561:\n        /* \"#utility.yul\":27271:27338   */\n      tag_562\n        /* \"#utility.yul\":27331:27337   */\n      dup6\n        /* \"#utility.yul\":27324:27329   */\n      dup3\n        /* \"#utility.yul\":27271:27338   */\n      tag_295\n      jump\t// in\n    tag_562:\n        /* \"#utility.yul\":27265:27269   */\n      dup7\n        /* \"#utility.yul\":27258:27339   */\n      sstore\n        /* \"#utility.yul\":27127:27349   */\n      pop\n        /* \"#utility.yul\":26462:27349   */\n      jump(tag_559)\n        /* \"#utility.yul\":26492:27110   */\n    tag_560:\n        /* \"#utility.yul\":26544:26548   */\n      0x1f\n        /* \"#utility.yul\":26540:26549   */\n      not\n        /* \"#utility.yul\":26532:26538   */\n      dup5\n        /* \"#utility.yul\":26528:26550   */\n      and\n        /* \"#utility.yul\":26578:26615   */\n      tag_563\n        /* \"#utility.yul\":26610:26614   */\n      dup7\n        /* \"#utility.yul\":26578:26615   */\n      tag_281\n      jump\t// in\n    tag_563:\n        /* \"#utility.yul\":26637:26638   */\n      0x00\n        /* \"#utility.yul\":26651:26859   */\n    tag_564:\n        /* \"#utility.yul\":26665:26672   */\n      dup3\n        /* \"#utility.yul\":26662:26663   */\n      dup2\n        /* \"#utility.yul\":26659:26673   */\n      lt\n        /* \"#utility.yul\":26651:26859   */\n      iszero\n      tag_566\n      jumpi\n        /* \"#utility.yul\":26744:26753   */\n      dup5\n        /* \"#utility.yul\":26739:26742   */\n      dup10\n        /* \"#utility.yul\":26735:26754   */\n      add\n        /* \"#utility.yul\":26729:26755   */\n      mload\n        /* \"#utility.yul\":26721:26727   */\n      dup3\n        /* \"#utility.yul\":26714:26756   */\n      sstore\n        /* \"#utility.yul\":26795:26796   */\n      0x01\n        /* \"#utility.yul\":26787:26793   */\n      dup3\n        /* \"#utility.yul\":26783:26797   */\n      add\n        /* \"#utility.yul\":26773:26797   */\n      swap2\n      pop\n        /* \"#utility.yul\":26842:26844   */\n      0x20\n        /* \"#utility.yul\":26831:26840   */\n      dup6\n        /* \"#utility.yul\":26827:26845   */\n      add\n        /* \"#utility.yul\":26814:26845   */\n      swap5\n      pop\n        /* \"#utility.yul\":26688:26692   */\n      0x20\n        /* \"#utility.yul\":26685:26686   */\n      dup2\n        /* \"#utility.yul\":26681:26693   */\n      add\n        /* \"#utility.yul\":26676:26693   */\n      swap1\n      pop\n        /* \"#utility.yul\":26651:26859   */\n      jump(tag_564)\n    tag_566:\n        /* \"#utility.yul\":26887:26893   */\n      dup7\n        /* \"#utility.yul\":26878:26885   */\n      dup4\n        /* \"#utility.yul\":26875:26894   */\n      lt\n        /* \"#utility.yul\":26872:27051   */\n      iszero\n      tag_567\n      jumpi\n        /* \"#utility.yul\":26945:26954   */\n      dup5\n        /* \"#utility.yul\":26940:26943   */\n      dup10\n        /* \"#utility.yul\":26936:26955   */\n      add\n        /* \"#utility.yul\":26930:26956   */\n      mload\n        /* \"#utility.yul\":26988:27036   */\n      tag_568\n        /* \"#utility.yul\":27030:27034   */\n      0x1f\n        /* \"#utility.yul\":27022:27028   */\n      dup10\n        /* \"#utility.yul\":27018:27035   */\n      and\n        /* \"#utility.yul\":27007:27016   */\n      dup3\n        /* \"#utility.yul\":26988:27036   */\n      tag_294\n      jump\t// in\n    tag_568:\n        /* \"#utility.yul\":26980:26986   */\n      dup4\n        /* \"#utility.yul\":26973:27037   */\n      sstore\n        /* \"#utility.yul\":26895:27051   */\n      pop\n        /* \"#utility.yul\":26872:27051   */\n    tag_567:\n        /* \"#utility.yul\":27097:27098   */\n      0x01\n        /* \"#utility.yul\":27093:27094   */\n      0x02\n        /* \"#utility.yul\":27085:27091   */\n      dup9\n        /* \"#utility.yul\":27081:27095   */\n      mul\n        /* \"#utility.yul\":27077:27099   */\n      add\n        /* \"#utility.yul\":27071:27075   */\n      dup9\n        /* \"#utility.yul\":27064:27100   */\n      sstore\n        /* \"#utility.yul\":26499:27110   */\n      pop\n      pop\n      pop\n        /* \"#utility.yul\":26462:27349   */\n    tag_559:\n      pop\n        /* \"#utility.yul\":26052:27355   */\n      pop\n      pop\n      pop\n        /* \"#utility.yul\":25960:27355   */\n      pop\n      pop\n      jump\t// out\n        /* \"#utility.yul\":27361:27542   */\n    tag_296:\n        /* \"#utility.yul\":27501:27534   */\n      0x6f6e6c79206f776e65722063616e207265676973746572206120766f74657200\n        /* \"#utility.yul\":27497:27498   */\n      0x00\n        /* \"#utility.yul\":27489:27495   */\n      dup3\n        /* \"#utility.yul\":27485:27499   */\n      add\n        /* \"#utility.yul\":27478:27535   */\n      mstore\n        /* \"#utility.yul\":27361:27542   */\n      pop\n      jump\t// out\n        /* \"#utility.yul\":27548:27914   */\n    tag_297:\n        /* \"#utility.yul\":27690:27693   */\n      0x00\n        /* \"#utility.yul\":27711:27778   */\n      tag_571\n        /* \"#utility.yul\":27775:27777   */\n      0x1f\n        /* \"#utility.yul\":27770:27773   */\n      dup4\n        /* \"#utility.yul\":27711:27778   */\n      tag_247\n      jump\t// in\n    tag_571:\n        /* \"#utility.yul\":27704:27778   */\n      swap2\n      pop\n        /* \"#utility.yul\":27787:27880   */\n      tag_572\n        /* \"#utility.yul\":27876:27879   */\n      dup3\n        /* \"#utility.yul\":27787:27880   */\n      tag_296\n      jump\t// in\n    tag_572:\n        /* \"#utility.yul\":27905:27907   */\n      0x20\n        /* \"#utility.yul\":27900:27903   */\n      dup3\n        /* \"#utility.yul\":27896:27908   */\n      add\n        /* \"#utility.yul\":27889:27908   */\n      swap1\n      pop\n        /* \"#utility.yul\":27548:27914   */\n      swap2\n      swap1\n      pop\n      jump\t// out\n        /* \"#utility.yul\":27920:28339   */\n    tag_140:\n        /* \"#utility.yul\":28086:28090   */\n      0x00\n        /* \"#utility.yul\":28124:28126   */\n      0x20\n        /* \"#utility.yul\":28113:28122   */\n      dup3\n        /* \"#utility.yul\":28109:28127   */\n      add\n        /* \"#utility.yul\":28101:28127   */\n      swap1\n      pop\n        /* \"#utility.yul\":28173:28182   */\n      dup2\n        /* \"#utility.yul\":28167:28171   */\n      dup2\n        /* \"#utility.yul\":28163:28183   */\n      sub\n        /* \"#utility.yul\":28159:28160   */\n      0x00\n        /* \"#utility.yul\":28148:28157   */\n      dup4\n        /* \"#utility.yul\":28144:28161   */\n      add\n        /* \"#utility.yul\":28137:28184   */\n      mstore\n        /* \"#utility.yul\":28201:28332   */\n      tag_574\n        /* \"#utility.yul\":28327:28331   */\n      dup2\n        /* \"#utility.yul\":28201:28332   */\n      tag_297\n      jump\t// in\n    tag_574:\n        /* \"#utility.yul\":28193:28332   */\n      swap1\n      pop\n        /* \"#utility.yul\":27920:28339   */\n      swap2\n      swap1\n      pop\n      jump\t// out\n        /* \"#utility.yul\":28345:28513   */\n    tag_298:\n        /* \"#utility.yul\":28485:28505   */\n      0x616c726561647920726567697374657265640000000000000000000000000000\n        /* \"#utility.yul\":28481:28482   */\n      0x00\n        /* \"#utility.yul\":28473:28479   */\n      dup3\n        /* \"#utility.yul\":28469:28483   */\n      add\n        /* \"#utility.yul\":28462:28506   */\n      mstore\n        /* \"#utility.yul\":28345:28513   */\n      pop\n      jump\t// out\n        /* \"#utility.yul\":28519:28885   */\n    tag_299:\n        /* \"#utility.yul\":28661:28664   */\n      0x00\n        /* \"#utility.yul\":28682:28749   */\n      tag_577\n        /* \"#utility.yul\":28746:28748   */\n      0x12\n        /* \"#utility.yul\":28741:28744   */\n      dup4\n        /* \"#utility.yul\":28682:28749   */\n      tag_247\n      jump\t// in\n    tag_577:\n        /* \"#utility.yul\":28675:28749   */\n      swap2\n      pop\n        /* \"#utility.yul\":28758:28851   */\n      tag_578\n        /* \"#utility.yul\":28847:28850   */\n      dup3\n        /* \"#utility.yul\":28758:28851   */\n      tag_298\n      jump\t// in\n    tag_578:\n        /* \"#utility.yul\":28876:28878   */\n      0x20\n        /* \"#utility.yul\":28871:28874   */\n      dup3\n        /* \"#utility.yul\":28867:28879   */\n      add\n        /* \"#utility.yul\":28860:28879   */\n      swap1\n      pop\n        /* \"#utility.yul\":28519:28885   */\n      swap2\n      swap1\n      pop\n      jump\t// out\n        /* \"#utility.yul\":28891:29310   */\n    tag_143:\n        /* \"#utility.yul\":29057:29061   */\n      0x00\n        /* \"#utility.yul\":29095:29097   */\n      0x20\n        /* \"#utility.yul\":29084:29093   */\n      dup3\n        /* \"#utility.yul\":29080:29098   */\n      add\n        /* \"#utility.yul\":29072:29098   */\n      swap1\n      pop\n        /* \"#utility.yul\":29144:29153   */\n      dup2\n        /* \"#utility.yul\":29138:29142   */\n      dup2\n        /* \"#utility.yul\":29134:29154   */\n      sub\n        /* \"#utility.yul\":29130:29131   */\n      0x00\n        /* \"#utility.yul\":29119:29128   */\n      dup4\n        /* \"#utility.yul\":29115:29132   */\n      add\n        /* \"#utility.yul\":29108:29155   */\n      mstore\n        /* \"#utility.yul\":29172:29303   */\n      tag_580\n        /* \"#utility.yul\":29298:29302   */\n      dup2\n        /* \"#utility.yul\":29172:29303   */\n      tag_299\n      jump\t// in\n    tag_580:\n        /* \"#utility.yul\":29164:29303   */\n      swap1\n      pop\n        /* \"#utility.yul\":28891:29310   */\n      swap2\n      swap1\n      pop\n      jump\t// out\n        /* \"#utility.yul\":29316:29483   */\n    tag_300:\n        /* \"#utility.yul\":29456:29475   */\n      0x496e76616c69642043616e646964617465000000000000000000000000000000\n        /* \"#utility.yul\":29452:29453   */\n      0x00\n        /* \"#utility.yul\":29444:29450   */\n      dup3\n        /* \"#utility.yul\":29440:29454   */\n      add\n        /* \"#utility.yul\":29433:29476   */\n      mstore\n        /* \"#utility.yul\":29316:29483   */\n      pop\n      jump\t// out\n        /* \"#utility.yul\":29489:29855   */\n    tag_301:\n        /* \"#utility.yul\":29631:29634   */\n      0x00\n        /* \"#utility.yul\":29652:29719   */\n      tag_583\n        /* \"#utility.yul\":29716:29718   */\n      0x11\n        /* \"#utility.yul\":29711:29714   */\n      dup4\n        /* \"#utility.yul\":29652:29719   */\n      tag_247\n      jump\t// in\n    tag_583:\n        /* \"#utility.yul\":29645:29719   */\n      swap2\n      pop\n        /* \"#utility.yul\":29728:29821   */\n      tag_584\n        /* \"#utility.yul\":29817:29820   */\n      dup3\n        /* \"#utility.yul\":29728:29821   */\n      tag_300\n      jump\t// in\n    tag_584:\n        /* \"#utility.yul\":29846:29848   */\n      0x20\n        /* \"#utility.yul\":29841:29844   */\n      dup3\n        /* \"#utility.yul\":29837:29849   */\n      add\n        /* \"#utility.yul\":29830:29849   */\n      swap1\n      pop\n        /* \"#utility.yul\":29489:29855   */\n      swap2\n      swap1\n      pop\n      jump\t// out\n        /* \"#utility.yul\":29861:30280   */\n    tag_183:\n        /* \"#utility.yul\":30027:30031   */\n      0x00\n        /* \"#utility.yul\":30065:30067   */\n      0x20\n        /* \"#utility.yul\":30054:30063   */\n      dup3\n        /* \"#utility.yul\":30050:30068   */\n      add\n        /* \"#utility.yul\":30042:30068   */\n      swap1\n      pop\n        /* \"#utility.yul\":30114:30123   */\n      dup2\n        /* \"#utility.yul\":30108:30112   */\n      dup2\n        /* \"#utility.yul\":30104:30124   */\n      sub\n        /* \"#utility.yul\":30100:30101   */\n      0x00\n        /* \"#utility.yul\":30089:30098   */\n      dup4\n        /* \"#utility.yul\":30085:30102   */\n      add\n        /* \"#utility.yul\":30078:30125   */\n      mstore\n        /* \"#utility.yul\":30142:30273   */\n      tag_586\n        /* \"#utility.yul\":30268:30272   */\n      dup2\n        /* \"#utility.yul\":30142:30273   */\n      tag_301\n      jump\t// in\n    tag_586:\n        /* \"#utility.yul\":30134:30273   */\n      swap1\n      pop\n        /* \"#utility.yul\":29861:30280   */\n      swap2\n      swap1\n      pop\n      jump\t// out\n        /* \"#utility.yul\":30286:30455   */\n    tag_302:\n        /* \"#utility.yul\":30426:30447   */\n      0x697420697320616c726561647920636c6f736500000000000000000000000000\n        /* \"#utility.yul\":30422:30423   */\n      0x00\n        /* \"#utility.yul\":30414:30420   */\n      dup3\n        /* \"#utility.yul\":30410:30424   */\n      add\n        /* \"#utility.yul\":30403:30448   */\n      mstore\n        /* \"#utility.yul\":30286:30455   */\n      pop\n      jump\t// out\n        /* \"#utility.yul\":30461:30827   */\n    tag_303:\n        /* \"#utility.yul\":30603:30606   */\n      0x00\n        /* \"#utility.yul\":30624:30691   */\n      tag_589\n        /* \"#utility.yul\":30688:30690   */\n      0x13\n        /* \"#utility.yul\":30683:30686   */\n      dup4\n        /* \"#utility.yul\":30624:30691   */\n      tag_247\n      jump\t// in\n    tag_589:\n        /* \"#utility.yul\":30617:30691   */\n      swap2\n      pop\n        /* \"#utility.yul\":30700:30793   */\n      tag_590\n        /* \"#utility.yul\":30789:30792   */\n      dup3\n        /* \"#utility.yul\":30700:30793   */\n      tag_302\n      jump\t// in\n    tag_590:\n        /* \"#utility.yul\":30818:30820   */\n      0x20\n        /* \"#utility.yul\":30813:30816   */\n      dup3\n        /* \"#utility.yul\":30809:30821   */\n      add\n        /* \"#utility.yul\":30802:30821   */\n      swap1\n      pop\n        /* \"#utility.yul\":30461:30827   */\n      swap2\n      swap1\n      pop\n      jump\t// out\n        /* \"#utility.yul\":30833:31252   */\n    tag_187:\n        /* \"#utility.yul\":30999:31003   */\n      0x00\n        /* \"#utility.yul\":31037:31039   */\n      0x20\n        /* \"#utility.yul\":31026:31035   */\n      dup3\n        /* \"#utility.yul\":31022:31040   */\n      add\n        /* \"#utility.yul\":31014:31040   */\n      swap1\n      pop\n        /* \"#utility.yul\":31086:31095   */\n      dup2\n        /* \"#utility.yul\":31080:31084   */\n      dup2\n        /* \"#utility.yul\":31076:31096   */\n      sub\n        /* \"#utility.yul\":31072:31073   */\n      0x00\n        /* \"#utility.yul\":31061:31070   */\n      dup4\n        /* \"#utility.yul\":31057:31074   */\n      add\n        /* \"#utility.yul\":31050:31097   */\n      mstore\n        /* \"#utility.yul\":31114:31245   */\n      tag_592\n        /* \"#utility.yul\":31240:31244   */\n      dup2\n        /* \"#utility.yul\":31114:31245   */\n      tag_303\n      jump\t// in\n    tag_592:\n        /* \"#utility.yul\":31106:31245   */\n      swap1\n      pop\n        /* \"#utility.yul\":30833:31252   */\n      swap2\n      swap1\n      pop\n      jump\t// out\n        /* \"#utility.yul\":31258:31487   */\n    tag_304:\n        /* \"#utility.yul\":31398:31432   */\n      0x6f6e6c7920746865206f776e65722063616e20636c6f73652074686520766f74\n        /* \"#utility.yul\":31394:31395   */\n      0x00\n        /* \"#utility.yul\":31386:31392   */\n      dup3\n        /* \"#utility.yul\":31382:31396   */\n      add\n        /* \"#utility.yul\":31375:31433   */\n      mstore\n        /* \"#utility.yul\":31467:31479   */\n      0x696e672073797374656d00000000000000000000000000000000000000000000\n        /* \"#utility.yul\":31462:31464   */\n      0x20\n        /* \"#utility.yul\":31454:31460   */\n      dup3\n        /* \"#utility.yul\":31450:31465   */\n      add\n        /* \"#utility.yul\":31443:31480   */\n      mstore\n        /* \"#utility.yul\":31258:31487   */\n      pop\n      jump\t// out\n        /* \"#utility.yul\":31493:31859   */\n    tag_305:\n        /* \"#utility.yul\":31635:31638   */\n      0x00\n        /* \"#utility.yul\":31656:31723   */\n      tag_595\n        /* \"#utility.yul\":31720:31722   */\n      0x2a\n        /* \"#utility.yul\":31715:31718   */\n      dup4\n        /* \"#utility.yul\":31656:31723   */\n      tag_247\n      jump\t// in\n    tag_595:\n        /* \"#utility.yul\":31649:31723   */\n      swap2\n      pop\n        /* \"#utility.yul\":31732:31825   */\n      tag_596\n        /* \"#utility.yul\":31821:31824   */\n      dup3\n        /* \"#utility.yul\":31732:31825   */\n      tag_304\n      jump\t// in\n    tag_596:\n        /* \"#utility.yul\":31850:31852   */\n      0x40\n        /* \"#utility.yul\":31845:31848   */\n      dup3\n        /* \"#utility.yul\":31841:31853   */\n      add\n        /* \"#utility.yul\":31834:31853   */\n      swap1\n      pop\n        /* \"#utility.yul\":31493:31859   */\n      swap2\n      swap1\n      pop\n      jump\t// out\n        /* \"#utility.yul\":31865:32284   */\n    tag_190:\n        /* \"#utility.yul\":32031:32035   */\n      0x00\n        /* \"#utility.yul\":32069:32071   */\n      0x20\n        /* \"#utility.yul\":32058:32067   */\n      dup3\n        /* \"#utility.yul\":32054:32072   */\n      add\n        /* \"#utility.yul\":32046:32072   */\n      swap1\n      pop\n        /* \"#utility.yul\":32118:32127   */\n      dup2\n        /* \"#utility.yul\":32112:32116   */\n      dup2\n        /* \"#utility.yul\":32108:32128   */\n      sub\n        /* \"#utility.yul\":32104:32105   */\n      0x00\n        /* \"#utility.yul\":32093:32102   */\n      dup4\n        /* \"#utility.yul\":32089:32106   */\n      add\n        /* \"#utility.yul\":32082:32129   */\n      mstore\n        /* \"#utility.yul\":32146:32277   */\n      tag_598\n        /* \"#utility.yul\":32272:32276   */\n      dup2\n        /* \"#utility.yul\":32146:32277   */\n      tag_305\n      jump\t// in\n    tag_598:\n        /* \"#utility.yul\":32138:32277   */\n      swap1\n      pop\n        /* \"#utility.yul\":31865:32284   */\n      swap2\n      swap1\n      pop\n      jump\t// out\n        /* \"#utility.yul\":32290:32460   */\n    tag_306:\n        /* \"#utility.yul\":32430:32452   */\n      0x696e76616c69642063616e646964617465204944000000000000000000000000\n        /* \"#utility.yul\":32426:32427   */\n      0x00\n        /* \"#utility.yul\":32418:32424   */\n      dup3\n        /* \"#utility.yul\":32414:32428   */\n      add\n        /* \"#utility.yul\":32407:32453   */\n      mstore\n        /* \"#utility.yul\":32290:32460   */\n      pop\n      jump\t// out\n        /* \"#utility.yul\":32466:32832   */\n    tag_307:\n        /* \"#utility.yul\":32608:32611   */\n      0x00\n        /* \"#utility.yul\":32629:32696   */\n      tag_601\n        /* \"#utility.yul\":32693:32695   */\n      0x14\n        /* \"#utility.yul\":32688:32691   */\n      dup4\n        /* \"#utility.yul\":32629:32696   */\n      tag_247\n      jump\t// in\n    tag_601:\n        /* \"#utility.yul\":32622:32696   */\n      swap2\n      pop\n        /* \"#utility.yul\":32705:32798   */\n      tag_602\n        /* \"#utility.yul\":32794:32797   */\n      dup3\n        /* \"#utility.yul\":32705:32798   */\n      tag_306\n      jump\t// in\n    tag_602:\n        /* \"#utility.yul\":32823:32825   */\n      0x20\n        /* \"#utility.yul\":32818:32821   */\n      dup3\n        /* \"#utility.yul\":32814:32826   */\n      add\n        /* \"#utility.yul\":32807:32826   */\n      swap1\n      pop\n        /* \"#utility.yul\":32466:32832   */\n      swap2\n      swap1\n      pop\n      jump\t// out\n        /* \"#utility.yul\":32838:33257   */\n    tag_194:\n        /* \"#utility.yul\":33004:33008   */\n      0x00\n        /* \"#utility.yul\":33042:33044   */\n      0x20\n        /* \"#utility.yul\":33031:33040   */\n      dup3\n        /* \"#utility.yul\":33027:33045   */\n      add\n        /* \"#utility.yul\":33019:33045   */\n      swap1\n      pop\n        /* \"#utility.yul\":33091:33100   */\n      dup2\n        /* \"#utility.yul\":33085:33089   */\n      dup2\n        /* \"#utility.yul\":33081:33101   */\n      sub\n        /* \"#utility.yul\":33077:33078   */\n      0x00\n        /* \"#utility.yul\":33066:33075   */\n      dup4\n        /* \"#utility.yul\":33062:33079   */\n      add\n        /* \"#utility.yul\":33055:33102   */\n      mstore\n        /* \"#utility.yul\":33119:33250   */\n      tag_604\n        /* \"#utility.yul\":33245:33249   */\n      dup2\n        /* \"#utility.yul\":33119:33250   */\n      tag_307\n      jump\t// in\n    tag_604:\n        /* \"#utility.yul\":33111:33250   */\n      swap1\n      pop\n        /* \"#utility.yul\":32838:33257   */\n      swap2\n      swap1\n      pop\n      jump\t// out\n\n    auxdata: 0xa26469706673582212205558cf0a1b6630bb281f05c14cca8d17de793c91cdce52c3d071c9d384c852e464736f6c63430008100033\n}\n",
				"bytecode": {
					"linkReferences": {},
					"object": "60a06040523480156200001157600080fd5b5060405162002b4f38038062002b4f8339818101604052810190620000379190620003d1565b62015180426200004891906200045b565b6080818152505033600560016101000a81548173ffffffffffffffffffffffffffffffffffffffff021916908373ffffffffffffffffffffffffffffffffffffffff160217905550805160008190555060005b6000548110156200013a576040518060400160405280838381518110620000c757620000c662000496565b5b6020026020010151815260200160008152506001600060065481526020019081526020016000206000838152602001908152602001600020600082015181600001908162000116919062000706565b506020820151816001015590505080806200013190620007ed565b9150506200009b565b50506200083a565b6000604051905090565b600080fd5b600080fd5b600080fd5b6000601f19601f8301169050919050565b7f4e487b7100000000000000000000000000000000000000000000000000000000600052604160045260246000fd5b620001a6826200015b565b810181811067ffffffffffffffff82111715620001c857620001c76200016c565b5b80604052505050565b6000620001dd62000142565b9050620001eb82826200019b565b919050565b600067ffffffffffffffff8211156200020e576200020d6200016c565b5b602082029050602081019050919050565b600080fd5b600080fd5b600067ffffffffffffffff8211156200024757620002466200016c565b5b62000252826200015b565b9050602081019050919050565b60005b838110156200027f57808201518184015260208101905062000262565b60008484015250505050565b6000620002a26200029c8462000229565b620001d1565b905082815260208101848484011115620002c157620002c062000224565b5b620002ce8482856200025f565b509392505050565b600082601f830112620002ee57620002ed62000156565b5b8151620003008482602086016200028b565b91505092915050565b6000620003206200031a84620001f0565b620001d1565b905080838252602082019050602084028301858111156200034657620003456200021f565b5b835b818110156200039457805167ffffffffffffffff8111156200036f576200036e62000156565b5b8086016200037e8982620002d6565b8552602085019450505060208101905062000348565b5050509392505050565b600082601f830112620003b657620003b562000156565b5b8151620003c884826020860162000309565b91505092915050565b600060208284031215620003ea57620003e96200014c565b5b600082015167ffffffffffffffff8111156200040b576200040a62000151565b5b62000419848285016200039e565b91505092915050565b6000819050919050565b7f4e487b7100000000000000000000000000000000000000000000000000000000600052601160045260246000fd5b6000620004688262000422565b9150620004758362000422565b925082820190508082111562000490576200048f6200042c565b5b92915050565b7f4e487b7100000000000000000000000000000000000000000000000000000000600052603260045260246000fd5b600081519050919050565b7f4e487b7100000000000000000000000000000000000000000000000000000000600052602260045260246000fd5b600060028204905060018216806200051857607f821691505b6020821081036200052e576200052d620004d0565b5b50919050565b60008190508160005260206000209050919050565b60006020601f8301049050919050565b600082821b905092915050565b600060088302620005987fffffffffffffffffffffffffffffffffffffffffffffffffffffffffffffffff8262000559565b620005a4868362000559565b95508019841693508086168417925050509392505050565b6000819050919050565b6000620005e7620005e1620005db8462000422565b620005bc565b62000422565b9050919050565b6000819050919050565b6200060383620005c6565b6200061b6200061282620005ee565b84845462000566565b825550505050565b600090565b6200063262000623565b6200063f818484620005f8565b505050565b5b8181101562000667576200065b60008262000628565b60018101905062000645565b5050565b601f821115620006b657620006808162000534565b6200068b8462000549565b810160208510156200069b578190505b620006b3620006aa8562000549565b83018262000644565b50505b505050565b600082821c905092915050565b6000620006db60001984600802620006bb565b1980831691505092915050565b6000620006f68383620006c8565b9150826002028217905092915050565b6200071182620004c5565b67ffffffffffffffff8111156200072d576200072c6200016c565b5b620007398254620004ff565b620007468282856200066b565b600060209050601f8311600181146200077e576000841562000769578287015190505b620007758582620006e8565b865550620007e5565b601f1984166200078e8662000534565b60005b82811015620007b85784890151825560018201915060208501945060208101905062000791565b86831015620007d85784890151620007d4601f891682620006c8565b8355505b6001600288020188555050505b505050505050565b6000620007fa8262000422565b91507fffffffffffffffffffffffffffffffffffffffffffffffffffffffffffffffff82036200082f576200082e6200042c565b5b600182019050919050565b6080516122f26200085d6000396000818161071c015261120c01526122f26000f3fe608060405234801561001057600080fd5b506004361061012c5760003560e01c806387cb7877116100ad578063c2b6b58c11610071578063c2b6b58c14610348578063c631b29214610366578063e13804a714610370578063efd5297c146103a0578063fa7f1bae146103be5761012c565b806387cb78771461028e5780638da5cb5b146102ac5780638e7ea5b2146102ca578063995e4339146102e8578063b81f6e18146103185761012c565b80633ceed692116100f45780633ceed692146101c157806343859632146101df5780634fc8a20d1461020f5780635216509a1461023f5780637de142421461025d5761012c565b80630121b93f14610131578063036ee8501461014d578063051364d41461016b57806329fe40471461018957806338db6dd3146101a5575b600080fd5b61014b600480360381019061014691906112af565b6103dc565b005b61015561071a565b60405161016291906112eb565b60405180910390f35b61017361073e565b60405161018091906112eb565b60405180910390f35b6101a3600480360381019061019e9190611532565b610744565b005b6101bf60048036038101906101ba91906115d9565b6108c7565b005b6101c9610a65565b6040516101d691906112eb565b60405180910390f35b6101f960048036038101906101f49190611606565b610a6a565b6040516102069190611661565b60405180910390f35b610229600480360381019061022491906112af565b610a99565b60405161023691906112eb565b60405180910390f35b610247610ab1565b60405161025491906112eb565b60405180910390f35b6102776004803603810190610272919061167c565b610ab7565b60405161028592919061173b565b60405180910390f35b610296610b70565b6040516102a39190611829565b60405180910390f35b6102b4610d2b565b6040516102c1919061185a565b60405180910390f35b6102d2610d51565b6040516102df91906112eb565b60405180910390f35b61030260048036038101906102fd91906112af565b610de6565b60405161030f91906112eb565b60405180910390f35b610332600480360381019061032d9190611606565b610e5c565b60405161033f9190611661565b60405180910390f35b610350610e8b565b60405161035d9190611661565b60405180910390f35b61036e610e9e565b005b61038a600480360381019061038591906112af565b610f9b565b6040516103979190611875565b60405180910390f35b6103a861109a565b6040516103b591906119e0565b60405180910390f35b6103c6611208565b6040516103d39190611661565b60405180910390f35b6000548110610420576040517f08c379a000000000000000000000000000000000000000000000000000000000815260040161041790611a4e565b60405180910390fd5b610428611208565b610467576040517f08c379a000000000000000000000000000000000000000000000000000000000815260040161045e90611aba565b60405180910390fd5b60026000600654815260200190815260200160002060003373ffffffffffffffffffffffffffffffffffffffff1673ffffffffffffffffffffffffffffffffffffffff16815260200190815260200160002060009054906101000a900460ff16610506576040517f08c379a00000000000000000000000000000000000000000000000000000000081526004016104fd90611b26565b60405180910390fd5b60036000600654815260200190815260200160002060003373ffffffffffffffffffffffffffffffffffffffff1673ffffffffffffffffffffffffffffffffffffffff16815260200190815260200160002060009054906101000a900460ff16156105a6576040517f08c379a000000000000000000000000000000000000000000000000000000000815260040161059d90611b92565b60405180910390fd5b606460046000600654815260200190815260200160002054106105fe576040517f08c379a00000000000000000000000000000000000000000000000000000000081526004016105f590611bfe565b60405180910390fd5b600160036000600654815260200190815260200160002060003373ffffffffffffffffffffffffffffffffffffffff1673ffffffffffffffffffffffffffffffffffffffff16815260200190815260200160002060006101000a81548160ff021916908315150217905550600160006006548152602001908152602001600020600082815260200190815260200160002060010160008154809291906106a390611c4d565b919050555060046000600654815260200190815260200160002060008154809291906106ce90611c4d565b9190505550803373ffffffffffffffffffffffffffffffffffffffff167fb6863b9cfc6da0e0313a58a7af7891ccb06314edfe1ed6c02ef59b35891d8a5460405160405180910390a350565b7f000000000000000000000000000000000000000000000000000000000000000081565b60065481565b600560019054906101000a900473ffffffffffffffffffffffffffffffffffffffff1673ffffffffffffffffffffffffffffffffffffffff163373ffffffffffffffffffffffffffffffffffffffff16146107d4576040517f08c379a00000000000000000000000000000000000000000000000000000000081526004016107cb90611ce1565b60405180910390fd5b600660008154809291906107e790611c4d565b919050555080516000819055506000600560006101000a81548160ff02191690831515021790555060005b6000548110156108a857604051806040016040528083838151811061083a57610839611d01565b5b602002602001015181526020016000815250600160006006548152602001908152602001600020600083815260200190815260200160002060008201518160000190816108879190611f3c565b506020820151816001015590505080806108a090611c4d565b915050610812565b5060006004600060065481526020019081526020016000208190555050565b600560019054906101000a900473ffffffffffffffffffffffffffffffffffffffff1673ffffffffffffffffffffffffffffffffffffffff163373ffffffffffffffffffffffffffffffffffffffff1614610957576040517f08c379a000000000000000000000000000000000000000000000000000000000815260040161094e9061205a565b60405180910390fd5b60026000600654815260200190815260200160002060008273ffffffffffffffffffffffffffffffffffffffff1673ffffffffffffffffffffffffffffffffffffffff16815260200190815260200160002060009054906101000a900460ff16156109f7576040517f08c379a00000000000000000000000000000000000000000000000000000000081526004016109ee906120c6565b60405180910390fd5b600160026000600654815260200190815260200160002060008373ffffffffffffffffffffffffffffffffffffffff1673ffffffffffffffffffffffffffffffffffffffff16815260200190815260200160002060006101000a81548160ff02191690831515021790555050565b606481565b60036020528160005260406000206020528060005260406000206000915091509054906101000a900460ff1681565b60046020528060005260406000206000915090505481565b60005481565b600160205281600052604060002060205280600052604060002060009150915050806000018054610ae790611d5f565b80601f0160208091040260200160405190810160405280929190818152602001828054610b1390611d5f565b8015610b605780601f10610b3557610100808354040283529160200191610b60565b820191906000526020600020905b815481529060010190602001808311610b4357829003601f168201915b5050505050908060010154905082565b60606000805b600054811015610bf157816001600060065481526020019081526020016000206000838152602001908152602001600020600101541115610bde5760016000600654815260200190815260200160002060008281526020019081526020016000206001015491505b8080610be990611c4d565b915050610b76565b506000805b600054811015610c52578260016000600654815260200190815260200160002060008381526020019081526020016000206001015403610c3f578180610c3b90611c4d565b9250505b8080610c4a90611c4d565b915050610bf6565b5060008167ffffffffffffffff811115610c6f57610c6e61131c565b5b604051908082528060200260200182016040528015610c9d5781602001602082028036833780820191505090505b5090506000805b600054811015610d20578460016000600654815260200190815260200160002060008381526020019081526020016000206001015403610d0d5780838381518110610cf257610cf1611d01565b5b6020026020010181815250508180610d0990611c4d565b9250505b8080610d1890611c4d565b915050610ca4565b508194505050505090565b600560019054906101000a900473ffffffffffffffffffffffffffffffffffffffff1681565b60008060009050600091506000600190505b600054811015610de157816001600060065481526020019081526020016000206000838152602001908152602001600020600101541115610dce5760016000600654815260200190815260200160002060008281526020019081526020016000206001015491508092505b8080610dd990611c4d565b915050610d63565b505090565b600080548210610e2b576040517f08c379a0000000000000000000000000000000000000000000000000000000008152600401610e2290612132565b60405180910390fd5b6001600060065481526020019081526020016000206000838152602001908152602001600020600101549050919050565b60026020528160005260406000206020528060005260406000206000915091509054906101000a900460ff1681565b600560009054906101000a900460ff1681565b600560009054906101000a900460ff1615610eee576040517f08c379a0000000000000000000000000000000000000000000000000000000008152600401610ee59061219e565b60405180910390fd5b600560019054906101000a900473ffffffffffffffffffffffffffffffffffffffff1673ffffffffffffffffffffffffffffffffffffffff163373ffffffffffffffffffffffffffffffffffffffff1614610f7e576040517f08c379a0000000000000000000000000000000000000000000000000000000008152600401610f7590612230565b60405180910390fd5b6001600560006101000a81548160ff021916908315150217905550565b60606000548210610fe1576040517f08c379a0000000000000000000000000000000000000000000000000000000008152600401610fd89061229c565b60405180910390fd5b6001600060065481526020019081526020016000206000838152602001908152602001600020600001805461101590611d5f565b80601f016020809104026020016040519081016040528092919081815260200182805461104190611d5f565b801561108e5780601f106110635761010080835404028352916020019161108e565b820191906000526020600020905b81548152906001019060200180831161107157829003601f168201915b50505050509050919050565b60606000805467ffffffffffffffff8111156110b9576110b861131c565b5b6040519080825280602002602001820160405280156110f257816020015b6110df61124b565b8152602001906001900390816110d75790505b50905060005b60005481101561120057600160006006548152602001908152602001600020600082815260200190815260200160002060405180604001604052908160008201805461114390611d5f565b80601f016020809104026020016040519081016040528092919081815260200182805461116f90611d5f565b80156111bc5780601f10611191576101008083540402835291602001916111bc565b820191906000526020600020905b81548152906001019060200180831161119f57829003601f168201915b505050505081526020016001820154815250508282815181106111e2576111e1611d01565b5b602002602001018190525080806111f890611c4d565b9150506110f8565b508091505090565b60007f0000000000000000000000000000000000000000000000000000000000000000421080156112465750600560009054906101000a900460ff16155b905090565b604051806040016040528060608152602001600081525090565b6000604051905090565b600080fd5b600080fd5b6000819050919050565b61128c81611279565b811461129757600080fd5b50565b6000813590506112a981611283565b92915050565b6000602082840312156112c5576112c461126f565b5b60006112d38482850161129a565b91505092915050565b6112e581611279565b82525050565b600060208201905061130060008301846112dc565b92915050565b600080fd5b6000601f19601f8301169050919050565b7f4e487b7100000000000000000000000000000000000000000000000000000000600052604160045260246000fd5b6113548261130b565b810181811067ffffffffffffffff821117156113735761137261131c565b5b80604052505050565b6000611386611265565b9050611392828261134b565b919050565b600067ffffffffffffffff8211156113b2576113b161131c565b5b602082029050602081019050919050565b600080fd5b600080fd5b600067ffffffffffffffff8211156113e8576113e761131c565b5b6113f18261130b565b9050602081019050919050565b82818337600083830152505050565b600061142061141b846113cd565b61137c565b90508281526020810184848401111561143c5761143b6113c8565b5b6114478482856113fe565b509392505050565b600082601f83011261146457611463611306565b5b813561147484826020860161140d565b91505092915050565b600061149061148b84611397565b61137c565b905080838252602082019050602084028301858111156114b3576114b26113c3565b5b835b818110156114fa57803567ffffffffffffffff8111156114d8576114d7611306565b5b8086016114e5898261144f565b855260208501945050506020810190506114b5565b5050509392505050565b600082601f83011261151957611518611306565b5b813561152984826020860161147d565b91505092915050565b6000602082840312156115485761154761126f565b5b600082013567ffffffffffffffff81111561156657611565611274565b5b61157284828501611504565b91505092915050565b600073ffffffffffffffffffffffffffffffffffffffff82169050919050565b60006115a68261157b565b9050919050565b6115b68161159b565b81146115c157600080fd5b50565b6000813590506115d3816115ad565b92915050565b6000602082840312156115ef576115ee61126f565b5b60006115fd848285016115c4565b91505092915050565b6000806040838503121561161d5761161c61126f565b5b600061162b8582860161129a565b925050602061163c858286016115c4565b9150509250929050565b60008115159050919050565b61165b81611646565b82525050565b60006020820190506116766000830184611652565b92915050565b600080604083850312156116935761169261126f565b5b60006116a18582860161129a565b92505060206116b28582860161129a565b9150509250929050565b600081519050919050565b600082825260208201905092915050565b60005b838110156116f65780820151818401526020810190506116db565b60008484015250505050565b600061170d826116bc565b61171781856116c7565b93506117278185602086016116d8565b6117308161130b565b840191505092915050565b600060408201905081810360008301526117558185611702565b905061176460208301846112dc565b9392505050565b600081519050919050565b600082825260208201905092915050565b6000819050602082019050919050565b6117a081611279565b82525050565b60006117b28383611797565b60208301905092915050565b6000602082019050919050565b60006117d68261176b565b6117e08185611776565b93506117eb83611787565b8060005b8381101561181c57815161180388826117a6565b975061180e836117be565b9250506001810190506117ef565b5085935050505092915050565b6000602082019050818103600083015261184381846117cb565b905092915050565b6118548161159b565b82525050565b600060208201905061186f600083018461184b565b92915050565b6000602082019050818103600083015261188f8184611702565b905092915050565b600081519050919050565b600082825260208201905092915050565b6000819050602082019050919050565b600082825260208201905092915050565b60006118df826116bc565b6118e981856118c3565b93506118f98185602086016116d8565b6119028161130b565b840191505092915050565b6000604083016000830151848203600086015261192a82826118d4565b915050602083015161193f6020860182611797565b508091505092915050565b6000611956838361190d565b905092915050565b6000602082019050919050565b600061197682611897565b61198081856118a2565b935083602082028501611992856118b3565b8060005b858110156119ce57848403895281516119af858261194a565b94506119ba8361195e565b925060208a01995050600181019050611996565b50829750879550505050505092915050565b600060208201905081810360008301526119fa818461196b565b905092915050565b7f496e76616c69642063616e646964617465206964000000000000000000000000600082015250565b6000611a386014836116c7565b9150611a4382611a02565b602082019050919050565b60006020820190508181036000830152611a6781611a2b565b9050919050565b7f566f74696e67206973206e6f74206f70656e0000000000000000000000000000600082015250565b6000611aa46012836116c7565b9150611aaf82611a6e565b602082019050919050565b60006020820190508181036000830152611ad381611a97565b9050919050565b7f796f7520617265206e6f74207265676973746572656420746f20766f74650000600082015250565b6000611b10601e836116c7565b9150611b1b82611ada565b602082019050919050565b60006020820190508181036000830152611b3f81611b03565b9050919050565b7f416c726561647920566f74656400000000000000000000000000000000000000600082015250565b6000611b7c600d836116c7565b9150611b8782611b46565b602082019050919050565b60006020820190508181036000830152611bab81611b6f565b9050919050565b7f4d617820766f7465727320726561636865640000000000000000000000000000600082015250565b6000611be86012836116c7565b9150611bf382611bb2565b602082019050919050565b60006020820190508181036000830152611c1781611bdb565b9050919050565b7f4e487b7100000000000000000000000000000000000000000000000000000000600052601160045260246000fd5b6000611c5882611279565b91507fffffffffffffffffffffffffffffffffffffffffffffffffffffffffffffffff8203611c8a57611c89611c1e565b5b600182019050919050565b7f6f6e6c79206f776e65722063616e20726573657420656c656374696f6e000000600082015250565b6000611ccb601d836116c7565b9150611cd682611c95565b602082019050919050565b60006020820190508181036000830152611cfa81611cbe565b9050919050565b7f4e487b7100000000000000000000000000000000000000000000000000000000600052603260045260246000fd5b7f4e487b7100000000000000000000000000000000000000000000000000000000600052602260045260246000fd5b60006002820490506001821680611d7757607f821691505b602082108103611d8a57611d89611d30565b5b50919050565b60008190508160005260206000209050919050565b60006020601f8301049050919050565b600082821b905092915050565b600060088302611df27fffffffffffffffffffffffffffffffffffffffffffffffffffffffffffffffff82611db5565b611dfc8683611db5565b95508019841693508086168417925050509392505050565b6000819050919050565b6000611e39611e34611e2f84611279565b611e14565b611279565b9050919050565b6000819050919050565b611e5383611e1e565b611e67611e5f82611e40565b848454611dc2565b825550505050565b600090565b611e7c611e6f565b611e87818484611e4a565b505050565b5b81811015611eab57611ea0600082611e74565b600181019050611e8d565b5050565b601f821115611ef057611ec181611d90565b611eca84611da5565b81016020851015611ed9578190505b611eed611ee585611da5565b830182611e8c565b50505b505050565b600082821c905092915050565b6000611f1360001984600802611ef5565b1980831691505092915050565b6000611f2c8383611f02565b9150826002028217905092915050565b611f45826116bc565b67ffffffffffffffff811115611f5e57611f5d61131c565b5b611f688254611d5f565b611f73828285611eaf565b600060209050601f831160018114611fa65760008415611f94578287015190505b611f9e8582611f20565b865550612006565b601f198416611fb486611d90565b60005b82811015611fdc57848901518255600182019150602085019450602081019050611fb7565b86831015611ff95784890151611ff5601f891682611f02565b8355505b6001600288020188555050505b505050505050565b7f6f6e6c79206f776e65722063616e207265676973746572206120766f74657200600082015250565b6000612044601f836116c7565b915061204f8261200e565b602082019050919050565b6000602082019050818103600083015261207381612037565b9050919050565b7f616c726561647920726567697374657265640000000000000000000000000000600082015250565b60006120b06012836116c7565b91506120bb8261207a565b602082019050919050565b600060208201905081810360008301526120df816120a3565b9050919050565b7f496e76616c69642043616e646964617465000000000000000000000000000000600082015250565b600061211c6011836116c7565b9150612127826120e6565b602082019050919050565b6000602082019050818103600083015261214b8161210f565b9050919050565b7f697420697320616c726561647920636c6f736500000000000000000000000000600082015250565b60006121886013836116c7565b915061219382612152565b602082019050919050565b600060208201905081810360008301526121b78161217b565b9050919050565b7f6f6e6c7920746865206f776e65722063616e20636c6f73652074686520766f7460008201527f696e672073797374656d00000000000000000000000000000000000000000000602082015250565b600061221a602a836116c7565b9150612225826121be565b604082019050919050565b600060208201905081810360008301526122498161220d565b9050919050565b7f696e76616c69642063616e646964617465204944000000000000000000000000600082015250565b60006122866014836116c7565b915061229182612250565b602082019050919050565b600060208201905081810360008301526122b581612279565b905091905056fea26469706673582212205558cf0a1b6630bb281f05c14cca8d17de793c91cdce52c3d071c9d384c852e464736f6c63430008100033",
					"opcodes": "PUSH1 0xA0 PUSH1 0x40 MSTORE CALLVALUE DUP1 ISZERO PUSH3 0x11 JUMPI PUSH1 0x0 DUP1 REVERT JUMPDEST POP PUSH1 0x40 MLOAD PUSH3 0x2B4F CODESIZE SUB DUP1 PUSH3 0x2B4F DUP4 CODECOPY DUP2 DUP2 ADD PUSH1 0x40 MSTORE DUP2 ADD SWAP1 PUSH3 0x37 SWAP2 SWAP1 PUSH3 0x3D1 JUMP JUMPDEST PUSH3 0x15180 TIMESTAMP PUSH3 0x48 SWAP2 SWAP1 PUSH3 0x45B JUMP JUMPDEST PUSH1 0x80 DUP2 DUP2 MSTORE POP POP CALLER PUSH1 0x5 PUSH1 0x1 PUSH2 0x100 EXP DUP2 SLOAD DUP2 PUSH20 0xFFFFFFFFFFFFFFFFFFFFFFFFFFFFFFFFFFFFFFFF MUL NOT AND SWAP1 DUP4 PUSH20 0xFFFFFFFFFFFFFFFFFFFFFFFFFFFFFFFFFFFFFFFF AND MUL OR SWAP1 SSTORE POP DUP1 MLOAD PUSH1 0x0 DUP2 SWAP1 SSTORE POP PUSH1 0x0 JUMPDEST PUSH1 0x0 SLOAD DUP2 LT ISZERO PUSH3 0x13A JUMPI PUSH1 0x40 MLOAD DUP1 PUSH1 0x40 ADD PUSH1 0x40 MSTORE DUP1 DUP4 DUP4 DUP2 MLOAD DUP2 LT PUSH3 0xC7 JUMPI PUSH3 0xC6 PUSH3 0x496 JUMP JUMPDEST JUMPDEST PUSH1 0x20 MUL PUSH1 0x20 ADD ADD MLOAD DUP2 MSTORE PUSH1 0x20 ADD PUSH1 0x0 DUP2 MSTORE POP PUSH1 0x1 PUSH1 0x0 PUSH1 0x6 SLOAD DUP2 MSTORE PUSH1 0x20 ADD SWAP1 DUP2 MSTORE PUSH1 0x20 ADD PUSH1 0x0 KECCAK256 PUSH1 0x0 DUP4 DUP2 MSTORE PUSH1 0x20 ADD SWAP1 DUP2 MSTORE PUSH1 0x20 ADD PUSH1 0x0 KECCAK256 PUSH1 0x0 DUP3 ADD MLOAD DUP2 PUSH1 0x0 ADD SWAP1 DUP2 PUSH3 0x116 SWAP2 SWAP1 PUSH3 0x706 JUMP JUMPDEST POP PUSH1 0x20 DUP3 ADD MLOAD DUP2 PUSH1 0x1 ADD SSTORE SWAP1 POP POP DUP1 DUP1 PUSH3 0x131 SWAP1 PUSH3 0x7ED JUMP JUMPDEST SWAP2 POP POP PUSH3 0x9B JUMP JUMPDEST POP POP PUSH3 0x83A JUMP JUMPDEST PUSH1 0x0 PUSH1 0x40 MLOAD SWAP1 POP SWAP1 JUMP JUMPDEST PUSH1 0x0 DUP1 REVERT JUMPDEST PUSH1 0x0 DUP1 REVERT JUMPDEST PUSH1 0x0 DUP1 REVERT JUMPDEST PUSH1 0x0 PUSH1 0x1F NOT PUSH1 0x1F DUP4 ADD AND SWAP1 POP SWAP2 SWAP1 POP JUMP JUMPDEST PUSH32 0x4E487B7100000000000000000000000000000000000000000000000000000000 PUSH1 0x0 MSTORE PUSH1 0x41 PUSH1 0x4 MSTORE PUSH1 0x24 PUSH1 0x0 REVERT JUMPDEST PUSH3 0x1A6 DUP3 PUSH3 0x15B JUMP JUMPDEST DUP2 ADD DUP2 DUP2 LT PUSH8 0xFFFFFFFFFFFFFFFF DUP3 GT OR ISZERO PUSH3 0x1C8 JUMPI PUSH3 0x1C7 PUSH3 0x16C JUMP JUMPDEST JUMPDEST DUP1 PUSH1 0x40 MSTORE POP POP POP JUMP JUMPDEST PUSH1 0x0 PUSH3 0x1DD PUSH3 0x142 JUMP JUMPDEST SWAP1 POP PUSH3 0x1EB DUP3 DUP3 PUSH3 0x19B JUMP JUMPDEST SWAP2 SWAP1 POP JUMP JUMPDEST PUSH1 0x0 PUSH8 0xFFFFFFFFFFFFFFFF DUP3 GT ISZERO PUSH3 0x20E JUMPI PUSH3 0x20D PUSH3 0x16C JUMP JUMPDEST JUMPDEST PUSH1 0x20 DUP3 MUL SWAP1 POP PUSH1 0x20 DUP2 ADD SWAP1 POP SWAP2 SWAP1 POP JUMP JUMPDEST PUSH1 0x0 DUP1 REVERT JUMPDEST PUSH1 0x0 DUP1 REVERT JUMPDEST PUSH1 0x0 PUSH8 0xFFFFFFFFFFFFFFFF DUP3 GT ISZERO PUSH3 0x247 JUMPI PUSH3 0x246 PUSH3 0x16C JUMP JUMPDEST JUMPDEST PUSH3 0x252 DUP3 PUSH3 0x15B JUMP JUMPDEST SWAP1 POP PUSH1 0x20 DUP2 ADD SWAP1 POP SWAP2 SWAP1 POP JUMP JUMPDEST PUSH1 0x0 JUMPDEST DUP4 DUP2 LT ISZERO PUSH3 0x27F JUMPI DUP1 DUP3 ADD MLOAD DUP2 DUP5 ADD MSTORE PUSH1 0x20 DUP2 ADD SWAP1 POP PUSH3 0x262 JUMP JUMPDEST PUSH1 0x0 DUP5 DUP5 ADD MSTORE POP POP POP POP JUMP JUMPDEST PUSH1 0x0 PUSH3 0x2A2 PUSH3 0x29C DUP5 PUSH3 0x229 JUMP JUMPDEST PUSH3 0x1D1 JUMP JUMPDEST SWAP1 POP DUP3 DUP2 MSTORE PUSH1 0x20 DUP2 ADD DUP5 DUP5 DUP5 ADD GT ISZERO PUSH3 0x2C1 JUMPI PUSH3 0x2C0 PUSH3 0x224 JUMP JUMPDEST JUMPDEST PUSH3 0x2CE DUP5 DUP3 DUP6 PUSH3 0x25F JUMP JUMPDEST POP SWAP4 SWAP3 POP POP POP JUMP JUMPDEST PUSH1 0x0 DUP3 PUSH1 0x1F DUP4 ADD SLT PUSH3 0x2EE JUMPI PUSH3 0x2ED PUSH3 0x156 JUMP JUMPDEST JUMPDEST DUP2 MLOAD PUSH3 0x300 DUP5 DUP3 PUSH1 0x20 DUP7 ADD PUSH3 0x28B JUMP JUMPDEST SWAP2 POP POP SWAP3 SWAP2 POP POP JUMP JUMPDEST PUSH1 0x0 PUSH3 0x320 PUSH3 0x31A DUP5 PUSH3 0x1F0 JUMP JUMPDEST PUSH3 0x1D1 JUMP JUMPDEST SWAP1 POP DUP1 DUP4 DUP3 MSTORE PUSH1 0x20 DUP3 ADD SWAP1 POP PUSH1 0x20 DUP5 MUL DUP4 ADD DUP6 DUP2 GT ISZERO PUSH3 0x346 JUMPI PUSH3 0x345 PUSH3 0x21F JUMP JUMPDEST JUMPDEST DUP4 JUMPDEST DUP2 DUP2 LT ISZERO PUSH3 0x394 JUMPI DUP1 MLOAD PUSH8 0xFFFFFFFFFFFFFFFF DUP2 GT ISZERO PUSH3 0x36F JUMPI PUSH3 0x36E PUSH3 0x156 JUMP JUMPDEST JUMPDEST DUP1 DUP7 ADD PUSH3 0x37E DUP10 DUP3 PUSH3 0x2D6 JUMP JUMPDEST DUP6 MSTORE PUSH1 0x20 DUP6 ADD SWAP5 POP POP POP PUSH1 0x20 DUP2 ADD SWAP1 POP PUSH3 0x348 JUMP JUMPDEST POP POP POP SWAP4 SWAP3 POP POP POP JUMP JUMPDEST PUSH1 0x0 DUP3 PUSH1 0x1F DUP4 ADD SLT PUSH3 0x3B6 JUMPI PUSH3 0x3B5 PUSH3 0x156 JUMP JUMPDEST JUMPDEST DUP2 MLOAD PUSH3 0x3C8 DUP5 DUP3 PUSH1 0x20 DUP7 ADD PUSH3 0x309 JUMP JUMPDEST SWAP2 POP POP SWAP3 SWAP2 POP POP JUMP JUMPDEST PUSH1 0x0 PUSH1 0x20 DUP3 DUP5 SUB SLT ISZERO PUSH3 0x3EA JUMPI PUSH3 0x3E9 PUSH3 0x14C JUMP JUMPDEST JUMPDEST PUSH1 0x0 DUP3 ADD MLOAD PUSH8 0xFFFFFFFFFFFFFFFF DUP2 GT ISZERO PUSH3 0x40B JUMPI PUSH3 0x40A PUSH3 0x151 JUMP JUMPDEST JUMPDEST PUSH3 0x419 DUP5 DUP3 DUP6 ADD PUSH3 0x39E JUMP JUMPDEST SWAP2 POP POP SWAP3 SWAP2 POP POP JUMP JUMPDEST PUSH1 0x0 DUP2 SWAP1 POP SWAP2 SWAP1 POP JUMP JUMPDEST PUSH32 0x4E487B7100000000000000000000000000000000000000000000000000000000 PUSH1 0x0 MSTORE PUSH1 0x11 PUSH1 0x4 MSTORE PUSH1 0x24 PUSH1 0x0 REVERT JUMPDEST PUSH1 0x0 PUSH3 0x468 DUP3 PUSH3 0x422 JUMP JUMPDEST SWAP2 POP PUSH3 0x475 DUP4 PUSH3 0x422 JUMP JUMPDEST SWAP3 POP DUP3 DUP3 ADD SWAP1 POP DUP1 DUP3 GT ISZERO PUSH3 0x490 JUMPI PUSH3 0x48F PUSH3 0x42C JUMP JUMPDEST JUMPDEST SWAP3 SWAP2 POP POP JUMP JUMPDEST PUSH32 0x4E487B7100000000000000000000000000000000000000000000000000000000 PUSH1 0x0 MSTORE PUSH1 0x32 PUSH1 0x4 MSTORE PUSH1 0x24 PUSH1 0x0 REVERT JUMPDEST PUSH1 0x0 DUP2 MLOAD SWAP1 POP SWAP2 SWAP1 POP JUMP JUMPDEST PUSH32 0x4E487B7100000000000000000000000000000000000000000000000000000000 PUSH1 0x0 MSTORE PUSH1 0x22 PUSH1 0x4 MSTORE PUSH1 0x24 PUSH1 0x0 REVERT JUMPDEST PUSH1 0x0 PUSH1 0x2 DUP3 DIV SWAP1 POP PUSH1 0x1 DUP3 AND DUP1 PUSH3 0x518 JUMPI PUSH1 0x7F DUP3 AND SWAP2 POP JUMPDEST PUSH1 0x20 DUP3 LT DUP2 SUB PUSH3 0x52E JUMPI PUSH3 0x52D PUSH3 0x4D0 JUMP JUMPDEST JUMPDEST POP SWAP2 SWAP1 POP JUMP JUMPDEST PUSH1 0x0 DUP2 SWAP1 POP DUP2 PUSH1 0x0 MSTORE PUSH1 0x20 PUSH1 0x0 KECCAK256 SWAP1 POP SWAP2 SWAP1 POP JUMP JUMPDEST PUSH1 0x0 PUSH1 0x20 PUSH1 0x1F DUP4 ADD DIV SWAP1 POP SWAP2 SWAP1 POP JUMP JUMPDEST PUSH1 0x0 DUP3 DUP3 SHL SWAP1 POP SWAP3 SWAP2 POP POP JUMP JUMPDEST PUSH1 0x0 PUSH1 0x8 DUP4 MUL PUSH3 0x598 PUSH32 0xFFFFFFFFFFFFFFFFFFFFFFFFFFFFFFFFFFFFFFFFFFFFFFFFFFFFFFFFFFFFFFFF DUP3 PUSH3 0x559 JUMP JUMPDEST PUSH3 0x5A4 DUP7 DUP4 PUSH3 0x559 JUMP JUMPDEST SWAP6 POP DUP1 NOT DUP5 AND SWAP4 POP DUP1 DUP7 AND DUP5 OR SWAP3 POP POP POP SWAP4 SWAP3 POP POP POP JUMP JUMPDEST PUSH1 0x0 DUP2 SWAP1 POP SWAP2 SWAP1 POP JUMP JUMPDEST PUSH1 0x0 PUSH3 0x5E7 PUSH3 0x5E1 PUSH3 0x5DB DUP5 PUSH3 0x422 JUMP JUMPDEST PUSH3 0x5BC JUMP JUMPDEST PUSH3 0x422 JUMP JUMPDEST SWAP1 POP SWAP2 SWAP1 POP JUMP JUMPDEST PUSH1 0x0 DUP2 SWAP1 POP SWAP2 SWAP1 POP JUMP JUMPDEST PUSH3 0x603 DUP4 PUSH3 0x5C6 JUMP JUMPDEST PUSH3 0x61B PUSH3 0x612 DUP3 PUSH3 0x5EE JUMP JUMPDEST DUP5 DUP5 SLOAD PUSH3 0x566 JUMP JUMPDEST DUP3 SSTORE POP POP POP POP JUMP JUMPDEST PUSH1 0x0 SWAP1 JUMP JUMPDEST PUSH3 0x632 PUSH3 0x623 JUMP JUMPDEST PUSH3 0x63F DUP2 DUP5 DUP5 PUSH3 0x5F8 JUMP JUMPDEST POP POP POP JUMP JUMPDEST JUMPDEST DUP2 DUP2 LT ISZERO PUSH3 0x667 JUMPI PUSH3 0x65B PUSH1 0x0 DUP3 PUSH3 0x628 JUMP JUMPDEST PUSH1 0x1 DUP2 ADD SWAP1 POP PUSH3 0x645 JUMP JUMPDEST POP POP JUMP JUMPDEST PUSH1 0x1F DUP3 GT ISZERO PUSH3 0x6B6 JUMPI PUSH3 0x680 DUP2 PUSH3 0x534 JUMP JUMPDEST PUSH3 0x68B DUP5 PUSH3 0x549 JUMP JUMPDEST DUP2 ADD PUSH1 0x20 DUP6 LT ISZERO PUSH3 0x69B JUMPI DUP2 SWAP1 POP JUMPDEST PUSH3 0x6B3 PUSH3 0x6AA DUP6 PUSH3 0x549 JUMP JUMPDEST DUP4 ADD DUP3 PUSH3 0x644 JUMP JUMPDEST POP POP JUMPDEST POP POP POP JUMP JUMPDEST PUSH1 0x0 DUP3 DUP3 SHR SWAP1 POP SWAP3 SWAP2 POP POP JUMP JUMPDEST PUSH1 0x0 PUSH3 0x6DB PUSH1 0x0 NOT DUP5 PUSH1 0x8 MUL PUSH3 0x6BB JUMP JUMPDEST NOT DUP1 DUP4 AND SWAP2 POP POP SWAP3 SWAP2 POP POP JUMP JUMPDEST PUSH1 0x0 PUSH3 0x6F6 DUP4 DUP4 PUSH3 0x6C8 JUMP JUMPDEST SWAP2 POP DUP3 PUSH1 0x2 MUL DUP3 OR SWAP1 POP SWAP3 SWAP2 POP POP JUMP JUMPDEST PUSH3 0x711 DUP3 PUSH3 0x4C5 JUMP JUMPDEST PUSH8 0xFFFFFFFFFFFFFFFF DUP2 GT ISZERO PUSH3 0x72D JUMPI PUSH3 0x72C PUSH3 0x16C JUMP JUMPDEST JUMPDEST PUSH3 0x739 DUP3 SLOAD PUSH3 0x4FF JUMP JUMPDEST PUSH3 0x746 DUP3 DUP3 DUP6 PUSH3 0x66B JUMP JUMPDEST PUSH1 0x0 PUSH1 0x20 SWAP1 POP PUSH1 0x1F DUP4 GT PUSH1 0x1 DUP2 EQ PUSH3 0x77E JUMPI PUSH1 0x0 DUP5 ISZERO PUSH3 0x769 JUMPI DUP3 DUP8 ADD MLOAD SWAP1 POP JUMPDEST PUSH3 0x775 DUP6 DUP3 PUSH3 0x6E8 JUMP JUMPDEST DUP7 SSTORE POP PUSH3 0x7E5 JUMP JUMPDEST PUSH1 0x1F NOT DUP5 AND PUSH3 0x78E DUP7 PUSH3 0x534 JUMP JUMPDEST PUSH1 0x0 JUMPDEST DUP3 DUP2 LT ISZERO PUSH3 0x7B8 JUMPI DUP5 DUP10 ADD MLOAD DUP3 SSTORE PUSH1 0x1 DUP3 ADD SWAP2 POP PUSH1 0x20 DUP6 ADD SWAP5 POP PUSH1 0x20 DUP2 ADD SWAP1 POP PUSH3 0x791 JUMP JUMPDEST DUP7 DUP4 LT ISZERO PUSH3 0x7D8 JUMPI DUP5 DUP10 ADD MLOAD PUSH3 0x7D4 PUSH1 0x1F DUP10 AND DUP3 PUSH3 0x6C8 JUMP JUMPDEST DUP4 SSTORE POP JUMPDEST PUSH1 0x1 PUSH1 0x2 DUP9 MUL ADD DUP9 SSTORE POP POP POP JUMPDEST POP POP POP POP POP POP JUMP JUMPDEST PUSH1 0x0 PUSH3 0x7FA DUP3 PUSH3 0x422 JUMP JUMPDEST SWAP2 POP PUSH32 0xFFFFFFFFFFFFFFFFFFFFFFFFFFFFFFFFFFFFFFFFFFFFFFFFFFFFFFFFFFFFFFFF DUP3 SUB PUSH3 0x82F JUMPI PUSH3 0x82E PUSH3 0x42C JUMP JUMPDEST JUMPDEST PUSH1 0x1 DUP3 ADD SWAP1 POP SWAP2 SWAP1 POP JUMP JUMPDEST PUSH1 0x80 MLOAD PUSH2 0x22F2 PUSH3 0x85D PUSH1 0x0 CODECOPY PUSH1 0x0 DUP2 DUP2 PUSH2 0x71C ADD MSTORE PUSH2 0x120C ADD MSTORE PUSH2 0x22F2 PUSH1 0x0 RETURN INVALID PUSH1 0x80 PUSH1 0x40 MSTORE CALLVALUE DUP1 ISZERO PUSH2 0x10 JUMPI PUSH1 0x0 DUP1 REVERT JUMPDEST POP PUSH1 0x4 CALLDATASIZE LT PUSH2 0x12C JUMPI PUSH1 0x0 CALLDATALOAD PUSH1 0xE0 SHR DUP1 PUSH4 0x87CB7877 GT PUSH2 0xAD JUMPI DUP1 PUSH4 0xC2B6B58C GT PUSH2 0x71 JUMPI DUP1 PUSH4 0xC2B6B58C EQ PUSH2 0x348 JUMPI DUP1 PUSH4 0xC631B292 EQ PUSH2 0x366 JUMPI DUP1 PUSH4 0xE13804A7 EQ PUSH2 0x370 JUMPI DUP1 PUSH4 0xEFD5297C EQ PUSH2 0x3A0 JUMPI DUP1 PUSH4 0xFA7F1BAE EQ PUSH2 0x3BE JUMPI PUSH2 0x12C JUMP JUMPDEST DUP1 PUSH4 0x87CB7877 EQ PUSH2 0x28E JUMPI DUP1 PUSH4 0x8DA5CB5B EQ PUSH2 0x2AC JUMPI DUP1 PUSH4 0x8E7EA5B2 EQ PUSH2 0x2CA JUMPI DUP1 PUSH4 0x995E4339 EQ PUSH2 0x2E8 JUMPI DUP1 PUSH4 0xB81F6E18 EQ PUSH2 0x318 JUMPI PUSH2 0x12C JUMP JUMPDEST DUP1 PUSH4 0x3CEED692 GT PUSH2 0xF4 JUMPI DUP1 PUSH4 0x3CEED692 EQ PUSH2 0x1C1 JUMPI DUP1 PUSH4 0x43859632 EQ PUSH2 0x1DF JUMPI DUP1 PUSH4 0x4FC8A20D EQ PUSH2 0x20F JUMPI DUP1 PUSH4 0x5216509A EQ PUSH2 0x23F JUMPI DUP1 PUSH4 0x7DE14242 EQ PUSH2 0x25D JUMPI PUSH2 0x12C JUMP JUMPDEST DUP1 PUSH4 0x121B93F EQ PUSH2 0x131 JUMPI DUP1 PUSH4 0x36EE850 EQ PUSH2 0x14D JUMPI DUP1 PUSH4 0x51364D4 EQ PUSH2 0x16B JUMPI DUP1 PUSH4 0x29FE4047 EQ PUSH2 0x189 JUMPI DUP1 PUSH4 0x38DB6DD3 EQ PUSH2 0x1A5 JUMPI JUMPDEST PUSH1 0x0 DUP1 REVERT JUMPDEST PUSH2 0x14B PUSH1 0x4 DUP1 CALLDATASIZE SUB DUP2 ADD SWAP1 PUSH2 0x146 SWAP2 SWAP1 PUSH2 0x12AF JUMP JUMPDEST PUSH2 0x3DC JUMP JUMPDEST STOP JUMPDEST PUSH2 0x155 PUSH2 0x71A JUMP JUMPDEST PUSH1 0x40 MLOAD PUSH2 0x162 SWAP2 SWAP1 PUSH2 0x12EB JUMP JUMPDEST PUSH1 0x40 MLOAD DUP1 SWAP2 SUB SWAP1 RETURN JUMPDEST PUSH2 0x173 PUSH2 0x73E JUMP JUMPDEST PUSH1 0x40 MLOAD PUSH2 0x180 SWAP2 SWAP1 PUSH2 0x12EB JUMP JUMPDEST PUSH1 0x40 MLOAD DUP1 SWAP2 SUB SWAP1 RETURN JUMPDEST PUSH2 0x1A3 PUSH1 0x4 DUP1 CALLDATASIZE SUB DUP2 ADD SWAP1 PUSH2 0x19E SWAP2 SWAP1 PUSH2 0x1532 JUMP JUMPDEST PUSH2 0x744 JUMP JUMPDEST STOP JUMPDEST PUSH2 0x1BF PUSH1 0x4 DUP1 CALLDATASIZE SUB DUP2 ADD SWAP1 PUSH2 0x1BA SWAP2 SWAP1 PUSH2 0x15D9 JUMP JUMPDEST PUSH2 0x8C7 JUMP JUMPDEST STOP JUMPDEST PUSH2 0x1C9 PUSH2 0xA65 JUMP JUMPDEST PUSH1 0x40 MLOAD PUSH2 0x1D6 SWAP2 SWAP1 PUSH2 0x12EB JUMP JUMPDEST PUSH1 0x40 MLOAD DUP1 SWAP2 SUB SWAP1 RETURN JUMPDEST PUSH2 0x1F9 PUSH1 0x4 DUP1 CALLDATASIZE SUB DUP2 ADD SWAP1 PUSH2 0x1F4 SWAP2 SWAP1 PUSH2 0x1606 JUMP JUMPDEST PUSH2 0xA6A JUMP JUMPDEST PUSH1 0x40 MLOAD PUSH2 0x206 SWAP2 SWAP1 PUSH2 0x1661 JUMP JUMPDEST PUSH1 0x40 MLOAD DUP1 SWAP2 SUB SWAP1 RETURN JUMPDEST PUSH2 0x229 PUSH1 0x4 DUP1 CALLDATASIZE SUB DUP2 ADD SWAP1 PUSH2 0x224 SWAP2 SWAP1 PUSH2 0x12AF JUMP JUMPDEST PUSH2 0xA99 JUMP JUMPDEST PUSH1 0x40 MLOAD PUSH2 0x236 SWAP2 SWAP1 PUSH2 0x12EB JUMP JUMPDEST PUSH1 0x40 MLOAD DUP1 SWAP2 SUB SWAP1 RETURN JUMPDEST PUSH2 0x247 PUSH2 0xAB1 JUMP JUMPDEST PUSH1 0x40 MLOAD PUSH2 0x254 SWAP2 SWAP1 PUSH2 0x12EB JUMP JUMPDEST PUSH1 0x40 MLOAD DUP1 SWAP2 SUB SWAP1 RETURN JUMPDEST PUSH2 0x277 PUSH1 0x4 DUP1 CALLDATASIZE SUB DUP2 ADD SWAP1 PUSH2 0x272 SWAP2 SWAP1 PUSH2 0x167C JUMP JUMPDEST PUSH2 0xAB7 JUMP JUMPDEST PUSH1 0x40 MLOAD PUSH2 0x285 SWAP3 SWAP2 SWAP1 PUSH2 0x173B JUMP JUMPDEST PUSH1 0x40 MLOAD DUP1 SWAP2 SUB SWAP1 RETURN JUMPDEST PUSH2 0x296 PUSH2 0xB70 JUMP JUMPDEST PUSH1 0x40 MLOAD PUSH2 0x2A3 SWAP2 SWAP1 PUSH2 0x1829 JUMP JUMPDEST PUSH1 0x40 MLOAD DUP1 SWAP2 SUB SWAP1 RETURN JUMPDEST PUSH2 0x2B4 PUSH2 0xD2B JUMP JUMPDEST PUSH1 0x40 MLOAD PUSH2 0x2C1 SWAP2 SWAP1 PUSH2 0x185A JUMP JUMPDEST PUSH1 0x40 MLOAD DUP1 SWAP2 SUB SWAP1 RETURN JUMPDEST PUSH2 0x2D2 PUSH2 0xD51 JUMP JUMPDEST PUSH1 0x40 MLOAD PUSH2 0x2DF SWAP2 SWAP1 PUSH2 0x12EB JUMP JUMPDEST PUSH1 0x40 MLOAD DUP1 SWAP2 SUB SWAP1 RETURN JUMPDEST PUSH2 0x302 PUSH1 0x4 DUP1 CALLDATASIZE SUB DUP2 ADD SWAP1 PUSH2 0x2FD SWAP2 SWAP1 PUSH2 0x12AF JUMP JUMPDEST PUSH2 0xDE6 JUMP JUMPDEST PUSH1 0x40 MLOAD PUSH2 0x30F SWAP2 SWAP1 PUSH2 0x12EB JUMP JUMPDEST PUSH1 0x40 MLOAD DUP1 SWAP2 SUB SWAP1 RETURN JUMPDEST PUSH2 0x332 PUSH1 0x4 DUP1 CALLDATASIZE SUB DUP2 ADD SWAP1 PUSH2 0x32D SWAP2 SWAP1 PUSH2 0x1606 JUMP JUMPDEST PUSH2 0xE5C JUMP JUMPDEST PUSH1 0x40 MLOAD PUSH2 0x33F SWAP2 SWAP1 PUSH2 0x1661 JUMP JUMPDEST PUSH1 0x40 MLOAD DUP1 SWAP2 SUB SWAP1 RETURN JUMPDEST PUSH2 0x350 PUSH2 0xE8B JUMP JUMPDEST PUSH1 0x40 MLOAD PUSH2 0x35D SWAP2 SWAP1 PUSH2 0x1661 JUMP JUMPDEST PUSH1 0x40 MLOAD DUP1 SWAP2 SUB SWAP1 RETURN JUMPDEST PUSH2 0x36E PUSH2 0xE9E JUMP JUMPDEST STOP JUMPDEST PUSH2 0x38A PUSH1 0x4 DUP1 CALLDATASIZE SUB DUP2 ADD SWAP1 PUSH2 0x385 SWAP2 SWAP1 PUSH2 0x12AF JUMP JUMPDEST PUSH2 0xF9B JUMP JUMPDEST PUSH1 0x40 MLOAD PUSH2 0x397 SWAP2 SWAP1 PUSH2 0x1875 JUMP JUMPDEST PUSH1 0x40 MLOAD DUP1 SWAP2 SUB SWAP1 RETURN JUMPDEST PUSH2 0x3A8 PUSH2 0x109A JUMP JUMPDEST PUSH1 0x40 MLOAD PUSH2 0x3B5 SWAP2 SWAP1 PUSH2 0x19E0 JUMP JUMPDEST PUSH1 0x40 MLOAD DUP1 SWAP2 SUB SWAP1 RETURN JUMPDEST PUSH2 0x3C6 PUSH2 0x1208 JUMP JUMPDEST PUSH1 0x40 MLOAD PUSH2 0x3D3 SWAP2 SWAP1 PUSH2 0x1661 JUMP JUMPDEST PUSH1 0x40 MLOAD DUP1 SWAP2 SUB SWAP1 RETURN JUMPDEST PUSH1 0x0 SLOAD DUP2 LT PUSH2 0x420 JUMPI PUSH1 0x40 MLOAD PUSH32 0x8C379A000000000000000000000000000000000000000000000000000000000 DUP2 MSTORE PUSH1 0x4 ADD PUSH2 0x417 SWAP1 PUSH2 0x1A4E JUMP JUMPDEST PUSH1 0x40 MLOAD DUP1 SWAP2 SUB SWAP1 REVERT JUMPDEST PUSH2 0x428 PUSH2 0x1208 JUMP JUMPDEST PUSH2 0x467 JUMPI PUSH1 0x40 MLOAD PUSH32 0x8C379A000000000000000000000000000000000000000000000000000000000 DUP2 MSTORE PUSH1 0x4 ADD PUSH2 0x45E SWAP1 PUSH2 0x1ABA JUMP JUMPDEST PUSH1 0x40 MLOAD DUP1 SWAP2 SUB SWAP1 REVERT JUMPDEST PUSH1 0x2 PUSH1 0x0 PUSH1 0x6 SLOAD DUP2 MSTORE PUSH1 0x20 ADD SWAP1 DUP2 MSTORE PUSH1 0x20 ADD PUSH1 0x0 KECCAK256 PUSH1 0x0 CALLER PUSH20 0xFFFFFFFFFFFFFFFFFFFFFFFFFFFFFFFFFFFFFFFF AND PUSH20 0xFFFFFFFFFFFFFFFFFFFFFFFFFFFFFFFFFFFFFFFF AND DUP2 MSTORE PUSH1 0x20 ADD SWAP1 DUP2 MSTORE PUSH1 0x20 ADD PUSH1 0x0 KECCAK256 PUSH1 0x0 SWAP1 SLOAD SWAP1 PUSH2 0x100 EXP SWAP1 DIV PUSH1 0xFF AND PUSH2 0x506 JUMPI PUSH1 0x40 MLOAD PUSH32 0x8C379A000000000000000000000000000000000000000000000000000000000 DUP2 MSTORE PUSH1 0x4 ADD PUSH2 0x4FD SWAP1 PUSH2 0x1B26 JUMP JUMPDEST PUSH1 0x40 MLOAD DUP1 SWAP2 SUB SWAP1 REVERT JUMPDEST PUSH1 0x3 PUSH1 0x0 PUSH1 0x6 SLOAD DUP2 MSTORE PUSH1 0x20 ADD SWAP1 DUP2 MSTORE PUSH1 0x20 ADD PUSH1 0x0 KECCAK256 PUSH1 0x0 CALLER PUSH20 0xFFFFFFFFFFFFFFFFFFFFFFFFFFFFFFFFFFFFFFFF AND PUSH20 0xFFFFFFFFFFFFFFFFFFFFFFFFFFFFFFFFFFFFFFFF AND DUP2 MSTORE PUSH1 0x20 ADD SWAP1 DUP2 MSTORE PUSH1 0x20 ADD PUSH1 0x0 KECCAK256 PUSH1 0x0 SWAP1 SLOAD SWAP1 PUSH2 0x100 EXP SWAP1 DIV PUSH1 0xFF AND ISZERO PUSH2 0x5A6 JUMPI PUSH1 0x40 MLOAD PUSH32 0x8C379A000000000000000000000000000000000000000000000000000000000 DUP2 MSTORE PUSH1 0x4 ADD PUSH2 0x59D SWAP1 PUSH2 0x1B92 JUMP JUMPDEST PUSH1 0x40 MLOAD DUP1 SWAP2 SUB SWAP1 REVERT JUMPDEST PUSH1 0x64 PUSH1 0x4 PUSH1 0x0 PUSH1 0x6 SLOAD DUP2 MSTORE PUSH1 0x20 ADD SWAP1 DUP2 MSTORE PUSH1 0x20 ADD PUSH1 0x0 KECCAK256 SLOAD LT PUSH2 0x5FE JUMPI PUSH1 0x40 MLOAD PUSH32 0x8C379A000000000000000000000000000000000000000000000000000000000 DUP2 MSTORE PUSH1 0x4 ADD PUSH2 0x5F5 SWAP1 PUSH2 0x1BFE JUMP JUMPDEST PUSH1 0x40 MLOAD DUP1 SWAP2 SUB SWAP1 REVERT JUMPDEST PUSH1 0x1 PUSH1 0x3 PUSH1 0x0 PUSH1 0x6 SLOAD DUP2 MSTORE PUSH1 0x20 ADD SWAP1 DUP2 MSTORE PUSH1 0x20 ADD PUSH1 0x0 KECCAK256 PUSH1 0x0 CALLER PUSH20 0xFFFFFFFFFFFFFFFFFFFFFFFFFFFFFFFFFFFFFFFF AND PUSH20 0xFFFFFFFFFFFFFFFFFFFFFFFFFFFFFFFFFFFFFFFF AND DUP2 MSTORE PUSH1 0x20 ADD SWAP1 DUP2 MSTORE PUSH1 0x20 ADD PUSH1 0x0 KECCAK256 PUSH1 0x0 PUSH2 0x100 EXP DUP2 SLOAD DUP2 PUSH1 0xFF MUL NOT AND SWAP1 DUP4 ISZERO ISZERO MUL OR SWAP1 SSTORE POP PUSH1 0x1 PUSH1 0x0 PUSH1 0x6 SLOAD DUP2 MSTORE PUSH1 0x20 ADD SWAP1 DUP2 MSTORE PUSH1 0x20 ADD PUSH1 0x0 KECCAK256 PUSH1 0x0 DUP3 DUP2 MSTORE PUSH1 0x20 ADD SWAP1 DUP2 MSTORE PUSH1 0x20 ADD PUSH1 0x0 KECCAK256 PUSH1 0x1 ADD PUSH1 0x0 DUP2 SLOAD DUP1 SWAP3 SWAP2 SWAP1 PUSH2 0x6A3 SWAP1 PUSH2 0x1C4D JUMP JUMPDEST SWAP2 SWAP1 POP SSTORE POP PUSH1 0x4 PUSH1 0x0 PUSH1 0x6 SLOAD DUP2 MSTORE PUSH1 0x20 ADD SWAP1 DUP2 MSTORE PUSH1 0x20 ADD PUSH1 0x0 KECCAK256 PUSH1 0x0 DUP2 SLOAD DUP1 SWAP3 SWAP2 SWAP1 PUSH2 0x6CE SWAP1 PUSH2 0x1C4D JUMP JUMPDEST SWAP2 SWAP1 POP SSTORE POP DUP1 CALLER PUSH20 0xFFFFFFFFFFFFFFFFFFFFFFFFFFFFFFFFFFFFFFFF AND PUSH32 0xB6863B9CFC6DA0E0313A58A7AF7891CCB06314EDFE1ED6C02EF59B35891D8A54 PUSH1 0x40 MLOAD PUSH1 0x40 MLOAD DUP1 SWAP2 SUB SWAP1 LOG3 POP JUMP JUMPDEST PUSH32 0x0 DUP2 JUMP JUMPDEST PUSH1 0x6 SLOAD DUP2 JUMP JUMPDEST PUSH1 0x5 PUSH1 0x1 SWAP1 SLOAD SWAP1 PUSH2 0x100 EXP SWAP1 DIV PUSH20 0xFFFFFFFFFFFFFFFFFFFFFFFFFFFFFFFFFFFFFFFF AND PUSH20 0xFFFFFFFFFFFFFFFFFFFFFFFFFFFFFFFFFFFFFFFF AND CALLER PUSH20 0xFFFFFFFFFFFFFFFFFFFFFFFFFFFFFFFFFFFFFFFF AND EQ PUSH2 0x7D4 JUMPI PUSH1 0x40 MLOAD PUSH32 0x8C379A000000000000000000000000000000000000000000000000000000000 DUP2 MSTORE PUSH1 0x4 ADD PUSH2 0x7CB SWAP1 PUSH2 0x1CE1 JUMP JUMPDEST PUSH1 0x40 MLOAD DUP1 SWAP2 SUB SWAP1 REVERT JUMPDEST PUSH1 0x6 PUSH1 0x0 DUP2 SLOAD DUP1 SWAP3 SWAP2 SWAP1 PUSH2 0x7E7 SWAP1 PUSH2 0x1C4D JUMP JUMPDEST SWAP2 SWAP1 POP SSTORE POP DUP1 MLOAD PUSH1 0x0 DUP2 SWAP1 SSTORE POP PUSH1 0x0 PUSH1 0x5 PUSH1 0x0 PUSH2 0x100 EXP DUP2 SLOAD DUP2 PUSH1 0xFF MUL NOT AND SWAP1 DUP4 ISZERO ISZERO MUL OR SWAP1 SSTORE POP PUSH1 0x0 JUMPDEST PUSH1 0x0 SLOAD DUP2 LT ISZERO PUSH2 0x8A8 JUMPI PUSH1 0x40 MLOAD DUP1 PUSH1 0x40 ADD PUSH1 0x40 MSTORE DUP1 DUP4 DUP4 DUP2 MLOAD DUP2 LT PUSH2 0x83A JUMPI PUSH2 0x839 PUSH2 0x1D01 JUMP JUMPDEST JUMPDEST PUSH1 0x20 MUL PUSH1 0x20 ADD ADD MLOAD DUP2 MSTORE PUSH1 0x20 ADD PUSH1 0x0 DUP2 MSTORE POP PUSH1 0x1 PUSH1 0x0 PUSH1 0x6 SLOAD DUP2 MSTORE PUSH1 0x20 ADD SWAP1 DUP2 MSTORE PUSH1 0x20 ADD PUSH1 0x0 KECCAK256 PUSH1 0x0 DUP4 DUP2 MSTORE PUSH1 0x20 ADD SWAP1 DUP2 MSTORE PUSH1 0x20 ADD PUSH1 0x0 KECCAK256 PUSH1 0x0 DUP3 ADD MLOAD DUP2 PUSH1 0x0 ADD SWAP1 DUP2 PUSH2 0x887 SWAP2 SWAP1 PUSH2 0x1F3C JUMP JUMPDEST POP PUSH1 0x20 DUP3 ADD MLOAD DUP2 PUSH1 0x1 ADD SSTORE SWAP1 POP POP DUP1 DUP1 PUSH2 0x8A0 SWAP1 PUSH2 0x1C4D JUMP JUMPDEST SWAP2 POP POP PUSH2 0x812 JUMP JUMPDEST POP PUSH1 0x0 PUSH1 0x4 PUSH1 0x0 PUSH1 0x6 SLOAD DUP2 MSTORE PUSH1 0x20 ADD SWAP1 DUP2 MSTORE PUSH1 0x20 ADD PUSH1 0x0 KECCAK256 DUP2 SWAP1 SSTORE POP POP JUMP JUMPDEST PUSH1 0x5 PUSH1 0x1 SWAP1 SLOAD SWAP1 PUSH2 0x100 EXP SWAP1 DIV PUSH20 0xFFFFFFFFFFFFFFFFFFFFFFFFFFFFFFFFFFFFFFFF AND PUSH20 0xFFFFFFFFFFFFFFFFFFFFFFFFFFFFFFFFFFFFFFFF AND CALLER PUSH20 0xFFFFFFFFFFFFFFFFFFFFFFFFFFFFFFFFFFFFFFFF AND EQ PUSH2 0x957 JUMPI PUSH1 0x40 MLOAD PUSH32 0x8C379A000000000000000000000000000000000000000000000000000000000 DUP2 MSTORE PUSH1 0x4 ADD PUSH2 0x94E SWAP1 PUSH2 0x205A JUMP JUMPDEST PUSH1 0x40 MLOAD DUP1 SWAP2 SUB SWAP1 REVERT JUMPDEST PUSH1 0x2 PUSH1 0x0 PUSH1 0x6 SLOAD DUP2 MSTORE PUSH1 0x20 ADD SWAP1 DUP2 MSTORE PUSH1 0x20 ADD PUSH1 0x0 KECCAK256 PUSH1 0x0 DUP3 PUSH20 0xFFFFFFFFFFFFFFFFFFFFFFFFFFFFFFFFFFFFFFFF AND PUSH20 0xFFFFFFFFFFFFFFFFFFFFFFFFFFFFFFFFFFFFFFFF AND DUP2 MSTORE PUSH1 0x20 ADD SWAP1 DUP2 MSTORE PUSH1 0x20 ADD PUSH1 0x0 KECCAK256 PUSH1 0x0 SWAP1 SLOAD SWAP1 PUSH2 0x100 EXP SWAP1 DIV PUSH1 0xFF AND ISZERO PUSH2 0x9F7 JUMPI PUSH1 0x40 MLOAD PUSH32 0x8C379A000000000000000000000000000000000000000000000000000000000 DUP2 MSTORE PUSH1 0x4 ADD PUSH2 0x9EE SWAP1 PUSH2 0x20C6 JUMP JUMPDEST PUSH1 0x40 MLOAD DUP1 SWAP2 SUB SWAP1 REVERT JUMPDEST PUSH1 0x1 PUSH1 0x2 PUSH1 0x0 PUSH1 0x6 SLOAD DUP2 MSTORE PUSH1 0x20 ADD SWAP1 DUP2 MSTORE PUSH1 0x20 ADD PUSH1 0x0 KECCAK256 PUSH1 0x0 DUP4 PUSH20 0xFFFFFFFFFFFFFFFFFFFFFFFFFFFFFFFFFFFFFFFF AND PUSH20 0xFFFFFFFFFFFFFFFFFFFFFFFFFFFFFFFFFFFFFFFF AND DUP2 MSTORE PUSH1 0x20 ADD SWAP1 DUP2 MSTORE PUSH1 0x20 ADD PUSH1 0x0 KECCAK256 PUSH1 0x0 PUSH2 0x100 EXP DUP2 SLOAD DUP2 PUSH1 0xFF MUL NOT AND SWAP1 DUP4 ISZERO ISZERO MUL OR SWAP1 SSTORE POP POP JUMP JUMPDEST PUSH1 0x64 DUP2 JUMP JUMPDEST PUSH1 0x3 PUSH1 0x20 MSTORE DUP2 PUSH1 0x0 MSTORE PUSH1 0x40 PUSH1 0x0 KECCAK256 PUSH1 0x20 MSTORE DUP1 PUSH1 0x0 MSTORE PUSH1 0x40 PUSH1 0x0 KECCAK256 PUSH1 0x0 SWAP2 POP SWAP2 POP SWAP1 SLOAD SWAP1 PUSH2 0x100 EXP SWAP1 DIV PUSH1 0xFF AND DUP2 JUMP JUMPDEST PUSH1 0x4 PUSH1 0x20 MSTORE DUP1 PUSH1 0x0 MSTORE PUSH1 0x40 PUSH1 0x0 KECCAK256 PUSH1 0x0 SWAP2 POP SWAP1 POP SLOAD DUP2 JUMP JUMPDEST PUSH1 0x0 SLOAD DUP2 JUMP JUMPDEST PUSH1 0x1 PUSH1 0x20 MSTORE DUP2 PUSH1 0x0 MSTORE PUSH1 0x40 PUSH1 0x0 KECCAK256 PUSH1 0x20 MSTORE DUP1 PUSH1 0x0 MSTORE PUSH1 0x40 PUSH1 0x0 KECCAK256 PUSH1 0x0 SWAP2 POP SWAP2 POP POP DUP1 PUSH1 0x0 ADD DUP1 SLOAD PUSH2 0xAE7 SWAP1 PUSH2 0x1D5F JUMP JUMPDEST DUP1 PUSH1 0x1F ADD PUSH1 0x20 DUP1 SWAP2 DIV MUL PUSH1 0x20 ADD PUSH1 0x40 MLOAD SWAP1 DUP2 ADD PUSH1 0x40 MSTORE DUP1 SWAP3 SWAP2 SWAP1 DUP2 DUP2 MSTORE PUSH1 0x20 ADD DUP3 DUP1 SLOAD PUSH2 0xB13 SWAP1 PUSH2 0x1D5F JUMP JUMPDEST DUP1 ISZERO PUSH2 0xB60 JUMPI DUP1 PUSH1 0x1F LT PUSH2 0xB35 JUMPI PUSH2 0x100 DUP1 DUP4 SLOAD DIV MUL DUP4 MSTORE SWAP2 PUSH1 0x20 ADD SWAP2 PUSH2 0xB60 JUMP JUMPDEST DUP3 ADD SWAP2 SWAP1 PUSH1 0x0 MSTORE PUSH1 0x20 PUSH1 0x0 KECCAK256 SWAP1 JUMPDEST DUP2 SLOAD DUP2 MSTORE SWAP1 PUSH1 0x1 ADD SWAP1 PUSH1 0x20 ADD DUP1 DUP4 GT PUSH2 0xB43 JUMPI DUP3 SWAP1 SUB PUSH1 0x1F AND DUP3 ADD SWAP2 JUMPDEST POP POP POP POP POP SWAP1 DUP1 PUSH1 0x1 ADD SLOAD SWAP1 POP DUP3 JUMP JUMPDEST PUSH1 0x60 PUSH1 0x0 DUP1 JUMPDEST PUSH1 0x0 SLOAD DUP2 LT ISZERO PUSH2 0xBF1 JUMPI DUP2 PUSH1 0x1 PUSH1 0x0 PUSH1 0x6 SLOAD DUP2 MSTORE PUSH1 0x20 ADD SWAP1 DUP2 MSTORE PUSH1 0x20 ADD PUSH1 0x0 KECCAK256 PUSH1 0x0 DUP4 DUP2 MSTORE PUSH1 0x20 ADD SWAP1 DUP2 MSTORE PUSH1 0x20 ADD PUSH1 0x0 KECCAK256 PUSH1 0x1 ADD SLOAD GT ISZERO PUSH2 0xBDE JUMPI PUSH1 0x1 PUSH1 0x0 PUSH1 0x6 SLOAD DUP2 MSTORE PUSH1 0x20 ADD SWAP1 DUP2 MSTORE PUSH1 0x20 ADD PUSH1 0x0 KECCAK256 PUSH1 0x0 DUP3 DUP2 MSTORE PUSH1 0x20 ADD SWAP1 DUP2 MSTORE PUSH1 0x20 ADD PUSH1 0x0 KECCAK256 PUSH1 0x1 ADD SLOAD SWAP2 POP JUMPDEST DUP1 DUP1 PUSH2 0xBE9 SWAP1 PUSH2 0x1C4D JUMP JUMPDEST SWAP2 POP POP PUSH2 0xB76 JUMP JUMPDEST POP PUSH1 0x0 DUP1 JUMPDEST PUSH1 0x0 SLOAD DUP2 LT ISZERO PUSH2 0xC52 JUMPI DUP3 PUSH1 0x1 PUSH1 0x0 PUSH1 0x6 SLOAD DUP2 MSTORE PUSH1 0x20 ADD SWAP1 DUP2 MSTORE PUSH1 0x20 ADD PUSH1 0x0 KECCAK256 PUSH1 0x0 DUP4 DUP2 MSTORE PUSH1 0x20 ADD SWAP1 DUP2 MSTORE PUSH1 0x20 ADD PUSH1 0x0 KECCAK256 PUSH1 0x1 ADD SLOAD SUB PUSH2 0xC3F JUMPI DUP2 DUP1 PUSH2 0xC3B SWAP1 PUSH2 0x1C4D JUMP JUMPDEST SWAP3 POP POP JUMPDEST DUP1 DUP1 PUSH2 0xC4A SWAP1 PUSH2 0x1C4D JUMP JUMPDEST SWAP2 POP POP PUSH2 0xBF6 JUMP JUMPDEST POP PUSH1 0x0 DUP2 PUSH8 0xFFFFFFFFFFFFFFFF DUP2 GT ISZERO PUSH2 0xC6F JUMPI PUSH2 0xC6E PUSH2 0x131C JUMP JUMPDEST JUMPDEST PUSH1 0x40 MLOAD SWAP1 DUP1 DUP3 MSTORE DUP1 PUSH1 0x20 MUL PUSH1 0x20 ADD DUP3 ADD PUSH1 0x40 MSTORE DUP1 ISZERO PUSH2 0xC9D JUMPI DUP2 PUSH1 0x20 ADD PUSH1 0x20 DUP3 MUL DUP1 CALLDATASIZE DUP4 CALLDATACOPY DUP1 DUP3 ADD SWAP2 POP POP SWAP1 POP JUMPDEST POP SWAP1 POP PUSH1 0x0 DUP1 JUMPDEST PUSH1 0x0 SLOAD DUP2 LT ISZERO PUSH2 0xD20 JUMPI DUP5 PUSH1 0x1 PUSH1 0x0 PUSH1 0x6 SLOAD DUP2 MSTORE PUSH1 0x20 ADD SWAP1 DUP2 MSTORE PUSH1 0x20 ADD PUSH1 0x0 KECCAK256 PUSH1 0x0 DUP4 DUP2 MSTORE PUSH1 0x20 ADD SWAP1 DUP2 MSTORE PUSH1 0x20 ADD PUSH1 0x0 KECCAK256 PUSH1 0x1 ADD SLOAD SUB PUSH2 0xD0D JUMPI DUP1 DUP4 DUP4 DUP2 MLOAD DUP2 LT PUSH2 0xCF2 JUMPI PUSH2 0xCF1 PUSH2 0x1D01 JUMP JUMPDEST JUMPDEST PUSH1 0x20 MUL PUSH1 0x20 ADD ADD DUP2 DUP2 MSTORE POP POP DUP2 DUP1 PUSH2 0xD09 SWAP1 PUSH2 0x1C4D JUMP JUMPDEST SWAP3 POP POP JUMPDEST DUP1 DUP1 PUSH2 0xD18 SWAP1 PUSH2 0x1C4D JUMP JUMPDEST SWAP2 POP POP PUSH2 0xCA4 JUMP JUMPDEST POP DUP2 SWAP5 POP POP POP POP POP SWAP1 JUMP JUMPDEST PUSH1 0x5 PUSH1 0x1 SWAP1 SLOAD SWAP1 PUSH2 0x100 EXP SWAP1 DIV PUSH20 0xFFFFFFFFFFFFFFFFFFFFFFFFFFFFFFFFFFFFFFFF AND DUP2 JUMP JUMPDEST PUSH1 0x0 DUP1 PUSH1 0x0 SWAP1 POP PUSH1 0x0 SWAP2 POP PUSH1 0x0 PUSH1 0x1 SWAP1 POP JUMPDEST PUSH1 0x0 SLOAD DUP2 LT ISZERO PUSH2 0xDE1 JUMPI DUP2 PUSH1 0x1 PUSH1 0x0 PUSH1 0x6 SLOAD DUP2 MSTORE PUSH1 0x20 ADD SWAP1 DUP2 MSTORE PUSH1 0x20 ADD PUSH1 0x0 KECCAK256 PUSH1 0x0 DUP4 DUP2 MSTORE PUSH1 0x20 ADD SWAP1 DUP2 MSTORE PUSH1 0x20 ADD PUSH1 0x0 KECCAK256 PUSH1 0x1 ADD SLOAD GT ISZERO PUSH2 0xDCE JUMPI PUSH1 0x1 PUSH1 0x0 PUSH1 0x6 SLOAD DUP2 MSTORE PUSH1 0x20 ADD SWAP1 DUP2 MSTORE PUSH1 0x20 ADD PUSH1 0x0 KECCAK256 PUSH1 0x0 DUP3 DUP2 MSTORE PUSH1 0x20 ADD SWAP1 DUP2 MSTORE PUSH1 0x20 ADD PUSH1 0x0 KECCAK256 PUSH1 0x1 ADD SLOAD SWAP2 POP DUP1 SWAP3 POP JUMPDEST DUP1 DUP1 PUSH2 0xDD9 SWAP1 PUSH2 0x1C4D JUMP JUMPDEST SWAP2 POP POP PUSH2 0xD63 JUMP JUMPDEST POP POP SWAP1 JUMP JUMPDEST PUSH1 0x0 DUP1 SLOAD DUP3 LT PUSH2 0xE2B JUMPI PUSH1 0x40 MLOAD PUSH32 0x8C379A000000000000000000000000000000000000000000000000000000000 DUP2 MSTORE PUSH1 0x4 ADD PUSH2 0xE22 SWAP1 PUSH2 0x2132 JUMP JUMPDEST PUSH1 0x40 MLOAD DUP1 SWAP2 SUB SWAP1 REVERT JUMPDEST PUSH1 0x1 PUSH1 0x0 PUSH1 0x6 SLOAD DUP2 MSTORE PUSH1 0x20 ADD SWAP1 DUP2 MSTORE PUSH1 0x20 ADD PUSH1 0x0 KECCAK256 PUSH1 0x0 DUP4 DUP2 MSTORE PUSH1 0x20 ADD SWAP1 DUP2 MSTORE PUSH1 0x20 ADD PUSH1 0x0 KECCAK256 PUSH1 0x1 ADD SLOAD SWAP1 POP SWAP2 SWAP1 POP JUMP JUMPDEST PUSH1 0x2 PUSH1 0x20 MSTORE DUP2 PUSH1 0x0 MSTORE PUSH1 0x40 PUSH1 0x0 KECCAK256 PUSH1 0x20 MSTORE DUP1 PUSH1 0x0 MSTORE PUSH1 0x40 PUSH1 0x0 KECCAK256 PUSH1 0x0 SWAP2 POP SWAP2 POP SWAP1 SLOAD SWAP1 PUSH2 0x100 EXP SWAP1 DIV PUSH1 0xFF AND DUP2 JUMP JUMPDEST PUSH1 0x5 PUSH1 0x0 SWAP1 SLOAD SWAP1 PUSH2 0x100 EXP SWAP1 DIV PUSH1 0xFF AND DUP2 JUMP JUMPDEST PUSH1 0x5 PUSH1 0x0 SWAP1 SLOAD SWAP1 PUSH2 0x100 EXP SWAP1 DIV PUSH1 0xFF AND ISZERO PUSH2 0xEEE JUMPI PUSH1 0x40 MLOAD PUSH32 0x8C379A000000000000000000000000000000000000000000000000000000000 DUP2 MSTORE PUSH1 0x4 ADD PUSH2 0xEE5 SWAP1 PUSH2 0x219E JUMP JUMPDEST PUSH1 0x40 MLOAD DUP1 SWAP2 SUB SWAP1 REVERT JUMPDEST PUSH1 0x5 PUSH1 0x1 SWAP1 SLOAD SWAP1 PUSH2 0x100 EXP SWAP1 DIV PUSH20 0xFFFFFFFFFFFFFFFFFFFFFFFFFFFFFFFFFFFFFFFF AND PUSH20 0xFFFFFFFFFFFFFFFFFFFFFFFFFFFFFFFFFFFFFFFF AND CALLER PUSH20 0xFFFFFFFFFFFFFFFFFFFFFFFFFFFFFFFFFFFFFFFF AND EQ PUSH2 0xF7E JUMPI PUSH1 0x40 MLOAD PUSH32 0x8C379A000000000000000000000000000000000000000000000000000000000 DUP2 MSTORE PUSH1 0x4 ADD PUSH2 0xF75 SWAP1 PUSH2 0x2230 JUMP JUMPDEST PUSH1 0x40 MLOAD DUP1 SWAP2 SUB SWAP1 REVERT JUMPDEST PUSH1 0x1 PUSH1 0x5 PUSH1 0x0 PUSH2 0x100 EXP DUP2 SLOAD DUP2 PUSH1 0xFF MUL NOT AND SWAP1 DUP4 ISZERO ISZERO MUL OR SWAP1 SSTORE POP JUMP JUMPDEST PUSH1 0x60 PUSH1 0x0 SLOAD DUP3 LT PUSH2 0xFE1 JUMPI PUSH1 0x40 MLOAD PUSH32 0x8C379A000000000000000000000000000000000000000000000000000000000 DUP2 MSTORE PUSH1 0x4 ADD PUSH2 0xFD8 SWAP1 PUSH2 0x229C JUMP JUMPDEST PUSH1 0x40 MLOAD DUP1 SWAP2 SUB SWAP1 REVERT JUMPDEST PUSH1 0x1 PUSH1 0x0 PUSH1 0x6 SLOAD DUP2 MSTORE PUSH1 0x20 ADD SWAP1 DUP2 MSTORE PUSH1 0x20 ADD PUSH1 0x0 KECCAK256 PUSH1 0x0 DUP4 DUP2 MSTORE PUSH1 0x20 ADD SWAP1 DUP2 MSTORE PUSH1 0x20 ADD PUSH1 0x0 KECCAK256 PUSH1 0x0 ADD DUP1 SLOAD PUSH2 0x1015 SWAP1 PUSH2 0x1D5F JUMP JUMPDEST DUP1 PUSH1 0x1F ADD PUSH1 0x20 DUP1 SWAP2 DIV MUL PUSH1 0x20 ADD PUSH1 0x40 MLOAD SWAP1 DUP2 ADD PUSH1 0x40 MSTORE DUP1 SWAP3 SWAP2 SWAP1 DUP2 DUP2 MSTORE PUSH1 0x20 ADD DUP3 DUP1 SLOAD PUSH2 0x1041 SWAP1 PUSH2 0x1D5F JUMP JUMPDEST DUP1 ISZERO PUSH2 0x108E JUMPI DUP1 PUSH1 0x1F LT PUSH2 0x1063 JUMPI PUSH2 0x100 DUP1 DUP4 SLOAD DIV MUL DUP4 MSTORE SWAP2 PUSH1 0x20 ADD SWAP2 PUSH2 0x108E JUMP JUMPDEST DUP3 ADD SWAP2 SWAP1 PUSH1 0x0 MSTORE PUSH1 0x20 PUSH1 0x0 KECCAK256 SWAP1 JUMPDEST DUP2 SLOAD DUP2 MSTORE SWAP1 PUSH1 0x1 ADD SWAP1 PUSH1 0x20 ADD DUP1 DUP4 GT PUSH2 0x1071 JUMPI DUP3 SWAP1 SUB PUSH1 0x1F AND DUP3 ADD SWAP2 JUMPDEST POP POP POP POP POP SWAP1 POP SWAP2 SWAP1 POP JUMP JUMPDEST PUSH1 0x60 PUSH1 0x0 DUP1 SLOAD PUSH8 0xFFFFFFFFFFFFFFFF DUP2 GT ISZERO PUSH2 0x10B9 JUMPI PUSH2 0x10B8 PUSH2 0x131C JUMP JUMPDEST JUMPDEST PUSH1 0x40 MLOAD SWAP1 DUP1 DUP3 MSTORE DUP1 PUSH1 0x20 MUL PUSH1 0x20 ADD DUP3 ADD PUSH1 0x40 MSTORE DUP1 ISZERO PUSH2 0x10F2 JUMPI DUP2 PUSH1 0x20 ADD JUMPDEST PUSH2 0x10DF PUSH2 0x124B JUMP JUMPDEST DUP2 MSTORE PUSH1 0x20 ADD SWAP1 PUSH1 0x1 SWAP1 SUB SWAP1 DUP2 PUSH2 0x10D7 JUMPI SWAP1 POP JUMPDEST POP SWAP1 POP PUSH1 0x0 JUMPDEST PUSH1 0x0 SLOAD DUP2 LT ISZERO PUSH2 0x1200 JUMPI PUSH1 0x1 PUSH1 0x0 PUSH1 0x6 SLOAD DUP2 MSTORE PUSH1 0x20 ADD SWAP1 DUP2 MSTORE PUSH1 0x20 ADD PUSH1 0x0 KECCAK256 PUSH1 0x0 DUP3 DUP2 MSTORE PUSH1 0x20 ADD SWAP1 DUP2 MSTORE PUSH1 0x20 ADD PUSH1 0x0 KECCAK256 PUSH1 0x40 MLOAD DUP1 PUSH1 0x40 ADD PUSH1 0x40 MSTORE SWAP1 DUP2 PUSH1 0x0 DUP3 ADD DUP1 SLOAD PUSH2 0x1143 SWAP1 PUSH2 0x1D5F JUMP JUMPDEST DUP1 PUSH1 0x1F ADD PUSH1 0x20 DUP1 SWAP2 DIV MUL PUSH1 0x20 ADD PUSH1 0x40 MLOAD SWAP1 DUP2 ADD PUSH1 0x40 MSTORE DUP1 SWAP3 SWAP2 SWAP1 DUP2 DUP2 MSTORE PUSH1 0x20 ADD DUP3 DUP1 SLOAD PUSH2 0x116F SWAP1 PUSH2 0x1D5F JUMP JUMPDEST DUP1 ISZERO PUSH2 0x11BC JUMPI DUP1 PUSH1 0x1F LT PUSH2 0x1191 JUMPI PUSH2 0x100 DUP1 DUP4 SLOAD DIV MUL DUP4 MSTORE SWAP2 PUSH1 0x20 ADD SWAP2 PUSH2 0x11BC JUMP JUMPDEST DUP3 ADD SWAP2 SWAP1 PUSH1 0x0 MSTORE PUSH1 0x20 PUSH1 0x0 KECCAK256 SWAP1 JUMPDEST DUP2 SLOAD DUP2 MSTORE SWAP1 PUSH1 0x1 ADD SWAP1 PUSH1 0x20 ADD DUP1 DUP4 GT PUSH2 0x119F JUMPI DUP3 SWAP1 SUB PUSH1 0x1F AND DUP3 ADD SWAP2 JUMPDEST POP POP POP POP POP DUP2 MSTORE PUSH1 0x20 ADD PUSH1 0x1 DUP3 ADD SLOAD DUP2 MSTORE POP POP DUP3 DUP3 DUP2 MLOAD DUP2 LT PUSH2 0x11E2 JUMPI PUSH2 0x11E1 PUSH2 0x1D01 JUMP JUMPDEST JUMPDEST PUSH1 0x20 MUL PUSH1 0x20 ADD ADD DUP2 SWAP1 MSTORE POP DUP1 DUP1 PUSH2 0x11F8 SWAP1 PUSH2 0x1C4D JUMP JUMPDEST SWAP2 POP POP PUSH2 0x10F8 JUMP JUMPDEST POP DUP1 SWAP2 POP POP SWAP1 JUMP JUMPDEST PUSH1 0x0 PUSH32 0x0 TIMESTAMP LT DUP1 ISZERO PUSH2 0x1246 JUMPI POP PUSH1 0x5 PUSH1 0x0 SWAP1 SLOAD SWAP1 PUSH2 0x100 EXP SWAP1 DIV PUSH1 0xFF AND ISZERO JUMPDEST SWAP1 POP SWAP1 JUMP JUMPDEST PUSH1 0x40 MLOAD DUP1 PUSH1 0x40 ADD PUSH1 0x40 MSTORE DUP1 PUSH1 0x60 DUP2 MSTORE PUSH1 0x20 ADD PUSH1 0x0 DUP2 MSTORE POP SWAP1 JUMP JUMPDEST PUSH1 0x0 PUSH1 0x40 MLOAD SWAP1 POP SWAP1 JUMP JUMPDEST PUSH1 0x0 DUP1 REVERT JUMPDEST PUSH1 0x0 DUP1 REVERT JUMPDEST PUSH1 0x0 DUP2 SWAP1 POP SWAP2 SWAP1 POP JUMP JUMPDEST PUSH2 0x128C DUP2 PUSH2 0x1279 JUMP JUMPDEST DUP2 EQ PUSH2 0x1297 JUMPI PUSH1 0x0 DUP1 REVERT JUMPDEST POP JUMP JUMPDEST PUSH1 0x0 DUP2 CALLDATALOAD SWAP1 POP PUSH2 0x12A9 DUP2 PUSH2 0x1283 JUMP JUMPDEST SWAP3 SWAP2 POP POP JUMP JUMPDEST PUSH1 0x0 PUSH1 0x20 DUP3 DUP5 SUB SLT ISZERO PUSH2 0x12C5 JUMPI PUSH2 0x12C4 PUSH2 0x126F JUMP JUMPDEST JUMPDEST PUSH1 0x0 PUSH2 0x12D3 DUP5 DUP3 DUP6 ADD PUSH2 0x129A JUMP JUMPDEST SWAP2 POP POP SWAP3 SWAP2 POP POP JUMP JUMPDEST PUSH2 0x12E5 DUP2 PUSH2 0x1279 JUMP JUMPDEST DUP3 MSTORE POP POP JUMP JUMPDEST PUSH1 0x0 PUSH1 0x20 DUP3 ADD SWAP1 POP PUSH2 0x1300 PUSH1 0x0 DUP4 ADD DUP5 PUSH2 0x12DC JUMP JUMPDEST SWAP3 SWAP2 POP POP JUMP JUMPDEST PUSH1 0x0 DUP1 REVERT JUMPDEST PUSH1 0x0 PUSH1 0x1F NOT PUSH1 0x1F DUP4 ADD AND SWAP1 POP SWAP2 SWAP1 POP JUMP JUMPDEST PUSH32 0x4E487B7100000000000000000000000000000000000000000000000000000000 PUSH1 0x0 MSTORE PUSH1 0x41 PUSH1 0x4 MSTORE PUSH1 0x24 PUSH1 0x0 REVERT JUMPDEST PUSH2 0x1354 DUP3 PUSH2 0x130B JUMP JUMPDEST DUP2 ADD DUP2 DUP2 LT PUSH8 0xFFFFFFFFFFFFFFFF DUP3 GT OR ISZERO PUSH2 0x1373 JUMPI PUSH2 0x1372 PUSH2 0x131C JUMP JUMPDEST JUMPDEST DUP1 PUSH1 0x40 MSTORE POP POP POP JUMP JUMPDEST PUSH1 0x0 PUSH2 0x1386 PUSH2 0x1265 JUMP JUMPDEST SWAP1 POP PUSH2 0x1392 DUP3 DUP3 PUSH2 0x134B JUMP JUMPDEST SWAP2 SWAP1 POP JUMP JUMPDEST PUSH1 0x0 PUSH8 0xFFFFFFFFFFFFFFFF DUP3 GT ISZERO PUSH2 0x13B2 JUMPI PUSH2 0x13B1 PUSH2 0x131C JUMP JUMPDEST JUMPDEST PUSH1 0x20 DUP3 MUL SWAP1 POP PUSH1 0x20 DUP2 ADD SWAP1 POP SWAP2 SWAP1 POP JUMP JUMPDEST PUSH1 0x0 DUP1 REVERT JUMPDEST PUSH1 0x0 DUP1 REVERT JUMPDEST PUSH1 0x0 PUSH8 0xFFFFFFFFFFFFFFFF DUP3 GT ISZERO PUSH2 0x13E8 JUMPI PUSH2 0x13E7 PUSH2 0x131C JUMP JUMPDEST JUMPDEST PUSH2 0x13F1 DUP3 PUSH2 0x130B JUMP JUMPDEST SWAP1 POP PUSH1 0x20 DUP2 ADD SWAP1 POP SWAP2 SWAP1 POP JUMP JUMPDEST DUP3 DUP2 DUP4 CALLDATACOPY PUSH1 0x0 DUP4 DUP4 ADD MSTORE POP POP POP JUMP JUMPDEST PUSH1 0x0 PUSH2 0x1420 PUSH2 0x141B DUP5 PUSH2 0x13CD JUMP JUMPDEST PUSH2 0x137C JUMP JUMPDEST SWAP1 POP DUP3 DUP2 MSTORE PUSH1 0x20 DUP2 ADD DUP5 DUP5 DUP5 ADD GT ISZERO PUSH2 0x143C JUMPI PUSH2 0x143B PUSH2 0x13C8 JUMP JUMPDEST JUMPDEST PUSH2 0x1447 DUP5 DUP3 DUP6 PUSH2 0x13FE JUMP JUMPDEST POP SWAP4 SWAP3 POP POP POP JUMP JUMPDEST PUSH1 0x0 DUP3 PUSH1 0x1F DUP4 ADD SLT PUSH2 0x1464 JUMPI PUSH2 0x1463 PUSH2 0x1306 JUMP JUMPDEST JUMPDEST DUP2 CALLDATALOAD PUSH2 0x1474 DUP5 DUP3 PUSH1 0x20 DUP7 ADD PUSH2 0x140D JUMP JUMPDEST SWAP2 POP POP SWAP3 SWAP2 POP POP JUMP JUMPDEST PUSH1 0x0 PUSH2 0x1490 PUSH2 0x148B DUP5 PUSH2 0x1397 JUMP JUMPDEST PUSH2 0x137C JUMP JUMPDEST SWAP1 POP DUP1 DUP4 DUP3 MSTORE PUSH1 0x20 DUP3 ADD SWAP1 POP PUSH1 0x20 DUP5 MUL DUP4 ADD DUP6 DUP2 GT ISZERO PUSH2 0x14B3 JUMPI PUSH2 0x14B2 PUSH2 0x13C3 JUMP JUMPDEST JUMPDEST DUP4 JUMPDEST DUP2 DUP2 LT ISZERO PUSH2 0x14FA JUMPI DUP1 CALLDATALOAD PUSH8 0xFFFFFFFFFFFFFFFF DUP2 GT ISZERO PUSH2 0x14D8 JUMPI PUSH2 0x14D7 PUSH2 0x1306 JUMP JUMPDEST JUMPDEST DUP1 DUP7 ADD PUSH2 0x14E5 DUP10 DUP3 PUSH2 0x144F JUMP JUMPDEST DUP6 MSTORE PUSH1 0x20 DUP6 ADD SWAP5 POP POP POP PUSH1 0x20 DUP2 ADD SWAP1 POP PUSH2 0x14B5 JUMP JUMPDEST POP POP POP SWAP4 SWAP3 POP POP POP JUMP JUMPDEST PUSH1 0x0 DUP3 PUSH1 0x1F DUP4 ADD SLT PUSH2 0x1519 JUMPI PUSH2 0x1518 PUSH2 0x1306 JUMP JUMPDEST JUMPDEST DUP2 CALLDATALOAD PUSH2 0x1529 DUP5 DUP3 PUSH1 0x20 DUP7 ADD PUSH2 0x147D JUMP JUMPDEST SWAP2 POP POP SWAP3 SWAP2 POP POP JUMP JUMPDEST PUSH1 0x0 PUSH1 0x20 DUP3 DUP5 SUB SLT ISZERO PUSH2 0x1548 JUMPI PUSH2 0x1547 PUSH2 0x126F JUMP JUMPDEST JUMPDEST PUSH1 0x0 DUP3 ADD CALLDATALOAD PUSH8 0xFFFFFFFFFFFFFFFF DUP2 GT ISZERO PUSH2 0x1566 JUMPI PUSH2 0x1565 PUSH2 0x1274 JUMP JUMPDEST JUMPDEST PUSH2 0x1572 DUP5 DUP3 DUP6 ADD PUSH2 0x1504 JUMP JUMPDEST SWAP2 POP POP SWAP3 SWAP2 POP POP JUMP JUMPDEST PUSH1 0x0 PUSH20 0xFFFFFFFFFFFFFFFFFFFFFFFFFFFFFFFFFFFFFFFF DUP3 AND SWAP1 POP SWAP2 SWAP1 POP JUMP JUMPDEST PUSH1 0x0 PUSH2 0x15A6 DUP3 PUSH2 0x157B JUMP JUMPDEST SWAP1 POP SWAP2 SWAP1 POP JUMP JUMPDEST PUSH2 0x15B6 DUP2 PUSH2 0x159B JUMP JUMPDEST DUP2 EQ PUSH2 0x15C1 JUMPI PUSH1 0x0 DUP1 REVERT JUMPDEST POP JUMP JUMPDEST PUSH1 0x0 DUP2 CALLDATALOAD SWAP1 POP PUSH2 0x15D3 DUP2 PUSH2 0x15AD JUMP JUMPDEST SWAP3 SWAP2 POP POP JUMP JUMPDEST PUSH1 0x0 PUSH1 0x20 DUP3 DUP5 SUB SLT ISZERO PUSH2 0x15EF JUMPI PUSH2 0x15EE PUSH2 0x126F JUMP JUMPDEST JUMPDEST PUSH1 0x0 PUSH2 0x15FD DUP5 DUP3 DUP6 ADD PUSH2 0x15C4 JUMP JUMPDEST SWAP2 POP POP SWAP3 SWAP2 POP POP JUMP JUMPDEST PUSH1 0x0 DUP1 PUSH1 0x40 DUP4 DUP6 SUB SLT ISZERO PUSH2 0x161D JUMPI PUSH2 0x161C PUSH2 0x126F JUMP JUMPDEST JUMPDEST PUSH1 0x0 PUSH2 0x162B DUP6 DUP3 DUP7 ADD PUSH2 0x129A JUMP JUMPDEST SWAP3 POP POP PUSH1 0x20 PUSH2 0x163C DUP6 DUP3 DUP7 ADD PUSH2 0x15C4 JUMP JUMPDEST SWAP2 POP POP SWAP3 POP SWAP3 SWAP1 POP JUMP JUMPDEST PUSH1 0x0 DUP2 ISZERO ISZERO SWAP1 POP SWAP2 SWAP1 POP JUMP JUMPDEST PUSH2 0x165B DUP2 PUSH2 0x1646 JUMP JUMPDEST DUP3 MSTORE POP POP JUMP JUMPDEST PUSH1 0x0 PUSH1 0x20 DUP3 ADD SWAP1 POP PUSH2 0x1676 PUSH1 0x0 DUP4 ADD DUP5 PUSH2 0x1652 JUMP JUMPDEST SWAP3 SWAP2 POP POP JUMP JUMPDEST PUSH1 0x0 DUP1 PUSH1 0x40 DUP4 DUP6 SUB SLT ISZERO PUSH2 0x1693 JUMPI PUSH2 0x1692 PUSH2 0x126F JUMP JUMPDEST JUMPDEST PUSH1 0x0 PUSH2 0x16A1 DUP6 DUP3 DUP7 ADD PUSH2 0x129A JUMP JUMPDEST SWAP3 POP POP PUSH1 0x20 PUSH2 0x16B2 DUP6 DUP3 DUP7 ADD PUSH2 0x129A JUMP JUMPDEST SWAP2 POP POP SWAP3 POP SWAP3 SWAP1 POP JUMP JUMPDEST PUSH1 0x0 DUP2 MLOAD SWAP1 POP SWAP2 SWAP1 POP JUMP JUMPDEST PUSH1 0x0 DUP3 DUP3 MSTORE PUSH1 0x20 DUP3 ADD SWAP1 POP SWAP3 SWAP2 POP POP JUMP JUMPDEST PUSH1 0x0 JUMPDEST DUP4 DUP2 LT ISZERO PUSH2 0x16F6 JUMPI DUP1 DUP3 ADD MLOAD DUP2 DUP5 ADD MSTORE PUSH1 0x20 DUP2 ADD SWAP1 POP PUSH2 0x16DB JUMP JUMPDEST PUSH1 0x0 DUP5 DUP5 ADD MSTORE POP POP POP POP JUMP JUMPDEST PUSH1 0x0 PUSH2 0x170D DUP3 PUSH2 0x16BC JUMP JUMPDEST PUSH2 0x1717 DUP2 DUP6 PUSH2 0x16C7 JUMP JUMPDEST SWAP4 POP PUSH2 0x1727 DUP2 DUP6 PUSH1 0x20 DUP7 ADD PUSH2 0x16D8 JUMP JUMPDEST PUSH2 0x1730 DUP2 PUSH2 0x130B JUMP JUMPDEST DUP5 ADD SWAP2 POP POP SWAP3 SWAP2 POP POP JUMP JUMPDEST PUSH1 0x0 PUSH1 0x40 DUP3 ADD SWAP1 POP DUP2 DUP2 SUB PUSH1 0x0 DUP4 ADD MSTORE PUSH2 0x1755 DUP2 DUP6 PUSH2 0x1702 JUMP JUMPDEST SWAP1 POP PUSH2 0x1764 PUSH1 0x20 DUP4 ADD DUP5 PUSH2 0x12DC JUMP JUMPDEST SWAP4 SWAP3 POP POP POP JUMP JUMPDEST PUSH1 0x0 DUP2 MLOAD SWAP1 POP SWAP2 SWAP1 POP JUMP JUMPDEST PUSH1 0x0 DUP3 DUP3 MSTORE PUSH1 0x20 DUP3 ADD SWAP1 POP SWAP3 SWAP2 POP POP JUMP JUMPDEST PUSH1 0x0 DUP2 SWAP1 POP PUSH1 0x20 DUP3 ADD SWAP1 POP SWAP2 SWAP1 POP JUMP JUMPDEST PUSH2 0x17A0 DUP2 PUSH2 0x1279 JUMP JUMPDEST DUP3 MSTORE POP POP JUMP JUMPDEST PUSH1 0x0 PUSH2 0x17B2 DUP4 DUP4 PUSH2 0x1797 JUMP JUMPDEST PUSH1 0x20 DUP4 ADD SWAP1 POP SWAP3 SWAP2 POP POP JUMP JUMPDEST PUSH1 0x0 PUSH1 0x20 DUP3 ADD SWAP1 POP SWAP2 SWAP1 POP JUMP JUMPDEST PUSH1 0x0 PUSH2 0x17D6 DUP3 PUSH2 0x176B JUMP JUMPDEST PUSH2 0x17E0 DUP2 DUP6 PUSH2 0x1776 JUMP JUMPDEST SWAP4 POP PUSH2 0x17EB DUP4 PUSH2 0x1787 JUMP JUMPDEST DUP1 PUSH1 0x0 JUMPDEST DUP4 DUP2 LT ISZERO PUSH2 0x181C JUMPI DUP2 MLOAD PUSH2 0x1803 DUP9 DUP3 PUSH2 0x17A6 JUMP JUMPDEST SWAP8 POP PUSH2 0x180E DUP4 PUSH2 0x17BE JUMP JUMPDEST SWAP3 POP POP PUSH1 0x1 DUP2 ADD SWAP1 POP PUSH2 0x17EF JUMP JUMPDEST POP DUP6 SWAP4 POP POP POP POP SWAP3 SWAP2 POP POP JUMP JUMPDEST PUSH1 0x0 PUSH1 0x20 DUP3 ADD SWAP1 POP DUP2 DUP2 SUB PUSH1 0x0 DUP4 ADD MSTORE PUSH2 0x1843 DUP2 DUP5 PUSH2 0x17CB JUMP JUMPDEST SWAP1 POP SWAP3 SWAP2 POP POP JUMP JUMPDEST PUSH2 0x1854 DUP2 PUSH2 0x159B JUMP JUMPDEST DUP3 MSTORE POP POP JUMP JUMPDEST PUSH1 0x0 PUSH1 0x20 DUP3 ADD SWAP1 POP PUSH2 0x186F PUSH1 0x0 DUP4 ADD DUP5 PUSH2 0x184B JUMP JUMPDEST SWAP3 SWAP2 POP POP JUMP JUMPDEST PUSH1 0x0 PUSH1 0x20 DUP3 ADD SWAP1 POP DUP2 DUP2 SUB PUSH1 0x0 DUP4 ADD MSTORE PUSH2 0x188F DUP2 DUP5 PUSH2 0x1702 JUMP JUMPDEST SWAP1 POP SWAP3 SWAP2 POP POP JUMP JUMPDEST PUSH1 0x0 DUP2 MLOAD SWAP1 POP SWAP2 SWAP1 POP JUMP JUMPDEST PUSH1 0x0 DUP3 DUP3 MSTORE PUSH1 0x20 DUP3 ADD SWAP1 POP SWAP3 SWAP2 POP POP JUMP JUMPDEST PUSH1 0x0 DUP2 SWAP1 POP PUSH1 0x20 DUP3 ADD SWAP1 POP SWAP2 SWAP1 POP JUMP JUMPDEST PUSH1 0x0 DUP3 DUP3 MSTORE PUSH1 0x20 DUP3 ADD SWAP1 POP SWAP3 SWAP2 POP POP JUMP JUMPDEST PUSH1 0x0 PUSH2 0x18DF DUP3 PUSH2 0x16BC JUMP JUMPDEST PUSH2 0x18E9 DUP2 DUP6 PUSH2 0x18C3 JUMP JUMPDEST SWAP4 POP PUSH2 0x18F9 DUP2 DUP6 PUSH1 0x20 DUP7 ADD PUSH2 0x16D8 JUMP JUMPDEST PUSH2 0x1902 DUP2 PUSH2 0x130B JUMP JUMPDEST DUP5 ADD SWAP2 POP POP SWAP3 SWAP2 POP POP JUMP JUMPDEST PUSH1 0x0 PUSH1 0x40 DUP4 ADD PUSH1 0x0 DUP4 ADD MLOAD DUP5 DUP3 SUB PUSH1 0x0 DUP7 ADD MSTORE PUSH2 0x192A DUP3 DUP3 PUSH2 0x18D4 JUMP JUMPDEST SWAP2 POP POP PUSH1 0x20 DUP4 ADD MLOAD PUSH2 0x193F PUSH1 0x20 DUP7 ADD DUP3 PUSH2 0x1797 JUMP JUMPDEST POP DUP1 SWAP2 POP POP SWAP3 SWAP2 POP POP JUMP JUMPDEST PUSH1 0x0 PUSH2 0x1956 DUP4 DUP4 PUSH2 0x190D JUMP JUMPDEST SWAP1 POP SWAP3 SWAP2 POP POP JUMP JUMPDEST PUSH1 0x0 PUSH1 0x20 DUP3 ADD SWAP1 POP SWAP2 SWAP1 POP JUMP JUMPDEST PUSH1 0x0 PUSH2 0x1976 DUP3 PUSH2 0x1897 JUMP JUMPDEST PUSH2 0x1980 DUP2 DUP6 PUSH2 0x18A2 JUMP JUMPDEST SWAP4 POP DUP4 PUSH1 0x20 DUP3 MUL DUP6 ADD PUSH2 0x1992 DUP6 PUSH2 0x18B3 JUMP JUMPDEST DUP1 PUSH1 0x0 JUMPDEST DUP6 DUP2 LT ISZERO PUSH2 0x19CE JUMPI DUP5 DUP5 SUB DUP10 MSTORE DUP2 MLOAD PUSH2 0x19AF DUP6 DUP3 PUSH2 0x194A JUMP JUMPDEST SWAP5 POP PUSH2 0x19BA DUP4 PUSH2 0x195E JUMP JUMPDEST SWAP3 POP PUSH1 0x20 DUP11 ADD SWAP10 POP POP PUSH1 0x1 DUP2 ADD SWAP1 POP PUSH2 0x1996 JUMP JUMPDEST POP DUP3 SWAP8 POP DUP8 SWAP6 POP POP POP POP POP POP SWAP3 SWAP2 POP POP JUMP JUMPDEST PUSH1 0x0 PUSH1 0x20 DUP3 ADD SWAP1 POP DUP2 DUP2 SUB PUSH1 0x0 DUP4 ADD MSTORE PUSH2 0x19FA DUP2 DUP5 PUSH2 0x196B JUMP JUMPDEST SWAP1 POP SWAP3 SWAP2 POP POP JUMP JUMPDEST PUSH32 0x496E76616C69642063616E646964617465206964000000000000000000000000 PUSH1 0x0 DUP3 ADD MSTORE POP JUMP JUMPDEST PUSH1 0x0 PUSH2 0x1A38 PUSH1 0x14 DUP4 PUSH2 0x16C7 JUMP JUMPDEST SWAP2 POP PUSH2 0x1A43 DUP3 PUSH2 0x1A02 JUMP JUMPDEST PUSH1 0x20 DUP3 ADD SWAP1 POP SWAP2 SWAP1 POP JUMP JUMPDEST PUSH1 0x0 PUSH1 0x20 DUP3 ADD SWAP1 POP DUP2 DUP2 SUB PUSH1 0x0 DUP4 ADD MSTORE PUSH2 0x1A67 DUP2 PUSH2 0x1A2B JUMP JUMPDEST SWAP1 POP SWAP2 SWAP1 POP JUMP JUMPDEST PUSH32 0x566F74696E67206973206E6F74206F70656E0000000000000000000000000000 PUSH1 0x0 DUP3 ADD MSTORE POP JUMP JUMPDEST PUSH1 0x0 PUSH2 0x1AA4 PUSH1 0x12 DUP4 PUSH2 0x16C7 JUMP JUMPDEST SWAP2 POP PUSH2 0x1AAF DUP3 PUSH2 0x1A6E JUMP JUMPDEST PUSH1 0x20 DUP3 ADD SWAP1 POP SWAP2 SWAP1 POP JUMP JUMPDEST PUSH1 0x0 PUSH1 0x20 DUP3 ADD SWAP1 POP DUP2 DUP2 SUB PUSH1 0x0 DUP4 ADD MSTORE PUSH2 0x1AD3 DUP2 PUSH2 0x1A97 JUMP JUMPDEST SWAP1 POP SWAP2 SWAP1 POP JUMP JUMPDEST PUSH32 0x796F7520617265206E6F74207265676973746572656420746F20766F74650000 PUSH1 0x0 DUP3 ADD MSTORE POP JUMP JUMPDEST PUSH1 0x0 PUSH2 0x1B10 PUSH1 0x1E DUP4 PUSH2 0x16C7 JUMP JUMPDEST SWAP2 POP PUSH2 0x1B1B DUP3 PUSH2 0x1ADA JUMP JUMPDEST PUSH1 0x20 DUP3 ADD SWAP1 POP SWAP2 SWAP1 POP JUMP JUMPDEST PUSH1 0x0 PUSH1 0x20 DUP3 ADD SWAP1 POP DUP2 DUP2 SUB PUSH1 0x0 DUP4 ADD MSTORE PUSH2 0x1B3F DUP2 PUSH2 0x1B03 JUMP JUMPDEST SWAP1 POP SWAP2 SWAP1 POP JUMP JUMPDEST PUSH32 0x416C726561647920566F74656400000000000000000000000000000000000000 PUSH1 0x0 DUP3 ADD MSTORE POP JUMP JUMPDEST PUSH1 0x0 PUSH2 0x1B7C PUSH1 0xD DUP4 PUSH2 0x16C7 JUMP JUMPDEST SWAP2 POP PUSH2 0x1B87 DUP3 PUSH2 0x1B46 JUMP JUMPDEST PUSH1 0x20 DUP3 ADD SWAP1 POP SWAP2 SWAP1 POP JUMP JUMPDEST PUSH1 0x0 PUSH1 0x20 DUP3 ADD SWAP1 POP DUP2 DUP2 SUB PUSH1 0x0 DUP4 ADD MSTORE PUSH2 0x1BAB DUP2 PUSH2 0x1B6F JUMP JUMPDEST SWAP1 POP SWAP2 SWAP1 POP JUMP JUMPDEST PUSH32 0x4D617820766F7465727320726561636865640000000000000000000000000000 PUSH1 0x0 DUP3 ADD MSTORE POP JUMP JUMPDEST PUSH1 0x0 PUSH2 0x1BE8 PUSH1 0x12 DUP4 PUSH2 0x16C7 JUMP JUMPDEST SWAP2 POP PUSH2 0x1BF3 DUP3 PUSH2 0x1BB2 JUMP JUMPDEST PUSH1 0x20 DUP3 ADD SWAP1 POP SWAP2 SWAP1 POP JUMP JUMPDEST PUSH1 0x0 PUSH1 0x20 DUP3 ADD SWAP1 POP DUP2 DUP2 SUB PUSH1 0x0 DUP4 ADD MSTORE PUSH2 0x1C17 DUP2 PUSH2 0x1BDB JUMP JUMPDEST SWAP1 POP SWAP2 SWAP1 POP JUMP JUMPDEST PUSH32 0x4E487B7100000000000000000000000000000000000000000000000000000000 PUSH1 0x0 MSTORE PUSH1 0x11 PUSH1 0x4 MSTORE PUSH1 0x24 PUSH1 0x0 REVERT JUMPDEST PUSH1 0x0 PUSH2 0x1C58 DUP3 PUSH2 0x1279 JUMP JUMPDEST SWAP2 POP PUSH32 0xFFFFFFFFFFFFFFFFFFFFFFFFFFFFFFFFFFFFFFFFFFFFFFFFFFFFFFFFFFFFFFFF DUP3 SUB PUSH2 0x1C8A JUMPI PUSH2 0x1C89 PUSH2 0x1C1E JUMP JUMPDEST JUMPDEST PUSH1 0x1 DUP3 ADD SWAP1 POP SWAP2 SWAP1 POP JUMP JUMPDEST PUSH32 0x6F6E6C79206F776E65722063616E20726573657420656C656374696F6E000000 PUSH1 0x0 DUP3 ADD MSTORE POP JUMP JUMPDEST PUSH1 0x0 PUSH2 0x1CCB PUSH1 0x1D DUP4 PUSH2 0x16C7 JUMP JUMPDEST SWAP2 POP PUSH2 0x1CD6 DUP3 PUSH2 0x1C95 JUMP JUMPDEST PUSH1 0x20 DUP3 ADD SWAP1 POP SWAP2 SWAP1 POP JUMP JUMPDEST PUSH1 0x0 PUSH1 0x20 DUP3 ADD SWAP1 POP DUP2 DUP2 SUB PUSH1 0x0 DUP4 ADD MSTORE PUSH2 0x1CFA DUP2 PUSH2 0x1CBE JUMP JUMPDEST SWAP1 POP SWAP2 SWAP1 POP JUMP JUMPDEST PUSH32 0x4E487B7100000000000000000000000000000000000000000000000000000000 PUSH1 0x0 MSTORE PUSH1 0x32 PUSH1 0x4 MSTORE PUSH1 0x24 PUSH1 0x0 REVERT JUMPDEST PUSH32 0x4E487B7100000000000000000000000000000000000000000000000000000000 PUSH1 0x0 MSTORE PUSH1 0x22 PUSH1 0x4 MSTORE PUSH1 0x24 PUSH1 0x0 REVERT JUMPDEST PUSH1 0x0 PUSH1 0x2 DUP3 DIV SWAP1 POP PUSH1 0x1 DUP3 AND DUP1 PUSH2 0x1D77 JUMPI PUSH1 0x7F DUP3 AND SWAP2 POP JUMPDEST PUSH1 0x20 DUP3 LT DUP2 SUB PUSH2 0x1D8A JUMPI PUSH2 0x1D89 PUSH2 0x1D30 JUMP JUMPDEST JUMPDEST POP SWAP2 SWAP1 POP JUMP JUMPDEST PUSH1 0x0 DUP2 SWAP1 POP DUP2 PUSH1 0x0 MSTORE PUSH1 0x20 PUSH1 0x0 KECCAK256 SWAP1 POP SWAP2 SWAP1 POP JUMP JUMPDEST PUSH1 0x0 PUSH1 0x20 PUSH1 0x1F DUP4 ADD DIV SWAP1 POP SWAP2 SWAP1 POP JUMP JUMPDEST PUSH1 0x0 DUP3 DUP3 SHL SWAP1 POP SWAP3 SWAP2 POP POP JUMP JUMPDEST PUSH1 0x0 PUSH1 0x8 DUP4 MUL PUSH2 0x1DF2 PUSH32 0xFFFFFFFFFFFFFFFFFFFFFFFFFFFFFFFFFFFFFFFFFFFFFFFFFFFFFFFFFFFFFFFF DUP3 PUSH2 0x1DB5 JUMP JUMPDEST PUSH2 0x1DFC DUP7 DUP4 PUSH2 0x1DB5 JUMP JUMPDEST SWAP6 POP DUP1 NOT DUP5 AND SWAP4 POP DUP1 DUP7 AND DUP5 OR SWAP3 POP POP POP SWAP4 SWAP3 POP POP POP JUMP JUMPDEST PUSH1 0x0 DUP2 SWAP1 POP SWAP2 SWAP1 POP JUMP JUMPDEST PUSH1 0x0 PUSH2 0x1E39 PUSH2 0x1E34 PUSH2 0x1E2F DUP5 PUSH2 0x1279 JUMP JUMPDEST PUSH2 0x1E14 JUMP JUMPDEST PUSH2 0x1279 JUMP JUMPDEST SWAP1 POP SWAP2 SWAP1 POP JUMP JUMPDEST PUSH1 0x0 DUP2 SWAP1 POP SWAP2 SWAP1 POP JUMP JUMPDEST PUSH2 0x1E53 DUP4 PUSH2 0x1E1E JUMP JUMPDEST PUSH2 0x1E67 PUSH2 0x1E5F DUP3 PUSH2 0x1E40 JUMP JUMPDEST DUP5 DUP5 SLOAD PUSH2 0x1DC2 JUMP JUMPDEST DUP3 SSTORE POP POP POP POP JUMP JUMPDEST PUSH1 0x0 SWAP1 JUMP JUMPDEST PUSH2 0x1E7C PUSH2 0x1E6F JUMP JUMPDEST PUSH2 0x1E87 DUP2 DUP5 DUP5 PUSH2 0x1E4A JUMP JUMPDEST POP POP POP JUMP JUMPDEST JUMPDEST DUP2 DUP2 LT ISZERO PUSH2 0x1EAB JUMPI PUSH2 0x1EA0 PUSH1 0x0 DUP3 PUSH2 0x1E74 JUMP JUMPDEST PUSH1 0x1 DUP2 ADD SWAP1 POP PUSH2 0x1E8D JUMP JUMPDEST POP POP JUMP JUMPDEST PUSH1 0x1F DUP3 GT ISZERO PUSH2 0x1EF0 JUMPI PUSH2 0x1EC1 DUP2 PUSH2 0x1D90 JUMP JUMPDEST PUSH2 0x1ECA DUP5 PUSH2 0x1DA5 JUMP JUMPDEST DUP2 ADD PUSH1 0x20 DUP6 LT ISZERO PUSH2 0x1ED9 JUMPI DUP2 SWAP1 POP JUMPDEST PUSH2 0x1EED PUSH2 0x1EE5 DUP6 PUSH2 0x1DA5 JUMP JUMPDEST DUP4 ADD DUP3 PUSH2 0x1E8C JUMP JUMPDEST POP POP JUMPDEST POP POP POP JUMP JUMPDEST PUSH1 0x0 DUP3 DUP3 SHR SWAP1 POP SWAP3 SWAP2 POP POP JUMP JUMPDEST PUSH1 0x0 PUSH2 0x1F13 PUSH1 0x0 NOT DUP5 PUSH1 0x8 MUL PUSH2 0x1EF5 JUMP JUMPDEST NOT DUP1 DUP4 AND SWAP2 POP POP SWAP3 SWAP2 POP POP JUMP JUMPDEST PUSH1 0x0 PUSH2 0x1F2C DUP4 DUP4 PUSH2 0x1F02 JUMP JUMPDEST SWAP2 POP DUP3 PUSH1 0x2 MUL DUP3 OR SWAP1 POP SWAP3 SWAP2 POP POP JUMP JUMPDEST PUSH2 0x1F45 DUP3 PUSH2 0x16BC JUMP JUMPDEST PUSH8 0xFFFFFFFFFFFFFFFF DUP2 GT ISZERO PUSH2 0x1F5E JUMPI PUSH2 0x1F5D PUSH2 0x131C JUMP JUMPDEST JUMPDEST PUSH2 0x1F68 DUP3 SLOAD PUSH2 0x1D5F JUMP JUMPDEST PUSH2 0x1F73 DUP3 DUP3 DUP6 PUSH2 0x1EAF JUMP JUMPDEST PUSH1 0x0 PUSH1 0x20 SWAP1 POP PUSH1 0x1F DUP4 GT PUSH1 0x1 DUP2 EQ PUSH2 0x1FA6 JUMPI PUSH1 0x0 DUP5 ISZERO PUSH2 0x1F94 JUMPI DUP3 DUP8 ADD MLOAD SWAP1 POP JUMPDEST PUSH2 0x1F9E DUP6 DUP3 PUSH2 0x1F20 JUMP JUMPDEST DUP7 SSTORE POP PUSH2 0x2006 JUMP JUMPDEST PUSH1 0x1F NOT DUP5 AND PUSH2 0x1FB4 DUP7 PUSH2 0x1D90 JUMP JUMPDEST PUSH1 0x0 JUMPDEST DUP3 DUP2 LT ISZERO PUSH2 0x1FDC JUMPI DUP5 DUP10 ADD MLOAD DUP3 SSTORE PUSH1 0x1 DUP3 ADD SWAP2 POP PUSH1 0x20 DUP6 ADD SWAP5 POP PUSH1 0x20 DUP2 ADD SWAP1 POP PUSH2 0x1FB7 JUMP JUMPDEST DUP7 DUP4 LT ISZERO PUSH2 0x1FF9 JUMPI DUP5 DUP10 ADD MLOAD PUSH2 0x1FF5 PUSH1 0x1F DUP10 AND DUP3 PUSH2 0x1F02 JUMP JUMPDEST DUP4 SSTORE POP JUMPDEST PUSH1 0x1 PUSH1 0x2 DUP9 MUL ADD DUP9 SSTORE POP POP POP JUMPDEST POP POP POP POP POP POP JUMP JUMPDEST PUSH32 0x6F6E6C79206F776E65722063616E207265676973746572206120766F74657200 PUSH1 0x0 DUP3 ADD MSTORE POP JUMP JUMPDEST PUSH1 0x0 PUSH2 0x2044 PUSH1 0x1F DUP4 PUSH2 0x16C7 JUMP JUMPDEST SWAP2 POP PUSH2 0x204F DUP3 PUSH2 0x200E JUMP JUMPDEST PUSH1 0x20 DUP3 ADD SWAP1 POP SWAP2 SWAP1 POP JUMP JUMPDEST PUSH1 0x0 PUSH1 0x20 DUP3 ADD SWAP1 POP DUP2 DUP2 SUB PUSH1 0x0 DUP4 ADD MSTORE PUSH2 0x2073 DUP2 PUSH2 0x2037 JUMP JUMPDEST SWAP1 POP SWAP2 SWAP1 POP JUMP JUMPDEST PUSH32 0x616C726561647920726567697374657265640000000000000000000000000000 PUSH1 0x0 DUP3 ADD MSTORE POP JUMP JUMPDEST PUSH1 0x0 PUSH2 0x20B0 PUSH1 0x12 DUP4 PUSH2 0x16C7 JUMP JUMPDEST SWAP2 POP PUSH2 0x20BB DUP3 PUSH2 0x207A JUMP JUMPDEST PUSH1 0x20 DUP3 ADD SWAP1 POP SWAP2 SWAP1 POP JUMP JUMPDEST PUSH1 0x0 PUSH1 0x20 DUP3 ADD SWAP1 POP DUP2 DUP2 SUB PUSH1 0x0 DUP4 ADD MSTORE PUSH2 0x20DF DUP2 PUSH2 0x20A3 JUMP JUMPDEST SWAP1 POP SWAP2 SWAP1 POP JUMP JUMPDEST PUSH32 0x496E76616C69642043616E646964617465000000000000000000000000000000 PUSH1 0x0 DUP3 ADD MSTORE POP JUMP JUMPDEST PUSH1 0x0 PUSH2 0x211C PUSH1 0x11 DUP4 PUSH2 0x16C7 JUMP JUMPDEST SWAP2 POP PUSH2 0x2127 DUP3 PUSH2 0x20E6 JUMP JUMPDEST PUSH1 0x20 DUP3 ADD SWAP1 POP SWAP2 SWAP1 POP JUMP JUMPDEST PUSH1 0x0 PUSH1 0x20 DUP3 ADD SWAP1 POP DUP2 DUP2 SUB PUSH1 0x0 DUP4 ADD MSTORE PUSH2 0x214B DUP2 PUSH2 0x210F JUMP JUMPDEST SWAP1 POP SWAP2 SWAP1 POP JUMP JUMPDEST PUSH32 0x697420697320616C726561647920636C6F736500000000000000000000000000 PUSH1 0x0 DUP3 ADD MSTORE POP JUMP JUMPDEST PUSH1 0x0 PUSH2 0x2188 PUSH1 0x13 DUP4 PUSH2 0x16C7 JUMP JUMPDEST SWAP2 POP PUSH2 0x2193 DUP3 PUSH2 0x2152 JUMP JUMPDEST PUSH1 0x20 DUP3 ADD SWAP1 POP SWAP2 SWAP1 POP JUMP JUMPDEST PUSH1 0x0 PUSH1 0x20 DUP3 ADD SWAP1 POP DUP2 DUP2 SUB PUSH1 0x0 DUP4 ADD MSTORE PUSH2 0x21B7 DUP2 PUSH2 0x217B JUMP JUMPDEST SWAP1 POP SWAP2 SWAP1 POP JUMP JUMPDEST PUSH32 0x6F6E6C7920746865206F776E65722063616E20636C6F73652074686520766F74 PUSH1 0x0 DUP3 ADD MSTORE PUSH32 0x696E672073797374656D00000000000000000000000000000000000000000000 PUSH1 0x20 DUP3 ADD MSTORE POP JUMP JUMPDEST PUSH1 0x0 PUSH2 0x221A PUSH1 0x2A DUP4 PUSH2 0x16C7 JUMP JUMPDEST SWAP2 POP PUSH2 0x2225 DUP3 PUSH2 0x21BE JUMP JUMPDEST PUSH1 0x40 DUP3 ADD SWAP1 POP SWAP2 SWAP1 POP JUMP JUMPDEST PUSH1 0x0 PUSH1 0x20 DUP3 ADD SWAP1 POP DUP2 DUP2 SUB PUSH1 0x0 DUP4 ADD MSTORE PUSH2 0x2249 DUP2 PUSH2 0x220D JUMP JUMPDEST SWAP1 POP SWAP2 SWAP1 POP JUMP JUMPDEST PUSH32 0x696E76616C69642063616E646964617465204944000000000000000000000000 PUSH1 0x0 DUP3 ADD MSTORE POP JUMP JUMPDEST PUSH1 0x0 PUSH2 0x2286 PUSH1 0x14 DUP4 PUSH2 0x16C7 JUMP JUMPDEST SWAP2 POP PUSH2 0x2291 DUP3 PUSH2 0x2250 JUMP JUMPDEST PUSH1 0x20 DUP3 ADD SWAP1 POP SWAP2 SWAP1 POP JUMP JUMPDEST PUSH1 0x0 PUSH1 0x20 DUP3 ADD SWAP1 POP DUP2 DUP2 SUB PUSH1 0x0 DUP4 ADD MSTORE PUSH2 0x22B5 DUP2 PUSH2 0x2279 JUMP JUMPDEST SWAP1 POP SWAP2 SWAP1 POP JUMP INVALID LOG2 PUSH5 0x6970667358 0x22 SLT KECCAK256 SSTORE PC 0xCF EXP SHL PUSH7 0x30BB281F05C14C 0xCA DUP14 OR 0xDE PUSH26 0x3C91CDCE52C3D071C9D384C852E464736F6C6343000810003300 "
				},
				"gasEstimates": {
					"creation": {
						"codeDepositCost": "1789200",
						"executionCost": "infinite",
						"totalCost": "infinite"
					},
					"external": {
						"MAX_VOTERS()": "352",
						"candidates(uint256,uint256)": "infinite",
						"closeVoting()": "28831",
						"electionId()": "2497",
						"getAllCandidate()": "infinite",
						"getCandidateName(uint256)": "infinite",
						"getResult(uint256)": "infinite",
						"getTiedWinners()": "infinite",
						"getWinner()": "infinite",
						"hasVoted(uint256,address)": "3132",
						"isClosed()": "2493",
						"isRegistered(uint256,address)": "3198",
						"isVotingOpen()": "infinite",
						"numCandidates()": "2518",
						"owner()": "2609",
						"registerVoter(address)": "33746",
						"resetElection(string[])": "infinite",
						"vote(uint256)": "infinite",
						"voteCount(uint256)": "infinite",
						"votingDeadline()": "infinite"
					}
				},
				"methodIdentifiers": {
					"MAX_VOTERS()": "3ceed692",
					"candidates(uint256,uint256)": "7de14242",
					"closeVoting()": "c631b292",
					"electionId()": "051364d4",
					"getAllCandidate()": "efd5297c",
					"getCandidateName(uint256)": "e13804a7",
					"getResult(uint256)": "995e4339",
					"getTiedWinners()": "87cb7877",
					"getWinner()": "8e7ea5b2",
					"hasVoted(uint256,address)": "43859632",
					"isClosed()": "c2b6b58c",
					"isRegistered(uint256,address)": "b81f6e18",
					"isVotingOpen()": "fa7f1bae",
					"numCandidates()": "5216509a",
					"owner()": "8da5cb5b",
					"registerVoter(address)": "38db6dd3",
					"resetElection(string[])": "29fe4047",
					"vote(uint256)": "0121b93f",
					"voteCount(uint256)": "4fc8a20d",
					"votingDeadline()": "036ee850"
				}
			},
			"storageLayout": {
				"storage": [
					{
						"astId": 9,
						"contract": "Contracts/votingSystem.sol:votingSystem",
						"label": "numCandidates",
						"offset": 0,
						"slot": "0",
						"type": "t_uint256"
					},
					{
						"astId": 16,
						"contract": "Contracts/votingSystem.sol:votingSystem",
						"label": "candidates",
						"offset": 0,
						"slot": "1",
						"type": "t_mapping(t_uint256,t_mapping(t_uint256,t_struct(Candidate)48_storage))"
					},
					{
						"astId": 22,
						"contract": "Contracts/votingSystem.sol:votingSystem",
						"label": "isRegistered",
						"offset": 0,
						"slot": "2",
						"type": "t_mapping(t_uint256,t_mapping(t_address,t_bool))"
					},
					{
						"astId": 28,
						"contract": "Contracts/votingSystem.sol:votingSystem",
						"label": "hasVoted",
						"offset": 0,
						"slot": "3",
						"type": "t_mapping(t_uint256,t_mapping(t_address,t_bool))"
					},
					{
						"astId": 32,
						"contract": "Contracts/votingSystem.sol:votingSystem",
						"label": "voteCount",
						"offset": 0,
						"slot": "4",
						"type": "t_mapping(t_uint256,t_uint256)"
					},
					{
						"astId": 39,
						"contract": "Contracts/votingSystem.sol:votingSystem",
						"label": "isClosed",
						"offset": 0,
						"slot": "5",
						"type": "t_bool"
					},
					{
						"astId": 41,
						"contract": "Contracts/votingSystem.sol:votingSystem",
						"label": "owner",
						"offset": 1,
						"slot": "5",
						"type": "t_address"
					},
					{
						"astId": 43,
						"contract": "Contracts/votingSystem.sol:votingSystem",
						"label": "electionId",
						"offset": 0,
						"slot": "6",
						"type": "t_uint256"
					}
				],
				"types": {
					"t_address": {
						"encoding": "inplace",
						"label": "address",
						"numberOfBytes": "20"
					},
					"t_bool": {
						"encoding": "inplace",
						"label": "bool",
						"numberOfBytes": "1"
					},
					"t_mapping(t_address,t_bool)": {
						"encoding": "mapping",
						"key": "t_address",
						"label": "mapping(address => bool)",
						"numberOfBytes": "32",
						"value": "t_bool"
					},
					"t_mapping(t_uint256,t_mapping(t_address,t_bool))": {
						"encoding": "mapping",
						"key": "t_uint256",
						"label": "mapping(uint256 => mapping(address => bool))",
						"numberOfBytes": "32",
						"value": "t_mapping(t_address,t_bool)"
					},
					"t_mapping(t_uint256,t_mapping(t_uint256,t_struct(Candidate)48_storage))": {
						"encoding": "mapping",
						"key": "t_uint256",
						"label": "mapping(uint256 => mapping(uint256 => struct votingSystem.Candidate))",
						"numberOfBytes": "32",
						"value": "t_mapping(t_uint256,t_struct(Candidate)48_storage)"
					},
					"t_mapping(t_uint256,t_struct(Candidate)48_storage)": {
						"encoding": "mapping",
						"key": "t_uint256",
						"label": "mapping(uint256 => struct votingSystem.Candidate)",
						"numberOfBytes": "32",
						"value": "t_struct(Candidate)48_storage"
					},
					"t_mapping(t_uint256,t_uint256)": {
						"encoding": "mapping",
						"key": "t_uint256",
						"label": "mapping(uint256 => uint256)",
						"numberOfBytes": "32",
						"value": "t_uint256"
					},
					"t_string_storage": {
						"encoding": "bytes",
						"label": "string",
						"numberOfBytes": "32"
					},
					"t_struct(Candidate)48_storage": {
						"encoding": "inplace",
						"label": "struct votingSystem.Candidate",
						"members": [
							{
								"astId": 45,
								"contract": "Contracts/votingSystem.sol:votingSystem",
								"label": "name",
								"offset": 0,
								"slot": "0",
								"type": "t_string_storage"
							},
							{
								"astId": 47,
								"contract": "Contracts/votingSystem.sol:votingSystem",
								"label": "voteCount",
								"offset": 0,
								"slot": "1",
								"type": "t_uint256"
							}
						],
						"numberOfBytes": "64"
					},
					"t_uint256": {
						"encoding": "inplace",
						"label": "uint256",
						"numberOfBytes": "32"
					}
				}
			},
			"userdoc": {
				"kind": "user",
				"methods": {},
				"version": 1
			}
		}
	}
}