{
	"Contracts/votingSystem.sol": {
		"votingSystem": {
			"abi": [
				{
					"inputs": [
						{
							"internalType": "uint256",
							"name": "_numCandidates",
							"type": "uint256"
						}
					],
					"stateMutability": "nonpayable",
					"type": "constructor"
				},
				{
					"inputs": [],
					"name": "MAX_VOTERS",
					"outputs": [
						{
							"internalType": "uint256",
							"name": "",
							"type": "uint256"
						}
					],
					"stateMutability": "view",
					"type": "function"
				},
				{
					"inputs": [],
					"name": "closeVoting",
					"outputs": [],
					"stateMutability": "nonpayable",
					"type": "function"
				},
				{
					"inputs": [
						{
							"internalType": "uint256",
							"name": "candidateID",
							"type": "uint256"
						}
					],
					"name": "getResult",
					"outputs": [
						{
							"internalType": "uint256",
							"name": "",
							"type": "uint256"
						}
					],
					"stateMutability": "view",
					"type": "function"
				},
				{
					"inputs": [
						{
							"internalType": "address",
							"name": "",
							"type": "address"
						}
					],
					"name": "hasVoted",
					"outputs": [
						{
							"internalType": "bool",
							"name": "",
							"type": "bool"
						}
					],
					"stateMutability": "view",
					"type": "function"
				},
				{
					"inputs": [],
					"name": "isClosed",
					"outputs": [
						{
							"internalType": "bool",
							"name": "",
							"type": "bool"
						}
					],
					"stateMutability": "view",
					"type": "function"
				},
				{
					"inputs": [],
					"name": "isVotingOpen",
					"outputs": [
						{
							"internalType": "bool",
							"name": "",
							"type": "bool"
						}
					],
					"stateMutability": "view",
					"type": "function"
				},
				{
					"inputs": [],
					"name": "numCandidates",
					"outputs": [
						{
							"internalType": "uint256",
							"name": "",
							"type": "uint256"
						}
					],
					"stateMutability": "view",
					"type": "function"
				},
				{
					"inputs": [],
					"name": "owner",
					"outputs": [
						{
							"internalType": "address",
							"name": "",
							"type": "address"
						}
					],
					"stateMutability": "view",
					"type": "function"
				},
				{
					"inputs": [
						{
							"internalType": "uint256",
							"name": "candidateID",
							"type": "uint256"
						}
					],
					"name": "vote",
					"outputs": [],
					"stateMutability": "nonpayable",
					"type": "function"
				},
				{
					"inputs": [],
					"name": "voteCount",
					"outputs": [
						{
							"internalType": "uint256",
							"name": "",
							"type": "uint256"
						}
					],
					"stateMutability": "view",
					"type": "function"
				},
				{
					"inputs": [
						{
							"internalType": "uint256",
							"name": "",
							"type": "uint256"
						}
					],
					"name": "votesReceived",
					"outputs": [
						{
							"internalType": "uint256",
							"name": "",
							"type": "uint256"
						}
					],
					"stateMutability": "view",
					"type": "function"
				},
				{
					"inputs": [],
					"name": "votingDeadline",
					"outputs": [
						{
							"internalType": "uint256",
							"name": "",
							"type": "uint256"
						}
					],
					"stateMutability": "view",
					"type": "function"
				}
			],
			"devdoc": {
				"kind": "dev",
				"methods": {},
				"version": 1
			},
			"evm": {
				"assembly": "    /* \"Contracts/votingSystem.sol\":181:2283  contract votingSystem{... */\n  mstore(0x40, 0xa0)\n    /* \"Contracts/votingSystem.sol\":832:993  constructor(uint256 _numCandidates){... */\n  callvalue\n  dup1\n  iszero\n  tag_1\n  jumpi\n  0x00\n  dup1\n  revert\ntag_1:\n  pop\n  mload(0x40)\n  sub(codesize, bytecodeSize)\n  dup1\n  bytecodeSize\n  dup4\n  codecopy\n  dup2\n  dup2\n  add\n  0x40\n  mstore\n  dup2\n  add\n  swap1\n  tag_2\n  swap2\n  swap1\n  tag_3\n  jump\t// in\ntag_2:\n    /* \"Contracts/votingSystem.sol\":912:918  1 days */\n  0x015180\n    /* \"Contracts/votingSystem.sol\":894:909  block.timestamp */\n  timestamp\n    /* \"Contracts/votingSystem.sol\":894:918  block.timestamp + 1 days */\n  tag_6\n  swap2\n  swap1\n  tag_7\n  jump\t// in\ntag_6:\n    /* \"Contracts/votingSystem.sol\":877:918  votingDeadline = block.timestamp + 1 days */\n  0x80\n  dup2\n  dup2\n  mstore\n  pop\n  pop\n    /* \"Contracts/votingSystem.sol\":936:946  msg.sender */\n  caller\n    /* \"Contracts/votingSystem.sol\":928:933  owner */\n  0x04\n  0x00\n    /* \"Contracts/votingSystem.sol\":928:946  owner = msg.sender */\n  0x0100\n  exp\n  dup2\n  sload\n  dup2\n  0xffffffffffffffffffffffffffffffffffffffff\n  mul\n  not\n  and\n  swap1\n  dup4\n  0xffffffffffffffffffffffffffffffffffffffff\n  and\n  mul\n  or\n  swap1\n  sstore\n  pop\n    /* \"Contracts/votingSystem.sol\":972:986  _numCandidates */\n  dup1\n    /* \"Contracts/votingSystem.sol\":956:969  numCandidates */\n  0x00\n    /* \"Contracts/votingSystem.sol\":956:986  numCandidates = _numCandidates */\n  dup2\n  swap1\n  sstore\n  pop\n    /* \"Contracts/votingSystem.sol\":832:993  constructor(uint256 _numCandidates){... */\n  pop\n    /* \"Contracts/votingSystem.sol\":181:2283  contract votingSystem{... */\n  jump(tag_8)\n    /* \"#utility.yul\":88:205   */\ntag_10:\n    /* \"#utility.yul\":197:198   */\n  0x00\n    /* \"#utility.yul\":194:195   */\n  dup1\n    /* \"#utility.yul\":187:199   */\n  revert\n    /* \"#utility.yul\":334:411   */\ntag_12:\n    /* \"#utility.yul\":371:378   */\n  0x00\n    /* \"#utility.yul\":400:405   */\n  dup2\n    /* \"#utility.yul\":389:405   */\n  swap1\n  pop\n    /* \"#utility.yul\":334:411   */\n  swap2\n  swap1\n  pop\n  jump\t// out\n    /* \"#utility.yul\":417:539   */\ntag_13:\n    /* \"#utility.yul\":490:514   */\n  tag_22\n    /* \"#utility.yul\":508:513   */\n  dup2\n    /* \"#utility.yul\":490:514   */\n  tag_12\n  jump\t// in\ntag_22:\n    /* \"#utility.yul\":483:488   */\n  dup2\n    /* \"#utility.yul\":480:515   */\n  eq\n    /* \"#utility.yul\":470:533   */\n  tag_23\n  jumpi\n    /* \"#utility.yul\":529:530   */\n  0x00\n    /* \"#utility.yul\":526:527   */\n  dup1\n    /* \"#utility.yul\":519:531   */\n  revert\n    /* \"#utility.yul\":470:533   */\ntag_23:\n    /* \"#utility.yul\":417:539   */\n  pop\n  jump\t// out\n    /* \"#utility.yul\":545:688   */\ntag_14:\n    /* \"#utility.yul\":602:607   */\n  0x00\n    /* \"#utility.yul\":633:639   */\n  dup2\n    /* \"#utility.yul\":627:640   */\n  mload\n    /* \"#utility.yul\":618:640   */\n  swap1\n  pop\n    /* \"#utility.yul\":649:682   */\n  tag_25\n    /* \"#utility.yul\":676:681   */\n  dup2\n    /* \"#utility.yul\":649:682   */\n  tag_13\n  jump\t// in\ntag_25:\n    /* \"#utility.yul\":545:688   */\n  swap3\n  swap2\n  pop\n  pop\n  jump\t// out\n    /* \"#utility.yul\":694:1045   */\ntag_3:\n    /* \"#utility.yul\":764:770   */\n  0x00\n    /* \"#utility.yul\":813:815   */\n  0x20\n    /* \"#utility.yul\":801:810   */\n  dup3\n    /* \"#utility.yul\":792:799   */\n  dup5\n    /* \"#utility.yul\":788:811   */\n  sub\n    /* \"#utility.yul\":784:816   */\n  slt\n    /* \"#utility.yul\":781:900   */\n  iszero\n  tag_27\n  jumpi\n    /* \"#utility.yul\":819:898   */\n  tag_28\n  tag_10\n  jump\t// in\ntag_28:\n    /* \"#utility.yul\":781:900   */\ntag_27:\n    /* \"#utility.yul\":939:940   */\n  0x00\n    /* \"#utility.yul\":964:1028   */\n  tag_29\n    /* \"#utility.yul\":1020:1027   */\n  dup5\n    /* \"#utility.yul\":1011:1017   */\n  dup3\n    /* \"#utility.yul\":1000:1009   */\n  dup6\n    /* \"#utility.yul\":996:1018   */\n  add\n    /* \"#utility.yul\":964:1028   */\n  tag_14\n  jump\t// in\ntag_29:\n    /* \"#utility.yul\":954:1028   */\n  swap2\n  pop\n    /* \"#utility.yul\":910:1038   */\n  pop\n    /* \"#utility.yul\":694:1045   */\n  swap3\n  swap2\n  pop\n  pop\n  jump\t// out\n    /* \"#utility.yul\":1051:1231   */\ntag_15:\n    /* \"#utility.yul\":1099:1176   */\n  0x4e487b7100000000000000000000000000000000000000000000000000000000\n    /* \"#utility.yul\":1096:1097   */\n  0x00\n    /* \"#utility.yul\":1089:1177   */\n  mstore\n    /* \"#utility.yul\":1196:1200   */\n  0x11\n    /* \"#utility.yul\":1193:1194   */\n  0x04\n    /* \"#utility.yul\":1186:1201   */\n  mstore\n    /* \"#utility.yul\":1220:1224   */\n  0x24\n    /* \"#utility.yul\":1217:1218   */\n  0x00\n    /* \"#utility.yul\":1210:1225   */\n  revert\n    /* \"#utility.yul\":1237:1428   */\ntag_7:\n    /* \"#utility.yul\":1277:1280   */\n  0x00\n    /* \"#utility.yul\":1296:1316   */\n  tag_32\n    /* \"#utility.yul\":1314:1315   */\n  dup3\n    /* \"#utility.yul\":1296:1316   */\n  tag_12\n  jump\t// in\ntag_32:\n    /* \"#utility.yul\":1291:1316   */\n  swap2\n  pop\n    /* \"#utility.yul\":1330:1350   */\n  tag_33\n    /* \"#utility.yul\":1348:1349   */\n  dup4\n    /* \"#utility.yul\":1330:1350   */\n  tag_12\n  jump\t// in\ntag_33:\n    /* \"#utility.yul\":1325:1350   */\n  swap3\n  pop\n    /* \"#utility.yul\":1373:1374   */\n  dup3\n    /* \"#utility.yul\":1370:1371   */\n  dup3\n    /* \"#utility.yul\":1366:1375   */\n  add\n    /* \"#utility.yul\":1359:1375   */\n  swap1\n  pop\n    /* \"#utility.yul\":1394:1397   */\n  dup1\n    /* \"#utility.yul\":1391:1392   */\n  dup3\n    /* \"#utility.yul\":1388:1398   */\n  gt\n    /* \"#utility.yul\":1385:1421   */\n  iszero\n  tag_34\n  jumpi\n    /* \"#utility.yul\":1401:1419   */\n  tag_35\n  tag_15\n  jump\t// in\ntag_35:\n    /* \"#utility.yul\":1385:1421   */\ntag_34:\n    /* \"#utility.yul\":1237:1428   */\n  swap3\n  swap2\n  pop\n  pop\n  jump\t// out\n    /* \"Contracts/votingSystem.sol\":181:2283  contract votingSystem{... */\ntag_8:\n  mload(0x80)\n  codecopy(0x00, dataOffset(sub_0), dataSize(sub_0))\n  0x00\n  assignImmutable(\"0x7f8b6b088b6d74c2852fc86c796dca07b44eed6fb3daf5e6b59f7c364db14528\")\n  return(0x00, dataSize(sub_0))\nstop\n\nsub_0: assembly {\n        /* \"Contracts/votingSystem.sol\":181:2283  contract votingSystem{... */\n      mstore(0x40, 0x80)\n      callvalue\n      dup1\n      iszero\n      tag_1\n      jumpi\n      0x00\n      dup1\n      revert\n    tag_1:\n      pop\n      jumpi(tag_2, lt(calldatasize, 0x04))\n      shr(0xe0, calldataload(0x00))\n      dup1\n      0x995e4339\n      gt\n      tag_15\n      jumpi\n      dup1\n      0x995e4339\n      eq\n      tag_9\n      jumpi\n      dup1\n      0xc2b6b58c\n      eq\n      tag_10\n      jumpi\n      dup1\n      0xc631b292\n      eq\n      tag_11\n      jumpi\n      dup1\n      0xc6384071\n      eq\n      tag_12\n      jumpi\n      dup1\n      0xf3084a63\n      eq\n      tag_13\n      jumpi\n      dup1\n      0xfa7f1bae\n      eq\n      tag_14\n      jumpi\n      jump(tag_2)\n    tag_15:\n      dup1\n      0x0121b93f\n      eq\n      tag_3\n      jumpi\n      dup1\n      0x036ee850\n      eq\n      tag_4\n      jumpi\n      dup1\n      0x09eef43e\n      eq\n      tag_5\n      jumpi\n      dup1\n      0x3ceed692\n      eq\n      tag_6\n      jumpi\n      dup1\n      0x5216509a\n      eq\n      tag_7\n      jumpi\n      dup1\n      0x8da5cb5b\n      eq\n      tag_8\n      jumpi\n    tag_2:\n      0x00\n      dup1\n      revert\n        /* \"Contracts/votingSystem.sol\":1461:2088  function vote( uint256 candidateID ) public {... */\n    tag_3:\n      tag_16\n      0x04\n      dup1\n      calldatasize\n      sub\n      dup2\n      add\n      swap1\n      tag_17\n      swap2\n      swap1\n      tag_18\n      jump\t// in\n    tag_17:\n      tag_19\n      jump\t// in\n    tag_16:\n      stop\n        /* \"Contracts/votingSystem.sol\":440:479  uint256 public immutable votingDeadline */\n    tag_4:\n      tag_20\n      tag_21\n      jump\t// in\n    tag_20:\n      mload(0x40)\n      tag_22\n      swap2\n      swap1\n      tag_23\n      jump\t// in\n    tag_22:\n      mload(0x40)\n      dup1\n      swap2\n      sub\n      swap1\n      return\n        /* \"Contracts/votingSystem.sol\":745:786  mapping(address => bool) public  hasVoted */\n    tag_5:\n      tag_24\n      0x04\n      dup1\n      calldatasize\n      sub\n      dup2\n      add\n      swap1\n      tag_25\n      swap2\n      swap1\n      tag_26\n      jump\t// in\n    tag_25:\n      tag_27\n      jump\t// in\n    tag_24:\n      mload(0x40)\n      tag_28\n      swap2\n      swap1\n      tag_29\n      jump\t// in\n    tag_28:\n      mload(0x40)\n      dup1\n      swap2\n      sub\n      swap1\n      return\n        /* \"Contracts/votingSystem.sol\":346:386  uint256 public constant MAX_VOTERS = 100 */\n    tag_6:\n      tag_30\n      tag_31\n      jump\t// in\n    tag_30:\n      mload(0x40)\n      tag_32\n      swap2\n      swap1\n      tag_23\n      jump\t// in\n    tag_32:\n      mload(0x40)\n      dup1\n      swap2\n      sub\n      swap1\n      return\n        /* \"Contracts/votingSystem.sol\":208:236  uint256 public numCandidates */\n    tag_7:\n      tag_33\n      tag_34\n      jump\t// in\n    tag_33:\n      mload(0x40)\n      tag_35\n      swap2\n      swap1\n      tag_23\n      jump\t// in\n    tag_35:\n      mload(0x40)\n      dup1\n      swap2\n      sub\n      swap1\n      return\n        /* \"Contracts/votingSystem.sol\":686:706  address public owner */\n    tag_8:\n      tag_36\n      tag_37\n      jump\t// in\n    tag_36:\n      mload(0x40)\n      tag_38\n      swap2\n      swap1\n      tag_39\n      jump\t// in\n    tag_38:\n      mload(0x40)\n      dup1\n      swap2\n      sub\n      swap1\n      return\n        /* \"Contracts/votingSystem.sol\":2094:2280  function getResult(uint256 candidateID) public view returns (uint256){... */\n    tag_9:\n      tag_40\n      0x04\n      dup1\n      calldatasize\n      sub\n      dup2\n      add\n      swap1\n      tag_41\n      swap2\n      swap1\n      tag_18\n      jump\t// in\n    tag_41:\n      tag_42\n      jump\t// in\n    tag_40:\n      mload(0x40)\n      tag_43\n      swap2\n      swap1\n      tag_23\n      jump\t// in\n    tag_43:\n      mload(0x40)\n      dup1\n      swap2\n      sub\n      swap1\n      return\n        /* \"Contracts/votingSystem.sol\":543:563  bool public isClosed */\n    tag_10:\n      tag_44\n      tag_45\n      jump\t// in\n    tag_44:\n      mload(0x40)\n      tag_46\n      swap2\n      swap1\n      tag_29\n      jump\t// in\n    tag_46:\n      mload(0x40)\n      dup1\n      swap2\n      sub\n      swap1\n      return\n        /* \"Contracts/votingSystem.sol\":1048:1244  function closeVoting() public {... */\n    tag_11:\n      tag_47\n      tag_48\n      jump\t// in\n    tag_47:\n      stop\n        /* \"Contracts/votingSystem.sol\":618:642  uint256 public voteCount */\n    tag_12:\n      tag_49\n      tag_50\n      jump\t// in\n    tag_49:\n      mload(0x40)\n      tag_51\n      swap2\n      swap1\n      tag_23\n      jump\t// in\n    tag_51:\n      mload(0x40)\n      dup1\n      swap2\n      sub\n      swap1\n      return\n        /* \"Contracts/votingSystem.sol\":242:290  mapping(uint256 => uint256) public votesReceived */\n    tag_13:\n      tag_52\n      0x04\n      dup1\n      calldatasize\n      sub\n      dup2\n      add\n      swap1\n      tag_53\n      swap2\n      swap1\n      tag_18\n      jump\t// in\n    tag_53:\n      tag_54\n      jump\t// in\n    tag_52:\n      mload(0x40)\n      tag_55\n      swap2\n      swap1\n      tag_23\n      jump\t// in\n    tag_55:\n      mload(0x40)\n      dup1\n      swap2\n      sub\n      swap1\n      return\n        /* \"Contracts/votingSystem.sol\":1304:1426  function   isVotingOpen() public view returns (bool){... */\n    tag_14:\n      tag_56\n      tag_57\n      jump\t// in\n    tag_56:\n      mload(0x40)\n      tag_58\n      swap2\n      swap1\n      tag_29\n      jump\t// in\n    tag_58:\n      mload(0x40)\n      dup1\n      swap2\n      sub\n      swap1\n      return\n        /* \"Contracts/votingSystem.sol\":1461:2088  function vote( uint256 candidateID ) public {... */\n    tag_19:\n        /* \"Contracts/votingSystem.sol\":1537:1550  numCandidates */\n      sload(0x00)\n        /* \"Contracts/votingSystem.sol\":1523:1534  candidateID */\n      dup2\n        /* \"Contracts/votingSystem.sol\":1523:1550  candidateID < numCandidates */\n      lt\n        /* \"Contracts/votingSystem.sol\":1515:1574  require(candidateID < numCandidates,\"Invalid candidate id\") */\n      tag_60\n      jumpi\n      mload(0x40)\n      0x08c379a000000000000000000000000000000000000000000000000000000000\n      dup2\n      mstore\n      0x04\n      add\n      tag_61\n      swap1\n      tag_62\n      jump\t// in\n    tag_61:\n      mload(0x40)\n      dup1\n      swap2\n      sub\n      swap1\n      revert\n    tag_60:\n        /* \"Contracts/votingSystem.sol\":1632:1646  isVotingOpen() */\n      tag_63\n        /* \"Contracts/votingSystem.sol\":1632:1644  isVotingOpen */\n      tag_57\n        /* \"Contracts/votingSystem.sol\":1632:1646  isVotingOpen() */\n      jump\t// in\n    tag_63:\n        /* \"Contracts/votingSystem.sol\":1624:1668  require(isVotingOpen(),\"Voting is not open\") */\n      tag_64\n      jumpi\n      mload(0x40)\n      0x08c379a000000000000000000000000000000000000000000000000000000000\n      dup2\n      mstore\n      0x04\n      add\n      tag_65\n      swap1\n      tag_66\n      jump\t// in\n    tag_65:\n      mload(0x40)\n      dup1\n      swap2\n      sub\n      swap1\n      revert\n    tag_64:\n        /* \"Contracts/votingSystem.sol\":1735:1743  hasVoted */\n      0x05\n        /* \"Contracts/votingSystem.sol\":1735:1755  hasVoted[msg.sender] */\n      0x00\n        /* \"Contracts/votingSystem.sol\":1744:1754  msg.sender */\n      caller\n        /* \"Contracts/votingSystem.sol\":1735:1755  hasVoted[msg.sender] */\n      0xffffffffffffffffffffffffffffffffffffffff\n      and\n      0xffffffffffffffffffffffffffffffffffffffff\n      and\n      dup2\n      mstore\n      0x20\n      add\n      swap1\n      dup2\n      mstore\n      0x20\n      add\n      0x00\n      keccak256\n      0x00\n      swap1\n      sload\n      swap1\n      0x0100\n      exp\n      swap1\n      div\n      0xff\n      and\n        /* \"Contracts/votingSystem.sol\":1734:1755  !hasVoted[msg.sender] */\n      iszero\n        /* \"Contracts/votingSystem.sol\":1726:1772  require(!hasVoted[msg.sender],\"Already Voted\") */\n      tag_67\n      jumpi\n      mload(0x40)\n      0x08c379a000000000000000000000000000000000000000000000000000000000\n      dup2\n      mstore\n      0x04\n      add\n      tag_68\n      swap1\n      tag_69\n      jump\t// in\n    tag_68:\n      mload(0x40)\n      dup1\n      swap2\n      sub\n      swap1\n      revert\n    tag_67:\n        /* \"Contracts/votingSystem.sol\":383:386  100 */\n      0x64\n        /* \"Contracts/votingSystem.sol\":1845:1854  voteCount */\n      sload(0x03)\n        /* \"Contracts/votingSystem.sol\":1845:1866  voteCount< MAX_VOTERS */\n      lt\n        /* \"Contracts/votingSystem.sol\":1837:1889  require(voteCount< MAX_VOTERS, \"Max voters reached\") */\n      tag_70\n      jumpi\n      mload(0x40)\n      0x08c379a000000000000000000000000000000000000000000000000000000000\n      dup2\n      mstore\n      0x04\n      add\n      tag_71\n      swap1\n      tag_72\n      jump\t// in\n    tag_71:\n      mload(0x40)\n      dup1\n      swap2\n      sub\n      swap1\n      revert\n    tag_70:\n        /* \"Contracts/votingSystem.sol\":1978:1982  true */\n      0x01\n        /* \"Contracts/votingSystem.sol\":1955:1963  hasVoted */\n      0x05\n        /* \"Contracts/votingSystem.sol\":1955:1975  hasVoted[msg.sender] */\n      0x00\n        /* \"Contracts/votingSystem.sol\":1964:1974  msg.sender */\n      caller\n        /* \"Contracts/votingSystem.sol\":1955:1975  hasVoted[msg.sender] */\n      0xffffffffffffffffffffffffffffffffffffffff\n      and\n      0xffffffffffffffffffffffffffffffffffffffff\n      and\n      dup2\n      mstore\n      0x20\n      add\n      swap1\n      dup2\n      mstore\n      0x20\n      add\n      0x00\n      keccak256\n      0x00\n        /* \"Contracts/votingSystem.sol\":1955:1982  hasVoted[msg.sender] = true */\n      0x0100\n      exp\n      dup2\n      sload\n      dup2\n      0xff\n      mul\n      not\n      and\n      swap1\n      dup4\n      iszero\n      iszero\n      mul\n      or\n      swap1\n      sstore\n      pop\n        /* \"Contracts/votingSystem.sol\":1993:2006  votesReceived */\n      0x01\n        /* \"Contracts/votingSystem.sol\":1993:2019  votesReceived[candidateID] */\n      0x00\n        /* \"Contracts/votingSystem.sol\":2007:2018  candidateID */\n      dup3\n        /* \"Contracts/votingSystem.sol\":1993:2019  votesReceived[candidateID] */\n      dup2\n      mstore\n      0x20\n      add\n      swap1\n      dup2\n      mstore\n      0x20\n      add\n      0x00\n      keccak256\n      0x00\n        /* \"Contracts/votingSystem.sol\":1993:2021  votesReceived[candidateID]++ */\n      dup2\n      sload\n      dup1\n      swap3\n      swap2\n      swap1\n      tag_73\n      swap1\n      tag_74\n      jump\t// in\n    tag_73:\n      swap2\n      swap1\n      pop\n      sstore\n      pop\n        /* \"Contracts/votingSystem.sol\":2070:2079  voteCount */\n      0x03\n      0x00\n        /* \"Contracts/votingSystem.sol\":2070:2081  voteCount++ */\n      dup2\n      sload\n      dup1\n      swap3\n      swap2\n      swap1\n      tag_75\n      swap1\n      tag_74\n      jump\t// in\n    tag_75:\n      swap2\n      swap1\n      pop\n      sstore\n      pop\n        /* \"Contracts/votingSystem.sol\":1461:2088  function vote( uint256 candidateID ) public {... */\n      pop\n      jump\t// out\n        /* \"Contracts/votingSystem.sol\":440:479  uint256 public immutable votingDeadline */\n    tag_21:\n      immutable(\"0x7f8b6b088b6d74c2852fc86c796dca07b44eed6fb3daf5e6b59f7c364db14528\")\n      dup2\n      jump\t// out\n        /* \"Contracts/votingSystem.sol\":745:786  mapping(address => bool) public  hasVoted */\n    tag_27:\n      mstore(0x20, 0x05)\n      dup1\n      0x00\n      mstore\n      keccak256(0x00, 0x40)\n      0x00\n      swap2\n      pop\n      sload\n      swap1\n      0x0100\n      exp\n      swap1\n      div\n      0xff\n      and\n      dup2\n      jump\t// out\n        /* \"Contracts/votingSystem.sol\":346:386  uint256 public constant MAX_VOTERS = 100 */\n    tag_31:\n        /* \"Contracts/votingSystem.sol\":383:386  100 */\n      0x64\n        /* \"Contracts/votingSystem.sol\":346:386  uint256 public constant MAX_VOTERS = 100 */\n      dup2\n      jump\t// out\n        /* \"Contracts/votingSystem.sol\":208:236  uint256 public numCandidates */\n    tag_34:\n      sload(0x00)\n      dup2\n      jump\t// out\n        /* \"Contracts/votingSystem.sol\":686:706  address public owner */\n    tag_37:\n      0x04\n      0x00\n      swap1\n      sload\n      swap1\n      0x0100\n      exp\n      swap1\n      div\n      0xffffffffffffffffffffffffffffffffffffffff\n      and\n      dup2\n      jump\t// out\n        /* \"Contracts/votingSystem.sol\":2094:2280  function getResult(uint256 candidateID) public view returns (uint256){... */\n    tag_42:\n        /* \"Contracts/votingSystem.sol\":2155:2162  uint256 */\n      0x00\n        /* \"Contracts/votingSystem.sol\":2195:2208  numCandidates */\n      dup1\n      sload\n        /* \"Contracts/votingSystem.sol\":2181:2192  candidateID */\n      dup3\n        /* \"Contracts/votingSystem.sol\":2181:2208  candidateID < numCandidates */\n      lt\n        /* \"Contracts/votingSystem.sol\":2173:2230  require(candidateID < numCandidates, \"Invalid Candidate\") */\n      tag_77\n      jumpi\n      mload(0x40)\n      0x08c379a000000000000000000000000000000000000000000000000000000000\n      dup2\n      mstore\n      0x04\n      add\n      tag_78\n      swap1\n      tag_79\n      jump\t// in\n    tag_78:\n      mload(0x40)\n      dup1\n      swap2\n      sub\n      swap1\n      revert\n    tag_77:\n        /* \"Contracts/votingSystem.sol\":2247:2260  votesReceived */\n      0x01\n        /* \"Contracts/votingSystem.sol\":2247:2273  votesReceived[candidateID] */\n      0x00\n        /* \"Contracts/votingSystem.sol\":2261:2272  candidateID */\n      dup4\n        /* \"Contracts/votingSystem.sol\":2247:2273  votesReceived[candidateID] */\n      dup2\n      mstore\n      0x20\n      add\n      swap1\n      dup2\n      mstore\n      0x20\n      add\n      0x00\n      keccak256\n      sload\n        /* \"Contracts/votingSystem.sol\":2240:2273  return votesReceived[candidateID] */\n      swap1\n      pop\n        /* \"Contracts/votingSystem.sol\":2094:2280  function getResult(uint256 candidateID) public view returns (uint256){... */\n      swap2\n      swap1\n      pop\n      jump\t// out\n        /* \"Contracts/votingSystem.sol\":543:563  bool public isClosed */\n    tag_45:\n      0x02\n      0x00\n      swap1\n      sload\n      swap1\n      0x0100\n      exp\n      swap1\n      div\n      0xff\n      and\n      dup2\n      jump\t// out\n        /* \"Contracts/votingSystem.sol\":1048:1244  function closeVoting() public {... */\n    tag_48:\n        /* \"Contracts/votingSystem.sol\":1097:1105  isClosed */\n      0x02\n      0x00\n      swap1\n      sload\n      swap1\n      0x0100\n      exp\n      swap1\n      div\n      0xff\n      and\n        /* \"Contracts/votingSystem.sol\":1096:1105  !isClosed */\n      iszero\n        /* \"Contracts/votingSystem.sol\":1088:1129  require(!isClosed, \"it is already close\") */\n      tag_81\n      jumpi\n      mload(0x40)\n      0x08c379a000000000000000000000000000000000000000000000000000000000\n      dup2\n      mstore\n      0x04\n      add\n      tag_82\n      swap1\n      tag_83\n      jump\t// in\n    tag_82:\n      mload(0x40)\n      dup1\n      swap2\n      sub\n      swap1\n      revert\n    tag_81:\n        /* \"Contracts/votingSystem.sol\":1161:1166  owner */\n      0x04\n      0x00\n      swap1\n      sload\n      swap1\n      0x0100\n      exp\n      swap1\n      div\n      0xffffffffffffffffffffffffffffffffffffffff\n      and\n        /* \"Contracts/votingSystem.sol\":1147:1166  msg.sender == owner */\n      0xffffffffffffffffffffffffffffffffffffffff\n      and\n        /* \"Contracts/votingSystem.sol\":1147:1157  msg.sender */\n      caller\n        /* \"Contracts/votingSystem.sol\":1147:1166  msg.sender == owner */\n      0xffffffffffffffffffffffffffffffffffffffff\n      and\n      eq\n        /* \"Contracts/votingSystem.sol\":1139:1212  require(msg.sender == owner,\"only the owner can close the voting system\") */\n      tag_84\n      jumpi\n      mload(0x40)\n      0x08c379a000000000000000000000000000000000000000000000000000000000\n      dup2\n      mstore\n      0x04\n      add\n      tag_85\n      swap1\n      tag_86\n      jump\t// in\n    tag_85:\n      mload(0x40)\n      dup1\n      swap2\n      sub\n      swap1\n      revert\n    tag_84:\n        /* \"Contracts/votingSystem.sol\":1233:1237  true */\n      0x01\n        /* \"Contracts/votingSystem.sol\":1222:1230  isClosed */\n      0x02\n      0x00\n        /* \"Contracts/votingSystem.sol\":1222:1237  isClosed = true */\n      0x0100\n      exp\n      dup2\n      sload\n      dup2\n      0xff\n      mul\n      not\n      and\n      swap1\n      dup4\n      iszero\n      iszero\n      mul\n      or\n      swap1\n      sstore\n      pop\n        /* \"Contracts/votingSystem.sol\":1048:1244  function closeVoting() public {... */\n      jump\t// out\n        /* \"Contracts/votingSystem.sol\":618:642  uint256 public voteCount */\n    tag_50:\n      sload(0x03)\n      dup2\n      jump\t// out\n        /* \"Contracts/votingSystem.sol\":242:290  mapping(uint256 => uint256) public votesReceived */\n    tag_54:\n      mstore(0x20, 0x01)\n      dup1\n      0x00\n      mstore\n      keccak256(0x00, 0x40)\n      0x00\n      swap2\n      pop\n      swap1\n      pop\n      sload\n      dup2\n      jump\t// out\n        /* \"Contracts/votingSystem.sol\":1304:1426  function   isVotingOpen() public view returns (bool){... */\n    tag_57:\n        /* \"Contracts/votingSystem.sol\":1351:1355  bool */\n      0x00\n        /* \"Contracts/votingSystem.sol\":1391:1405  votingDeadline */\n      immutable(\"0x7f8b6b088b6d74c2852fc86c796dca07b44eed6fb3daf5e6b59f7c364db14528\")\n        /* \"Contracts/votingSystem.sol\":1373:1388  block.timestamp */\n      timestamp\n        /* \"Contracts/votingSystem.sol\":1373:1405  block.timestamp < votingDeadline */\n      lt\n        /* \"Contracts/votingSystem.sol\":1373:1418  block.timestamp < votingDeadline && !isClosed */\n      dup1\n      iszero\n      tag_88\n      jumpi\n      pop\n        /* \"Contracts/votingSystem.sol\":1410:1418  isClosed */\n      0x02\n      0x00\n      swap1\n      sload\n      swap1\n      0x0100\n      exp\n      swap1\n      div\n      0xff\n      and\n        /* \"Contracts/votingSystem.sol\":1409:1418  !isClosed */\n      iszero\n        /* \"Contracts/votingSystem.sol\":1373:1418  block.timestamp < votingDeadline && !isClosed */\n    tag_88:\n        /* \"Contracts/votingSystem.sol\":1366:1418  return block.timestamp < votingDeadline && !isClosed */\n      swap1\n      pop\n        /* \"Contracts/votingSystem.sol\":1304:1426  function   isVotingOpen() public view returns (bool){... */\n      swap1\n      jump\t// out\n        /* \"#utility.yul\":88:205   */\n    tag_90:\n        /* \"#utility.yul\":197:198   */\n      0x00\n        /* \"#utility.yul\":194:195   */\n      dup1\n        /* \"#utility.yul\":187:199   */\n      revert\n        /* \"#utility.yul\":334:411   */\n    tag_92:\n        /* \"#utility.yul\":371:378   */\n      0x00\n        /* \"#utility.yul\":400:405   */\n      dup2\n        /* \"#utility.yul\":389:405   */\n      swap1\n      pop\n        /* \"#utility.yul\":334:411   */\n      swap2\n      swap1\n      pop\n      jump\t// out\n        /* \"#utility.yul\":417:539   */\n    tag_93:\n        /* \"#utility.yul\":490:514   */\n      tag_125\n        /* \"#utility.yul\":508:513   */\n      dup2\n        /* \"#utility.yul\":490:514   */\n      tag_92\n      jump\t// in\n    tag_125:\n        /* \"#utility.yul\":483:488   */\n      dup2\n        /* \"#utility.yul\":480:515   */\n      eq\n        /* \"#utility.yul\":470:533   */\n      tag_126\n      jumpi\n        /* \"#utility.yul\":529:530   */\n      0x00\n        /* \"#utility.yul\":526:527   */\n      dup1\n        /* \"#utility.yul\":519:531   */\n      revert\n        /* \"#utility.yul\":470:533   */\n    tag_126:\n        /* \"#utility.yul\":417:539   */\n      pop\n      jump\t// out\n        /* \"#utility.yul\":545:684   */\n    tag_94:\n        /* \"#utility.yul\":591:596   */\n      0x00\n        /* \"#utility.yul\":629:635   */\n      dup2\n        /* \"#utility.yul\":616:636   */\n      calldataload\n        /* \"#utility.yul\":607:636   */\n      swap1\n      pop\n        /* \"#utility.yul\":645:678   */\n      tag_128\n        /* \"#utility.yul\":672:677   */\n      dup2\n        /* \"#utility.yul\":645:678   */\n      tag_93\n      jump\t// in\n    tag_128:\n        /* \"#utility.yul\":545:684   */\n      swap3\n      swap2\n      pop\n      pop\n      jump\t// out\n        /* \"#utility.yul\":690:1019   */\n    tag_18:\n        /* \"#utility.yul\":749:755   */\n      0x00\n        /* \"#utility.yul\":798:800   */\n      0x20\n        /* \"#utility.yul\":786:795   */\n      dup3\n        /* \"#utility.yul\":777:784   */\n      dup5\n        /* \"#utility.yul\":773:796   */\n      sub\n        /* \"#utility.yul\":769:801   */\n      slt\n        /* \"#utility.yul\":766:885   */\n      iszero\n      tag_130\n      jumpi\n        /* \"#utility.yul\":804:883   */\n      tag_131\n      tag_90\n      jump\t// in\n    tag_131:\n        /* \"#utility.yul\":766:885   */\n    tag_130:\n        /* \"#utility.yul\":924:925   */\n      0x00\n        /* \"#utility.yul\":949:1002   */\n      tag_132\n        /* \"#utility.yul\":994:1001   */\n      dup5\n        /* \"#utility.yul\":985:991   */\n      dup3\n        /* \"#utility.yul\":974:983   */\n      dup6\n        /* \"#utility.yul\":970:992   */\n      add\n        /* \"#utility.yul\":949:1002   */\n      tag_94\n      jump\t// in\n    tag_132:\n        /* \"#utility.yul\":939:1002   */\n      swap2\n      pop\n        /* \"#utility.yul\":895:1012   */\n      pop\n        /* \"#utility.yul\":690:1019   */\n      swap3\n      swap2\n      pop\n      pop\n      jump\t// out\n        /* \"#utility.yul\":1025:1143   */\n    tag_95:\n        /* \"#utility.yul\":1112:1136   */\n      tag_134\n        /* \"#utility.yul\":1130:1135   */\n      dup2\n        /* \"#utility.yul\":1112:1136   */\n      tag_92\n      jump\t// in\n    tag_134:\n        /* \"#utility.yul\":1107:1110   */\n      dup3\n        /* \"#utility.yul\":1100:1137   */\n      mstore\n        /* \"#utility.yul\":1025:1143   */\n      pop\n      pop\n      jump\t// out\n        /* \"#utility.yul\":1149:1371   */\n    tag_23:\n        /* \"#utility.yul\":1242:1246   */\n      0x00\n        /* \"#utility.yul\":1280:1282   */\n      0x20\n        /* \"#utility.yul\":1269:1278   */\n      dup3\n        /* \"#utility.yul\":1265:1283   */\n      add\n        /* \"#utility.yul\":1257:1283   */\n      swap1\n      pop\n        /* \"#utility.yul\":1293:1364   */\n      tag_136\n        /* \"#utility.yul\":1361:1362   */\n      0x00\n        /* \"#utility.yul\":1350:1359   */\n      dup4\n        /* \"#utility.yul\":1346:1363   */\n      add\n        /* \"#utility.yul\":1337:1343   */\n      dup5\n        /* \"#utility.yul\":1293:1364   */\n      tag_95\n      jump\t// in\n    tag_136:\n        /* \"#utility.yul\":1149:1371   */\n      swap3\n      swap2\n      pop\n      pop\n      jump\t// out\n        /* \"#utility.yul\":1377:1503   */\n    tag_96:\n        /* \"#utility.yul\":1414:1421   */\n      0x00\n        /* \"#utility.yul\":1454:1496   */\n      0xffffffffffffffffffffffffffffffffffffffff\n        /* \"#utility.yul\":1447:1452   */\n      dup3\n        /* \"#utility.yul\":1443:1497   */\n      and\n        /* \"#utility.yul\":1432:1497   */\n      swap1\n      pop\n        /* \"#utility.yul\":1377:1503   */\n      swap2\n      swap1\n      pop\n      jump\t// out\n        /* \"#utility.yul\":1509:1605   */\n    tag_97:\n        /* \"#utility.yul\":1546:1553   */\n      0x00\n        /* \"#utility.yul\":1575:1599   */\n      tag_139\n        /* \"#utility.yul\":1593:1598   */\n      dup3\n        /* \"#utility.yul\":1575:1599   */\n      tag_96\n      jump\t// in\n    tag_139:\n        /* \"#utility.yul\":1564:1599   */\n      swap1\n      pop\n        /* \"#utility.yul\":1509:1605   */\n      swap2\n      swap1\n      pop\n      jump\t// out\n        /* \"#utility.yul\":1611:1733   */\n    tag_98:\n        /* \"#utility.yul\":1684:1708   */\n      tag_141\n        /* \"#utility.yul\":1702:1707   */\n      dup2\n        /* \"#utility.yul\":1684:1708   */\n      tag_97\n      jump\t// in\n    tag_141:\n        /* \"#utility.yul\":1677:1682   */\n      dup2\n        /* \"#utility.yul\":1674:1709   */\n      eq\n        /* \"#utility.yul\":1664:1727   */\n      tag_142\n      jumpi\n        /* \"#utility.yul\":1723:1724   */\n      0x00\n        /* \"#utility.yul\":1720:1721   */\n      dup1\n        /* \"#utility.yul\":1713:1725   */\n      revert\n        /* \"#utility.yul\":1664:1727   */\n    tag_142:\n        /* \"#utility.yul\":1611:1733   */\n      pop\n      jump\t// out\n        /* \"#utility.yul\":1739:1878   */\n    tag_99:\n        /* \"#utility.yul\":1785:1790   */\n      0x00\n        /* \"#utility.yul\":1823:1829   */\n      dup2\n        /* \"#utility.yul\":1810:1830   */\n      calldataload\n        /* \"#utility.yul\":1801:1830   */\n      swap1\n      pop\n        /* \"#utility.yul\":1839:1872   */\n      tag_144\n        /* \"#utility.yul\":1866:1871   */\n      dup2\n        /* \"#utility.yul\":1839:1872   */\n      tag_98\n      jump\t// in\n    tag_144:\n        /* \"#utility.yul\":1739:1878   */\n      swap3\n      swap2\n      pop\n      pop\n      jump\t// out\n        /* \"#utility.yul\":1884:2213   */\n    tag_26:\n        /* \"#utility.yul\":1943:1949   */\n      0x00\n        /* \"#utility.yul\":1992:1994   */\n      0x20\n        /* \"#utility.yul\":1980:1989   */\n      dup3\n        /* \"#utility.yul\":1971:1978   */\n      dup5\n        /* \"#utility.yul\":1967:1990   */\n      sub\n        /* \"#utility.yul\":1963:1995   */\n      slt\n        /* \"#utility.yul\":1960:2079   */\n      iszero\n      tag_146\n      jumpi\n        /* \"#utility.yul\":1998:2077   */\n      tag_147\n      tag_90\n      jump\t// in\n    tag_147:\n        /* \"#utility.yul\":1960:2079   */\n    tag_146:\n        /* \"#utility.yul\":2118:2119   */\n      0x00\n        /* \"#utility.yul\":2143:2196   */\n      tag_148\n        /* \"#utility.yul\":2188:2195   */\n      dup5\n        /* \"#utility.yul\":2179:2185   */\n      dup3\n        /* \"#utility.yul\":2168:2177   */\n      dup6\n        /* \"#utility.yul\":2164:2186   */\n      add\n        /* \"#utility.yul\":2143:2196   */\n      tag_99\n      jump\t// in\n    tag_148:\n        /* \"#utility.yul\":2133:2196   */\n      swap2\n      pop\n        /* \"#utility.yul\":2089:2206   */\n      pop\n        /* \"#utility.yul\":1884:2213   */\n      swap3\n      swap2\n      pop\n      pop\n      jump\t// out\n        /* \"#utility.yul\":2219:2309   */\n    tag_100:\n        /* \"#utility.yul\":2253:2260   */\n      0x00\n        /* \"#utility.yul\":2296:2301   */\n      dup2\n        /* \"#utility.yul\":2289:2302   */\n      iszero\n        /* \"#utility.yul\":2282:2303   */\n      iszero\n        /* \"#utility.yul\":2271:2303   */\n      swap1\n      pop\n        /* \"#utility.yul\":2219:2309   */\n      swap2\n      swap1\n      pop\n      jump\t// out\n        /* \"#utility.yul\":2315:2424   */\n    tag_101:\n        /* \"#utility.yul\":2396:2417   */\n      tag_151\n        /* \"#utility.yul\":2411:2416   */\n      dup2\n        /* \"#utility.yul\":2396:2417   */\n      tag_100\n      jump\t// in\n    tag_151:\n        /* \"#utility.yul\":2391:2394   */\n      dup3\n        /* \"#utility.yul\":2384:2418   */\n      mstore\n        /* \"#utility.yul\":2315:2424   */\n      pop\n      pop\n      jump\t// out\n        /* \"#utility.yul\":2430:2640   */\n    tag_29:\n        /* \"#utility.yul\":2517:2521   */\n      0x00\n        /* \"#utility.yul\":2555:2557   */\n      0x20\n        /* \"#utility.yul\":2544:2553   */\n      dup3\n        /* \"#utility.yul\":2540:2558   */\n      add\n        /* \"#utility.yul\":2532:2558   */\n      swap1\n      pop\n        /* \"#utility.yul\":2568:2633   */\n      tag_153\n        /* \"#utility.yul\":2630:2631   */\n      0x00\n        /* \"#utility.yul\":2619:2628   */\n      dup4\n        /* \"#utility.yul\":2615:2632   */\n      add\n        /* \"#utility.yul\":2606:2612   */\n      dup5\n        /* \"#utility.yul\":2568:2633   */\n      tag_101\n      jump\t// in\n    tag_153:\n        /* \"#utility.yul\":2430:2640   */\n      swap3\n      swap2\n      pop\n      pop\n      jump\t// out\n        /* \"#utility.yul\":2646:2764   */\n    tag_102:\n        /* \"#utility.yul\":2733:2757   */\n      tag_155\n        /* \"#utility.yul\":2751:2756   */\n      dup2\n        /* \"#utility.yul\":2733:2757   */\n      tag_97\n      jump\t// in\n    tag_155:\n        /* \"#utility.yul\":2728:2731   */\n      dup3\n        /* \"#utility.yul\":2721:2758   */\n      mstore\n        /* \"#utility.yul\":2646:2764   */\n      pop\n      pop\n      jump\t// out\n        /* \"#utility.yul\":2770:2992   */\n    tag_39:\n        /* \"#utility.yul\":2863:2867   */\n      0x00\n        /* \"#utility.yul\":2901:2903   */\n      0x20\n        /* \"#utility.yul\":2890:2899   */\n      dup3\n        /* \"#utility.yul\":2886:2904   */\n      add\n        /* \"#utility.yul\":2878:2904   */\n      swap1\n      pop\n        /* \"#utility.yul\":2914:2985   */\n      tag_157\n        /* \"#utility.yul\":2982:2983   */\n      0x00\n        /* \"#utility.yul\":2971:2980   */\n      dup4\n        /* \"#utility.yul\":2967:2984   */\n      add\n        /* \"#utility.yul\":2958:2964   */\n      dup5\n        /* \"#utility.yul\":2914:2985   */\n      tag_102\n      jump\t// in\n    tag_157:\n        /* \"#utility.yul\":2770:2992   */\n      swap3\n      swap2\n      pop\n      pop\n      jump\t// out\n        /* \"#utility.yul\":2998:3167   */\n    tag_103:\n        /* \"#utility.yul\":3082:3093   */\n      0x00\n        /* \"#utility.yul\":3116:3122   */\n      dup3\n        /* \"#utility.yul\":3111:3114   */\n      dup3\n        /* \"#utility.yul\":3104:3123   */\n      mstore\n        /* \"#utility.yul\":3156:3160   */\n      0x20\n        /* \"#utility.yul\":3151:3154   */\n      dup3\n        /* \"#utility.yul\":3147:3161   */\n      add\n        /* \"#utility.yul\":3132:3161   */\n      swap1\n      pop\n        /* \"#utility.yul\":2998:3167   */\n      swap3\n      swap2\n      pop\n      pop\n      jump\t// out\n        /* \"#utility.yul\":3173:3343   */\n    tag_104:\n        /* \"#utility.yul\":3313:3335   */\n      0x496e76616c69642063616e646964617465206964000000000000000000000000\n        /* \"#utility.yul\":3309:3310   */\n      0x00\n        /* \"#utility.yul\":3301:3307   */\n      dup3\n        /* \"#utility.yul\":3297:3311   */\n      add\n        /* \"#utility.yul\":3290:3336   */\n      mstore\n        /* \"#utility.yul\":3173:3343   */\n      pop\n      jump\t// out\n        /* \"#utility.yul\":3349:3715   */\n    tag_105:\n        /* \"#utility.yul\":3491:3494   */\n      0x00\n        /* \"#utility.yul\":3512:3579   */\n      tag_161\n        /* \"#utility.yul\":3576:3578   */\n      0x14\n        /* \"#utility.yul\":3571:3574   */\n      dup4\n        /* \"#utility.yul\":3512:3579   */\n      tag_103\n      jump\t// in\n    tag_161:\n        /* \"#utility.yul\":3505:3579   */\n      swap2\n      pop\n        /* \"#utility.yul\":3588:3681   */\n      tag_162\n        /* \"#utility.yul\":3677:3680   */\n      dup3\n        /* \"#utility.yul\":3588:3681   */\n      tag_104\n      jump\t// in\n    tag_162:\n        /* \"#utility.yul\":3706:3708   */\n      0x20\n        /* \"#utility.yul\":3701:3704   */\n      dup3\n        /* \"#utility.yul\":3697:3709   */\n      add\n        /* \"#utility.yul\":3690:3709   */\n      swap1\n      pop\n        /* \"#utility.yul\":3349:3715   */\n      swap2\n      swap1\n      pop\n      jump\t// out\n        /* \"#utility.yul\":3721:4140   */\n    tag_62:\n        /* \"#utility.yul\":3887:3891   */\n      0x00\n        /* \"#utility.yul\":3925:3927   */\n      0x20\n        /* \"#utility.yul\":3914:3923   */\n      dup3\n        /* \"#utility.yul\":3910:3928   */\n      add\n        /* \"#utility.yul\":3902:3928   */\n      swap1\n      pop\n        /* \"#utility.yul\":3974:3983   */\n      dup2\n        /* \"#utility.yul\":3968:3972   */\n      dup2\n        /* \"#utility.yul\":3964:3984   */\n      sub\n        /* \"#utility.yul\":3960:3961   */\n      0x00\n        /* \"#utility.yul\":3949:3958   */\n      dup4\n        /* \"#utility.yul\":3945:3962   */\n      add\n        /* \"#utility.yul\":3938:3985   */\n      mstore\n        /* \"#utility.yul\":4002:4133   */\n      tag_164\n        /* \"#utility.yul\":4128:4132   */\n      dup2\n        /* \"#utility.yul\":4002:4133   */\n      tag_105\n      jump\t// in\n    tag_164:\n        /* \"#utility.yul\":3994:4133   */\n      swap1\n      pop\n        /* \"#utility.yul\":3721:4140   */\n      swap2\n      swap1\n      pop\n      jump\t// out\n        /* \"#utility.yul\":4146:4314   */\n    tag_106:\n        /* \"#utility.yul\":4286:4306   */\n      0x566f74696e67206973206e6f74206f70656e0000000000000000000000000000\n        /* \"#utility.yul\":4282:4283   */\n      0x00\n        /* \"#utility.yul\":4274:4280   */\n      dup3\n        /* \"#utility.yul\":4270:4284   */\n      add\n        /* \"#utility.yul\":4263:4307   */\n      mstore\n        /* \"#utility.yul\":4146:4314   */\n      pop\n      jump\t// out\n        /* \"#utility.yul\":4320:4686   */\n    tag_107:\n        /* \"#utility.yul\":4462:4465   */\n      0x00\n        /* \"#utility.yul\":4483:4550   */\n      tag_167\n        /* \"#utility.yul\":4547:4549   */\n      0x12\n        /* \"#utility.yul\":4542:4545   */\n      dup4\n        /* \"#utility.yul\":4483:4550   */\n      tag_103\n      jump\t// in\n    tag_167:\n        /* \"#utility.yul\":4476:4550   */\n      swap2\n      pop\n        /* \"#utility.yul\":4559:4652   */\n      tag_168\n        /* \"#utility.yul\":4648:4651   */\n      dup3\n        /* \"#utility.yul\":4559:4652   */\n      tag_106\n      jump\t// in\n    tag_168:\n        /* \"#utility.yul\":4677:4679   */\n      0x20\n        /* \"#utility.yul\":4672:4675   */\n      dup3\n        /* \"#utility.yul\":4668:4680   */\n      add\n        /* \"#utility.yul\":4661:4680   */\n      swap1\n      pop\n        /* \"#utility.yul\":4320:4686   */\n      swap2\n      swap1\n      pop\n      jump\t// out\n        /* \"#utility.yul\":4692:5111   */\n    tag_66:\n        /* \"#utility.yul\":4858:4862   */\n      0x00\n        /* \"#utility.yul\":4896:4898   */\n      0x20\n        /* \"#utility.yul\":4885:4894   */\n      dup3\n        /* \"#utility.yul\":4881:4899   */\n      add\n        /* \"#utility.yul\":4873:4899   */\n      swap1\n      pop\n        /* \"#utility.yul\":4945:4954   */\n      dup2\n        /* \"#utility.yul\":4939:4943   */\n      dup2\n        /* \"#utility.yul\":4935:4955   */\n      sub\n        /* \"#utility.yul\":4931:4932   */\n      0x00\n        /* \"#utility.yul\":4920:4929   */\n      dup4\n        /* \"#utility.yul\":4916:4933   */\n      add\n        /* \"#utility.yul\":4909:4956   */\n      mstore\n        /* \"#utility.yul\":4973:5104   */\n      tag_170\n        /* \"#utility.yul\":5099:5103   */\n      dup2\n        /* \"#utility.yul\":4973:5104   */\n      tag_107\n      jump\t// in\n    tag_170:\n        /* \"#utility.yul\":4965:5104   */\n      swap1\n      pop\n        /* \"#utility.yul\":4692:5111   */\n      swap2\n      swap1\n      pop\n      jump\t// out\n        /* \"#utility.yul\":5117:5280   */\n    tag_108:\n        /* \"#utility.yul\":5257:5272   */\n      0x416c726561647920566f74656400000000000000000000000000000000000000\n        /* \"#utility.yul\":5253:5254   */\n      0x00\n        /* \"#utility.yul\":5245:5251   */\n      dup3\n        /* \"#utility.yul\":5241:5255   */\n      add\n        /* \"#utility.yul\":5234:5273   */\n      mstore\n        /* \"#utility.yul\":5117:5280   */\n      pop\n      jump\t// out\n        /* \"#utility.yul\":5286:5652   */\n    tag_109:\n        /* \"#utility.yul\":5428:5431   */\n      0x00\n        /* \"#utility.yul\":5449:5516   */\n      tag_173\n        /* \"#utility.yul\":5513:5515   */\n      0x0d\n        /* \"#utility.yul\":5508:5511   */\n      dup4\n        /* \"#utility.yul\":5449:5516   */\n      tag_103\n      jump\t// in\n    tag_173:\n        /* \"#utility.yul\":5442:5516   */\n      swap2\n      pop\n        /* \"#utility.yul\":5525:5618   */\n      tag_174\n        /* \"#utility.yul\":5614:5617   */\n      dup3\n        /* \"#utility.yul\":5525:5618   */\n      tag_108\n      jump\t// in\n    tag_174:\n        /* \"#utility.yul\":5643:5645   */\n      0x20\n        /* \"#utility.yul\":5638:5641   */\n      dup3\n        /* \"#utility.yul\":5634:5646   */\n      add\n        /* \"#utility.yul\":5627:5646   */\n      swap1\n      pop\n        /* \"#utility.yul\":5286:5652   */\n      swap2\n      swap1\n      pop\n      jump\t// out\n        /* \"#utility.yul\":5658:6077   */\n    tag_69:\n        /* \"#utility.yul\":5824:5828   */\n      0x00\n        /* \"#utility.yul\":5862:5864   */\n      0x20\n        /* \"#utility.yul\":5851:5860   */\n      dup3\n        /* \"#utility.yul\":5847:5865   */\n      add\n        /* \"#utility.yul\":5839:5865   */\n      swap1\n      pop\n        /* \"#utility.yul\":5911:5920   */\n      dup2\n        /* \"#utility.yul\":5905:5909   */\n      dup2\n        /* \"#utility.yul\":5901:5921   */\n      sub\n        /* \"#utility.yul\":5897:5898   */\n      0x00\n        /* \"#utility.yul\":5886:5895   */\n      dup4\n        /* \"#utility.yul\":5882:5899   */\n      add\n        /* \"#utility.yul\":5875:5922   */\n      mstore\n        /* \"#utility.yul\":5939:6070   */\n      tag_176\n        /* \"#utility.yul\":6065:6069   */\n      dup2\n        /* \"#utility.yul\":5939:6070   */\n      tag_109\n      jump\t// in\n    tag_176:\n        /* \"#utility.yul\":5931:6070   */\n      swap1\n      pop\n        /* \"#utility.yul\":5658:6077   */\n      swap2\n      swap1\n      pop\n      jump\t// out\n        /* \"#utility.yul\":6083:6251   */\n    tag_110:\n        /* \"#utility.yul\":6223:6243   */\n      0x4d617820766f7465727320726561636865640000000000000000000000000000\n        /* \"#utility.yul\":6219:6220   */\n      0x00\n        /* \"#utility.yul\":6211:6217   */\n      dup3\n        /* \"#utility.yul\":6207:6221   */\n      add\n        /* \"#utility.yul\":6200:6244   */\n      mstore\n        /* \"#utility.yul\":6083:6251   */\n      pop\n      jump\t// out\n        /* \"#utility.yul\":6257:6623   */\n    tag_111:\n        /* \"#utility.yul\":6399:6402   */\n      0x00\n        /* \"#utility.yul\":6420:6487   */\n      tag_179\n        /* \"#utility.yul\":6484:6486   */\n      0x12\n        /* \"#utility.yul\":6479:6482   */\n      dup4\n        /* \"#utility.yul\":6420:6487   */\n      tag_103\n      jump\t// in\n    tag_179:\n        /* \"#utility.yul\":6413:6487   */\n      swap2\n      pop\n        /* \"#utility.yul\":6496:6589   */\n      tag_180\n        /* \"#utility.yul\":6585:6588   */\n      dup3\n        /* \"#utility.yul\":6496:6589   */\n      tag_110\n      jump\t// in\n    tag_180:\n        /* \"#utility.yul\":6614:6616   */\n      0x20\n        /* \"#utility.yul\":6609:6612   */\n      dup3\n        /* \"#utility.yul\":6605:6617   */\n      add\n        /* \"#utility.yul\":6598:6617   */\n      swap1\n      pop\n        /* \"#utility.yul\":6257:6623   */\n      swap2\n      swap1\n      pop\n      jump\t// out\n        /* \"#utility.yul\":6629:7048   */\n    tag_72:\n        /* \"#utility.yul\":6795:6799   */\n      0x00\n        /* \"#utility.yul\":6833:6835   */\n      0x20\n        /* \"#utility.yul\":6822:6831   */\n      dup3\n        /* \"#utility.yul\":6818:6836   */\n      add\n        /* \"#utility.yul\":6810:6836   */\n      swap1\n      pop\n        /* \"#utility.yul\":6882:6891   */\n      dup2\n        /* \"#utility.yul\":6876:6880   */\n      dup2\n        /* \"#utility.yul\":6872:6892   */\n      sub\n        /* \"#utility.yul\":6868:6869   */\n      0x00\n        /* \"#utility.yul\":6857:6866   */\n      dup4\n        /* \"#utility.yul\":6853:6870   */\n      add\n        /* \"#utility.yul\":6846:6893   */\n      mstore\n        /* \"#utility.yul\":6910:7041   */\n      tag_182\n        /* \"#utility.yul\":7036:7040   */\n      dup2\n        /* \"#utility.yul\":6910:7041   */\n      tag_111\n      jump\t// in\n    tag_182:\n        /* \"#utility.yul\":6902:7041   */\n      swap1\n      pop\n        /* \"#utility.yul\":6629:7048   */\n      swap2\n      swap1\n      pop\n      jump\t// out\n        /* \"#utility.yul\":7054:7234   */\n    tag_112:\n        /* \"#utility.yul\":7102:7179   */\n      0x4e487b7100000000000000000000000000000000000000000000000000000000\n        /* \"#utility.yul\":7099:7100   */\n      0x00\n        /* \"#utility.yul\":7092:7180   */\n      mstore\n        /* \"#utility.yul\":7199:7203   */\n      0x11\n        /* \"#utility.yul\":7196:7197   */\n      0x04\n        /* \"#utility.yul\":7189:7204   */\n      mstore\n        /* \"#utility.yul\":7223:7227   */\n      0x24\n        /* \"#utility.yul\":7220:7221   */\n      0x00\n        /* \"#utility.yul\":7213:7228   */\n      revert\n        /* \"#utility.yul\":7240:7473   */\n    tag_74:\n        /* \"#utility.yul\":7279:7282   */\n      0x00\n        /* \"#utility.yul\":7302:7326   */\n      tag_185\n        /* \"#utility.yul\":7320:7325   */\n      dup3\n        /* \"#utility.yul\":7302:7326   */\n      tag_92\n      jump\t// in\n    tag_185:\n        /* \"#utility.yul\":7293:7326   */\n      swap2\n      pop\n        /* \"#utility.yul\":7348:7414   */\n      0xffffffffffffffffffffffffffffffffffffffffffffffffffffffffffffffff\n        /* \"#utility.yul\":7341:7346   */\n      dup3\n        /* \"#utility.yul\":7338:7415   */\n      sub\n        /* \"#utility.yul\":7335:7438   */\n      tag_186\n      jumpi\n        /* \"#utility.yul\":7418:7436   */\n      tag_187\n      tag_112\n      jump\t// in\n    tag_187:\n        /* \"#utility.yul\":7335:7438   */\n    tag_186:\n        /* \"#utility.yul\":7465:7466   */\n      0x01\n        /* \"#utility.yul\":7458:7463   */\n      dup3\n        /* \"#utility.yul\":7454:7467   */\n      add\n        /* \"#utility.yul\":7447:7467   */\n      swap1\n      pop\n        /* \"#utility.yul\":7240:7473   */\n      swap2\n      swap1\n      pop\n      jump\t// out\n        /* \"#utility.yul\":7479:7646   */\n    tag_113:\n        /* \"#utility.yul\":7619:7638   */\n      0x496e76616c69642043616e646964617465000000000000000000000000000000\n        /* \"#utility.yul\":7615:7616   */\n      0x00\n        /* \"#utility.yul\":7607:7613   */\n      dup3\n        /* \"#utility.yul\":7603:7617   */\n      add\n        /* \"#utility.yul\":7596:7639   */\n      mstore\n        /* \"#utility.yul\":7479:7646   */\n      pop\n      jump\t// out\n        /* \"#utility.yul\":7652:8018   */\n    tag_114:\n        /* \"#utility.yul\":7794:7797   */\n      0x00\n        /* \"#utility.yul\":7815:7882   */\n      tag_190\n        /* \"#utility.yul\":7879:7881   */\n      0x11\n        /* \"#utility.yul\":7874:7877   */\n      dup4\n        /* \"#utility.yul\":7815:7882   */\n      tag_103\n      jump\t// in\n    tag_190:\n        /* \"#utility.yul\":7808:7882   */\n      swap2\n      pop\n        /* \"#utility.yul\":7891:7984   */\n      tag_191\n        /* \"#utility.yul\":7980:7983   */\n      dup3\n        /* \"#utility.yul\":7891:7984   */\n      tag_113\n      jump\t// in\n    tag_191:\n        /* \"#utility.yul\":8009:8011   */\n      0x20\n        /* \"#utility.yul\":8004:8007   */\n      dup3\n        /* \"#utility.yul\":8000:8012   */\n      add\n        /* \"#utility.yul\":7993:8012   */\n      swap1\n      pop\n        /* \"#utility.yul\":7652:8018   */\n      swap2\n      swap1\n      pop\n      jump\t// out\n        /* \"#utility.yul\":8024:8443   */\n    tag_79:\n        /* \"#utility.yul\":8190:8194   */\n      0x00\n        /* \"#utility.yul\":8228:8230   */\n      0x20\n        /* \"#utility.yul\":8217:8226   */\n      dup3\n        /* \"#utility.yul\":8213:8231   */\n      add\n        /* \"#utility.yul\":8205:8231   */\n      swap1\n      pop\n        /* \"#utility.yul\":8277:8286   */\n      dup2\n        /* \"#utility.yul\":8271:8275   */\n      dup2\n        /* \"#utility.yul\":8267:8287   */\n      sub\n        /* \"#utility.yul\":8263:8264   */\n      0x00\n        /* \"#utility.yul\":8252:8261   */\n      dup4\n        /* \"#utility.yul\":8248:8265   */\n      add\n        /* \"#utility.yul\":8241:8288   */\n      mstore\n        /* \"#utility.yul\":8305:8436   */\n      tag_193\n        /* \"#utility.yul\":8431:8435   */\n      dup2\n        /* \"#utility.yul\":8305:8436   */\n      tag_114\n      jump\t// in\n    tag_193:\n        /* \"#utility.yul\":8297:8436   */\n      swap1\n      pop\n        /* \"#utility.yul\":8024:8443   */\n      swap2\n      swap1\n      pop\n      jump\t// out\n        /* \"#utility.yul\":8449:8618   */\n    tag_115:\n        /* \"#utility.yul\":8589:8610   */\n      0x697420697320616c726561647920636c6f736500000000000000000000000000\n        /* \"#utility.yul\":8585:8586   */\n      0x00\n        /* \"#utility.yul\":8577:8583   */\n      dup3\n        /* \"#utility.yul\":8573:8587   */\n      add\n        /* \"#utility.yul\":8566:8611   */\n      mstore\n        /* \"#utility.yul\":8449:8618   */\n      pop\n      jump\t// out\n        /* \"#utility.yul\":8624:8990   */\n    tag_116:\n        /* \"#utility.yul\":8766:8769   */\n      0x00\n        /* \"#utility.yul\":8787:8854   */\n      tag_196\n        /* \"#utility.yul\":8851:8853   */\n      0x13\n        /* \"#utility.yul\":8846:8849   */\n      dup4\n        /* \"#utility.yul\":8787:8854   */\n      tag_103\n      jump\t// in\n    tag_196:\n        /* \"#utility.yul\":8780:8854   */\n      swap2\n      pop\n        /* \"#utility.yul\":8863:8956   */\n      tag_197\n        /* \"#utility.yul\":8952:8955   */\n      dup3\n        /* \"#utility.yul\":8863:8956   */\n      tag_115\n      jump\t// in\n    tag_197:\n        /* \"#utility.yul\":8981:8983   */\n      0x20\n        /* \"#utility.yul\":8976:8979   */\n      dup3\n        /* \"#utility.yul\":8972:8984   */\n      add\n        /* \"#utility.yul\":8965:8984   */\n      swap1\n      pop\n        /* \"#utility.yul\":8624:8990   */\n      swap2\n      swap1\n      pop\n      jump\t// out\n        /* \"#utility.yul\":8996:9415   */\n    tag_83:\n        /* \"#utility.yul\":9162:9166   */\n      0x00\n        /* \"#utility.yul\":9200:9202   */\n      0x20\n        /* \"#utility.yul\":9189:9198   */\n      dup3\n        /* \"#utility.yul\":9185:9203   */\n      add\n        /* \"#utility.yul\":9177:9203   */\n      swap1\n      pop\n        /* \"#utility.yul\":9249:9258   */\n      dup2\n        /* \"#utility.yul\":9243:9247   */\n      dup2\n        /* \"#utility.yul\":9239:9259   */\n      sub\n        /* \"#utility.yul\":9235:9236   */\n      0x00\n        /* \"#utility.yul\":9224:9233   */\n      dup4\n        /* \"#utility.yul\":9220:9237   */\n      add\n        /* \"#utility.yul\":9213:9260   */\n      mstore\n        /* \"#utility.yul\":9277:9408   */\n      tag_199\n        /* \"#utility.yul\":9403:9407   */\n      dup2\n        /* \"#utility.yul\":9277:9408   */\n      tag_116\n      jump\t// in\n    tag_199:\n        /* \"#utility.yul\":9269:9408   */\n      swap1\n      pop\n        /* \"#utility.yul\":8996:9415   */\n      swap2\n      swap1\n      pop\n      jump\t// out\n        /* \"#utility.yul\":9421:9650   */\n    tag_117:\n        /* \"#utility.yul\":9561:9595   */\n      0x6f6e6c7920746865206f776e65722063616e20636c6f73652074686520766f74\n        /* \"#utility.yul\":9557:9558   */\n      0x00\n        /* \"#utility.yul\":9549:9555   */\n      dup3\n        /* \"#utility.yul\":9545:9559   */\n      add\n        /* \"#utility.yul\":9538:9596   */\n      mstore\n        /* \"#utility.yul\":9630:9642   */\n      0x696e672073797374656d00000000000000000000000000000000000000000000\n        /* \"#utility.yul\":9625:9627   */\n      0x20\n        /* \"#utility.yul\":9617:9623   */\n      dup3\n        /* \"#utility.yul\":9613:9628   */\n      add\n        /* \"#utility.yul\":9606:9643   */\n      mstore\n        /* \"#utility.yul\":9421:9650   */\n      pop\n      jump\t// out\n        /* \"#utility.yul\":9656:10022   */\n    tag_118:\n        /* \"#utility.yul\":9798:9801   */\n      0x00\n        /* \"#utility.yul\":9819:9886   */\n      tag_202\n        /* \"#utility.yul\":9883:9885   */\n      0x2a\n        /* \"#utility.yul\":9878:9881   */\n      dup4\n        /* \"#utility.yul\":9819:9886   */\n      tag_103\n      jump\t// in\n    tag_202:\n        /* \"#utility.yul\":9812:9886   */\n      swap2\n      pop\n        /* \"#utility.yul\":9895:9988   */\n      tag_203\n        /* \"#utility.yul\":9984:9987   */\n      dup3\n        /* \"#utility.yul\":9895:9988   */\n      tag_117\n      jump\t// in\n    tag_203:\n        /* \"#utility.yul\":10013:10015   */\n      0x40\n        /* \"#utility.yul\":10008:10011   */\n      dup3\n        /* \"#utility.yul\":10004:10016   */\n      add\n        /* \"#utility.yul\":9997:10016   */\n      swap1\n      pop\n        /* \"#utility.yul\":9656:10022   */\n      swap2\n      swap1\n      pop\n      jump\t// out\n        /* \"#utility.yul\":10028:10447   */\n    tag_86:\n        /* \"#utility.yul\":10194:10198   */\n      0x00\n        /* \"#utility.yul\":10232:10234   */\n      0x20\n        /* \"#utility.yul\":10221:10230   */\n      dup3\n        /* \"#utility.yul\":10217:10235   */\n      add\n        /* \"#utility.yul\":10209:10235   */\n      swap1\n      pop\n        /* \"#utility.yul\":10281:10290   */\n      dup2\n        /* \"#utility.yul\":10275:10279   */\n      dup2\n        /* \"#utility.yul\":10271:10291   */\n      sub\n        /* \"#utility.yul\":10267:10268   */\n      0x00\n        /* \"#utility.yul\":10256:10265   */\n      dup4\n        /* \"#utility.yul\":10252:10269   */\n      add\n        /* \"#utility.yul\":10245:10292   */\n      mstore\n        /* \"#utility.yul\":10309:10440   */\n      tag_205\n        /* \"#utility.yul\":10435:10439   */\n      dup2\n        /* \"#utility.yul\":10309:10440   */\n      tag_118\n      jump\t// in\n    tag_205:\n        /* \"#utility.yul\":10301:10440   */\n      swap1\n      pop\n        /* \"#utility.yul\":10028:10447   */\n      swap2\n      swap1\n      pop\n      jump\t// out\n\n    auxdata: 0xa2646970667358221220774045f1c9f608cd8667a5cae4505b957da956335c936d64f88500705df873cb64736f6c63430008100033\n}\n",
				"bytecode": {
					"linkReferences": {},
					"object": "60a06040523480156200001157600080fd5b5060405162000d7238038062000d728339818101604052810190620000379190620000de565b62015180426200004891906200013f565b6080818152505033600460006101000a81548173ffffffffffffffffffffffffffffffffffffffff021916908373ffffffffffffffffffffffffffffffffffffffff16021790555080600081905550506200017a565b600080fd5b6000819050919050565b620000b881620000a3565b8114620000c457600080fd5b50565b600081519050620000d881620000ad565b92915050565b600060208284031215620000f757620000f66200009e565b5b60006200010784828501620000c7565b91505092915050565b7f4e487b7100000000000000000000000000000000000000000000000000000000600052601160045260246000fd5b60006200014c82620000a3565b91506200015983620000a3565b925082820190508082111562000174576200017362000110565b5b92915050565b608051610bd56200019d6000396000818161043c01526106410152610bd56000f3fe608060405234801561001057600080fd5b50600436106100b45760003560e01c8063995e433911610071578063995e43391461017d578063c2b6b58c146101ad578063c631b292146101cb578063c6384071146101d5578063f3084a63146101f3578063fa7f1bae14610223576100b4565b80630121b93f146100b9578063036ee850146100d557806309eef43e146100f35780633ceed692146101235780635216509a146101415780638da5cb5b1461015f575b600080fd5b6100d360048036038101906100ce91906106bb565b610241565b005b6100dd61043a565b6040516100ea91906106f7565b60405180910390f35b61010d60048036038101906101089190610770565b61045e565b60405161011a91906107b8565b60405180910390f35b61012b61047e565b60405161013891906106f7565b60405180910390f35b610149610483565b60405161015691906106f7565b60405180910390f35b610167610489565b60405161017491906107e2565b60405180910390f35b610197600480360381019061019291906106bb565b6104af565b6040516101a491906106f7565b60405180910390f35b6101b561050f565b6040516101c291906107b8565b60405180910390f35b6101d3610522565b005b6101dd61061f565b6040516101ea91906106f7565b60405180910390f35b61020d600480360381019061020891906106bb565b610625565b60405161021a91906106f7565b60405180910390f35b61022b61063d565b60405161023891906107b8565b60405180910390f35b6000548110610285576040517f08c379a000000000000000000000000000000000000000000000000000000000815260040161027c9061085a565b60405180910390fd5b61028d61063d565b6102cc576040517f08c379a00000000000000000000000000000000000000000000000000000000081526004016102c3906108c6565b60405180910390fd5b600560003373ffffffffffffffffffffffffffffffffffffffff1673ffffffffffffffffffffffffffffffffffffffff16815260200190815260200160002060009054906101000a900460ff1615610359576040517f08c379a000000000000000000000000000000000000000000000000000000000815260040161035090610932565b60405180910390fd5b60646003541061039e576040517f08c379a00000000000000000000000000000000000000000000000000000000081526004016103959061099e565b60405180910390fd5b6001600560003373ffffffffffffffffffffffffffffffffffffffff1673ffffffffffffffffffffffffffffffffffffffff16815260200190815260200160002060006101000a81548160ff02191690831515021790555060016000828152602001908152602001600020600081548092919061041a906109ed565b919050555060036000815480929190610432906109ed565b919050555050565b7f000000000000000000000000000000000000000000000000000000000000000081565b60056020528060005260406000206000915054906101000a900460ff1681565b606481565b60005481565b600460009054906101000a900473ffffffffffffffffffffffffffffffffffffffff1681565b6000805482106104f4576040517f08c379a00000000000000000000000000000000000000000000000000000000081526004016104eb90610a81565b60405180910390fd5b60016000838152602001908152602001600020549050919050565b600260009054906101000a900460ff1681565b600260009054906101000a900460ff1615610572576040517f08c379a000000000000000000000000000000000000000000000000000000000815260040161056990610aed565b60405180910390fd5b600460009054906101000a900473ffffffffffffffffffffffffffffffffffffffff1673ffffffffffffffffffffffffffffffffffffffff163373ffffffffffffffffffffffffffffffffffffffff1614610602576040517f08c379a00000000000000000000000000000000000000000000000000000000081526004016105f990610b7f565b60405180910390fd5b6001600260006101000a81548160ff021916908315150217905550565b60035481565b60016020528060005260406000206000915090505481565b60007f00000000000000000000000000000000000000000000000000000000000000004210801561067b5750600260009054906101000a900460ff16155b905090565b600080fd5b6000819050919050565b61069881610685565b81146106a357600080fd5b50565b6000813590506106b58161068f565b92915050565b6000602082840312156106d1576106d0610680565b5b60006106df848285016106a6565b91505092915050565b6106f181610685565b82525050565b600060208201905061070c60008301846106e8565b92915050565b600073ffffffffffffffffffffffffffffffffffffffff82169050919050565b600061073d82610712565b9050919050565b61074d81610732565b811461075857600080fd5b50565b60008135905061076a81610744565b92915050565b60006020828403121561078657610785610680565b5b60006107948482850161075b565b91505092915050565b60008115159050919050565b6107b28161079d565b82525050565b60006020820190506107cd60008301846107a9565b92915050565b6107dc81610732565b82525050565b60006020820190506107f760008301846107d3565b92915050565b600082825260208201905092915050565b7f496e76616c69642063616e646964617465206964000000000000000000000000600082015250565b60006108446014836107fd565b915061084f8261080e565b602082019050919050565b6000602082019050818103600083015261087381610837565b9050919050565b7f566f74696e67206973206e6f74206f70656e0000000000000000000000000000600082015250565b60006108b06012836107fd565b91506108bb8261087a565b602082019050919050565b600060208201905081810360008301526108df816108a3565b9050919050565b7f416c726561647920566f74656400000000000000000000000000000000000000600082015250565b600061091c600d836107fd565b9150610927826108e6565b602082019050919050565b6000602082019050818103600083015261094b8161090f565b9050919050565b7f4d617820766f7465727320726561636865640000000000000000000000000000600082015250565b60006109886012836107fd565b915061099382610952565b602082019050919050565b600060208201905081810360008301526109b78161097b565b9050919050565b7f4e487b7100000000000000000000000000000000000000000000000000000000600052601160045260246000fd5b60006109f882610685565b91507fffffffffffffffffffffffffffffffffffffffffffffffffffffffffffffffff8203610a2a57610a296109be565b5b600182019050919050565b7f496e76616c69642043616e646964617465000000000000000000000000000000600082015250565b6000610a6b6011836107fd565b9150610a7682610a35565b602082019050919050565b60006020820190508181036000830152610a9a81610a5e565b9050919050565b7f697420697320616c726561647920636c6f736500000000000000000000000000600082015250565b6000610ad76013836107fd565b9150610ae282610aa1565b602082019050919050565b60006020820190508181036000830152610b0681610aca565b9050919050565b7f6f6e6c7920746865206f776e65722063616e20636c6f73652074686520766f7460008201527f696e672073797374656d00000000000000000000000000000000000000000000602082015250565b6000610b69602a836107fd565b9150610b7482610b0d565b604082019050919050565b60006020820190508181036000830152610b9881610b5c565b905091905056fea2646970667358221220774045f1c9f608cd8667a5cae4505b957da956335c936d64f88500705df873cb64736f6c63430008100033",
					"opcodes": "PUSH1 0xA0 PUSH1 0x40 MSTORE CALLVALUE DUP1 ISZERO PUSH3 0x11 JUMPI PUSH1 0x0 DUP1 REVERT JUMPDEST POP PUSH1 0x40 MLOAD PUSH3 0xD72 CODESIZE SUB DUP1 PUSH3 0xD72 DUP4 CODECOPY DUP2 DUP2 ADD PUSH1 0x40 MSTORE DUP2 ADD SWAP1 PUSH3 0x37 SWAP2 SWAP1 PUSH3 0xDE JUMP JUMPDEST PUSH3 0x15180 TIMESTAMP PUSH3 0x48 SWAP2 SWAP1 PUSH3 0x13F JUMP JUMPDEST PUSH1 0x80 DUP2 DUP2 MSTORE POP POP CALLER PUSH1 0x4 PUSH1 0x0 PUSH2 0x100 EXP DUP2 SLOAD DUP2 PUSH20 0xFFFFFFFFFFFFFFFFFFFFFFFFFFFFFFFFFFFFFFFF MUL NOT AND SWAP1 DUP4 PUSH20 0xFFFFFFFFFFFFFFFFFFFFFFFFFFFFFFFFFFFFFFFF AND MUL OR SWAP1 SSTORE POP DUP1 PUSH1 0x0 DUP2 SWAP1 SSTORE POP POP PUSH3 0x17A JUMP JUMPDEST PUSH1 0x0 DUP1 REVERT JUMPDEST PUSH1 0x0 DUP2 SWAP1 POP SWAP2 SWAP1 POP JUMP JUMPDEST PUSH3 0xB8 DUP2 PUSH3 0xA3 JUMP JUMPDEST DUP2 EQ PUSH3 0xC4 JUMPI PUSH1 0x0 DUP1 REVERT JUMPDEST POP JUMP JUMPDEST PUSH1 0x0 DUP2 MLOAD SWAP1 POP PUSH3 0xD8 DUP2 PUSH3 0xAD JUMP JUMPDEST SWAP3 SWAP2 POP POP JUMP JUMPDEST PUSH1 0x0 PUSH1 0x20 DUP3 DUP5 SUB SLT ISZERO PUSH3 0xF7 JUMPI PUSH3 0xF6 PUSH3 0x9E JUMP JUMPDEST JUMPDEST PUSH1 0x0 PUSH3 0x107 DUP5 DUP3 DUP6 ADD PUSH3 0xC7 JUMP JUMPDEST SWAP2 POP POP SWAP3 SWAP2 POP POP JUMP JUMPDEST PUSH32 0x4E487B7100000000000000000000000000000000000000000000000000000000 PUSH1 0x0 MSTORE PUSH1 0x11 PUSH1 0x4 MSTORE PUSH1 0x24 PUSH1 0x0 REVERT JUMPDEST PUSH1 0x0 PUSH3 0x14C DUP3 PUSH3 0xA3 JUMP JUMPDEST SWAP2 POP PUSH3 0x159 DUP4 PUSH3 0xA3 JUMP JUMPDEST SWAP3 POP DUP3 DUP3 ADD SWAP1 POP DUP1 DUP3 GT ISZERO PUSH3 0x174 JUMPI PUSH3 0x173 PUSH3 0x110 JUMP JUMPDEST JUMPDEST SWAP3 SWAP2 POP POP JUMP JUMPDEST PUSH1 0x80 MLOAD PUSH2 0xBD5 PUSH3 0x19D PUSH1 0x0 CODECOPY PUSH1 0x0 DUP2 DUP2 PUSH2 0x43C ADD MSTORE PUSH2 0x641 ADD MSTORE PUSH2 0xBD5 PUSH1 0x0 RETURN INVALID PUSH1 0x80 PUSH1 0x40 MSTORE CALLVALUE DUP1 ISZERO PUSH2 0x10 JUMPI PUSH1 0x0 DUP1 REVERT JUMPDEST POP PUSH1 0x4 CALLDATASIZE LT PUSH2 0xB4 JUMPI PUSH1 0x0 CALLDATALOAD PUSH1 0xE0 SHR DUP1 PUSH4 0x995E4339 GT PUSH2 0x71 JUMPI DUP1 PUSH4 0x995E4339 EQ PUSH2 0x17D JUMPI DUP1 PUSH4 0xC2B6B58C EQ PUSH2 0x1AD JUMPI DUP1 PUSH4 0xC631B292 EQ PUSH2 0x1CB JUMPI DUP1 PUSH4 0xC6384071 EQ PUSH2 0x1D5 JUMPI DUP1 PUSH4 0xF3084A63 EQ PUSH2 0x1F3 JUMPI DUP1 PUSH4 0xFA7F1BAE EQ PUSH2 0x223 JUMPI PUSH2 0xB4 JUMP JUMPDEST DUP1 PUSH4 0x121B93F EQ PUSH2 0xB9 JUMPI DUP1 PUSH4 0x36EE850 EQ PUSH2 0xD5 JUMPI DUP1 PUSH4 0x9EEF43E EQ PUSH2 0xF3 JUMPI DUP1 PUSH4 0x3CEED692 EQ PUSH2 0x123 JUMPI DUP1 PUSH4 0x5216509A EQ PUSH2 0x141 JUMPI DUP1 PUSH4 0x8DA5CB5B EQ PUSH2 0x15F JUMPI JUMPDEST PUSH1 0x0 DUP1 REVERT JUMPDEST PUSH2 0xD3 PUSH1 0x4 DUP1 CALLDATASIZE SUB DUP2 ADD SWAP1 PUSH2 0xCE SWAP2 SWAP1 PUSH2 0x6BB JUMP JUMPDEST PUSH2 0x241 JUMP JUMPDEST STOP JUMPDEST PUSH2 0xDD PUSH2 0x43A JUMP JUMPDEST PUSH1 0x40 MLOAD PUSH2 0xEA SWAP2 SWAP1 PUSH2 0x6F7 JUMP JUMPDEST PUSH1 0x40 MLOAD DUP1 SWAP2 SUB SWAP1 RETURN JUMPDEST PUSH2 0x10D PUSH1 0x4 DUP1 CALLDATASIZE SUB DUP2 ADD SWAP1 PUSH2 0x108 SWAP2 SWAP1 PUSH2 0x770 JUMP JUMPDEST PUSH2 0x45E JUMP JUMPDEST PUSH1 0x40 MLOAD PUSH2 0x11A SWAP2 SWAP1 PUSH2 0x7B8 JUMP JUMPDEST PUSH1 0x40 MLOAD DUP1 SWAP2 SUB SWAP1 RETURN JUMPDEST PUSH2 0x12B PUSH2 0x47E JUMP JUMPDEST PUSH1 0x40 MLOAD PUSH2 0x138 SWAP2 SWAP1 PUSH2 0x6F7 JUMP JUMPDEST PUSH1 0x40 MLOAD DUP1 SWAP2 SUB SWAP1 RETURN JUMPDEST PUSH2 0x149 PUSH2 0x483 JUMP JUMPDEST PUSH1 0x40 MLOAD PUSH2 0x156 SWAP2 SWAP1 PUSH2 0x6F7 JUMP JUMPDEST PUSH1 0x40 MLOAD DUP1 SWAP2 SUB SWAP1 RETURN JUMPDEST PUSH2 0x167 PUSH2 0x489 JUMP JUMPDEST PUSH1 0x40 MLOAD PUSH2 0x174 SWAP2 SWAP1 PUSH2 0x7E2 JUMP JUMPDEST PUSH1 0x40 MLOAD DUP1 SWAP2 SUB SWAP1 RETURN JUMPDEST PUSH2 0x197 PUSH1 0x4 DUP1 CALLDATASIZE SUB DUP2 ADD SWAP1 PUSH2 0x192 SWAP2 SWAP1 PUSH2 0x6BB JUMP JUMPDEST PUSH2 0x4AF JUMP JUMPDEST PUSH1 0x40 MLOAD PUSH2 0x1A4 SWAP2 SWAP1 PUSH2 0x6F7 JUMP JUMPDEST PUSH1 0x40 MLOAD DUP1 SWAP2 SUB SWAP1 RETURN JUMPDEST PUSH2 0x1B5 PUSH2 0x50F JUMP JUMPDEST PUSH1 0x40 MLOAD PUSH2 0x1C2 SWAP2 SWAP1 PUSH2 0x7B8 JUMP JUMPDEST PUSH1 0x40 MLOAD DUP1 SWAP2 SUB SWAP1 RETURN JUMPDEST PUSH2 0x1D3 PUSH2 0x522 JUMP JUMPDEST STOP JUMPDEST PUSH2 0x1DD PUSH2 0x61F JUMP JUMPDEST PUSH1 0x40 MLOAD PUSH2 0x1EA SWAP2 SWAP1 PUSH2 0x6F7 JUMP JUMPDEST PUSH1 0x40 MLOAD DUP1 SWAP2 SUB SWAP1 RETURN JUMPDEST PUSH2 0x20D PUSH1 0x4 DUP1 CALLDATASIZE SUB DUP2 ADD SWAP1 PUSH2 0x208 SWAP2 SWAP1 PUSH2 0x6BB JUMP JUMPDEST PUSH2 0x625 JUMP JUMPDEST PUSH1 0x40 MLOAD PUSH2 0x21A SWAP2 SWAP1 PUSH2 0x6F7 JUMP JUMPDEST PUSH1 0x40 MLOAD DUP1 SWAP2 SUB SWAP1 RETURN JUMPDEST PUSH2 0x22B PUSH2 0x63D JUMP JUMPDEST PUSH1 0x40 MLOAD PUSH2 0x238 SWAP2 SWAP1 PUSH2 0x7B8 JUMP JUMPDEST PUSH1 0x40 MLOAD DUP1 SWAP2 SUB SWAP1 RETURN JUMPDEST PUSH1 0x0 SLOAD DUP2 LT PUSH2 0x285 JUMPI PUSH1 0x40 MLOAD PUSH32 0x8C379A000000000000000000000000000000000000000000000000000000000 DUP2 MSTORE PUSH1 0x4 ADD PUSH2 0x27C SWAP1 PUSH2 0x85A JUMP JUMPDEST PUSH1 0x40 MLOAD DUP1 SWAP2 SUB SWAP1 REVERT JUMPDEST PUSH2 0x28D PUSH2 0x63D JUMP JUMPDEST PUSH2 0x2CC JUMPI PUSH1 0x40 MLOAD PUSH32 0x8C379A000000000000000000000000000000000000000000000000000000000 DUP2 MSTORE PUSH1 0x4 ADD PUSH2 0x2C3 SWAP1 PUSH2 0x8C6 JUMP JUMPDEST PUSH1 0x40 MLOAD DUP1 SWAP2 SUB SWAP1 REVERT JUMPDEST PUSH1 0x5 PUSH1 0x0 CALLER PUSH20 0xFFFFFFFFFFFFFFFFFFFFFFFFFFFFFFFFFFFFFFFF AND PUSH20 0xFFFFFFFFFFFFFFFFFFFFFFFFFFFFFFFFFFFFFFFF AND DUP2 MSTORE PUSH1 0x20 ADD SWAP1 DUP2 MSTORE PUSH1 0x20 ADD PUSH1 0x0 KECCAK256 PUSH1 0x0 SWAP1 SLOAD SWAP1 PUSH2 0x100 EXP SWAP1 DIV PUSH1 0xFF AND ISZERO PUSH2 0x359 JUMPI PUSH1 0x40 MLOAD PUSH32 0x8C379A000000000000000000000000000000000000000000000000000000000 DUP2 MSTORE PUSH1 0x4 ADD PUSH2 0x350 SWAP1 PUSH2 0x932 JUMP JUMPDEST PUSH1 0x40 MLOAD DUP1 SWAP2 SUB SWAP1 REVERT JUMPDEST PUSH1 0x64 PUSH1 0x3 SLOAD LT PUSH2 0x39E JUMPI PUSH1 0x40 MLOAD PUSH32 0x8C379A000000000000000000000000000000000000000000000000000000000 DUP2 MSTORE PUSH1 0x4 ADD PUSH2 0x395 SWAP1 PUSH2 0x99E JUMP JUMPDEST PUSH1 0x40 MLOAD DUP1 SWAP2 SUB SWAP1 REVERT JUMPDEST PUSH1 0x1 PUSH1 0x5 PUSH1 0x0 CALLER PUSH20 0xFFFFFFFFFFFFFFFFFFFFFFFFFFFFFFFFFFFFFFFF AND PUSH20 0xFFFFFFFFFFFFFFFFFFFFFFFFFFFFFFFFFFFFFFFF AND DUP2 MSTORE PUSH1 0x20 ADD SWAP1 DUP2 MSTORE PUSH1 0x20 ADD PUSH1 0x0 KECCAK256 PUSH1 0x0 PUSH2 0x100 EXP DUP2 SLOAD DUP2 PUSH1 0xFF MUL NOT AND SWAP1 DUP4 ISZERO ISZERO MUL OR SWAP1 SSTORE POP PUSH1 0x1 PUSH1 0x0 DUP3 DUP2 MSTORE PUSH1 0x20 ADD SWAP1 DUP2 MSTORE PUSH1 0x20 ADD PUSH1 0x0 KECCAK256 PUSH1 0x0 DUP2 SLOAD DUP1 SWAP3 SWAP2 SWAP1 PUSH2 0x41A SWAP1 PUSH2 0x9ED JUMP JUMPDEST SWAP2 SWAP1 POP SSTORE POP PUSH1 0x3 PUSH1 0x0 DUP2 SLOAD DUP1 SWAP3 SWAP2 SWAP1 PUSH2 0x432 SWAP1 PUSH2 0x9ED JUMP JUMPDEST SWAP2 SWAP1 POP SSTORE POP POP JUMP JUMPDEST PUSH32 0x0 DUP2 JUMP JUMPDEST PUSH1 0x5 PUSH1 0x20 MSTORE DUP1 PUSH1 0x0 MSTORE PUSH1 0x40 PUSH1 0x0 KECCAK256 PUSH1 0x0 SWAP2 POP SLOAD SWAP1 PUSH2 0x100 EXP SWAP1 DIV PUSH1 0xFF AND DUP2 JUMP JUMPDEST PUSH1 0x64 DUP2 JUMP JUMPDEST PUSH1 0x0 SLOAD DUP2 JUMP JUMPDEST PUSH1 0x4 PUSH1 0x0 SWAP1 SLOAD SWAP1 PUSH2 0x100 EXP SWAP1 DIV PUSH20 0xFFFFFFFFFFFFFFFFFFFFFFFFFFFFFFFFFFFFFFFF AND DUP2 JUMP JUMPDEST PUSH1 0x0 DUP1 SLOAD DUP3 LT PUSH2 0x4F4 JUMPI PUSH1 0x40 MLOAD PUSH32 0x8C379A000000000000000000000000000000000000000000000000000000000 DUP2 MSTORE PUSH1 0x4 ADD PUSH2 0x4EB SWAP1 PUSH2 0xA81 JUMP JUMPDEST PUSH1 0x40 MLOAD DUP1 SWAP2 SUB SWAP1 REVERT JUMPDEST PUSH1 0x1 PUSH1 0x0 DUP4 DUP2 MSTORE PUSH1 0x20 ADD SWAP1 DUP2 MSTORE PUSH1 0x20 ADD PUSH1 0x0 KECCAK256 SLOAD SWAP1 POP SWAP2 SWAP1 POP JUMP JUMPDEST PUSH1 0x2 PUSH1 0x0 SWAP1 SLOAD SWAP1 PUSH2 0x100 EXP SWAP1 DIV PUSH1 0xFF AND DUP2 JUMP JUMPDEST PUSH1 0x2 PUSH1 0x0 SWAP1 SLOAD SWAP1 PUSH2 0x100 EXP SWAP1 DIV PUSH1 0xFF AND ISZERO PUSH2 0x572 JUMPI PUSH1 0x40 MLOAD PUSH32 0x8C379A000000000000000000000000000000000000000000000000000000000 DUP2 MSTORE PUSH1 0x4 ADD PUSH2 0x569 SWAP1 PUSH2 0xAED JUMP JUMPDEST PUSH1 0x40 MLOAD DUP1 SWAP2 SUB SWAP1 REVERT JUMPDEST PUSH1 0x4 PUSH1 0x0 SWAP1 SLOAD SWAP1 PUSH2 0x100 EXP SWAP1 DIV PUSH20 0xFFFFFFFFFFFFFFFFFFFFFFFFFFFFFFFFFFFFFFFF AND PUSH20 0xFFFFFFFFFFFFFFFFFFFFFFFFFFFFFFFFFFFFFFFF AND CALLER PUSH20 0xFFFFFFFFFFFFFFFFFFFFFFFFFFFFFFFFFFFFFFFF AND EQ PUSH2 0x602 JUMPI PUSH1 0x40 MLOAD PUSH32 0x8C379A000000000000000000000000000000000000000000000000000000000 DUP2 MSTORE PUSH1 0x4 ADD PUSH2 0x5F9 SWAP1 PUSH2 0xB7F JUMP JUMPDEST PUSH1 0x40 MLOAD DUP1 SWAP2 SUB SWAP1 REVERT JUMPDEST PUSH1 0x1 PUSH1 0x2 PUSH1 0x0 PUSH2 0x100 EXP DUP2 SLOAD DUP2 PUSH1 0xFF MUL NOT AND SWAP1 DUP4 ISZERO ISZERO MUL OR SWAP1 SSTORE POP JUMP JUMPDEST PUSH1 0x3 SLOAD DUP2 JUMP JUMPDEST PUSH1 0x1 PUSH1 0x20 MSTORE DUP1 PUSH1 0x0 MSTORE PUSH1 0x40 PUSH1 0x0 KECCAK256 PUSH1 0x0 SWAP2 POP SWAP1 POP SLOAD DUP2 JUMP JUMPDEST PUSH1 0x0 PUSH32 0x0 TIMESTAMP LT DUP1 ISZERO PUSH2 0x67B JUMPI POP PUSH1 0x2 PUSH1 0x0 SWAP1 SLOAD SWAP1 PUSH2 0x100 EXP SWAP1 DIV PUSH1 0xFF AND ISZERO JUMPDEST SWAP1 POP SWAP1 JUMP JUMPDEST PUSH1 0x0 DUP1 REVERT JUMPDEST PUSH1 0x0 DUP2 SWAP1 POP SWAP2 SWAP1 POP JUMP JUMPDEST PUSH2 0x698 DUP2 PUSH2 0x685 JUMP JUMPDEST DUP2 EQ PUSH2 0x6A3 JUMPI PUSH1 0x0 DUP1 REVERT JUMPDEST POP JUMP JUMPDEST PUSH1 0x0 DUP2 CALLDATALOAD SWAP1 POP PUSH2 0x6B5 DUP2 PUSH2 0x68F JUMP JUMPDEST SWAP3 SWAP2 POP POP JUMP JUMPDEST PUSH1 0x0 PUSH1 0x20 DUP3 DUP5 SUB SLT ISZERO PUSH2 0x6D1 JUMPI PUSH2 0x6D0 PUSH2 0x680 JUMP JUMPDEST JUMPDEST PUSH1 0x0 PUSH2 0x6DF DUP5 DUP3 DUP6 ADD PUSH2 0x6A6 JUMP JUMPDEST SWAP2 POP POP SWAP3 SWAP2 POP POP JUMP JUMPDEST PUSH2 0x6F1 DUP2 PUSH2 0x685 JUMP JUMPDEST DUP3 MSTORE POP POP JUMP JUMPDEST PUSH1 0x0 PUSH1 0x20 DUP3 ADD SWAP1 POP PUSH2 0x70C PUSH1 0x0 DUP4 ADD DUP5 PUSH2 0x6E8 JUMP JUMPDEST SWAP3 SWAP2 POP POP JUMP JUMPDEST PUSH1 0x0 PUSH20 0xFFFFFFFFFFFFFFFFFFFFFFFFFFFFFFFFFFFFFFFF DUP3 AND SWAP1 POP SWAP2 SWAP1 POP JUMP JUMPDEST PUSH1 0x0 PUSH2 0x73D DUP3 PUSH2 0x712 JUMP JUMPDEST SWAP1 POP SWAP2 SWAP1 POP JUMP JUMPDEST PUSH2 0x74D DUP2 PUSH2 0x732 JUMP JUMPDEST DUP2 EQ PUSH2 0x758 JUMPI PUSH1 0x0 DUP1 REVERT JUMPDEST POP JUMP JUMPDEST PUSH1 0x0 DUP2 CALLDATALOAD SWAP1 POP PUSH2 0x76A DUP2 PUSH2 0x744 JUMP JUMPDEST SWAP3 SWAP2 POP POP JUMP JUMPDEST PUSH1 0x0 PUSH1 0x20 DUP3 DUP5 SUB SLT ISZERO PUSH2 0x786 JUMPI PUSH2 0x785 PUSH2 0x680 JUMP JUMPDEST JUMPDEST PUSH1 0x0 PUSH2 0x794 DUP5 DUP3 DUP6 ADD PUSH2 0x75B JUMP JUMPDEST SWAP2 POP POP SWAP3 SWAP2 POP POP JUMP JUMPDEST PUSH1 0x0 DUP2 ISZERO ISZERO SWAP1 POP SWAP2 SWAP1 POP JUMP JUMPDEST PUSH2 0x7B2 DUP2 PUSH2 0x79D JUMP JUMPDEST DUP3 MSTORE POP POP JUMP JUMPDEST PUSH1 0x0 PUSH1 0x20 DUP3 ADD SWAP1 POP PUSH2 0x7CD PUSH1 0x0 DUP4 ADD DUP5 PUSH2 0x7A9 JUMP JUMPDEST SWAP3 SWAP2 POP POP JUMP JUMPDEST PUSH2 0x7DC DUP2 PUSH2 0x732 JUMP JUMPDEST DUP3 MSTORE POP POP JUMP JUMPDEST PUSH1 0x0 PUSH1 0x20 DUP3 ADD SWAP1 POP PUSH2 0x7F7 PUSH1 0x0 DUP4 ADD DUP5 PUSH2 0x7D3 JUMP JUMPDEST SWAP3 SWAP2 POP POP JUMP JUMPDEST PUSH1 0x0 DUP3 DUP3 MSTORE PUSH1 0x20 DUP3 ADD SWAP1 POP SWAP3 SWAP2 POP POP JUMP JUMPDEST PUSH32 0x496E76616C69642063616E646964617465206964000000000000000000000000 PUSH1 0x0 DUP3 ADD MSTORE POP JUMP JUMPDEST PUSH1 0x0 PUSH2 0x844 PUSH1 0x14 DUP4 PUSH2 0x7FD JUMP JUMPDEST SWAP2 POP PUSH2 0x84F DUP3 PUSH2 0x80E JUMP JUMPDEST PUSH1 0x20 DUP3 ADD SWAP1 POP SWAP2 SWAP1 POP JUMP JUMPDEST PUSH1 0x0 PUSH1 0x20 DUP3 ADD SWAP1 POP DUP2 DUP2 SUB PUSH1 0x0 DUP4 ADD MSTORE PUSH2 0x873 DUP2 PUSH2 0x837 JUMP JUMPDEST SWAP1 POP SWAP2 SWAP1 POP JUMP JUMPDEST PUSH32 0x566F74696E67206973206E6F74206F70656E0000000000000000000000000000 PUSH1 0x0 DUP3 ADD MSTORE POP JUMP JUMPDEST PUSH1 0x0 PUSH2 0x8B0 PUSH1 0x12 DUP4 PUSH2 0x7FD JUMP JUMPDEST SWAP2 POP PUSH2 0x8BB DUP3 PUSH2 0x87A JUMP JUMPDEST PUSH1 0x20 DUP3 ADD SWAP1 POP SWAP2 SWAP1 POP JUMP JUMPDEST PUSH1 0x0 PUSH1 0x20 DUP3 ADD SWAP1 POP DUP2 DUP2 SUB PUSH1 0x0 DUP4 ADD MSTORE PUSH2 0x8DF DUP2 PUSH2 0x8A3 JUMP JUMPDEST SWAP1 POP SWAP2 SWAP1 POP JUMP JUMPDEST PUSH32 0x416C726561647920566F74656400000000000000000000000000000000000000 PUSH1 0x0 DUP3 ADD MSTORE POP JUMP JUMPDEST PUSH1 0x0 PUSH2 0x91C PUSH1 0xD DUP4 PUSH2 0x7FD JUMP JUMPDEST SWAP2 POP PUSH2 0x927 DUP3 PUSH2 0x8E6 JUMP JUMPDEST PUSH1 0x20 DUP3 ADD SWAP1 POP SWAP2 SWAP1 POP JUMP JUMPDEST PUSH1 0x0 PUSH1 0x20 DUP3 ADD SWAP1 POP DUP2 DUP2 SUB PUSH1 0x0 DUP4 ADD MSTORE PUSH2 0x94B DUP2 PUSH2 0x90F JUMP JUMPDEST SWAP1 POP SWAP2 SWAP1 POP JUMP JUMPDEST PUSH32 0x4D617820766F7465727320726561636865640000000000000000000000000000 PUSH1 0x0 DUP3 ADD MSTORE POP JUMP JUMPDEST PUSH1 0x0 PUSH2 0x988 PUSH1 0x12 DUP4 PUSH2 0x7FD JUMP JUMPDEST SWAP2 POP PUSH2 0x993 DUP3 PUSH2 0x952 JUMP JUMPDEST PUSH1 0x20 DUP3 ADD SWAP1 POP SWAP2 SWAP1 POP JUMP JUMPDEST PUSH1 0x0 PUSH1 0x20 DUP3 ADD SWAP1 POP DUP2 DUP2 SUB PUSH1 0x0 DUP4 ADD MSTORE PUSH2 0x9B7 DUP2 PUSH2 0x97B JUMP JUMPDEST SWAP1 POP SWAP2 SWAP1 POP JUMP JUMPDEST PUSH32 0x4E487B7100000000000000000000000000000000000000000000000000000000 PUSH1 0x0 MSTORE PUSH1 0x11 PUSH1 0x4 MSTORE PUSH1 0x24 PUSH1 0x0 REVERT JUMPDEST PUSH1 0x0 PUSH2 0x9F8 DUP3 PUSH2 0x685 JUMP JUMPDEST SWAP2 POP PUSH32 0xFFFFFFFFFFFFFFFFFFFFFFFFFFFFFFFFFFFFFFFFFFFFFFFFFFFFFFFFFFFFFFFF DUP3 SUB PUSH2 0xA2A JUMPI PUSH2 0xA29 PUSH2 0x9BE JUMP JUMPDEST JUMPDEST PUSH1 0x1 DUP3 ADD SWAP1 POP SWAP2 SWAP1 POP JUMP JUMPDEST PUSH32 0x496E76616C69642043616E646964617465000000000000000000000000000000 PUSH1 0x0 DUP3 ADD MSTORE POP JUMP JUMPDEST PUSH1 0x0 PUSH2 0xA6B PUSH1 0x11 DUP4 PUSH2 0x7FD JUMP JUMPDEST SWAP2 POP PUSH2 0xA76 DUP3 PUSH2 0xA35 JUMP JUMPDEST PUSH1 0x20 DUP3 ADD SWAP1 POP SWAP2 SWAP1 POP JUMP JUMPDEST PUSH1 0x0 PUSH1 0x20 DUP3 ADD SWAP1 POP DUP2 DUP2 SUB PUSH1 0x0 DUP4 ADD MSTORE PUSH2 0xA9A DUP2 PUSH2 0xA5E JUMP JUMPDEST SWAP1 POP SWAP2 SWAP1 POP JUMP JUMPDEST PUSH32 0x697420697320616C726561647920636C6F736500000000000000000000000000 PUSH1 0x0 DUP3 ADD MSTORE POP JUMP JUMPDEST PUSH1 0x0 PUSH2 0xAD7 PUSH1 0x13 DUP4 PUSH2 0x7FD JUMP JUMPDEST SWAP2 POP PUSH2 0xAE2 DUP3 PUSH2 0xAA1 JUMP JUMPDEST PUSH1 0x20 DUP3 ADD SWAP1 POP SWAP2 SWAP1 POP JUMP JUMPDEST PUSH1 0x0 PUSH1 0x20 DUP3 ADD SWAP1 POP DUP2 DUP2 SUB PUSH1 0x0 DUP4 ADD MSTORE PUSH2 0xB06 DUP2 PUSH2 0xACA JUMP JUMPDEST SWAP1 POP SWAP2 SWAP1 POP JUMP JUMPDEST PUSH32 0x6F6E6C7920746865206F776E65722063616E20636C6F73652074686520766F74 PUSH1 0x0 DUP3 ADD MSTORE PUSH32 0x696E672073797374656D00000000000000000000000000000000000000000000 PUSH1 0x20 DUP3 ADD MSTORE POP JUMP JUMPDEST PUSH1 0x0 PUSH2 0xB69 PUSH1 0x2A DUP4 PUSH2 0x7FD JUMP JUMPDEST SWAP2 POP PUSH2 0xB74 DUP3 PUSH2 0xB0D JUMP JUMPDEST PUSH1 0x40 DUP3 ADD SWAP1 POP SWAP2 SWAP1 POP JUMP JUMPDEST PUSH1 0x0 PUSH1 0x20 DUP3 ADD SWAP1 POP DUP2 DUP2 SUB PUSH1 0x0 DUP4 ADD MSTORE PUSH2 0xB98 DUP2 PUSH2 0xB5C JUMP JUMPDEST SWAP1 POP SWAP2 SWAP1 POP JUMP INVALID LOG2 PUSH5 0x6970667358 0x22 SLT KECCAK256 PUSH24 0x4045F1C9F608CD8667A5CAE4505B957DA956335C936D64F8 DUP6 STOP PUSH17 0x5DF873CB64736F6C634300081000330000 "
				},
				"gasEstimates": {
					"creation": {
						"codeDepositCost": "605800",
						"executionCost": "infinite",
						"totalCost": "infinite"
					},
					"external": {
						"MAX_VOTERS()": "396",
						"closeVoting()": "28781",
						"getResult(uint256)": "infinite",
						"hasVoted(address)": "2890",
						"isClosed()": "2493",
						"isVotingOpen()": "infinite",
						"numCandidates()": "2518",
						"owner()": "2625",
						"vote(uint256)": "infinite",
						"voteCount()": "2495",
						"votesReceived(uint256)": "infinite",
						"votingDeadline()": "infinite"
					}
				},
				"methodIdentifiers": {
					"MAX_VOTERS()": "3ceed692",
					"closeVoting()": "c631b292",
					"getResult(uint256)": "995e4339",
					"hasVoted(address)": "09eef43e",
					"isClosed()": "c2b6b58c",
					"isVotingOpen()": "fa7f1bae",
					"numCandidates()": "5216509a",
					"owner()": "8da5cb5b",
					"vote(uint256)": "0121b93f",
					"voteCount()": "c6384071",
					"votesReceived(uint256)": "f3084a63",
					"votingDeadline()": "036ee850"
				}
			},
			"storageLayout": {
				"storage": [
					{
						"astId": 3,
						"contract": "Contracts/votingSystem.sol:votingSystem",
						"label": "numCandidates",
						"offset": 0,
						"slot": "0",
						"type": "t_uint256"
					},
					{
						"astId": 7,
						"contract": "Contracts/votingSystem.sol:votingSystem",
						"label": "votesReceived",
						"offset": 0,
						"slot": "1",
						"type": "t_mapping(t_uint256,t_uint256)"
					},
					{
						"astId": 14,
						"contract": "Contracts/votingSystem.sol:votingSystem",
						"label": "isClosed",
						"offset": 0,
						"slot": "2",
						"type": "t_bool"
					},
					{
						"astId": 16,
						"contract": "Contracts/votingSystem.sol:votingSystem",
						"label": "voteCount",
						"offset": 0,
						"slot": "3",
						"type": "t_uint256"
					},
					{
						"astId": 18,
						"contract": "Contracts/votingSystem.sol:votingSystem",
						"label": "owner",
						"offset": 0,
						"slot": "4",
						"type": "t_address"
					},
					{
						"astId": 22,
						"contract": "Contracts/votingSystem.sol:votingSystem",
						"label": "hasVoted",
						"offset": 0,
						"slot": "5",
						"type": "t_mapping(t_address,t_bool)"
					}
				],
				"types": {
					"t_address": {
						"encoding": "inplace",
						"label": "address",
						"numberOfBytes": "20"
					},
					"t_bool": {
						"encoding": "inplace",
						"label": "bool",
						"numberOfBytes": "1"
					},
					"t_mapping(t_address,t_bool)": {
						"encoding": "mapping",
						"key": "t_address",
						"label": "mapping(address => bool)",
						"numberOfBytes": "32",
						"value": "t_bool"
					},
					"t_mapping(t_uint256,t_uint256)": {
						"encoding": "mapping",
						"key": "t_uint256",
						"label": "mapping(uint256 => uint256)",
						"numberOfBytes": "32",
						"value": "t_uint256"
					},
					"t_uint256": {
						"encoding": "inplace",
						"label": "uint256",
						"numberOfBytes": "32"
					}
				}
			},
			"userdoc": {
				"kind": "user",
				"methods": {},
				"version": 1
			}
		}
	}
}