{
	"Contracts/Transactions.sol": {
		"Transactions": {
			"abi": [
				{
					"anonymous": false,
					"inputs": [
						{
							"indexed": false,
							"internalType": "address",
							"name": "from",
							"type": "address"
						},
						{
							"indexed": false,
							"internalType": "address",
							"name": "receiver",
							"type": "address"
						},
						{
							"indexed": false,
							"internalType": "uint256",
							"name": "amount",
							"type": "uint256"
						},
						{
							"indexed": false,
							"internalType": "string",
							"name": "message",
							"type": "string"
						},
						{
							"indexed": false,
							"internalType": "uint256",
							"name": "timestamp",
							"type": "uint256"
						},
						{
							"indexed": false,
							"internalType": "string",
							"name": "keyword",
							"type": "string"
						}
					],
					"name": "Transfer",
					"type": "event"
				},
				{
					"inputs": [
						{
							"internalType": "address",
							"name": "receiver",
							"type": "address"
						},
						{
							"internalType": "uint256",
							"name": "amount",
							"type": "uint256"
						},
						{
							"internalType": "string",
							"name": "message",
							"type": "string"
						},
						{
							"internalType": "string",
							"name": "keyword",
							"type": "string"
						}
					],
					"name": "addTo",
					"outputs": [],
					"stateMutability": "nonpayable",
					"type": "function"
				},
				{
					"inputs": [],
					"name": "getALL",
					"outputs": [
						{
							"components": [
								{
									"internalType": "address",
									"name": "sender",
									"type": "address"
								},
								{
									"internalType": "address",
									"name": "receiver",
									"type": "address"
								},
								{
									"internalType": "uint256",
									"name": "amount",
									"type": "uint256"
								},
								{
									"internalType": "string",
									"name": "message",
									"type": "string"
								},
								{
									"internalType": "uint256",
									"name": "timestamp",
									"type": "uint256"
								},
								{
									"internalType": "string",
									"name": "keyword",
									"type": "string"
								}
							],
							"internalType": "struct Transactions.transferStruct[]",
							"name": "",
							"type": "tuple[]"
						}
					],
					"stateMutability": "view",
					"type": "function"
				},
				{
					"inputs": [],
					"name": "getTran",
					"outputs": [
						{
							"internalType": "uint256",
							"name": "",
							"type": "uint256"
						}
					],
					"stateMutability": "view",
					"type": "function"
				}
			],
			"devdoc": {
				"kind": "dev",
				"methods": {},
				"version": 1
			},
			"evm": {
				"assembly": "    /* \"Contracts/Transactions.sol\":58:1164  contract Transactions{... */\n  mstore(0x40, 0x80)\n  callvalue\n  dup1\n  iszero\n  tag_1\n  jumpi\n  0x00\n  dup1\n  revert\ntag_1:\n  pop\n  dataSize(sub_0)\n  dup1\n  dataOffset(sub_0)\n  0x00\n  codecopy\n  0x00\n  return\nstop\n\nsub_0: assembly {\n        /* \"Contracts/Transactions.sol\":58:1164  contract Transactions{... */\n      mstore(0x40, 0x80)\n      callvalue\n      dup1\n      iszero\n      tag_1\n      jumpi\n      0x00\n      dup1\n      revert\n    tag_1:\n      pop\n      jumpi(tag_2, lt(calldatasize, 0x04))\n      shr(0xe0, calldataload(0x00))\n      dup1\n      0xc8b71e0b\n      eq\n      tag_3\n      jumpi\n      dup1\n      0xc9e4c179\n      eq\n      tag_4\n      jumpi\n      dup1\n      0xf26d64d4\n      eq\n      tag_5\n      jumpi\n    tag_2:\n      0x00\n      dup1\n      revert\n        /* \"Contracts/Transactions.sol\":886:1024  function getALL() public view returns (transferStruct[] memory) {... */\n    tag_3:\n      tag_6\n      tag_7\n      jump\t// in\n    tag_6:\n      mload(0x40)\n      tag_8\n      swap2\n      swap1\n      tag_9\n      jump\t// in\n    tag_8:\n      mload(0x40)\n      dup1\n      swap2\n      sub\n      swap1\n      return\n        /* \"Contracts/Transactions.sol\":453:880  function addTo( address receiver, uint amount, string memory message, string memory keyword ) public {... */\n    tag_4:\n      tag_10\n      0x04\n      dup1\n      calldatasize\n      sub\n      dup2\n      add\n      swap1\n      tag_11\n      swap2\n      swap1\n      tag_12\n      jump\t// in\n    tag_11:\n      tag_13\n      jump\t// in\n    tag_10:\n      stop\n        /* \"Contracts/Transactions.sol\":1030:1160  function getTran() public view returns ( uint256 ) {... */\n    tag_5:\n      tag_14\n      tag_15\n      jump\t// in\n    tag_14:\n      mload(0x40)\n      tag_16\n      swap2\n      swap1\n      tag_17\n      jump\t// in\n    tag_16:\n      mload(0x40)\n      dup1\n      swap2\n      sub\n      swap1\n      return\n        /* \"Contracts/Transactions.sol\":886:1024  function getALL() public view returns (transferStruct[] memory) {... */\n    tag_7:\n        /* \"Contracts/Transactions.sol\":925:948  transferStruct[] memory */\n      0x60\n        /* \"Contracts/Transactions.sol\":1000:1012  transactions */\n      0x01\n        /* \"Contracts/Transactions.sol\":993:1012  return transactions */\n      dup1\n      sload\n      dup1\n      0x20\n      mul\n      0x20\n      add\n      mload(0x40)\n      swap1\n      dup2\n      add\n      0x40\n      mstore\n      dup1\n      swap3\n      swap2\n      swap1\n      dup2\n      dup2\n      mstore\n      0x20\n      add\n      0x00\n      swap1\n    tag_19:\n      dup3\n      dup3\n      lt\n      iszero\n      tag_20\n      jumpi\n      dup4\n      dup3\n      swap1\n      0x00\n      mstore\n      keccak256(0x00, 0x20)\n      swap1\n      0x06\n      mul\n      add\n      mload(0x40)\n      dup1\n      0xc0\n      add\n      0x40\n      mstore\n      swap1\n      dup2\n      0x00\n      dup3\n      add\n      0x00\n      swap1\n      sload\n      swap1\n      0x0100\n      exp\n      swap1\n      div\n      0xffffffffffffffffffffffffffffffffffffffff\n      and\n      0xffffffffffffffffffffffffffffffffffffffff\n      and\n      0xffffffffffffffffffffffffffffffffffffffff\n      and\n      dup2\n      mstore\n      0x20\n      add\n      0x01\n      dup3\n      add\n      0x00\n      swap1\n      sload\n      swap1\n      0x0100\n      exp\n      swap1\n      div\n      0xffffffffffffffffffffffffffffffffffffffff\n      and\n      0xffffffffffffffffffffffffffffffffffffffff\n      and\n      0xffffffffffffffffffffffffffffffffffffffff\n      and\n      dup2\n      mstore\n      0x20\n      add\n      0x02\n      dup3\n      add\n      sload\n      dup2\n      mstore\n      0x20\n      add\n      0x03\n      dup3\n      add\n      dup1\n      sload\n      tag_22\n      swap1\n      tag_23\n      jump\t// in\n    tag_22:\n      dup1\n      0x1f\n      add\n      0x20\n      dup1\n      swap2\n      div\n      mul\n      0x20\n      add\n      mload(0x40)\n      swap1\n      dup2\n      add\n      0x40\n      mstore\n      dup1\n      swap3\n      swap2\n      swap1\n      dup2\n      dup2\n      mstore\n      0x20\n      add\n      dup3\n      dup1\n      sload\n      tag_24\n      swap1\n      tag_23\n      jump\t// in\n    tag_24:\n      dup1\n      iszero\n      tag_25\n      jumpi\n      dup1\n      0x1f\n      lt\n      tag_26\n      jumpi\n      0x0100\n      dup1\n      dup4\n      sload\n      div\n      mul\n      dup4\n      mstore\n      swap2\n      0x20\n      add\n      swap2\n      jump(tag_25)\n    tag_26:\n      dup3\n      add\n      swap2\n      swap1\n      0x00\n      mstore\n      keccak256(0x00, 0x20)\n      swap1\n    tag_27:\n      dup2\n      sload\n      dup2\n      mstore\n      swap1\n      0x01\n      add\n      swap1\n      0x20\n      add\n      dup1\n      dup4\n      gt\n      tag_27\n      jumpi\n      dup3\n      swap1\n      sub\n      0x1f\n      and\n      dup3\n      add\n      swap2\n    tag_25:\n      pop\n      pop\n      pop\n      pop\n      pop\n      dup2\n      mstore\n      0x20\n      add\n      0x04\n      dup3\n      add\n      sload\n      dup2\n      mstore\n      0x20\n      add\n      0x05\n      dup3\n      add\n      dup1\n      sload\n      tag_28\n      swap1\n      tag_23\n      jump\t// in\n    tag_28:\n      dup1\n      0x1f\n      add\n      0x20\n      dup1\n      swap2\n      div\n      mul\n      0x20\n      add\n      mload(0x40)\n      swap1\n      dup2\n      add\n      0x40\n      mstore\n      dup1\n      swap3\n      swap2\n      swap1\n      dup2\n      dup2\n      mstore\n      0x20\n      add\n      dup3\n      dup1\n      sload\n      tag_29\n      swap1\n      tag_23\n      jump\t// in\n    tag_29:\n      dup1\n      iszero\n      tag_30\n      jumpi\n      dup1\n      0x1f\n      lt\n      tag_31\n      jumpi\n      0x0100\n      dup1\n      dup4\n      sload\n      div\n      mul\n      dup4\n      mstore\n      swap2\n      0x20\n      add\n      swap2\n      jump(tag_30)\n    tag_31:\n      dup3\n      add\n      swap2\n      swap1\n      0x00\n      mstore\n      keccak256(0x00, 0x20)\n      swap1\n    tag_32:\n      dup2\n      sload\n      dup2\n      mstore\n      swap1\n      0x01\n      add\n      swap1\n      0x20\n      add\n      dup1\n      dup4\n      gt\n      tag_32\n      jumpi\n      dup3\n      swap1\n      sub\n      0x1f\n      and\n      dup3\n      add\n      swap2\n    tag_30:\n      pop\n      pop\n      pop\n      pop\n      pop\n      dup2\n      mstore\n      pop\n      pop\n      dup2\n      mstore\n      0x20\n      add\n      swap1\n      0x01\n      add\n      swap1\n      jump(tag_19)\n    tag_20:\n      pop\n      pop\n      pop\n      pop\n      swap1\n      pop\n        /* \"Contracts/Transactions.sol\":886:1024  function getALL() public view returns (transferStruct[] memory) {... */\n      swap1\n      jump\t// out\n        /* \"Contracts/Transactions.sol\":453:880  function addTo( address receiver, uint amount, string memory message, string memory keyword ) public {... */\n    tag_13:\n        /* \"Contracts/Transactions.sol\":564:578  address sender */\n      0x00\n        /* \"Contracts/Transactions.sol\":581:591  msg.sender */\n      caller\n        /* \"Contracts/Transactions.sol\":564:591  address sender = msg.sender */\n      swap1\n      pop\n        /* \"Contracts/Transactions.sol\":602:635  transferStruct memory newTransfer */\n      0x00\n        /* \"Contracts/Transactions.sol\":638:716  transferStruct(msg.sender, receiver, amount, message, block.timestamp,keyword) */\n      mload(0x40)\n      dup1\n      0xc0\n      add\n      0x40\n      mstore\n      dup1\n        /* \"Contracts/Transactions.sol\":653:663  msg.sender */\n      caller\n        /* \"Contracts/Transactions.sol\":638:716  transferStruct(msg.sender, receiver, amount, message, block.timestamp,keyword) */\n      0xffffffffffffffffffffffffffffffffffffffff\n      and\n      dup2\n      mstore\n      0x20\n      add\n        /* \"Contracts/Transactions.sol\":665:673  receiver */\n      dup8\n        /* \"Contracts/Transactions.sol\":638:716  transferStruct(msg.sender, receiver, amount, message, block.timestamp,keyword) */\n      0xffffffffffffffffffffffffffffffffffffffff\n      and\n      dup2\n      mstore\n      0x20\n      add\n        /* \"Contracts/Transactions.sol\":675:681  amount */\n      dup7\n        /* \"Contracts/Transactions.sol\":638:716  transferStruct(msg.sender, receiver, amount, message, block.timestamp,keyword) */\n      dup2\n      mstore\n      0x20\n      add\n        /* \"Contracts/Transactions.sol\":683:690  message */\n      dup6\n        /* \"Contracts/Transactions.sol\":638:716  transferStruct(msg.sender, receiver, amount, message, block.timestamp,keyword) */\n      dup2\n      mstore\n      0x20\n      add\n        /* \"Contracts/Transactions.sol\":692:707  block.timestamp */\n      timestamp\n        /* \"Contracts/Transactions.sol\":638:716  transferStruct(msg.sender, receiver, amount, message, block.timestamp,keyword) */\n      dup2\n      mstore\n      0x20\n      add\n        /* \"Contracts/Transactions.sol\":708:715  keyword */\n      dup5\n        /* \"Contracts/Transactions.sol\":638:716  transferStruct(msg.sender, receiver, amount, message, block.timestamp,keyword) */\n      dup2\n      mstore\n      pop\n        /* \"Contracts/Transactions.sol\":602:716  transferStruct memory newTransfer = transferStruct(msg.sender, receiver, amount, message, block.timestamp,keyword) */\n      swap1\n      pop\n        /* \"Contracts/Transactions.sol\":727:739  transactions */\n      0x01\n        /* \"Contracts/Transactions.sol\":745:756  newTransfer */\n      dup2\n        /* \"Contracts/Transactions.sol\":727:757  transactions.push(newTransfer) */\n      swap1\n      dup1\n      0x01\n      dup2\n      sload\n      add\n      dup1\n      dup3\n      sstore\n      dup1\n      swap2\n      pop\n      pop\n      0x01\n      swap1\n      sub\n      swap1\n      0x00\n      mstore\n      keccak256(0x00, 0x20)\n      swap1\n      0x06\n      mul\n      add\n      0x00\n      swap1\n      swap2\n      swap1\n      swap2\n      swap1\n      swap2\n      pop\n      0x00\n      dup3\n      add\n      mload\n      dup2\n      0x00\n      add\n      exp(0x0100, 0x00)\n      dup2\n      sload\n      dup2\n      0xffffffffffffffffffffffffffffffffffffffff\n      mul\n      not\n      and\n      swap1\n      dup4\n      0xffffffffffffffffffffffffffffffffffffffff\n      and\n      mul\n      or\n      swap1\n      sstore\n      pop\n      0x20\n      dup3\n      add\n      mload\n      dup2\n      0x01\n      add\n      exp(0x0100, 0x00)\n      dup2\n      sload\n      dup2\n      0xffffffffffffffffffffffffffffffffffffffff\n      mul\n      not\n      and\n      swap1\n      dup4\n      0xffffffffffffffffffffffffffffffffffffffff\n      and\n      mul\n      or\n      swap1\n      sstore\n      pop\n      0x40\n      dup3\n      add\n      mload\n      dup2\n      0x02\n      add\n      sstore\n      0x60\n      dup3\n      add\n      mload\n      dup2\n      0x03\n      add\n      swap1\n      dup2\n      tag_35\n      swap2\n      swap1\n      tag_36\n      jump\t// in\n    tag_35:\n      pop\n      0x80\n      dup3\n      add\n      mload\n      dup2\n      0x04\n      add\n      sstore\n      0xa0\n      dup3\n      add\n      mload\n      dup2\n      0x05\n      add\n      swap1\n      dup2\n      tag_37\n      swap2\n      swap1\n      tag_36\n      jump\t// in\n    tag_37:\n      pop\n      pop\n      pop\n        /* \"Contracts/Transactions.sol\":773:842  Transfer(sender, receiver, amount, message, block.timestamp, keyword) */\n      0x416cfa4330a4565f45c2fd2dd4826a83a37443aba2ce6f79477c7355afac35fa\n        /* \"Contracts/Transactions.sol\":782:788  sender */\n      dup3\n        /* \"Contracts/Transactions.sol\":790:798  receiver */\n      dup8\n        /* \"Contracts/Transactions.sol\":800:806  amount */\n      dup8\n        /* \"Contracts/Transactions.sol\":808:815  message */\n      dup8\n        /* \"Contracts/Transactions.sol\":817:832  block.timestamp */\n      timestamp\n        /* \"Contracts/Transactions.sol\":834:841  keyword */\n      dup9\n        /* \"Contracts/Transactions.sol\":773:842  Transfer(sender, receiver, amount, message, block.timestamp, keyword) */\n      mload(0x40)\n      tag_38\n      swap7\n      swap6\n      swap5\n      swap4\n      swap3\n      swap2\n      swap1\n      tag_39\n      jump\t// in\n    tag_38:\n      mload(0x40)\n      dup1\n      swap2\n      sub\n      swap1\n      log1\n        /* \"Contracts/Transactions.sol\":853:871  transactionCounter */\n      0x00\n      dup1\n        /* \"Contracts/Transactions.sol\":853:873  transactionCounter++ */\n      dup2\n      sload\n      dup1\n      swap3\n      swap2\n      swap1\n      tag_40\n      swap1\n      tag_41\n      jump\t// in\n    tag_40:\n      swap2\n      swap1\n      pop\n      sstore\n      pop\n        /* \"Contracts/Transactions.sol\":554:880  {... */\n      pop\n      pop\n        /* \"Contracts/Transactions.sol\":453:880  function addTo( address receiver, uint amount, string memory message, string memory keyword ) public {... */\n      pop\n      pop\n      pop\n      pop\n      jump\t// out\n        /* \"Contracts/Transactions.sol\":1030:1160  function getTran() public view returns ( uint256 ) {... */\n    tag_15:\n        /* \"Contracts/Transactions.sol\":1071:1078  uint256 */\n      0x00\n        /* \"Contracts/Transactions.sol\":1135:1153  transactionCounter */\n      dup1\n      sload\n        /* \"Contracts/Transactions.sol\":1128:1153  return transactionCounter */\n      swap1\n      pop\n        /* \"Contracts/Transactions.sol\":1030:1160  function getTran() public view returns ( uint256 ) {... */\n      swap1\n      jump\t// out\n        /* \"#utility.yul\":7:151   */\n    tag_43:\n        /* \"#utility.yul\":104:110   */\n      0x00\n        /* \"#utility.yul\":138:143   */\n      dup2\n        /* \"#utility.yul\":132:144   */\n      mload\n        /* \"#utility.yul\":122:144   */\n      swap1\n      pop\n        /* \"#utility.yul\":7:151   */\n      swap2\n      swap1\n      pop\n      jump\t// out\n        /* \"#utility.yul\":157:371   */\n    tag_44:\n        /* \"#utility.yul\":286:297   */\n      0x00\n        /* \"#utility.yul\":320:326   */\n      dup3\n        /* \"#utility.yul\":315:318   */\n      dup3\n        /* \"#utility.yul\":308:327   */\n      mstore\n        /* \"#utility.yul\":360:364   */\n      0x20\n        /* \"#utility.yul\":355:358   */\n      dup3\n        /* \"#utility.yul\":351:365   */\n      add\n        /* \"#utility.yul\":336:365   */\n      swap1\n      pop\n        /* \"#utility.yul\":157:371   */\n      swap3\n      swap2\n      pop\n      pop\n      jump\t// out\n        /* \"#utility.yul\":377:539   */\n    tag_45:\n        /* \"#utility.yul\":474:478   */\n      0x00\n        /* \"#utility.yul\":497:500   */\n      dup2\n        /* \"#utility.yul\":489:500   */\n      swap1\n      pop\n        /* \"#utility.yul\":527:531   */\n      0x20\n        /* \"#utility.yul\":522:525   */\n      dup3\n        /* \"#utility.yul\":518:532   */\n      add\n        /* \"#utility.yul\":510:532   */\n      swap1\n      pop\n        /* \"#utility.yul\":377:539   */\n      swap2\n      swap1\n      pop\n      jump\t// out\n        /* \"#utility.yul\":545:671   */\n    tag_46:\n        /* \"#utility.yul\":582:589   */\n      0x00\n        /* \"#utility.yul\":622:664   */\n      0xffffffffffffffffffffffffffffffffffffffff\n        /* \"#utility.yul\":615:620   */\n      dup3\n        /* \"#utility.yul\":611:665   */\n      and\n        /* \"#utility.yul\":600:665   */\n      swap1\n      pop\n        /* \"#utility.yul\":545:671   */\n      swap2\n      swap1\n      pop\n      jump\t// out\n        /* \"#utility.yul\":677:773   */\n    tag_47:\n        /* \"#utility.yul\":714:721   */\n      0x00\n        /* \"#utility.yul\":743:767   */\n      tag_103\n        /* \"#utility.yul\":761:766   */\n      dup3\n        /* \"#utility.yul\":743:767   */\n      tag_46\n      jump\t// in\n    tag_103:\n        /* \"#utility.yul\":732:767   */\n      swap1\n      pop\n        /* \"#utility.yul\":677:773   */\n      swap2\n      swap1\n      pop\n      jump\t// out\n        /* \"#utility.yul\":779:887   */\n    tag_48:\n        /* \"#utility.yul\":856:880   */\n      tag_105\n        /* \"#utility.yul\":874:879   */\n      dup2\n        /* \"#utility.yul\":856:880   */\n      tag_47\n      jump\t// in\n    tag_105:\n        /* \"#utility.yul\":851:854   */\n      dup3\n        /* \"#utility.yul\":844:881   */\n      mstore\n        /* \"#utility.yul\":779:887   */\n      pop\n      pop\n      jump\t// out\n        /* \"#utility.yul\":893:970   */\n    tag_49:\n        /* \"#utility.yul\":930:937   */\n      0x00\n        /* \"#utility.yul\":959:964   */\n      dup2\n        /* \"#utility.yul\":948:964   */\n      swap1\n      pop\n        /* \"#utility.yul\":893:970   */\n      swap2\n      swap1\n      pop\n      jump\t// out\n        /* \"#utility.yul\":976:1084   */\n    tag_50:\n        /* \"#utility.yul\":1053:1077   */\n      tag_108\n        /* \"#utility.yul\":1071:1076   */\n      dup2\n        /* \"#utility.yul\":1053:1077   */\n      tag_49\n      jump\t// in\n    tag_108:\n        /* \"#utility.yul\":1048:1051   */\n      dup3\n        /* \"#utility.yul\":1041:1078   */\n      mstore\n        /* \"#utility.yul\":976:1084   */\n      pop\n      pop\n      jump\t// out\n        /* \"#utility.yul\":1090:1189   */\n    tag_51:\n        /* \"#utility.yul\":1142:1148   */\n      0x00\n        /* \"#utility.yul\":1176:1181   */\n      dup2\n        /* \"#utility.yul\":1170:1182   */\n      mload\n        /* \"#utility.yul\":1160:1182   */\n      swap1\n      pop\n        /* \"#utility.yul\":1090:1189   */\n      swap2\n      swap1\n      pop\n      jump\t// out\n        /* \"#utility.yul\":1195:1354   */\n    tag_52:\n        /* \"#utility.yul\":1269:1280   */\n      0x00\n        /* \"#utility.yul\":1303:1309   */\n      dup3\n        /* \"#utility.yul\":1298:1301   */\n      dup3\n        /* \"#utility.yul\":1291:1310   */\n      mstore\n        /* \"#utility.yul\":1343:1347   */\n      0x20\n        /* \"#utility.yul\":1338:1341   */\n      dup3\n        /* \"#utility.yul\":1334:1348   */\n      add\n        /* \"#utility.yul\":1319:1348   */\n      swap1\n      pop\n        /* \"#utility.yul\":1195:1354   */\n      swap3\n      swap2\n      pop\n      pop\n      jump\t// out\n        /* \"#utility.yul\":1360:1606   */\n    tag_53:\n        /* \"#utility.yul\":1441:1442   */\n      0x00\n        /* \"#utility.yul\":1451:1564   */\n    tag_112:\n        /* \"#utility.yul\":1465:1471   */\n      dup4\n        /* \"#utility.yul\":1462:1463   */\n      dup2\n        /* \"#utility.yul\":1459:1472   */\n      lt\n        /* \"#utility.yul\":1451:1564   */\n      iszero\n      tag_114\n      jumpi\n        /* \"#utility.yul\":1550:1551   */\n      dup1\n        /* \"#utility.yul\":1545:1548   */\n      dup3\n        /* \"#utility.yul\":1541:1552   */\n      add\n        /* \"#utility.yul\":1535:1553   */\n      mload\n        /* \"#utility.yul\":1531:1532   */\n      dup2\n        /* \"#utility.yul\":1526:1529   */\n      dup5\n        /* \"#utility.yul\":1522:1533   */\n      add\n        /* \"#utility.yul\":1515:1554   */\n      mstore\n        /* \"#utility.yul\":1487:1489   */\n      0x20\n        /* \"#utility.yul\":1484:1485   */\n      dup2\n        /* \"#utility.yul\":1480:1490   */\n      add\n        /* \"#utility.yul\":1475:1490   */\n      swap1\n      pop\n        /* \"#utility.yul\":1451:1564   */\n      jump(tag_112)\n    tag_114:\n        /* \"#utility.yul\":1598:1599   */\n      0x00\n        /* \"#utility.yul\":1589:1595   */\n      dup5\n        /* \"#utility.yul\":1584:1587   */\n      dup5\n        /* \"#utility.yul\":1580:1596   */\n      add\n        /* \"#utility.yul\":1573:1600   */\n      mstore\n        /* \"#utility.yul\":1422:1606   */\n      pop\n        /* \"#utility.yul\":1360:1606   */\n      pop\n      pop\n      pop\n      jump\t// out\n        /* \"#utility.yul\":1612:1714   */\n    tag_54:\n        /* \"#utility.yul\":1653:1659   */\n      0x00\n        /* \"#utility.yul\":1704:1706   */\n      0x1f\n        /* \"#utility.yul\":1700:1707   */\n      not\n        /* \"#utility.yul\":1695:1697   */\n      0x1f\n        /* \"#utility.yul\":1688:1693   */\n      dup4\n        /* \"#utility.yul\":1684:1698   */\n      add\n        /* \"#utility.yul\":1680:1708   */\n      and\n        /* \"#utility.yul\":1670:1708   */\n      swap1\n      pop\n        /* \"#utility.yul\":1612:1714   */\n      swap2\n      swap1\n      pop\n      jump\t// out\n        /* \"#utility.yul\":1720:2077   */\n    tag_55:\n        /* \"#utility.yul\":1798:1801   */\n      0x00\n        /* \"#utility.yul\":1826:1865   */\n      tag_117\n        /* \"#utility.yul\":1859:1864   */\n      dup3\n        /* \"#utility.yul\":1826:1865   */\n      tag_51\n      jump\t// in\n    tag_117:\n        /* \"#utility.yul\":1881:1942   */\n      tag_118\n        /* \"#utility.yul\":1935:1941   */\n      dup2\n        /* \"#utility.yul\":1930:1933   */\n      dup6\n        /* \"#utility.yul\":1881:1942   */\n      tag_52\n      jump\t// in\n    tag_118:\n        /* \"#utility.yul\":1874:1942   */\n      swap4\n      pop\n        /* \"#utility.yul\":1951:2016   */\n      tag_119\n        /* \"#utility.yul\":2009:2015   */\n      dup2\n        /* \"#utility.yul\":2004:2007   */\n      dup6\n        /* \"#utility.yul\":1997:2001   */\n      0x20\n        /* \"#utility.yul\":1990:1995   */\n      dup7\n        /* \"#utility.yul\":1986:2002   */\n      add\n        /* \"#utility.yul\":1951:2016   */\n      tag_53\n      jump\t// in\n    tag_119:\n        /* \"#utility.yul\":2041:2070   */\n      tag_120\n        /* \"#utility.yul\":2063:2069   */\n      dup2\n        /* \"#utility.yul\":2041:2070   */\n      tag_54\n      jump\t// in\n    tag_120:\n        /* \"#utility.yul\":2036:2039   */\n      dup5\n        /* \"#utility.yul\":2032:2071   */\n      add\n        /* \"#utility.yul\":2025:2071   */\n      swap2\n      pop\n        /* \"#utility.yul\":1802:2077   */\n      pop\n        /* \"#utility.yul\":1720:2077   */\n      swap3\n      swap2\n      pop\n      pop\n      jump\t// out\n        /* \"#utility.yul\":2163:3555   */\n    tag_56:\n        /* \"#utility.yul\":2282:2285   */\n      0x00\n        /* \"#utility.yul\":2318:2322   */\n      0xc0\n        /* \"#utility.yul\":2313:2316   */\n      dup4\n        /* \"#utility.yul\":2309:2323   */\n      add\n        /* \"#utility.yul\":2407:2411   */\n      0x00\n        /* \"#utility.yul\":2400:2405   */\n      dup4\n        /* \"#utility.yul\":2396:2412   */\n      add\n        /* \"#utility.yul\":2390:2413   */\n      mload\n        /* \"#utility.yul\":2426:2489   */\n      tag_122\n        /* \"#utility.yul\":2483:2487   */\n      0x00\n        /* \"#utility.yul\":2478:2481   */\n      dup7\n        /* \"#utility.yul\":2474:2488   */\n      add\n        /* \"#utility.yul\":2460:2472   */\n      dup3\n        /* \"#utility.yul\":2426:2489   */\n      tag_48\n      jump\t// in\n    tag_122:\n        /* \"#utility.yul\":2333:2499   */\n      pop\n        /* \"#utility.yul\":2585:2589   */\n      0x20\n        /* \"#utility.yul\":2578:2583   */\n      dup4\n        /* \"#utility.yul\":2574:2590   */\n      add\n        /* \"#utility.yul\":2568:2591   */\n      mload\n        /* \"#utility.yul\":2604:2667   */\n      tag_123\n        /* \"#utility.yul\":2661:2665   */\n      0x20\n        /* \"#utility.yul\":2656:2659   */\n      dup7\n        /* \"#utility.yul\":2652:2666   */\n      add\n        /* \"#utility.yul\":2638:2650   */\n      dup3\n        /* \"#utility.yul\":2604:2667   */\n      tag_48\n      jump\t// in\n    tag_123:\n        /* \"#utility.yul\":2509:2677   */\n      pop\n        /* \"#utility.yul\":2761:2765   */\n      0x40\n        /* \"#utility.yul\":2754:2759   */\n      dup4\n        /* \"#utility.yul\":2750:2766   */\n      add\n        /* \"#utility.yul\":2744:2767   */\n      mload\n        /* \"#utility.yul\":2780:2843   */\n      tag_124\n        /* \"#utility.yul\":2837:2841   */\n      0x40\n        /* \"#utility.yul\":2832:2835   */\n      dup7\n        /* \"#utility.yul\":2828:2842   */\n      add\n        /* \"#utility.yul\":2814:2826   */\n      dup3\n        /* \"#utility.yul\":2780:2843   */\n      tag_50\n      jump\t// in\n    tag_124:\n        /* \"#utility.yul\":2687:2853   */\n      pop\n        /* \"#utility.yul\":2938:2942   */\n      0x60\n        /* \"#utility.yul\":2931:2936   */\n      dup4\n        /* \"#utility.yul\":2927:2943   */\n      add\n        /* \"#utility.yul\":2921:2944   */\n      mload\n        /* \"#utility.yul\":2991:2994   */\n      dup5\n        /* \"#utility.yul\":2985:2989   */\n      dup3\n        /* \"#utility.yul\":2981:2995   */\n      sub\n        /* \"#utility.yul\":2974:2978   */\n      0x60\n        /* \"#utility.yul\":2969:2972   */\n      dup7\n        /* \"#utility.yul\":2965:2979   */\n      add\n        /* \"#utility.yul\":2958:2996   */\n      mstore\n        /* \"#utility.yul\":3017:3090   */\n      tag_125\n        /* \"#utility.yul\":3085:3089   */\n      dup3\n        /* \"#utility.yul\":3071:3083   */\n      dup3\n        /* \"#utility.yul\":3017:3090   */\n      tag_55\n      jump\t// in\n    tag_125:\n        /* \"#utility.yul\":3009:3090   */\n      swap2\n      pop\n        /* \"#utility.yul\":2863:3101   */\n      pop\n        /* \"#utility.yul\":3188:3192   */\n      0x80\n        /* \"#utility.yul\":3181:3186   */\n      dup4\n        /* \"#utility.yul\":3177:3193   */\n      add\n        /* \"#utility.yul\":3171:3194   */\n      mload\n        /* \"#utility.yul\":3207:3270   */\n      tag_126\n        /* \"#utility.yul\":3264:3268   */\n      0x80\n        /* \"#utility.yul\":3259:3262   */\n      dup7\n        /* \"#utility.yul\":3255:3269   */\n      add\n        /* \"#utility.yul\":3241:3253   */\n      dup3\n        /* \"#utility.yul\":3207:3270   */\n      tag_50\n      jump\t// in\n    tag_126:\n        /* \"#utility.yul\":3111:3280   */\n      pop\n        /* \"#utility.yul\":3365:3369   */\n      0xa0\n        /* \"#utility.yul\":3358:3363   */\n      dup4\n        /* \"#utility.yul\":3354:3370   */\n      add\n        /* \"#utility.yul\":3348:3371   */\n      mload\n        /* \"#utility.yul\":3418:3421   */\n      dup5\n        /* \"#utility.yul\":3412:3416   */\n      dup3\n        /* \"#utility.yul\":3408:3422   */\n      sub\n        /* \"#utility.yul\":3401:3405   */\n      0xa0\n        /* \"#utility.yul\":3396:3399   */\n      dup7\n        /* \"#utility.yul\":3392:3406   */\n      add\n        /* \"#utility.yul\":3385:3423   */\n      mstore\n        /* \"#utility.yul\":3444:3517   */\n      tag_127\n        /* \"#utility.yul\":3512:3516   */\n      dup3\n        /* \"#utility.yul\":3498:3510   */\n      dup3\n        /* \"#utility.yul\":3444:3517   */\n      tag_55\n      jump\t// in\n    tag_127:\n        /* \"#utility.yul\":3436:3517   */\n      swap2\n      pop\n        /* \"#utility.yul\":3290:3528   */\n      pop\n        /* \"#utility.yul\":3545:3549   */\n      dup1\n        /* \"#utility.yul\":3538:3549   */\n      swap2\n      pop\n        /* \"#utility.yul\":2287:3555   */\n      pop\n        /* \"#utility.yul\":2163:3555   */\n      swap3\n      swap2\n      pop\n      pop\n      jump\t// out\n        /* \"#utility.yul\":3561:3837   */\n    tag_57:\n        /* \"#utility.yul\":3690:3700   */\n      0x00\n        /* \"#utility.yul\":3725:3831   */\n      tag_129\n        /* \"#utility.yul\":3827:3830   */\n      dup4\n        /* \"#utility.yul\":3819:3825   */\n      dup4\n        /* \"#utility.yul\":3725:3831   */\n      tag_56\n      jump\t// in\n    tag_129:\n        /* \"#utility.yul\":3711:3831   */\n      swap1\n      pop\n        /* \"#utility.yul\":3561:3837   */\n      swap3\n      swap2\n      pop\n      pop\n      jump\t// out\n        /* \"#utility.yul\":3843:3986   */\n    tag_58:\n        /* \"#utility.yul\":3943:3947   */\n      0x00\n        /* \"#utility.yul\":3975:3979   */\n      0x20\n        /* \"#utility.yul\":3970:3973   */\n      dup3\n        /* \"#utility.yul\":3966:3980   */\n      add\n        /* \"#utility.yul\":3958:3980   */\n      swap1\n      pop\n        /* \"#utility.yul\":3843:3986   */\n      swap2\n      swap1\n      pop\n      jump\t// out\n        /* \"#utility.yul\":4076:5227   */\n    tag_59:\n        /* \"#utility.yul\":4255:4258   */\n      0x00\n        /* \"#utility.yul\":4284:4368   */\n      tag_132\n        /* \"#utility.yul\":4362:4367   */\n      dup3\n        /* \"#utility.yul\":4284:4368   */\n      tag_43\n      jump\t// in\n    tag_132:\n        /* \"#utility.yul\":4384:4500   */\n      tag_133\n        /* \"#utility.yul\":4493:4499   */\n      dup2\n        /* \"#utility.yul\":4488:4491   */\n      dup6\n        /* \"#utility.yul\":4384:4500   */\n      tag_44\n      jump\t// in\n    tag_133:\n        /* \"#utility.yul\":4377:4500   */\n      swap4\n      pop\n        /* \"#utility.yul\":4526:4529   */\n      dup4\n        /* \"#utility.yul\":4571:4575   */\n      0x20\n        /* \"#utility.yul\":4563:4569   */\n      dup3\n        /* \"#utility.yul\":4559:4576   */\n      mul\n        /* \"#utility.yul\":4554:4557   */\n      dup6\n        /* \"#utility.yul\":4550:4577   */\n      add\n        /* \"#utility.yul\":4601:4687   */\n      tag_134\n        /* \"#utility.yul\":4681:4686   */\n      dup6\n        /* \"#utility.yul\":4601:4687   */\n      tag_45\n      jump\t// in\n    tag_134:\n        /* \"#utility.yul\":4710:4717   */\n      dup1\n        /* \"#utility.yul\":4741:4742   */\n      0x00\n        /* \"#utility.yul\":4726:5182   */\n    tag_135:\n        /* \"#utility.yul\":4751:4757   */\n      dup6\n        /* \"#utility.yul\":4748:4749   */\n      dup2\n        /* \"#utility.yul\":4745:4758   */\n      lt\n        /* \"#utility.yul\":4726:5182   */\n      iszero\n      tag_137\n      jumpi\n        /* \"#utility.yul\":4822:4831   */\n      dup5\n        /* \"#utility.yul\":4816:4820   */\n      dup5\n        /* \"#utility.yul\":4812:4832   */\n      sub\n        /* \"#utility.yul\":4807:4810   */\n      dup10\n        /* \"#utility.yul\":4800:4833   */\n      mstore\n        /* \"#utility.yul\":4873:4879   */\n      dup2\n        /* \"#utility.yul\":4867:4880   */\n      mload\n        /* \"#utility.yul\":4901:5025   */\n      tag_138\n        /* \"#utility.yul\":5020:5024   */\n      dup6\n        /* \"#utility.yul\":5005:5018   */\n      dup3\n        /* \"#utility.yul\":4901:5025   */\n      tag_57\n      jump\t// in\n    tag_138:\n        /* \"#utility.yul\":4893:5025   */\n      swap5\n      pop\n        /* \"#utility.yul\":5048:5138   */\n      tag_139\n        /* \"#utility.yul\":5131:5137   */\n      dup4\n        /* \"#utility.yul\":5048:5138   */\n      tag_58\n      jump\t// in\n    tag_139:\n        /* \"#utility.yul\":5038:5138   */\n      swap3\n      pop\n        /* \"#utility.yul\":5167:5171   */\n      0x20\n        /* \"#utility.yul\":5162:5165   */\n      dup11\n        /* \"#utility.yul\":5158:5172   */\n      add\n        /* \"#utility.yul\":5151:5172   */\n      swap10\n      pop\n        /* \"#utility.yul\":4786:5182   */\n      pop\n        /* \"#utility.yul\":4773:4774   */\n      0x01\n        /* \"#utility.yul\":4770:4771   */\n      dup2\n        /* \"#utility.yul\":4766:4775   */\n      add\n        /* \"#utility.yul\":4761:4775   */\n      swap1\n      pop\n        /* \"#utility.yul\":4726:5182   */\n      jump(tag_135)\n    tag_137:\n        /* \"#utility.yul\":4730:4744   */\n      pop\n        /* \"#utility.yul\":5198:5202   */\n      dup3\n        /* \"#utility.yul\":5191:5202   */\n      swap8\n      pop\n        /* \"#utility.yul\":5218:5221   */\n      dup8\n        /* \"#utility.yul\":5211:5221   */\n      swap6\n      pop\n        /* \"#utility.yul\":4260:5227   */\n      pop\n      pop\n      pop\n      pop\n      pop\n        /* \"#utility.yul\":4076:5227   */\n      swap3\n      swap2\n      pop\n      pop\n      jump\t// out\n        /* \"#utility.yul\":5233:5726   */\n    tag_9:\n        /* \"#utility.yul\":5436:5440   */\n      0x00\n        /* \"#utility.yul\":5474:5476   */\n      0x20\n        /* \"#utility.yul\":5463:5472   */\n      dup3\n        /* \"#utility.yul\":5459:5477   */\n      add\n        /* \"#utility.yul\":5451:5477   */\n      swap1\n      pop\n        /* \"#utility.yul\":5523:5532   */\n      dup2\n        /* \"#utility.yul\":5517:5521   */\n      dup2\n        /* \"#utility.yul\":5513:5533   */\n      sub\n        /* \"#utility.yul\":5509:5510   */\n      0x00\n        /* \"#utility.yul\":5498:5507   */\n      dup4\n        /* \"#utility.yul\":5494:5511   */\n      add\n        /* \"#utility.yul\":5487:5534   */\n      mstore\n        /* \"#utility.yul\":5551:5719   */\n      tag_141\n        /* \"#utility.yul\":5714:5718   */\n      dup2\n        /* \"#utility.yul\":5705:5711   */\n      dup5\n        /* \"#utility.yul\":5551:5719   */\n      tag_59\n      jump\t// in\n    tag_141:\n        /* \"#utility.yul\":5543:5719   */\n      swap1\n      pop\n        /* \"#utility.yul\":5233:5726   */\n      swap3\n      swap2\n      pop\n      pop\n      jump\t// out\n        /* \"#utility.yul\":5732:5807   */\n    tag_60:\n        /* \"#utility.yul\":5765:5771   */\n      0x00\n        /* \"#utility.yul\":5798:5800   */\n      0x40\n        /* \"#utility.yul\":5792:5801   */\n      mload\n        /* \"#utility.yul\":5782:5801   */\n      swap1\n      pop\n        /* \"#utility.yul\":5732:5807   */\n      swap1\n      jump\t// out\n        /* \"#utility.yul\":5813:5930   */\n    tag_61:\n        /* \"#utility.yul\":5922:5923   */\n      0x00\n        /* \"#utility.yul\":5919:5920   */\n      dup1\n        /* \"#utility.yul\":5912:5924   */\n      revert\n        /* \"#utility.yul\":5936:6053   */\n    tag_62:\n        /* \"#utility.yul\":6045:6046   */\n      0x00\n        /* \"#utility.yul\":6042:6043   */\n      dup1\n        /* \"#utility.yul\":6035:6047   */\n      revert\n        /* \"#utility.yul\":6059:6181   */\n    tag_63:\n        /* \"#utility.yul\":6132:6156   */\n      tag_146\n        /* \"#utility.yul\":6150:6155   */\n      dup2\n        /* \"#utility.yul\":6132:6156   */\n      tag_47\n      jump\t// in\n    tag_146:\n        /* \"#utility.yul\":6125:6130   */\n      dup2\n        /* \"#utility.yul\":6122:6157   */\n      eq\n        /* \"#utility.yul\":6112:6175   */\n      tag_147\n      jumpi\n        /* \"#utility.yul\":6171:6172   */\n      0x00\n        /* \"#utility.yul\":6168:6169   */\n      dup1\n        /* \"#utility.yul\":6161:6173   */\n      revert\n        /* \"#utility.yul\":6112:6175   */\n    tag_147:\n        /* \"#utility.yul\":6059:6181   */\n      pop\n      jump\t// out\n        /* \"#utility.yul\":6187:6326   */\n    tag_64:\n        /* \"#utility.yul\":6233:6238   */\n      0x00\n        /* \"#utility.yul\":6271:6277   */\n      dup2\n        /* \"#utility.yul\":6258:6278   */\n      calldataload\n        /* \"#utility.yul\":6249:6278   */\n      swap1\n      pop\n        /* \"#utility.yul\":6287:6320   */\n      tag_149\n        /* \"#utility.yul\":6314:6319   */\n      dup2\n        /* \"#utility.yul\":6287:6320   */\n      tag_63\n      jump\t// in\n    tag_149:\n        /* \"#utility.yul\":6187:6326   */\n      swap3\n      swap2\n      pop\n      pop\n      jump\t// out\n        /* \"#utility.yul\":6332:6454   */\n    tag_65:\n        /* \"#utility.yul\":6405:6429   */\n      tag_151\n        /* \"#utility.yul\":6423:6428   */\n      dup2\n        /* \"#utility.yul\":6405:6429   */\n      tag_49\n      jump\t// in\n    tag_151:\n        /* \"#utility.yul\":6398:6403   */\n      dup2\n        /* \"#utility.yul\":6395:6430   */\n      eq\n        /* \"#utility.yul\":6385:6448   */\n      tag_152\n      jumpi\n        /* \"#utility.yul\":6444:6445   */\n      0x00\n        /* \"#utility.yul\":6441:6442   */\n      dup1\n        /* \"#utility.yul\":6434:6446   */\n      revert\n        /* \"#utility.yul\":6385:6448   */\n    tag_152:\n        /* \"#utility.yul\":6332:6454   */\n      pop\n      jump\t// out\n        /* \"#utility.yul\":6460:6599   */\n    tag_66:\n        /* \"#utility.yul\":6506:6511   */\n      0x00\n        /* \"#utility.yul\":6544:6550   */\n      dup2\n        /* \"#utility.yul\":6531:6551   */\n      calldataload\n        /* \"#utility.yul\":6522:6551   */\n      swap1\n      pop\n        /* \"#utility.yul\":6560:6593   */\n      tag_154\n        /* \"#utility.yul\":6587:6592   */\n      dup2\n        /* \"#utility.yul\":6560:6593   */\n      tag_65\n      jump\t// in\n    tag_154:\n        /* \"#utility.yul\":6460:6599   */\n      swap3\n      swap2\n      pop\n      pop\n      jump\t// out\n        /* \"#utility.yul\":6605:6722   */\n    tag_67:\n        /* \"#utility.yul\":6714:6715   */\n      0x00\n        /* \"#utility.yul\":6711:6712   */\n      dup1\n        /* \"#utility.yul\":6704:6716   */\n      revert\n        /* \"#utility.yul\":6728:6845   */\n    tag_68:\n        /* \"#utility.yul\":6837:6838   */\n      0x00\n        /* \"#utility.yul\":6834:6835   */\n      dup1\n        /* \"#utility.yul\":6827:6839   */\n      revert\n        /* \"#utility.yul\":6851:7031   */\n    tag_69:\n        /* \"#utility.yul\":6899:6976   */\n      0x4e487b7100000000000000000000000000000000000000000000000000000000\n        /* \"#utility.yul\":6896:6897   */\n      0x00\n        /* \"#utility.yul\":6889:6977   */\n      mstore\n        /* \"#utility.yul\":6996:7000   */\n      0x41\n        /* \"#utility.yul\":6993:6994   */\n      0x04\n        /* \"#utility.yul\":6986:7001   */\n      mstore\n        /* \"#utility.yul\":7020:7024   */\n      0x24\n        /* \"#utility.yul\":7017:7018   */\n      0x00\n        /* \"#utility.yul\":7010:7025   */\n      revert\n        /* \"#utility.yul\":7037:7318   */\n    tag_70:\n        /* \"#utility.yul\":7120:7147   */\n      tag_159\n        /* \"#utility.yul\":7142:7146   */\n      dup3\n        /* \"#utility.yul\":7120:7147   */\n      tag_54\n      jump\t// in\n    tag_159:\n        /* \"#utility.yul\":7112:7118   */\n      dup2\n        /* \"#utility.yul\":7108:7148   */\n      add\n        /* \"#utility.yul\":7250:7256   */\n      dup2\n        /* \"#utility.yul\":7238:7248   */\n      dup2\n        /* \"#utility.yul\":7235:7257   */\n      lt\n        /* \"#utility.yul\":7214:7232   */\n      0xffffffffffffffff\n        /* \"#utility.yul\":7202:7212   */\n      dup3\n        /* \"#utility.yul\":7199:7233   */\n      gt\n        /* \"#utility.yul\":7196:7258   */\n      or\n        /* \"#utility.yul\":7193:7281   */\n      iszero\n      tag_160\n      jumpi\n        /* \"#utility.yul\":7261:7279   */\n      tag_161\n      tag_69\n      jump\t// in\n    tag_161:\n        /* \"#utility.yul\":7193:7281   */\n    tag_160:\n        /* \"#utility.yul\":7301:7311   */\n      dup1\n        /* \"#utility.yul\":7297:7299   */\n      0x40\n        /* \"#utility.yul\":7290:7312   */\n      mstore\n        /* \"#utility.yul\":7080:7318   */\n      pop\n        /* \"#utility.yul\":7037:7318   */\n      pop\n      pop\n      jump\t// out\n        /* \"#utility.yul\":7324:7453   */\n    tag_71:\n        /* \"#utility.yul\":7358:7364   */\n      0x00\n        /* \"#utility.yul\":7385:7405   */\n      tag_163\n      tag_60\n      jump\t// in\n    tag_163:\n        /* \"#utility.yul\":7375:7405   */\n      swap1\n      pop\n        /* \"#utility.yul\":7414:7447   */\n      tag_164\n        /* \"#utility.yul\":7442:7446   */\n      dup3\n        /* \"#utility.yul\":7434:7440   */\n      dup3\n        /* \"#utility.yul\":7414:7447   */\n      tag_70\n      jump\t// in\n    tag_164:\n        /* \"#utility.yul\":7324:7453   */\n      swap2\n      swap1\n      pop\n      jump\t// out\n        /* \"#utility.yul\":7459:7767   */\n    tag_72:\n        /* \"#utility.yul\":7521:7525   */\n      0x00\n        /* \"#utility.yul\":7611:7629   */\n      0xffffffffffffffff\n        /* \"#utility.yul\":7603:7609   */\n      dup3\n        /* \"#utility.yul\":7600:7630   */\n      gt\n        /* \"#utility.yul\":7597:7653   */\n      iszero\n      tag_166\n      jumpi\n        /* \"#utility.yul\":7633:7651   */\n      tag_167\n      tag_69\n      jump\t// in\n    tag_167:\n        /* \"#utility.yul\":7597:7653   */\n    tag_166:\n        /* \"#utility.yul\":7671:7700   */\n      tag_168\n        /* \"#utility.yul\":7693:7699   */\n      dup3\n        /* \"#utility.yul\":7671:7700   */\n      tag_54\n      jump\t// in\n    tag_168:\n        /* \"#utility.yul\":7663:7700   */\n      swap1\n      pop\n        /* \"#utility.yul\":7755:7759   */\n      0x20\n        /* \"#utility.yul\":7749:7753   */\n      dup2\n        /* \"#utility.yul\":7745:7760   */\n      add\n        /* \"#utility.yul\":7737:7760   */\n      swap1\n      pop\n        /* \"#utility.yul\":7459:7767   */\n      swap2\n      swap1\n      pop\n      jump\t// out\n        /* \"#utility.yul\":7773:7919   */\n    tag_73:\n        /* \"#utility.yul\":7870:7876   */\n      dup3\n        /* \"#utility.yul\":7865:7868   */\n      dup2\n        /* \"#utility.yul\":7860:7863   */\n      dup4\n        /* \"#utility.yul\":7847:7877   */\n      calldatacopy\n        /* \"#utility.yul\":7911:7912   */\n      0x00\n        /* \"#utility.yul\":7902:7908   */\n      dup4\n        /* \"#utility.yul\":7897:7900   */\n      dup4\n        /* \"#utility.yul\":7893:7909   */\n      add\n        /* \"#utility.yul\":7886:7913   */\n      mstore\n        /* \"#utility.yul\":7773:7919   */\n      pop\n      pop\n      pop\n      jump\t// out\n        /* \"#utility.yul\":7925:8350   */\n    tag_74:\n        /* \"#utility.yul\":8003:8008   */\n      0x00\n        /* \"#utility.yul\":8028:8094   */\n      tag_171\n        /* \"#utility.yul\":8044:8093   */\n      tag_172\n        /* \"#utility.yul\":8086:8092   */\n      dup5\n        /* \"#utility.yul\":8044:8093   */\n      tag_72\n      jump\t// in\n    tag_172:\n        /* \"#utility.yul\":8028:8094   */\n      tag_71\n      jump\t// in\n    tag_171:\n        /* \"#utility.yul\":8019:8094   */\n      swap1\n      pop\n        /* \"#utility.yul\":8117:8123   */\n      dup3\n        /* \"#utility.yul\":8110:8115   */\n      dup2\n        /* \"#utility.yul\":8103:8124   */\n      mstore\n        /* \"#utility.yul\":8155:8159   */\n      0x20\n        /* \"#utility.yul\":8148:8153   */\n      dup2\n        /* \"#utility.yul\":8144:8160   */\n      add\n        /* \"#utility.yul\":8193:8196   */\n      dup5\n        /* \"#utility.yul\":8184:8190   */\n      dup5\n        /* \"#utility.yul\":8179:8182   */\n      dup5\n        /* \"#utility.yul\":8175:8191   */\n      add\n        /* \"#utility.yul\":8172:8197   */\n      gt\n        /* \"#utility.yul\":8169:8281   */\n      iszero\n      tag_173\n      jumpi\n        /* \"#utility.yul\":8200:8279   */\n      tag_174\n      tag_68\n      jump\t// in\n    tag_174:\n        /* \"#utility.yul\":8169:8281   */\n    tag_173:\n        /* \"#utility.yul\":8290:8344   */\n      tag_175\n        /* \"#utility.yul\":8337:8343   */\n      dup5\n        /* \"#utility.yul\":8332:8335   */\n      dup3\n        /* \"#utility.yul\":8327:8330   */\n      dup6\n        /* \"#utility.yul\":8290:8344   */\n      tag_73\n      jump\t// in\n    tag_175:\n        /* \"#utility.yul\":8009:8350   */\n      pop\n        /* \"#utility.yul\":7925:8350   */\n      swap4\n      swap3\n      pop\n      pop\n      pop\n      jump\t// out\n        /* \"#utility.yul\":8370:8710   */\n    tag_75:\n        /* \"#utility.yul\":8426:8431   */\n      0x00\n        /* \"#utility.yul\":8475:8478   */\n      dup3\n        /* \"#utility.yul\":8468:8472   */\n      0x1f\n        /* \"#utility.yul\":8460:8466   */\n      dup4\n        /* \"#utility.yul\":8456:8473   */\n      add\n        /* \"#utility.yul\":8452:8479   */\n      slt\n        /* \"#utility.yul\":8442:8564   */\n      tag_177\n      jumpi\n        /* \"#utility.yul\":8483:8562   */\n      tag_178\n      tag_67\n      jump\t// in\n    tag_178:\n        /* \"#utility.yul\":8442:8564   */\n    tag_177:\n        /* \"#utility.yul\":8600:8606   */\n      dup2\n        /* \"#utility.yul\":8587:8607   */\n      calldataload\n        /* \"#utility.yul\":8625:8704   */\n      tag_179\n        /* \"#utility.yul\":8700:8703   */\n      dup5\n        /* \"#utility.yul\":8692:8698   */\n      dup3\n        /* \"#utility.yul\":8685:8689   */\n      0x20\n        /* \"#utility.yul\":8677:8683   */\n      dup7\n        /* \"#utility.yul\":8673:8690   */\n      add\n        /* \"#utility.yul\":8625:8704   */\n      tag_74\n      jump\t// in\n    tag_179:\n        /* \"#utility.yul\":8616:8704   */\n      swap2\n      pop\n        /* \"#utility.yul\":8432:8710   */\n      pop\n        /* \"#utility.yul\":8370:8710   */\n      swap3\n      swap2\n      pop\n      pop\n      jump\t// out\n        /* \"#utility.yul\":8716:9841   */\n    tag_12:\n        /* \"#utility.yul\":8822:8828   */\n      0x00\n        /* \"#utility.yul\":8830:8836   */\n      dup1\n        /* \"#utility.yul\":8838:8844   */\n      0x00\n        /* \"#utility.yul\":8846:8852   */\n      dup1\n        /* \"#utility.yul\":8895:8898   */\n      0x80\n        /* \"#utility.yul\":8883:8892   */\n      dup6\n        /* \"#utility.yul\":8874:8881   */\n      dup8\n        /* \"#utility.yul\":8870:8893   */\n      sub\n        /* \"#utility.yul\":8866:8899   */\n      slt\n        /* \"#utility.yul\":8863:8983   */\n      iszero\n      tag_181\n      jumpi\n        /* \"#utility.yul\":8902:8981   */\n      tag_182\n      tag_61\n      jump\t// in\n    tag_182:\n        /* \"#utility.yul\":8863:8983   */\n    tag_181:\n        /* \"#utility.yul\":9022:9023   */\n      0x00\n        /* \"#utility.yul\":9047:9100   */\n      tag_183\n        /* \"#utility.yul\":9092:9099   */\n      dup8\n        /* \"#utility.yul\":9083:9089   */\n      dup3\n        /* \"#utility.yul\":9072:9081   */\n      dup9\n        /* \"#utility.yul\":9068:9090   */\n      add\n        /* \"#utility.yul\":9047:9100   */\n      tag_64\n      jump\t// in\n    tag_183:\n        /* \"#utility.yul\":9037:9100   */\n      swap5\n      pop\n        /* \"#utility.yul\":8993:9110   */\n      pop\n        /* \"#utility.yul\":9149:9151   */\n      0x20\n        /* \"#utility.yul\":9175:9228   */\n      tag_184\n        /* \"#utility.yul\":9220:9227   */\n      dup8\n        /* \"#utility.yul\":9211:9217   */\n      dup3\n        /* \"#utility.yul\":9200:9209   */\n      dup9\n        /* \"#utility.yul\":9196:9218   */\n      add\n        /* \"#utility.yul\":9175:9228   */\n      tag_66\n      jump\t// in\n    tag_184:\n        /* \"#utility.yul\":9165:9228   */\n      swap4\n      pop\n        /* \"#utility.yul\":9120:9238   */\n      pop\n        /* \"#utility.yul\":9305:9307   */\n      0x40\n        /* \"#utility.yul\":9294:9303   */\n      dup6\n        /* \"#utility.yul\":9290:9308   */\n      add\n        /* \"#utility.yul\":9277:9309   */\n      calldataload\n        /* \"#utility.yul\":9336:9354   */\n      0xffffffffffffffff\n        /* \"#utility.yul\":9328:9334   */\n      dup2\n        /* \"#utility.yul\":9325:9355   */\n      gt\n        /* \"#utility.yul\":9322:9439   */\n      iszero\n      tag_185\n      jumpi\n        /* \"#utility.yul\":9358:9437   */\n      tag_186\n      tag_62\n      jump\t// in\n    tag_186:\n        /* \"#utility.yul\":9322:9439   */\n    tag_185:\n        /* \"#utility.yul\":9463:9526   */\n      tag_187\n        /* \"#utility.yul\":9518:9525   */\n      dup8\n        /* \"#utility.yul\":9509:9515   */\n      dup3\n        /* \"#utility.yul\":9498:9507   */\n      dup9\n        /* \"#utility.yul\":9494:9516   */\n      add\n        /* \"#utility.yul\":9463:9526   */\n      tag_75\n      jump\t// in\n    tag_187:\n        /* \"#utility.yul\":9453:9526   */\n      swap3\n      pop\n        /* \"#utility.yul\":9248:9536   */\n      pop\n        /* \"#utility.yul\":9603:9605   */\n      0x60\n        /* \"#utility.yul\":9592:9601   */\n      dup6\n        /* \"#utility.yul\":9588:9606   */\n      add\n        /* \"#utility.yul\":9575:9607   */\n      calldataload\n        /* \"#utility.yul\":9634:9652   */\n      0xffffffffffffffff\n        /* \"#utility.yul\":9626:9632   */\n      dup2\n        /* \"#utility.yul\":9623:9653   */\n      gt\n        /* \"#utility.yul\":9620:9737   */\n      iszero\n      tag_188\n      jumpi\n        /* \"#utility.yul\":9656:9735   */\n      tag_189\n      tag_62\n      jump\t// in\n    tag_189:\n        /* \"#utility.yul\":9620:9737   */\n    tag_188:\n        /* \"#utility.yul\":9761:9824   */\n      tag_190\n        /* \"#utility.yul\":9816:9823   */\n      dup8\n        /* \"#utility.yul\":9807:9813   */\n      dup3\n        /* \"#utility.yul\":9796:9805   */\n      dup9\n        /* \"#utility.yul\":9792:9814   */\n      add\n        /* \"#utility.yul\":9761:9824   */\n      tag_75\n      jump\t// in\n    tag_190:\n        /* \"#utility.yul\":9751:9824   */\n      swap2\n      pop\n        /* \"#utility.yul\":9546:9834   */\n      pop\n        /* \"#utility.yul\":8716:9841   */\n      swap3\n      swap6\n      swap2\n      swap5\n      pop\n      swap3\n      pop\n      jump\t// out\n        /* \"#utility.yul\":9847:9965   */\n    tag_76:\n        /* \"#utility.yul\":9934:9958   */\n      tag_192\n        /* \"#utility.yul\":9952:9957   */\n      dup2\n        /* \"#utility.yul\":9934:9958   */\n      tag_49\n      jump\t// in\n    tag_192:\n        /* \"#utility.yul\":9929:9932   */\n      dup3\n        /* \"#utility.yul\":9922:9959   */\n      mstore\n        /* \"#utility.yul\":9847:9965   */\n      pop\n      pop\n      jump\t// out\n        /* \"#utility.yul\":9971:10193   */\n    tag_17:\n        /* \"#utility.yul\":10064:10068   */\n      0x00\n        /* \"#utility.yul\":10102:10104   */\n      0x20\n        /* \"#utility.yul\":10091:10100   */\n      dup3\n        /* \"#utility.yul\":10087:10105   */\n      add\n        /* \"#utility.yul\":10079:10105   */\n      swap1\n      pop\n        /* \"#utility.yul\":10115:10186   */\n      tag_194\n        /* \"#utility.yul\":10183:10184   */\n      0x00\n        /* \"#utility.yul\":10172:10181   */\n      dup4\n        /* \"#utility.yul\":10168:10185   */\n      add\n        /* \"#utility.yul\":10159:10165   */\n      dup5\n        /* \"#utility.yul\":10115:10186   */\n      tag_76\n      jump\t// in\n    tag_194:\n        /* \"#utility.yul\":9971:10193   */\n      swap3\n      swap2\n      pop\n      pop\n      jump\t// out\n        /* \"#utility.yul\":10199:10379   */\n    tag_77:\n        /* \"#utility.yul\":10247:10324   */\n      0x4e487b7100000000000000000000000000000000000000000000000000000000\n        /* \"#utility.yul\":10244:10245   */\n      0x00\n        /* \"#utility.yul\":10237:10325   */\n      mstore\n        /* \"#utility.yul\":10344:10348   */\n      0x22\n        /* \"#utility.yul\":10341:10342   */\n      0x04\n        /* \"#utility.yul\":10334:10349   */\n      mstore\n        /* \"#utility.yul\":10368:10372   */\n      0x24\n        /* \"#utility.yul\":10365:10366   */\n      0x00\n        /* \"#utility.yul\":10358:10373   */\n      revert\n        /* \"#utility.yul\":10385:10705   */\n    tag_23:\n        /* \"#utility.yul\":10429:10435   */\n      0x00\n        /* \"#utility.yul\":10466:10467   */\n      0x02\n        /* \"#utility.yul\":10460:10464   */\n      dup3\n        /* \"#utility.yul\":10456:10468   */\n      div\n        /* \"#utility.yul\":10446:10468   */\n      swap1\n      pop\n        /* \"#utility.yul\":10513:10514   */\n      0x01\n        /* \"#utility.yul\":10507:10511   */\n      dup3\n        /* \"#utility.yul\":10503:10515   */\n      and\n        /* \"#utility.yul\":10534:10552   */\n      dup1\n        /* \"#utility.yul\":10524:10605   */\n      tag_197\n      jumpi\n        /* \"#utility.yul\":10590:10594   */\n      0x7f\n        /* \"#utility.yul\":10582:10588   */\n      dup3\n        /* \"#utility.yul\":10578:10595   */\n      and\n        /* \"#utility.yul\":10568:10595   */\n      swap2\n      pop\n        /* \"#utility.yul\":10524:10605   */\n    tag_197:\n        /* \"#utility.yul\":10652:10654   */\n      0x20\n        /* \"#utility.yul\":10644:10650   */\n      dup3\n        /* \"#utility.yul\":10641:10655   */\n      lt\n        /* \"#utility.yul\":10621:10639   */\n      dup2\n        /* \"#utility.yul\":10618:10656   */\n      sub\n        /* \"#utility.yul\":10615:10699   */\n      tag_198\n      jumpi\n        /* \"#utility.yul\":10671:10689   */\n      tag_199\n      tag_77\n      jump\t// in\n    tag_199:\n        /* \"#utility.yul\":10615:10699   */\n    tag_198:\n        /* \"#utility.yul\":10436:10705   */\n      pop\n        /* \"#utility.yul\":10385:10705   */\n      swap2\n      swap1\n      pop\n      jump\t// out\n        /* \"#utility.yul\":10711:10852   */\n    tag_78:\n        /* \"#utility.yul\":10760:10764   */\n      0x00\n        /* \"#utility.yul\":10783:10786   */\n      dup2\n        /* \"#utility.yul\":10775:10786   */\n      swap1\n      pop\n        /* \"#utility.yul\":10806:10809   */\n      dup2\n        /* \"#utility.yul\":10803:10804   */\n      0x00\n        /* \"#utility.yul\":10796:10810   */\n      mstore\n        /* \"#utility.yul\":10840:10844   */\n      0x20\n        /* \"#utility.yul\":10837:10838   */\n      0x00\n        /* \"#utility.yul\":10827:10845   */\n      keccak256\n        /* \"#utility.yul\":10819:10845   */\n      swap1\n      pop\n        /* \"#utility.yul\":10711:10852   */\n      swap2\n      swap1\n      pop\n      jump\t// out\n        /* \"#utility.yul\":10858:10951   */\n    tag_79:\n        /* \"#utility.yul\":10895:10901   */\n      0x00\n        /* \"#utility.yul\":10942:10944   */\n      0x20\n        /* \"#utility.yul\":10937:10939   */\n      0x1f\n        /* \"#utility.yul\":10930:10935   */\n      dup4\n        /* \"#utility.yul\":10926:10940   */\n      add\n        /* \"#utility.yul\":10922:10945   */\n      div\n        /* \"#utility.yul\":10912:10945   */\n      swap1\n      pop\n        /* \"#utility.yul\":10858:10951   */\n      swap2\n      swap1\n      pop\n      jump\t// out\n        /* \"#utility.yul\":10957:11064   */\n    tag_80:\n        /* \"#utility.yul\":11001:11009   */\n      0x00\n        /* \"#utility.yul\":11051:11056   */\n      dup3\n        /* \"#utility.yul\":11045:11049   */\n      dup3\n        /* \"#utility.yul\":11041:11057   */\n      shl\n        /* \"#utility.yul\":11020:11057   */\n      swap1\n      pop\n        /* \"#utility.yul\":10957:11064   */\n      swap3\n      swap2\n      pop\n      pop\n      jump\t// out\n        /* \"#utility.yul\":11070:11463   */\n    tag_81:\n        /* \"#utility.yul\":11139:11145   */\n      0x00\n        /* \"#utility.yul\":11189:11190   */\n      0x08\n        /* \"#utility.yul\":11177:11187   */\n      dup4\n        /* \"#utility.yul\":11173:11191   */\n      mul\n        /* \"#utility.yul\":11212:11309   */\n      tag_204\n        /* \"#utility.yul\":11242:11308   */\n      0xffffffffffffffffffffffffffffffffffffffffffffffffffffffffffffffff\n        /* \"#utility.yul\":11231:11240   */\n      dup3\n        /* \"#utility.yul\":11212:11309   */\n      tag_80\n      jump\t// in\n    tag_204:\n        /* \"#utility.yul\":11330:11369   */\n      tag_205\n        /* \"#utility.yul\":11360:11368   */\n      dup7\n        /* \"#utility.yul\":11349:11358   */\n      dup4\n        /* \"#utility.yul\":11330:11369   */\n      tag_80\n      jump\t// in\n    tag_205:\n        /* \"#utility.yul\":11318:11369   */\n      swap6\n      pop\n        /* \"#utility.yul\":11402:11406   */\n      dup1\n        /* \"#utility.yul\":11398:11407   */\n      not\n        /* \"#utility.yul\":11391:11396   */\n      dup5\n        /* \"#utility.yul\":11387:11408   */\n      and\n        /* \"#utility.yul\":11378:11408   */\n      swap4\n      pop\n        /* \"#utility.yul\":11451:11455   */\n      dup1\n        /* \"#utility.yul\":11441:11449   */\n      dup7\n        /* \"#utility.yul\":11437:11456   */\n      and\n        /* \"#utility.yul\":11430:11435   */\n      dup5\n        /* \"#utility.yul\":11427:11457   */\n      or\n        /* \"#utility.yul\":11417:11457   */\n      swap3\n      pop\n        /* \"#utility.yul\":11146:11463   */\n      pop\n      pop\n        /* \"#utility.yul\":11070:11463   */\n      swap4\n      swap3\n      pop\n      pop\n      pop\n      jump\t// out\n        /* \"#utility.yul\":11469:11529   */\n    tag_82:\n        /* \"#utility.yul\":11497:11500   */\n      0x00\n        /* \"#utility.yul\":11518:11523   */\n      dup2\n        /* \"#utility.yul\":11511:11523   */\n      swap1\n      pop\n        /* \"#utility.yul\":11469:11529   */\n      swap2\n      swap1\n      pop\n      jump\t// out\n        /* \"#utility.yul\":11535:11677   */\n    tag_83:\n        /* \"#utility.yul\":11585:11594   */\n      0x00\n        /* \"#utility.yul\":11618:11671   */\n      tag_208\n        /* \"#utility.yul\":11636:11670   */\n      tag_209\n        /* \"#utility.yul\":11645:11669   */\n      tag_210\n        /* \"#utility.yul\":11663:11668   */\n      dup5\n        /* \"#utility.yul\":11645:11669   */\n      tag_49\n      jump\t// in\n    tag_210:\n        /* \"#utility.yul\":11636:11670   */\n      tag_82\n      jump\t// in\n    tag_209:\n        /* \"#utility.yul\":11618:11671   */\n      tag_49\n      jump\t// in\n    tag_208:\n        /* \"#utility.yul\":11605:11671   */\n      swap1\n      pop\n        /* \"#utility.yul\":11535:11677   */\n      swap2\n      swap1\n      pop\n      jump\t// out\n        /* \"#utility.yul\":11683:11758   */\n    tag_84:\n        /* \"#utility.yul\":11726:11729   */\n      0x00\n        /* \"#utility.yul\":11747:11752   */\n      dup2\n        /* \"#utility.yul\":11740:11752   */\n      swap1\n      pop\n        /* \"#utility.yul\":11683:11758   */\n      swap2\n      swap1\n      pop\n      jump\t// out\n        /* \"#utility.yul\":11764:12033   */\n    tag_85:\n        /* \"#utility.yul\":11874:11913   */\n      tag_213\n        /* \"#utility.yul\":11905:11912   */\n      dup4\n        /* \"#utility.yul\":11874:11913   */\n      tag_83\n      jump\t// in\n    tag_213:\n        /* \"#utility.yul\":11935:12026   */\n      tag_214\n        /* \"#utility.yul\":11984:12025   */\n      tag_215\n        /* \"#utility.yul\":12008:12024   */\n      dup3\n        /* \"#utility.yul\":11984:12025   */\n      tag_84\n      jump\t// in\n    tag_215:\n        /* \"#utility.yul\":11976:11982   */\n      dup5\n        /* \"#utility.yul\":11969:11973   */\n      dup5\n        /* \"#utility.yul\":11963:11974   */\n      sload\n        /* \"#utility.yul\":11935:12026   */\n      tag_81\n      jump\t// in\n    tag_214:\n        /* \"#utility.yul\":11929:11933   */\n      dup3\n        /* \"#utility.yul\":11922:12027   */\n      sstore\n        /* \"#utility.yul\":11840:12033   */\n      pop\n        /* \"#utility.yul\":11764:12033   */\n      pop\n      pop\n      pop\n      jump\t// out\n        /* \"#utility.yul\":12039:12112   */\n    tag_86:\n        /* \"#utility.yul\":12084:12087   */\n      0x00\n        /* \"#utility.yul\":12039:12112   */\n      swap1\n      jump\t// out\n        /* \"#utility.yul\":12118:12307   */\n    tag_87:\n        /* \"#utility.yul\":12195:12227   */\n      tag_218\n      tag_86\n      jump\t// in\n    tag_218:\n        /* \"#utility.yul\":12236:12301   */\n      tag_219\n        /* \"#utility.yul\":12294:12300   */\n      dup2\n        /* \"#utility.yul\":12286:12292   */\n      dup5\n        /* \"#utility.yul\":12280:12284   */\n      dup5\n        /* \"#utility.yul\":12236:12301   */\n      tag_85\n      jump\t// in\n    tag_219:\n        /* \"#utility.yul\":12171:12307   */\n      pop\n        /* \"#utility.yul\":12118:12307   */\n      pop\n      pop\n      jump\t// out\n        /* \"#utility.yul\":12313:12499   */\n    tag_88:\n        /* \"#utility.yul\":12373:12493   */\n    tag_221:\n        /* \"#utility.yul\":12390:12393   */\n      dup2\n        /* \"#utility.yul\":12383:12388   */\n      dup2\n        /* \"#utility.yul\":12380:12394   */\n      lt\n        /* \"#utility.yul\":12373:12493   */\n      iszero\n      tag_223\n      jumpi\n        /* \"#utility.yul\":12444:12483   */\n      tag_224\n        /* \"#utility.yul\":12481:12482   */\n      0x00\n        /* \"#utility.yul\":12474:12479   */\n      dup3\n        /* \"#utility.yul\":12444:12483   */\n      tag_87\n      jump\t// in\n    tag_224:\n        /* \"#utility.yul\":12417:12418   */\n      0x01\n        /* \"#utility.yul\":12410:12415   */\n      dup2\n        /* \"#utility.yul\":12406:12419   */\n      add\n        /* \"#utility.yul\":12397:12419   */\n      swap1\n      pop\n        /* \"#utility.yul\":12373:12493   */\n      jump(tag_221)\n    tag_223:\n        /* \"#utility.yul\":12313:12499   */\n      pop\n      pop\n      jump\t// out\n        /* \"#utility.yul\":12505:13048   */\n    tag_89:\n        /* \"#utility.yul\":12606:12608   */\n      0x1f\n        /* \"#utility.yul\":12601:12604   */\n      dup3\n        /* \"#utility.yul\":12598:12609   */\n      gt\n        /* \"#utility.yul\":12595:13041   */\n      iszero\n      tag_226\n      jumpi\n        /* \"#utility.yul\":12640:12678   */\n      tag_227\n        /* \"#utility.yul\":12672:12677   */\n      dup2\n        /* \"#utility.yul\":12640:12678   */\n      tag_78\n      jump\t// in\n    tag_227:\n        /* \"#utility.yul\":12724:12753   */\n      tag_228\n        /* \"#utility.yul\":12742:12752   */\n      dup5\n        /* \"#utility.yul\":12724:12753   */\n      tag_79\n      jump\t// in\n    tag_228:\n        /* \"#utility.yul\":12714:12722   */\n      dup2\n        /* \"#utility.yul\":12710:12754   */\n      add\n        /* \"#utility.yul\":12907:12909   */\n      0x20\n        /* \"#utility.yul\":12895:12905   */\n      dup6\n        /* \"#utility.yul\":12892:12910   */\n      lt\n        /* \"#utility.yul\":12889:12938   */\n      iszero\n      tag_229\n      jumpi\n        /* \"#utility.yul\":12928:12936   */\n      dup2\n        /* \"#utility.yul\":12913:12936   */\n      swap1\n      pop\n        /* \"#utility.yul\":12889:12938   */\n    tag_229:\n        /* \"#utility.yul\":12951:13031   */\n      tag_230\n        /* \"#utility.yul\":13007:13029   */\n      tag_231\n        /* \"#utility.yul\":13025:13028   */\n      dup6\n        /* \"#utility.yul\":13007:13029   */\n      tag_79\n      jump\t// in\n    tag_231:\n        /* \"#utility.yul\":12997:13005   */\n      dup4\n        /* \"#utility.yul\":12993:13030   */\n      add\n        /* \"#utility.yul\":12980:12991   */\n      dup3\n        /* \"#utility.yul\":12951:13031   */\n      tag_88\n      jump\t// in\n    tag_230:\n        /* \"#utility.yul\":12610:13041   */\n      pop\n      pop\n        /* \"#utility.yul\":12595:13041   */\n    tag_226:\n        /* \"#utility.yul\":12505:13048   */\n      pop\n      pop\n      pop\n      jump\t// out\n        /* \"#utility.yul\":13054:13171   */\n    tag_90:\n        /* \"#utility.yul\":13108:13116   */\n      0x00\n        /* \"#utility.yul\":13158:13163   */\n      dup3\n        /* \"#utility.yul\":13152:13156   */\n      dup3\n        /* \"#utility.yul\":13148:13164   */\n      shr\n        /* \"#utility.yul\":13127:13164   */\n      swap1\n      pop\n        /* \"#utility.yul\":13054:13171   */\n      swap3\n      swap2\n      pop\n      pop\n      jump\t// out\n        /* \"#utility.yul\":13177:13346   */\n    tag_91:\n        /* \"#utility.yul\":13221:13227   */\n      0x00\n        /* \"#utility.yul\":13254:13305   */\n      tag_234\n        /* \"#utility.yul\":13302:13303   */\n      0x00\n        /* \"#utility.yul\":13298:13304   */\n      not\n        /* \"#utility.yul\":13290:13295   */\n      dup5\n        /* \"#utility.yul\":13287:13288   */\n      0x08\n        /* \"#utility.yul\":13283:13296   */\n      mul\n        /* \"#utility.yul\":13254:13305   */\n      tag_90\n      jump\t// in\n    tag_234:\n        /* \"#utility.yul\":13250:13306   */\n      not\n        /* \"#utility.yul\":13335:13339   */\n      dup1\n        /* \"#utility.yul\":13329:13333   */\n      dup4\n        /* \"#utility.yul\":13325:13340   */\n      and\n        /* \"#utility.yul\":13315:13340   */\n      swap2\n      pop\n        /* \"#utility.yul\":13228:13346   */\n      pop\n        /* \"#utility.yul\":13177:13346   */\n      swap3\n      swap2\n      pop\n      pop\n      jump\t// out\n        /* \"#utility.yul\":13351:13646   */\n    tag_92:\n        /* \"#utility.yul\":13427:13431   */\n      0x00\n        /* \"#utility.yul\":13573:13602   */\n      tag_236\n        /* \"#utility.yul\":13598:13601   */\n      dup4\n        /* \"#utility.yul\":13592:13596   */\n      dup4\n        /* \"#utility.yul\":13573:13602   */\n      tag_91\n      jump\t// in\n    tag_236:\n        /* \"#utility.yul\":13565:13602   */\n      swap2\n      pop\n        /* \"#utility.yul\":13635:13638   */\n      dup3\n        /* \"#utility.yul\":13632:13633   */\n      0x02\n        /* \"#utility.yul\":13628:13639   */\n      mul\n        /* \"#utility.yul\":13622:13626   */\n      dup3\n        /* \"#utility.yul\":13619:13640   */\n      or\n        /* \"#utility.yul\":13611:13640   */\n      swap1\n      pop\n        /* \"#utility.yul\":13351:13646   */\n      swap3\n      swap2\n      pop\n      pop\n      jump\t// out\n        /* \"#utility.yul\":13651:15046   */\n    tag_36:\n        /* \"#utility.yul\":13768:13805   */\n      tag_238\n        /* \"#utility.yul\":13801:13804   */\n      dup3\n        /* \"#utility.yul\":13768:13805   */\n      tag_51\n      jump\t// in\n    tag_238:\n        /* \"#utility.yul\":13870:13888   */\n      0xffffffffffffffff\n        /* \"#utility.yul\":13862:13868   */\n      dup2\n        /* \"#utility.yul\":13859:13889   */\n      gt\n        /* \"#utility.yul\":13856:13912   */\n      iszero\n      tag_239\n      jumpi\n        /* \"#utility.yul\":13892:13910   */\n      tag_240\n      tag_69\n      jump\t// in\n    tag_240:\n        /* \"#utility.yul\":13856:13912   */\n    tag_239:\n        /* \"#utility.yul\":13936:13974   */\n      tag_241\n        /* \"#utility.yul\":13968:13972   */\n      dup3\n        /* \"#utility.yul\":13962:13973   */\n      sload\n        /* \"#utility.yul\":13936:13974   */\n      tag_23\n      jump\t// in\n    tag_241:\n        /* \"#utility.yul\":14021:14088   */\n      tag_242\n        /* \"#utility.yul\":14081:14087   */\n      dup3\n        /* \"#utility.yul\":14073:14079   */\n      dup3\n        /* \"#utility.yul\":14067:14071   */\n      dup6\n        /* \"#utility.yul\":14021:14088   */\n      tag_89\n      jump\t// in\n    tag_242:\n        /* \"#utility.yul\":14115:14116   */\n      0x00\n        /* \"#utility.yul\":14139:14143   */\n      0x20\n        /* \"#utility.yul\":14126:14143   */\n      swap1\n      pop\n        /* \"#utility.yul\":14171:14173   */\n      0x1f\n        /* \"#utility.yul\":14163:14169   */\n      dup4\n        /* \"#utility.yul\":14160:14174   */\n      gt\n        /* \"#utility.yul\":14188:14189   */\n      0x01\n        /* \"#utility.yul\":14183:14801   */\n      dup2\n      eq\n      tag_244\n      jumpi\n        /* \"#utility.yul\":14845:14846   */\n      0x00\n        /* \"#utility.yul\":14862:14868   */\n      dup5\n        /* \"#utility.yul\":14859:14936   */\n      iszero\n      tag_245\n      jumpi\n        /* \"#utility.yul\":14911:14920   */\n      dup3\n        /* \"#utility.yul\":14906:14909   */\n      dup8\n        /* \"#utility.yul\":14902:14921   */\n      add\n        /* \"#utility.yul\":14896:14922   */\n      mload\n        /* \"#utility.yul\":14887:14922   */\n      swap1\n      pop\n        /* \"#utility.yul\":14859:14936   */\n    tag_245:\n        /* \"#utility.yul\":14962:15029   */\n      tag_246\n        /* \"#utility.yul\":15022:15028   */\n      dup6\n        /* \"#utility.yul\":15015:15020   */\n      dup3\n        /* \"#utility.yul\":14962:15029   */\n      tag_92\n      jump\t// in\n    tag_246:\n        /* \"#utility.yul\":14956:14960   */\n      dup7\n        /* \"#utility.yul\":14949:15030   */\n      sstore\n        /* \"#utility.yul\":14818:15040   */\n      pop\n        /* \"#utility.yul\":14153:15040   */\n      jump(tag_243)\n        /* \"#utility.yul\":14183:14801   */\n    tag_244:\n        /* \"#utility.yul\":14235:14239   */\n      0x1f\n        /* \"#utility.yul\":14231:14240   */\n      not\n        /* \"#utility.yul\":14223:14229   */\n      dup5\n        /* \"#utility.yul\":14219:14241   */\n      and\n        /* \"#utility.yul\":14269:14306   */\n      tag_247\n        /* \"#utility.yul\":14301:14305   */\n      dup7\n        /* \"#utility.yul\":14269:14306   */\n      tag_78\n      jump\t// in\n    tag_247:\n        /* \"#utility.yul\":14328:14329   */\n      0x00\n        /* \"#utility.yul\":14342:14550   */\n    tag_248:\n        /* \"#utility.yul\":14356:14363   */\n      dup3\n        /* \"#utility.yul\":14353:14354   */\n      dup2\n        /* \"#utility.yul\":14350:14364   */\n      lt\n        /* \"#utility.yul\":14342:14550   */\n      iszero\n      tag_250\n      jumpi\n        /* \"#utility.yul\":14435:14444   */\n      dup5\n        /* \"#utility.yul\":14430:14433   */\n      dup10\n        /* \"#utility.yul\":14426:14445   */\n      add\n        /* \"#utility.yul\":14420:14446   */\n      mload\n        /* \"#utility.yul\":14412:14418   */\n      dup3\n        /* \"#utility.yul\":14405:14447   */\n      sstore\n        /* \"#utility.yul\":14486:14487   */\n      0x01\n        /* \"#utility.yul\":14478:14484   */\n      dup3\n        /* \"#utility.yul\":14474:14488   */\n      add\n        /* \"#utility.yul\":14464:14488   */\n      swap2\n      pop\n        /* \"#utility.yul\":14533:14535   */\n      0x20\n        /* \"#utility.yul\":14522:14531   */\n      dup6\n        /* \"#utility.yul\":14518:14536   */\n      add\n        /* \"#utility.yul\":14505:14536   */\n      swap5\n      pop\n        /* \"#utility.yul\":14379:14383   */\n      0x20\n        /* \"#utility.yul\":14376:14377   */\n      dup2\n        /* \"#utility.yul\":14372:14384   */\n      add\n        /* \"#utility.yul\":14367:14384   */\n      swap1\n      pop\n        /* \"#utility.yul\":14342:14550   */\n      jump(tag_248)\n    tag_250:\n        /* \"#utility.yul\":14578:14584   */\n      dup7\n        /* \"#utility.yul\":14569:14576   */\n      dup4\n        /* \"#utility.yul\":14566:14585   */\n      lt\n        /* \"#utility.yul\":14563:14742   */\n      iszero\n      tag_251\n      jumpi\n        /* \"#utility.yul\":14636:14645   */\n      dup5\n        /* \"#utility.yul\":14631:14634   */\n      dup10\n        /* \"#utility.yul\":14627:14646   */\n      add\n        /* \"#utility.yul\":14621:14647   */\n      mload\n        /* \"#utility.yul\":14679:14727   */\n      tag_252\n        /* \"#utility.yul\":14721:14725   */\n      0x1f\n        /* \"#utility.yul\":14713:14719   */\n      dup10\n        /* \"#utility.yul\":14709:14726   */\n      and\n        /* \"#utility.yul\":14698:14707   */\n      dup3\n        /* \"#utility.yul\":14679:14727   */\n      tag_91\n      jump\t// in\n    tag_252:\n        /* \"#utility.yul\":14671:14677   */\n      dup4\n        /* \"#utility.yul\":14664:14728   */\n      sstore\n        /* \"#utility.yul\":14586:14742   */\n      pop\n        /* \"#utility.yul\":14563:14742   */\n    tag_251:\n        /* \"#utility.yul\":14788:14789   */\n      0x01\n        /* \"#utility.yul\":14784:14785   */\n      0x02\n        /* \"#utility.yul\":14776:14782   */\n      dup9\n        /* \"#utility.yul\":14772:14786   */\n      mul\n        /* \"#utility.yul\":14768:14790   */\n      add\n        /* \"#utility.yul\":14762:14766   */\n      dup9\n        /* \"#utility.yul\":14755:14791   */\n      sstore\n        /* \"#utility.yul\":14190:14801   */\n      pop\n      pop\n      pop\n        /* \"#utility.yul\":14153:15040   */\n    tag_243:\n      pop\n        /* \"#utility.yul\":13743:15046   */\n      pop\n      pop\n      pop\n        /* \"#utility.yul\":13651:15046   */\n      pop\n      pop\n      jump\t// out\n        /* \"#utility.yul\":15052:15170   */\n    tag_93:\n        /* \"#utility.yul\":15139:15163   */\n      tag_254\n        /* \"#utility.yul\":15157:15162   */\n      dup2\n        /* \"#utility.yul\":15139:15163   */\n      tag_47\n      jump\t// in\n    tag_254:\n        /* \"#utility.yul\":15134:15137   */\n      dup3\n        /* \"#utility.yul\":15127:15164   */\n      mstore\n        /* \"#utility.yul\":15052:15170   */\n      pop\n      pop\n      jump\t// out\n        /* \"#utility.yul\":15176:15345   */\n    tag_94:\n        /* \"#utility.yul\":15260:15271   */\n      0x00\n        /* \"#utility.yul\":15294:15300   */\n      dup3\n        /* \"#utility.yul\":15289:15292   */\n      dup3\n        /* \"#utility.yul\":15282:15301   */\n      mstore\n        /* \"#utility.yul\":15334:15338   */\n      0x20\n        /* \"#utility.yul\":15329:15332   */\n      dup3\n        /* \"#utility.yul\":15325:15339   */\n      add\n        /* \"#utility.yul\":15310:15339   */\n      swap1\n      pop\n        /* \"#utility.yul\":15176:15345   */\n      swap3\n      swap2\n      pop\n      pop\n      jump\t// out\n        /* \"#utility.yul\":15351:15728   */\n    tag_95:\n        /* \"#utility.yul\":15439:15442   */\n      0x00\n        /* \"#utility.yul\":15467:15506   */\n      tag_257\n        /* \"#utility.yul\":15500:15505   */\n      dup3\n        /* \"#utility.yul\":15467:15506   */\n      tag_51\n      jump\t// in\n    tag_257:\n        /* \"#utility.yul\":15522:15593   */\n      tag_258\n        /* \"#utility.yul\":15586:15592   */\n      dup2\n        /* \"#utility.yul\":15581:15584   */\n      dup6\n        /* \"#utility.yul\":15522:15593   */\n      tag_94\n      jump\t// in\n    tag_258:\n        /* \"#utility.yul\":15515:15593   */\n      swap4\n      pop\n        /* \"#utility.yul\":15602:15667   */\n      tag_259\n        /* \"#utility.yul\":15660:15666   */\n      dup2\n        /* \"#utility.yul\":15655:15658   */\n      dup6\n        /* \"#utility.yul\":15648:15652   */\n      0x20\n        /* \"#utility.yul\":15641:15646   */\n      dup7\n        /* \"#utility.yul\":15637:15653   */\n      add\n        /* \"#utility.yul\":15602:15667   */\n      tag_53\n      jump\t// in\n    tag_259:\n        /* \"#utility.yul\":15692:15721   */\n      tag_260\n        /* \"#utility.yul\":15714:15720   */\n      dup2\n        /* \"#utility.yul\":15692:15721   */\n      tag_54\n      jump\t// in\n    tag_260:\n        /* \"#utility.yul\":15687:15690   */\n      dup5\n        /* \"#utility.yul\":15683:15722   */\n      add\n        /* \"#utility.yul\":15676:15722   */\n      swap2\n      pop\n        /* \"#utility.yul\":15443:15728   */\n      pop\n        /* \"#utility.yul\":15351:15728   */\n      swap3\n      swap2\n      pop\n      pop\n      jump\t// out\n        /* \"#utility.yul\":15734:16691   */\n    tag_39:\n        /* \"#utility.yul\":16007:16011   */\n      0x00\n        /* \"#utility.yul\":16045:16048   */\n      0xc0\n        /* \"#utility.yul\":16034:16043   */\n      dup3\n        /* \"#utility.yul\":16030:16049   */\n      add\n        /* \"#utility.yul\":16022:16049   */\n      swap1\n      pop\n        /* \"#utility.yul\":16059:16130   */\n      tag_262\n        /* \"#utility.yul\":16127:16128   */\n      0x00\n        /* \"#utility.yul\":16116:16125   */\n      dup4\n        /* \"#utility.yul\":16112:16129   */\n      add\n        /* \"#utility.yul\":16103:16109   */\n      dup10\n        /* \"#utility.yul\":16059:16130   */\n      tag_93\n      jump\t// in\n    tag_262:\n        /* \"#utility.yul\":16140:16212   */\n      tag_263\n        /* \"#utility.yul\":16208:16210   */\n      0x20\n        /* \"#utility.yul\":16197:16206   */\n      dup4\n        /* \"#utility.yul\":16193:16211   */\n      add\n        /* \"#utility.yul\":16184:16190   */\n      dup9\n        /* \"#utility.yul\":16140:16212   */\n      tag_93\n      jump\t// in\n    tag_263:\n        /* \"#utility.yul\":16222:16294   */\n      tag_264\n        /* \"#utility.yul\":16290:16292   */\n      0x40\n        /* \"#utility.yul\":16279:16288   */\n      dup4\n        /* \"#utility.yul\":16275:16293   */\n      add\n        /* \"#utility.yul\":16266:16272   */\n      dup8\n        /* \"#utility.yul\":16222:16294   */\n      tag_76\n      jump\t// in\n    tag_264:\n        /* \"#utility.yul\":16341:16350   */\n      dup2\n        /* \"#utility.yul\":16335:16339   */\n      dup2\n        /* \"#utility.yul\":16331:16351   */\n      sub\n        /* \"#utility.yul\":16326:16328   */\n      0x60\n        /* \"#utility.yul\":16315:16324   */\n      dup4\n        /* \"#utility.yul\":16311:16329   */\n      add\n        /* \"#utility.yul\":16304:16352   */\n      mstore\n        /* \"#utility.yul\":16369:16447   */\n      tag_265\n        /* \"#utility.yul\":16442:16446   */\n      dup2\n        /* \"#utility.yul\":16433:16439   */\n      dup7\n        /* \"#utility.yul\":16369:16447   */\n      tag_95\n      jump\t// in\n    tag_265:\n        /* \"#utility.yul\":16361:16447   */\n      swap1\n      pop\n        /* \"#utility.yul\":16457:16530   */\n      tag_266\n        /* \"#utility.yul\":16525:16528   */\n      0x80\n        /* \"#utility.yul\":16514:16523   */\n      dup4\n        /* \"#utility.yul\":16510:16529   */\n      add\n        /* \"#utility.yul\":16501:16507   */\n      dup6\n        /* \"#utility.yul\":16457:16530   */\n      tag_76\n      jump\t// in\n    tag_266:\n        /* \"#utility.yul\":16578:16587   */\n      dup2\n        /* \"#utility.yul\":16572:16576   */\n      dup2\n        /* \"#utility.yul\":16568:16588   */\n      sub\n        /* \"#utility.yul\":16562:16565   */\n      0xa0\n        /* \"#utility.yul\":16551:16560   */\n      dup4\n        /* \"#utility.yul\":16547:16566   */\n      add\n        /* \"#utility.yul\":16540:16589   */\n      mstore\n        /* \"#utility.yul\":16606:16684   */\n      tag_267\n        /* \"#utility.yul\":16679:16683   */\n      dup2\n        /* \"#utility.yul\":16670:16676   */\n      dup5\n        /* \"#utility.yul\":16606:16684   */\n      tag_95\n      jump\t// in\n    tag_267:\n        /* \"#utility.yul\":16598:16684   */\n      swap1\n      pop\n        /* \"#utility.yul\":15734:16691   */\n      swap8\n      swap7\n      pop\n      pop\n      pop\n      pop\n      pop\n      pop\n      pop\n      jump\t// out\n        /* \"#utility.yul\":16697:16877   */\n    tag_96:\n        /* \"#utility.yul\":16745:16822   */\n      0x4e487b7100000000000000000000000000000000000000000000000000000000\n        /* \"#utility.yul\":16742:16743   */\n      0x00\n        /* \"#utility.yul\":16735:16823   */\n      mstore\n        /* \"#utility.yul\":16842:16846   */\n      0x11\n        /* \"#utility.yul\":16839:16840   */\n      0x04\n        /* \"#utility.yul\":16832:16847   */\n      mstore\n        /* \"#utility.yul\":16866:16870   */\n      0x24\n        /* \"#utility.yul\":16863:16864   */\n      0x00\n        /* \"#utility.yul\":16856:16871   */\n      revert\n        /* \"#utility.yul\":16883:17116   */\n    tag_41:\n        /* \"#utility.yul\":16922:16925   */\n      0x00\n        /* \"#utility.yul\":16945:16969   */\n      tag_270\n        /* \"#utility.yul\":16963:16968   */\n      dup3\n        /* \"#utility.yul\":16945:16969   */\n      tag_49\n      jump\t// in\n    tag_270:\n        /* \"#utility.yul\":16936:16969   */\n      swap2\n      pop\n        /* \"#utility.yul\":16991:17057   */\n      0xffffffffffffffffffffffffffffffffffffffffffffffffffffffffffffffff\n        /* \"#utility.yul\":16984:16989   */\n      dup3\n        /* \"#utility.yul\":16981:17058   */\n      sub\n        /* \"#utility.yul\":16978:17081   */\n      tag_271\n      jumpi\n        /* \"#utility.yul\":17061:17079   */\n      tag_272\n      tag_96\n      jump\t// in\n    tag_272:\n        /* \"#utility.yul\":16978:17081   */\n    tag_271:\n        /* \"#utility.yul\":17108:17109   */\n      0x01\n        /* \"#utility.yul\":17101:17106   */\n      dup3\n        /* \"#utility.yul\":17097:17110   */\n      add\n        /* \"#utility.yul\":17090:17110   */\n      swap1\n      pop\n        /* \"#utility.yul\":16883:17116   */\n      swap2\n      swap1\n      pop\n      jump\t// out\n\n    auxdata: 0xa26469706673582212201a1217055dbc324ae02c9210c46983cba72cf0fc7a6742fd3098f98e7bba102664736f6c63430008100033\n}\n",
				"bytecode": {
					"linkReferences": {},
					"object": "608060405234801561001057600080fd5b50610dc3806100206000396000f3fe608060405234801561001057600080fd5b50600436106100415760003560e01c8063c8b71e0b14610046578063c9e4c17914610064578063f26d64d414610080575b600080fd5b61004e61009e565b60405161005b91906106e4565b60405180910390f35b61007e600480360381019061007991906108a7565b6102e1565b005b61008861049f565b6040516100959190610955565b60405180910390f35b60606001805480602002602001604051908101604052809291908181526020016000905b828210156102d857838290600052602060002090600602016040518060c00160405290816000820160009054906101000a900473ffffffffffffffffffffffffffffffffffffffff1673ffffffffffffffffffffffffffffffffffffffff1673ffffffffffffffffffffffffffffffffffffffff1681526020016001820160009054906101000a900473ffffffffffffffffffffffffffffffffffffffff1673ffffffffffffffffffffffffffffffffffffffff1673ffffffffffffffffffffffffffffffffffffffff168152602001600282015481526020016003820180546101ab9061099f565b80601f01602080910402602001604051908101604052809291908181526020018280546101d79061099f565b80156102245780601f106101f957610100808354040283529160200191610224565b820191906000526020600020905b81548152906001019060200180831161020757829003601f168201915b50505050508152602001600482015481526020016005820180546102479061099f565b80601f01602080910402602001604051908101604052809291908181526020018280546102739061099f565b80156102c05780601f10610295576101008083540402835291602001916102c0565b820191906000526020600020905b8154815290600101906020018083116102a357829003601f168201915b505050505081525050815260200190600101906100c2565b50505050905090565b600033905060006040518060c001604052803373ffffffffffffffffffffffffffffffffffffffff1681526020018773ffffffffffffffffffffffffffffffffffffffff168152602001868152602001858152602001428152602001848152509050600181908060018154018082558091505060019003906000526020600020906006020160009091909190915060008201518160000160006101000a81548173ffffffffffffffffffffffffffffffffffffffff021916908373ffffffffffffffffffffffffffffffffffffffff16021790555060208201518160010160006101000a81548173ffffffffffffffffffffffffffffffffffffffff021916908373ffffffffffffffffffffffffffffffffffffffff16021790555060408201518160020155606082015181600301908161041c9190610b7c565b506080820151816004015560a082015181600501908161043c9190610b7c565b5050507f416cfa4330a4565f45c2fd2dd4826a83a37443aba2ce6f79477c7355afac35fa82878787428860405161047896959493929190610ca7565b60405180910390a160008081548092919061049290610d45565b9190505550505050505050565b60008054905090565b600081519050919050565b600082825260208201905092915050565b6000819050602082019050919050565b600073ffffffffffffffffffffffffffffffffffffffff82169050919050565b60006104ff826104d4565b9050919050565b61050f816104f4565b82525050565b6000819050919050565b61052881610515565b82525050565b600081519050919050565b600082825260208201905092915050565b60005b8381101561056857808201518184015260208101905061054d565b60008484015250505050565b6000601f19601f8301169050919050565b60006105908261052e565b61059a8185610539565b93506105aa81856020860161054a565b6105b381610574565b840191505092915050565b600060c0830160008301516105d66000860182610506565b5060208301516105e96020860182610506565b5060408301516105fc604086018261051f565b50606083015184820360608601526106148282610585565b9150506080830151610629608086018261051f565b5060a083015184820360a08601526106418282610585565b9150508091505092915050565b600061065a83836105be565b905092915050565b6000602082019050919050565b600061067a826104a8565b61068481856104b3565b935083602082028501610696856104c4565b8060005b858110156106d257848403895281516106b3858261064e565b94506106be83610662565b925060208a0199505060018101905061069a565b50829750879550505050505092915050565b600060208201905081810360008301526106fe818461066f565b905092915050565b6000604051905090565b600080fd5b600080fd5b610723816104f4565b811461072e57600080fd5b50565b6000813590506107408161071a565b92915050565b61074f81610515565b811461075a57600080fd5b50565b60008135905061076c81610746565b92915050565b600080fd5b600080fd5b7f4e487b7100000000000000000000000000000000000000000000000000000000600052604160045260246000fd5b6107b482610574565b810181811067ffffffffffffffff821117156107d3576107d261077c565b5b80604052505050565b60006107e6610706565b90506107f282826107ab565b919050565b600067ffffffffffffffff8211156108125761081161077c565b5b61081b82610574565b9050602081019050919050565b82818337600083830152505050565b600061084a610845846107f7565b6107dc565b90508281526020810184848401111561086657610865610777565b5b610871848285610828565b509392505050565b600082601f83011261088e5761088d610772565b5b813561089e848260208601610837565b91505092915050565b600080600080608085870312156108c1576108c0610710565b5b60006108cf87828801610731565b94505060206108e08782880161075d565b935050604085013567ffffffffffffffff81111561090157610900610715565b5b61090d87828801610879565b925050606085013567ffffffffffffffff81111561092e5761092d610715565b5b61093a87828801610879565b91505092959194509250565b61094f81610515565b82525050565b600060208201905061096a6000830184610946565b92915050565b7f4e487b7100000000000000000000000000000000000000000000000000000000600052602260045260246000fd5b600060028204905060018216806109b757607f821691505b6020821081036109ca576109c9610970565b5b50919050565b60008190508160005260206000209050919050565b60006020601f8301049050919050565b600082821b905092915050565b600060088302610a327fffffffffffffffffffffffffffffffffffffffffffffffffffffffffffffffff826109f5565b610a3c86836109f5565b95508019841693508086168417925050509392505050565b6000819050919050565b6000610a79610a74610a6f84610515565b610a54565b610515565b9050919050565b6000819050919050565b610a9383610a5e565b610aa7610a9f82610a80565b848454610a02565b825550505050565b600090565b610abc610aaf565b610ac7818484610a8a565b505050565b5b81811015610aeb57610ae0600082610ab4565b600181019050610acd565b5050565b601f821115610b3057610b01816109d0565b610b0a846109e5565b81016020851015610b19578190505b610b2d610b25856109e5565b830182610acc565b50505b505050565b600082821c905092915050565b6000610b5360001984600802610b35565b1980831691505092915050565b6000610b6c8383610b42565b9150826002028217905092915050565b610b858261052e565b67ffffffffffffffff811115610b9e57610b9d61077c565b5b610ba8825461099f565b610bb3828285610aef565b600060209050601f831160018114610be65760008415610bd4578287015190505b610bde8582610b60565b865550610c46565b601f198416610bf4866109d0565b60005b82811015610c1c57848901518255600182019150602085019450602081019050610bf7565b86831015610c395784890151610c35601f891682610b42565b8355505b6001600288020188555050505b505050505050565b610c57816104f4565b82525050565b600082825260208201905092915050565b6000610c798261052e565b610c838185610c5d565b9350610c9381856020860161054a565b610c9c81610574565b840191505092915050565b600060c082019050610cbc6000830189610c4e565b610cc96020830188610c4e565b610cd66040830187610946565b8181036060830152610ce88186610c6e565b9050610cf76080830185610946565b81810360a0830152610d098184610c6e565b9050979650505050505050565b7f4e487b7100000000000000000000000000000000000000000000000000000000600052601160045260246000fd5b6000610d5082610515565b91507fffffffffffffffffffffffffffffffffffffffffffffffffffffffffffffffff8203610d8257610d81610d16565b5b60018201905091905056fea26469706673582212201a1217055dbc324ae02c9210c46983cba72cf0fc7a6742fd3098f98e7bba102664736f6c63430008100033",
					"opcodes": "PUSH1 0x80 PUSH1 0x40 MSTORE CALLVALUE DUP1 ISZERO PUSH2 0x10 JUMPI PUSH1 0x0 DUP1 REVERT JUMPDEST POP PUSH2 0xDC3 DUP1 PUSH2 0x20 PUSH1 0x0 CODECOPY PUSH1 0x0 RETURN INVALID PUSH1 0x80 PUSH1 0x40 MSTORE CALLVALUE DUP1 ISZERO PUSH2 0x10 JUMPI PUSH1 0x0 DUP1 REVERT JUMPDEST POP PUSH1 0x4 CALLDATASIZE LT PUSH2 0x41 JUMPI PUSH1 0x0 CALLDATALOAD PUSH1 0xE0 SHR DUP1 PUSH4 0xC8B71E0B EQ PUSH2 0x46 JUMPI DUP1 PUSH4 0xC9E4C179 EQ PUSH2 0x64 JUMPI DUP1 PUSH4 0xF26D64D4 EQ PUSH2 0x80 JUMPI JUMPDEST PUSH1 0x0 DUP1 REVERT JUMPDEST PUSH2 0x4E PUSH2 0x9E JUMP JUMPDEST PUSH1 0x40 MLOAD PUSH2 0x5B SWAP2 SWAP1 PUSH2 0x6E4 JUMP JUMPDEST PUSH1 0x40 MLOAD DUP1 SWAP2 SUB SWAP1 RETURN JUMPDEST PUSH2 0x7E PUSH1 0x4 DUP1 CALLDATASIZE SUB DUP2 ADD SWAP1 PUSH2 0x79 SWAP2 SWAP1 PUSH2 0x8A7 JUMP JUMPDEST PUSH2 0x2E1 JUMP JUMPDEST STOP JUMPDEST PUSH2 0x88 PUSH2 0x49F JUMP JUMPDEST PUSH1 0x40 MLOAD PUSH2 0x95 SWAP2 SWAP1 PUSH2 0x955 JUMP JUMPDEST PUSH1 0x40 MLOAD DUP1 SWAP2 SUB SWAP1 RETURN JUMPDEST PUSH1 0x60 PUSH1 0x1 DUP1 SLOAD DUP1 PUSH1 0x20 MUL PUSH1 0x20 ADD PUSH1 0x40 MLOAD SWAP1 DUP2 ADD PUSH1 0x40 MSTORE DUP1 SWAP3 SWAP2 SWAP1 DUP2 DUP2 MSTORE PUSH1 0x20 ADD PUSH1 0x0 SWAP1 JUMPDEST DUP3 DUP3 LT ISZERO PUSH2 0x2D8 JUMPI DUP4 DUP3 SWAP1 PUSH1 0x0 MSTORE PUSH1 0x20 PUSH1 0x0 KECCAK256 SWAP1 PUSH1 0x6 MUL ADD PUSH1 0x40 MLOAD DUP1 PUSH1 0xC0 ADD PUSH1 0x40 MSTORE SWAP1 DUP2 PUSH1 0x0 DUP3 ADD PUSH1 0x0 SWAP1 SLOAD SWAP1 PUSH2 0x100 EXP SWAP1 DIV PUSH20 0xFFFFFFFFFFFFFFFFFFFFFFFFFFFFFFFFFFFFFFFF AND PUSH20 0xFFFFFFFFFFFFFFFFFFFFFFFFFFFFFFFFFFFFFFFF AND PUSH20 0xFFFFFFFFFFFFFFFFFFFFFFFFFFFFFFFFFFFFFFFF AND DUP2 MSTORE PUSH1 0x20 ADD PUSH1 0x1 DUP3 ADD PUSH1 0x0 SWAP1 SLOAD SWAP1 PUSH2 0x100 EXP SWAP1 DIV PUSH20 0xFFFFFFFFFFFFFFFFFFFFFFFFFFFFFFFFFFFFFFFF AND PUSH20 0xFFFFFFFFFFFFFFFFFFFFFFFFFFFFFFFFFFFFFFFF AND PUSH20 0xFFFFFFFFFFFFFFFFFFFFFFFFFFFFFFFFFFFFFFFF AND DUP2 MSTORE PUSH1 0x20 ADD PUSH1 0x2 DUP3 ADD SLOAD DUP2 MSTORE PUSH1 0x20 ADD PUSH1 0x3 DUP3 ADD DUP1 SLOAD PUSH2 0x1AB SWAP1 PUSH2 0x99F JUMP JUMPDEST DUP1 PUSH1 0x1F ADD PUSH1 0x20 DUP1 SWAP2 DIV MUL PUSH1 0x20 ADD PUSH1 0x40 MLOAD SWAP1 DUP2 ADD PUSH1 0x40 MSTORE DUP1 SWAP3 SWAP2 SWAP1 DUP2 DUP2 MSTORE PUSH1 0x20 ADD DUP3 DUP1 SLOAD PUSH2 0x1D7 SWAP1 PUSH2 0x99F JUMP JUMPDEST DUP1 ISZERO PUSH2 0x224 JUMPI DUP1 PUSH1 0x1F LT PUSH2 0x1F9 JUMPI PUSH2 0x100 DUP1 DUP4 SLOAD DIV MUL DUP4 MSTORE SWAP2 PUSH1 0x20 ADD SWAP2 PUSH2 0x224 JUMP JUMPDEST DUP3 ADD SWAP2 SWAP1 PUSH1 0x0 MSTORE PUSH1 0x20 PUSH1 0x0 KECCAK256 SWAP1 JUMPDEST DUP2 SLOAD DUP2 MSTORE SWAP1 PUSH1 0x1 ADD SWAP1 PUSH1 0x20 ADD DUP1 DUP4 GT PUSH2 0x207 JUMPI DUP3 SWAP1 SUB PUSH1 0x1F AND DUP3 ADD SWAP2 JUMPDEST POP POP POP POP POP DUP2 MSTORE PUSH1 0x20 ADD PUSH1 0x4 DUP3 ADD SLOAD DUP2 MSTORE PUSH1 0x20 ADD PUSH1 0x5 DUP3 ADD DUP1 SLOAD PUSH2 0x247 SWAP1 PUSH2 0x99F JUMP JUMPDEST DUP1 PUSH1 0x1F ADD PUSH1 0x20 DUP1 SWAP2 DIV MUL PUSH1 0x20 ADD PUSH1 0x40 MLOAD SWAP1 DUP2 ADD PUSH1 0x40 MSTORE DUP1 SWAP3 SWAP2 SWAP1 DUP2 DUP2 MSTORE PUSH1 0x20 ADD DUP3 DUP1 SLOAD PUSH2 0x273 SWAP1 PUSH2 0x99F JUMP JUMPDEST DUP1 ISZERO PUSH2 0x2C0 JUMPI DUP1 PUSH1 0x1F LT PUSH2 0x295 JUMPI PUSH2 0x100 DUP1 DUP4 SLOAD DIV MUL DUP4 MSTORE SWAP2 PUSH1 0x20 ADD SWAP2 PUSH2 0x2C0 JUMP JUMPDEST DUP3 ADD SWAP2 SWAP1 PUSH1 0x0 MSTORE PUSH1 0x20 PUSH1 0x0 KECCAK256 SWAP1 JUMPDEST DUP2 SLOAD DUP2 MSTORE SWAP1 PUSH1 0x1 ADD SWAP1 PUSH1 0x20 ADD DUP1 DUP4 GT PUSH2 0x2A3 JUMPI DUP3 SWAP1 SUB PUSH1 0x1F AND DUP3 ADD SWAP2 JUMPDEST POP POP POP POP POP DUP2 MSTORE POP POP DUP2 MSTORE PUSH1 0x20 ADD SWAP1 PUSH1 0x1 ADD SWAP1 PUSH2 0xC2 JUMP JUMPDEST POP POP POP POP SWAP1 POP SWAP1 JUMP JUMPDEST PUSH1 0x0 CALLER SWAP1 POP PUSH1 0x0 PUSH1 0x40 MLOAD DUP1 PUSH1 0xC0 ADD PUSH1 0x40 MSTORE DUP1 CALLER PUSH20 0xFFFFFFFFFFFFFFFFFFFFFFFFFFFFFFFFFFFFFFFF AND DUP2 MSTORE PUSH1 0x20 ADD DUP8 PUSH20 0xFFFFFFFFFFFFFFFFFFFFFFFFFFFFFFFFFFFFFFFF AND DUP2 MSTORE PUSH1 0x20 ADD DUP7 DUP2 MSTORE PUSH1 0x20 ADD DUP6 DUP2 MSTORE PUSH1 0x20 ADD TIMESTAMP DUP2 MSTORE PUSH1 0x20 ADD DUP5 DUP2 MSTORE POP SWAP1 POP PUSH1 0x1 DUP2 SWAP1 DUP1 PUSH1 0x1 DUP2 SLOAD ADD DUP1 DUP3 SSTORE DUP1 SWAP2 POP POP PUSH1 0x1 SWAP1 SUB SWAP1 PUSH1 0x0 MSTORE PUSH1 0x20 PUSH1 0x0 KECCAK256 SWAP1 PUSH1 0x6 MUL ADD PUSH1 0x0 SWAP1 SWAP2 SWAP1 SWAP2 SWAP1 SWAP2 POP PUSH1 0x0 DUP3 ADD MLOAD DUP2 PUSH1 0x0 ADD PUSH1 0x0 PUSH2 0x100 EXP DUP2 SLOAD DUP2 PUSH20 0xFFFFFFFFFFFFFFFFFFFFFFFFFFFFFFFFFFFFFFFF MUL NOT AND SWAP1 DUP4 PUSH20 0xFFFFFFFFFFFFFFFFFFFFFFFFFFFFFFFFFFFFFFFF AND MUL OR SWAP1 SSTORE POP PUSH1 0x20 DUP3 ADD MLOAD DUP2 PUSH1 0x1 ADD PUSH1 0x0 PUSH2 0x100 EXP DUP2 SLOAD DUP2 PUSH20 0xFFFFFFFFFFFFFFFFFFFFFFFFFFFFFFFFFFFFFFFF MUL NOT AND SWAP1 DUP4 PUSH20 0xFFFFFFFFFFFFFFFFFFFFFFFFFFFFFFFFFFFFFFFF AND MUL OR SWAP1 SSTORE POP PUSH1 0x40 DUP3 ADD MLOAD DUP2 PUSH1 0x2 ADD SSTORE PUSH1 0x60 DUP3 ADD MLOAD DUP2 PUSH1 0x3 ADD SWAP1 DUP2 PUSH2 0x41C SWAP2 SWAP1 PUSH2 0xB7C JUMP JUMPDEST POP PUSH1 0x80 DUP3 ADD MLOAD DUP2 PUSH1 0x4 ADD SSTORE PUSH1 0xA0 DUP3 ADD MLOAD DUP2 PUSH1 0x5 ADD SWAP1 DUP2 PUSH2 0x43C SWAP2 SWAP1 PUSH2 0xB7C JUMP JUMPDEST POP POP POP PUSH32 0x416CFA4330A4565F45C2FD2DD4826A83A37443ABA2CE6F79477C7355AFAC35FA DUP3 DUP8 DUP8 DUP8 TIMESTAMP DUP9 PUSH1 0x40 MLOAD PUSH2 0x478 SWAP7 SWAP6 SWAP5 SWAP4 SWAP3 SWAP2 SWAP1 PUSH2 0xCA7 JUMP JUMPDEST PUSH1 0x40 MLOAD DUP1 SWAP2 SUB SWAP1 LOG1 PUSH1 0x0 DUP1 DUP2 SLOAD DUP1 SWAP3 SWAP2 SWAP1 PUSH2 0x492 SWAP1 PUSH2 0xD45 JUMP JUMPDEST SWAP2 SWAP1 POP SSTORE POP POP POP POP POP POP POP JUMP JUMPDEST PUSH1 0x0 DUP1 SLOAD SWAP1 POP SWAP1 JUMP JUMPDEST PUSH1 0x0 DUP2 MLOAD SWAP1 POP SWAP2 SWAP1 POP JUMP JUMPDEST PUSH1 0x0 DUP3 DUP3 MSTORE PUSH1 0x20 DUP3 ADD SWAP1 POP SWAP3 SWAP2 POP POP JUMP JUMPDEST PUSH1 0x0 DUP2 SWAP1 POP PUSH1 0x20 DUP3 ADD SWAP1 POP SWAP2 SWAP1 POP JUMP JUMPDEST PUSH1 0x0 PUSH20 0xFFFFFFFFFFFFFFFFFFFFFFFFFFFFFFFFFFFFFFFF DUP3 AND SWAP1 POP SWAP2 SWAP1 POP JUMP JUMPDEST PUSH1 0x0 PUSH2 0x4FF DUP3 PUSH2 0x4D4 JUMP JUMPDEST SWAP1 POP SWAP2 SWAP1 POP JUMP JUMPDEST PUSH2 0x50F DUP2 PUSH2 0x4F4 JUMP JUMPDEST DUP3 MSTORE POP POP JUMP JUMPDEST PUSH1 0x0 DUP2 SWAP1 POP SWAP2 SWAP1 POP JUMP JUMPDEST PUSH2 0x528 DUP2 PUSH2 0x515 JUMP JUMPDEST DUP3 MSTORE POP POP JUMP JUMPDEST PUSH1 0x0 DUP2 MLOAD SWAP1 POP SWAP2 SWAP1 POP JUMP JUMPDEST PUSH1 0x0 DUP3 DUP3 MSTORE PUSH1 0x20 DUP3 ADD SWAP1 POP SWAP3 SWAP2 POP POP JUMP JUMPDEST PUSH1 0x0 JUMPDEST DUP4 DUP2 LT ISZERO PUSH2 0x568 JUMPI DUP1 DUP3 ADD MLOAD DUP2 DUP5 ADD MSTORE PUSH1 0x20 DUP2 ADD SWAP1 POP PUSH2 0x54D JUMP JUMPDEST PUSH1 0x0 DUP5 DUP5 ADD MSTORE POP POP POP POP JUMP JUMPDEST PUSH1 0x0 PUSH1 0x1F NOT PUSH1 0x1F DUP4 ADD AND SWAP1 POP SWAP2 SWAP1 POP JUMP JUMPDEST PUSH1 0x0 PUSH2 0x590 DUP3 PUSH2 0x52E JUMP JUMPDEST PUSH2 0x59A DUP2 DUP6 PUSH2 0x539 JUMP JUMPDEST SWAP4 POP PUSH2 0x5AA DUP2 DUP6 PUSH1 0x20 DUP7 ADD PUSH2 0x54A JUMP JUMPDEST PUSH2 0x5B3 DUP2 PUSH2 0x574 JUMP JUMPDEST DUP5 ADD SWAP2 POP POP SWAP3 SWAP2 POP POP JUMP JUMPDEST PUSH1 0x0 PUSH1 0xC0 DUP4 ADD PUSH1 0x0 DUP4 ADD MLOAD PUSH2 0x5D6 PUSH1 0x0 DUP7 ADD DUP3 PUSH2 0x506 JUMP JUMPDEST POP PUSH1 0x20 DUP4 ADD MLOAD PUSH2 0x5E9 PUSH1 0x20 DUP7 ADD DUP3 PUSH2 0x506 JUMP JUMPDEST POP PUSH1 0x40 DUP4 ADD MLOAD PUSH2 0x5FC PUSH1 0x40 DUP7 ADD DUP3 PUSH2 0x51F JUMP JUMPDEST POP PUSH1 0x60 DUP4 ADD MLOAD DUP5 DUP3 SUB PUSH1 0x60 DUP7 ADD MSTORE PUSH2 0x614 DUP3 DUP3 PUSH2 0x585 JUMP JUMPDEST SWAP2 POP POP PUSH1 0x80 DUP4 ADD MLOAD PUSH2 0x629 PUSH1 0x80 DUP7 ADD DUP3 PUSH2 0x51F JUMP JUMPDEST POP PUSH1 0xA0 DUP4 ADD MLOAD DUP5 DUP3 SUB PUSH1 0xA0 DUP7 ADD MSTORE PUSH2 0x641 DUP3 DUP3 PUSH2 0x585 JUMP JUMPDEST SWAP2 POP POP DUP1 SWAP2 POP POP SWAP3 SWAP2 POP POP JUMP JUMPDEST PUSH1 0x0 PUSH2 0x65A DUP4 DUP4 PUSH2 0x5BE JUMP JUMPDEST SWAP1 POP SWAP3 SWAP2 POP POP JUMP JUMPDEST PUSH1 0x0 PUSH1 0x20 DUP3 ADD SWAP1 POP SWAP2 SWAP1 POP JUMP JUMPDEST PUSH1 0x0 PUSH2 0x67A DUP3 PUSH2 0x4A8 JUMP JUMPDEST PUSH2 0x684 DUP2 DUP6 PUSH2 0x4B3 JUMP JUMPDEST SWAP4 POP DUP4 PUSH1 0x20 DUP3 MUL DUP6 ADD PUSH2 0x696 DUP6 PUSH2 0x4C4 JUMP JUMPDEST DUP1 PUSH1 0x0 JUMPDEST DUP6 DUP2 LT ISZERO PUSH2 0x6D2 JUMPI DUP5 DUP5 SUB DUP10 MSTORE DUP2 MLOAD PUSH2 0x6B3 DUP6 DUP3 PUSH2 0x64E JUMP JUMPDEST SWAP5 POP PUSH2 0x6BE DUP4 PUSH2 0x662 JUMP JUMPDEST SWAP3 POP PUSH1 0x20 DUP11 ADD SWAP10 POP POP PUSH1 0x1 DUP2 ADD SWAP1 POP PUSH2 0x69A JUMP JUMPDEST POP DUP3 SWAP8 POP DUP8 SWAP6 POP POP POP POP POP POP SWAP3 SWAP2 POP POP JUMP JUMPDEST PUSH1 0x0 PUSH1 0x20 DUP3 ADD SWAP1 POP DUP2 DUP2 SUB PUSH1 0x0 DUP4 ADD MSTORE PUSH2 0x6FE DUP2 DUP5 PUSH2 0x66F JUMP JUMPDEST SWAP1 POP SWAP3 SWAP2 POP POP JUMP JUMPDEST PUSH1 0x0 PUSH1 0x40 MLOAD SWAP1 POP SWAP1 JUMP JUMPDEST PUSH1 0x0 DUP1 REVERT JUMPDEST PUSH1 0x0 DUP1 REVERT JUMPDEST PUSH2 0x723 DUP2 PUSH2 0x4F4 JUMP JUMPDEST DUP2 EQ PUSH2 0x72E JUMPI PUSH1 0x0 DUP1 REVERT JUMPDEST POP JUMP JUMPDEST PUSH1 0x0 DUP2 CALLDATALOAD SWAP1 POP PUSH2 0x740 DUP2 PUSH2 0x71A JUMP JUMPDEST SWAP3 SWAP2 POP POP JUMP JUMPDEST PUSH2 0x74F DUP2 PUSH2 0x515 JUMP JUMPDEST DUP2 EQ PUSH2 0x75A JUMPI PUSH1 0x0 DUP1 REVERT JUMPDEST POP JUMP JUMPDEST PUSH1 0x0 DUP2 CALLDATALOAD SWAP1 POP PUSH2 0x76C DUP2 PUSH2 0x746 JUMP JUMPDEST SWAP3 SWAP2 POP POP JUMP JUMPDEST PUSH1 0x0 DUP1 REVERT JUMPDEST PUSH1 0x0 DUP1 REVERT JUMPDEST PUSH32 0x4E487B7100000000000000000000000000000000000000000000000000000000 PUSH1 0x0 MSTORE PUSH1 0x41 PUSH1 0x4 MSTORE PUSH1 0x24 PUSH1 0x0 REVERT JUMPDEST PUSH2 0x7B4 DUP3 PUSH2 0x574 JUMP JUMPDEST DUP2 ADD DUP2 DUP2 LT PUSH8 0xFFFFFFFFFFFFFFFF DUP3 GT OR ISZERO PUSH2 0x7D3 JUMPI PUSH2 0x7D2 PUSH2 0x77C JUMP JUMPDEST JUMPDEST DUP1 PUSH1 0x40 MSTORE POP POP POP JUMP JUMPDEST PUSH1 0x0 PUSH2 0x7E6 PUSH2 0x706 JUMP JUMPDEST SWAP1 POP PUSH2 0x7F2 DUP3 DUP3 PUSH2 0x7AB JUMP JUMPDEST SWAP2 SWAP1 POP JUMP JUMPDEST PUSH1 0x0 PUSH8 0xFFFFFFFFFFFFFFFF DUP3 GT ISZERO PUSH2 0x812 JUMPI PUSH2 0x811 PUSH2 0x77C JUMP JUMPDEST JUMPDEST PUSH2 0x81B DUP3 PUSH2 0x574 JUMP JUMPDEST SWAP1 POP PUSH1 0x20 DUP2 ADD SWAP1 POP SWAP2 SWAP1 POP JUMP JUMPDEST DUP3 DUP2 DUP4 CALLDATACOPY PUSH1 0x0 DUP4 DUP4 ADD MSTORE POP POP POP JUMP JUMPDEST PUSH1 0x0 PUSH2 0x84A PUSH2 0x845 DUP5 PUSH2 0x7F7 JUMP JUMPDEST PUSH2 0x7DC JUMP JUMPDEST SWAP1 POP DUP3 DUP2 MSTORE PUSH1 0x20 DUP2 ADD DUP5 DUP5 DUP5 ADD GT ISZERO PUSH2 0x866 JUMPI PUSH2 0x865 PUSH2 0x777 JUMP JUMPDEST JUMPDEST PUSH2 0x871 DUP5 DUP3 DUP6 PUSH2 0x828 JUMP JUMPDEST POP SWAP4 SWAP3 POP POP POP JUMP JUMPDEST PUSH1 0x0 DUP3 PUSH1 0x1F DUP4 ADD SLT PUSH2 0x88E JUMPI PUSH2 0x88D PUSH2 0x772 JUMP JUMPDEST JUMPDEST DUP2 CALLDATALOAD PUSH2 0x89E DUP5 DUP3 PUSH1 0x20 DUP7 ADD PUSH2 0x837 JUMP JUMPDEST SWAP2 POP POP SWAP3 SWAP2 POP POP JUMP JUMPDEST PUSH1 0x0 DUP1 PUSH1 0x0 DUP1 PUSH1 0x80 DUP6 DUP8 SUB SLT ISZERO PUSH2 0x8C1 JUMPI PUSH2 0x8C0 PUSH2 0x710 JUMP JUMPDEST JUMPDEST PUSH1 0x0 PUSH2 0x8CF DUP8 DUP3 DUP9 ADD PUSH2 0x731 JUMP JUMPDEST SWAP5 POP POP PUSH1 0x20 PUSH2 0x8E0 DUP8 DUP3 DUP9 ADD PUSH2 0x75D JUMP JUMPDEST SWAP4 POP POP PUSH1 0x40 DUP6 ADD CALLDATALOAD PUSH8 0xFFFFFFFFFFFFFFFF DUP2 GT ISZERO PUSH2 0x901 JUMPI PUSH2 0x900 PUSH2 0x715 JUMP JUMPDEST JUMPDEST PUSH2 0x90D DUP8 DUP3 DUP9 ADD PUSH2 0x879 JUMP JUMPDEST SWAP3 POP POP PUSH1 0x60 DUP6 ADD CALLDATALOAD PUSH8 0xFFFFFFFFFFFFFFFF DUP2 GT ISZERO PUSH2 0x92E JUMPI PUSH2 0x92D PUSH2 0x715 JUMP JUMPDEST JUMPDEST PUSH2 0x93A DUP8 DUP3 DUP9 ADD PUSH2 0x879 JUMP JUMPDEST SWAP2 POP POP SWAP3 SWAP6 SWAP2 SWAP5 POP SWAP3 POP JUMP JUMPDEST PUSH2 0x94F DUP2 PUSH2 0x515 JUMP JUMPDEST DUP3 MSTORE POP POP JUMP JUMPDEST PUSH1 0x0 PUSH1 0x20 DUP3 ADD SWAP1 POP PUSH2 0x96A PUSH1 0x0 DUP4 ADD DUP5 PUSH2 0x946 JUMP JUMPDEST SWAP3 SWAP2 POP POP JUMP JUMPDEST PUSH32 0x4E487B7100000000000000000000000000000000000000000000000000000000 PUSH1 0x0 MSTORE PUSH1 0x22 PUSH1 0x4 MSTORE PUSH1 0x24 PUSH1 0x0 REVERT JUMPDEST PUSH1 0x0 PUSH1 0x2 DUP3 DIV SWAP1 POP PUSH1 0x1 DUP3 AND DUP1 PUSH2 0x9B7 JUMPI PUSH1 0x7F DUP3 AND SWAP2 POP JUMPDEST PUSH1 0x20 DUP3 LT DUP2 SUB PUSH2 0x9CA JUMPI PUSH2 0x9C9 PUSH2 0x970 JUMP JUMPDEST JUMPDEST POP SWAP2 SWAP1 POP JUMP JUMPDEST PUSH1 0x0 DUP2 SWAP1 POP DUP2 PUSH1 0x0 MSTORE PUSH1 0x20 PUSH1 0x0 KECCAK256 SWAP1 POP SWAP2 SWAP1 POP JUMP JUMPDEST PUSH1 0x0 PUSH1 0x20 PUSH1 0x1F DUP4 ADD DIV SWAP1 POP SWAP2 SWAP1 POP JUMP JUMPDEST PUSH1 0x0 DUP3 DUP3 SHL SWAP1 POP SWAP3 SWAP2 POP POP JUMP JUMPDEST PUSH1 0x0 PUSH1 0x8 DUP4 MUL PUSH2 0xA32 PUSH32 0xFFFFFFFFFFFFFFFFFFFFFFFFFFFFFFFFFFFFFFFFFFFFFFFFFFFFFFFFFFFFFFFF DUP3 PUSH2 0x9F5 JUMP JUMPDEST PUSH2 0xA3C DUP7 DUP4 PUSH2 0x9F5 JUMP JUMPDEST SWAP6 POP DUP1 NOT DUP5 AND SWAP4 POP DUP1 DUP7 AND DUP5 OR SWAP3 POP POP POP SWAP4 SWAP3 POP POP POP JUMP JUMPDEST PUSH1 0x0 DUP2 SWAP1 POP SWAP2 SWAP1 POP JUMP JUMPDEST PUSH1 0x0 PUSH2 0xA79 PUSH2 0xA74 PUSH2 0xA6F DUP5 PUSH2 0x515 JUMP JUMPDEST PUSH2 0xA54 JUMP JUMPDEST PUSH2 0x515 JUMP JUMPDEST SWAP1 POP SWAP2 SWAP1 POP JUMP JUMPDEST PUSH1 0x0 DUP2 SWAP1 POP SWAP2 SWAP1 POP JUMP JUMPDEST PUSH2 0xA93 DUP4 PUSH2 0xA5E JUMP JUMPDEST PUSH2 0xAA7 PUSH2 0xA9F DUP3 PUSH2 0xA80 JUMP JUMPDEST DUP5 DUP5 SLOAD PUSH2 0xA02 JUMP JUMPDEST DUP3 SSTORE POP POP POP POP JUMP JUMPDEST PUSH1 0x0 SWAP1 JUMP JUMPDEST PUSH2 0xABC PUSH2 0xAAF JUMP JUMPDEST PUSH2 0xAC7 DUP2 DUP5 DUP5 PUSH2 0xA8A JUMP JUMPDEST POP POP POP JUMP JUMPDEST JUMPDEST DUP2 DUP2 LT ISZERO PUSH2 0xAEB JUMPI PUSH2 0xAE0 PUSH1 0x0 DUP3 PUSH2 0xAB4 JUMP JUMPDEST PUSH1 0x1 DUP2 ADD SWAP1 POP PUSH2 0xACD JUMP JUMPDEST POP POP JUMP JUMPDEST PUSH1 0x1F DUP3 GT ISZERO PUSH2 0xB30 JUMPI PUSH2 0xB01 DUP2 PUSH2 0x9D0 JUMP JUMPDEST PUSH2 0xB0A DUP5 PUSH2 0x9E5 JUMP JUMPDEST DUP2 ADD PUSH1 0x20 DUP6 LT ISZERO PUSH2 0xB19 JUMPI DUP2 SWAP1 POP JUMPDEST PUSH2 0xB2D PUSH2 0xB25 DUP6 PUSH2 0x9E5 JUMP JUMPDEST DUP4 ADD DUP3 PUSH2 0xACC JUMP JUMPDEST POP POP JUMPDEST POP POP POP JUMP JUMPDEST PUSH1 0x0 DUP3 DUP3 SHR SWAP1 POP SWAP3 SWAP2 POP POP JUMP JUMPDEST PUSH1 0x0 PUSH2 0xB53 PUSH1 0x0 NOT DUP5 PUSH1 0x8 MUL PUSH2 0xB35 JUMP JUMPDEST NOT DUP1 DUP4 AND SWAP2 POP POP SWAP3 SWAP2 POP POP JUMP JUMPDEST PUSH1 0x0 PUSH2 0xB6C DUP4 DUP4 PUSH2 0xB42 JUMP JUMPDEST SWAP2 POP DUP3 PUSH1 0x2 MUL DUP3 OR SWAP1 POP SWAP3 SWAP2 POP POP JUMP JUMPDEST PUSH2 0xB85 DUP3 PUSH2 0x52E JUMP JUMPDEST PUSH8 0xFFFFFFFFFFFFFFFF DUP2 GT ISZERO PUSH2 0xB9E JUMPI PUSH2 0xB9D PUSH2 0x77C JUMP JUMPDEST JUMPDEST PUSH2 0xBA8 DUP3 SLOAD PUSH2 0x99F JUMP JUMPDEST PUSH2 0xBB3 DUP3 DUP3 DUP6 PUSH2 0xAEF JUMP JUMPDEST PUSH1 0x0 PUSH1 0x20 SWAP1 POP PUSH1 0x1F DUP4 GT PUSH1 0x1 DUP2 EQ PUSH2 0xBE6 JUMPI PUSH1 0x0 DUP5 ISZERO PUSH2 0xBD4 JUMPI DUP3 DUP8 ADD MLOAD SWAP1 POP JUMPDEST PUSH2 0xBDE DUP6 DUP3 PUSH2 0xB60 JUMP JUMPDEST DUP7 SSTORE POP PUSH2 0xC46 JUMP JUMPDEST PUSH1 0x1F NOT DUP5 AND PUSH2 0xBF4 DUP7 PUSH2 0x9D0 JUMP JUMPDEST PUSH1 0x0 JUMPDEST DUP3 DUP2 LT ISZERO PUSH2 0xC1C JUMPI DUP5 DUP10 ADD MLOAD DUP3 SSTORE PUSH1 0x1 DUP3 ADD SWAP2 POP PUSH1 0x20 DUP6 ADD SWAP5 POP PUSH1 0x20 DUP2 ADD SWAP1 POP PUSH2 0xBF7 JUMP JUMPDEST DUP7 DUP4 LT ISZERO PUSH2 0xC39 JUMPI DUP5 DUP10 ADD MLOAD PUSH2 0xC35 PUSH1 0x1F DUP10 AND DUP3 PUSH2 0xB42 JUMP JUMPDEST DUP4 SSTORE POP JUMPDEST PUSH1 0x1 PUSH1 0x2 DUP9 MUL ADD DUP9 SSTORE POP POP POP JUMPDEST POP POP POP POP POP POP JUMP JUMPDEST PUSH2 0xC57 DUP2 PUSH2 0x4F4 JUMP JUMPDEST DUP3 MSTORE POP POP JUMP JUMPDEST PUSH1 0x0 DUP3 DUP3 MSTORE PUSH1 0x20 DUP3 ADD SWAP1 POP SWAP3 SWAP2 POP POP JUMP JUMPDEST PUSH1 0x0 PUSH2 0xC79 DUP3 PUSH2 0x52E JUMP JUMPDEST PUSH2 0xC83 DUP2 DUP6 PUSH2 0xC5D JUMP JUMPDEST SWAP4 POP PUSH2 0xC93 DUP2 DUP6 PUSH1 0x20 DUP7 ADD PUSH2 0x54A JUMP JUMPDEST PUSH2 0xC9C DUP2 PUSH2 0x574 JUMP JUMPDEST DUP5 ADD SWAP2 POP POP SWAP3 SWAP2 POP POP JUMP JUMPDEST PUSH1 0x0 PUSH1 0xC0 DUP3 ADD SWAP1 POP PUSH2 0xCBC PUSH1 0x0 DUP4 ADD DUP10 PUSH2 0xC4E JUMP JUMPDEST PUSH2 0xCC9 PUSH1 0x20 DUP4 ADD DUP9 PUSH2 0xC4E JUMP JUMPDEST PUSH2 0xCD6 PUSH1 0x40 DUP4 ADD DUP8 PUSH2 0x946 JUMP JUMPDEST DUP2 DUP2 SUB PUSH1 0x60 DUP4 ADD MSTORE PUSH2 0xCE8 DUP2 DUP7 PUSH2 0xC6E JUMP JUMPDEST SWAP1 POP PUSH2 0xCF7 PUSH1 0x80 DUP4 ADD DUP6 PUSH2 0x946 JUMP JUMPDEST DUP2 DUP2 SUB PUSH1 0xA0 DUP4 ADD MSTORE PUSH2 0xD09 DUP2 DUP5 PUSH2 0xC6E JUMP JUMPDEST SWAP1 POP SWAP8 SWAP7 POP POP POP POP POP POP POP JUMP JUMPDEST PUSH32 0x4E487B7100000000000000000000000000000000000000000000000000000000 PUSH1 0x0 MSTORE PUSH1 0x11 PUSH1 0x4 MSTORE PUSH1 0x24 PUSH1 0x0 REVERT JUMPDEST PUSH1 0x0 PUSH2 0xD50 DUP3 PUSH2 0x515 JUMP JUMPDEST SWAP2 POP PUSH32 0xFFFFFFFFFFFFFFFFFFFFFFFFFFFFFFFFFFFFFFFFFFFFFFFFFFFFFFFFFFFFFFFF DUP3 SUB PUSH2 0xD82 JUMPI PUSH2 0xD81 PUSH2 0xD16 JUMP JUMPDEST JUMPDEST PUSH1 0x1 DUP3 ADD SWAP1 POP SWAP2 SWAP1 POP JUMP INVALID LOG2 PUSH5 0x6970667358 0x22 SLT KECCAK256 BYTE SLT OR SDIV 0x5D 0xBC ORIGIN 0x4A 0xE0 0x2C SWAP3 LT 0xC4 PUSH10 0x83CBA72CF0FC7A6742FD ADDRESS SWAP9 0xF9 DUP15 PUSH28 0xBA102664736F6C634300081000330000000000000000000000000000 "
				},
				"gasEstimates": {
					"creation": {
						"codeDepositCost": "704600",
						"executionCost": "741",
						"totalCost": "705341"
					},
					"external": {
						"addTo(address,uint256,string,string)": "infinite",
						"getALL()": "infinite",
						"getTran()": "2459"
					}
				},
				"methodIdentifiers": {
					"addTo(address,uint256,string,string)": "c9e4c179",
					"getALL()": "c8b71e0b",
					"getTran()": "f26d64d4"
				}
			},
			"storageLayout": {
				"storage": [
					{
						"astId": 3,
						"contract": "Contracts/Transactions.sol:Transactions",
						"label": "transactionCounter",
						"offset": 0,
						"slot": "0",
						"type": "t_uint256"
					},
					{
						"astId": 34,
						"contract": "Contracts/Transactions.sol:Transactions",
						"label": "transactions",
						"offset": 0,
						"slot": "1",
						"type": "t_array(t_struct(transferStruct)30_storage)dyn_storage"
					}
				],
				"types": {
					"t_address": {
						"encoding": "inplace",
						"label": "address",
						"numberOfBytes": "20"
					},
					"t_array(t_struct(transferStruct)30_storage)dyn_storage": {
						"base": "t_struct(transferStruct)30_storage",
						"encoding": "dynamic_array",
						"label": "struct Transactions.transferStruct[]",
						"numberOfBytes": "32"
					},
					"t_string_storage": {
						"encoding": "bytes",
						"label": "string",
						"numberOfBytes": "32"
					},
					"t_struct(transferStruct)30_storage": {
						"encoding": "inplace",
						"label": "struct Transactions.transferStruct",
						"members": [
							{
								"astId": 19,
								"contract": "Contracts/Transactions.sol:Transactions",
								"label": "sender",
								"offset": 0,
								"slot": "0",
								"type": "t_address"
							},
							{
								"astId": 21,
								"contract": "Contracts/Transactions.sol:Transactions",
								"label": "receiver",
								"offset": 0,
								"slot": "1",
								"type": "t_address"
							},
							{
								"astId": 23,
								"contract": "Contracts/Transactions.sol:Transactions",
								"label": "amount",
								"offset": 0,
								"slot": "2",
								"type": "t_uint256"
							},
							{
								"astId": 25,
								"contract": "Contracts/Transactions.sol:Transactions",
								"label": "message",
								"offset": 0,
								"slot": "3",
								"type": "t_string_storage"
							},
							{
								"astId": 27,
								"contract": "Contracts/Transactions.sol:Transactions",
								"label": "timestamp",
								"offset": 0,
								"slot": "4",
								"type": "t_uint256"
							},
							{
								"astId": 29,
								"contract": "Contracts/Transactions.sol:Transactions",
								"label": "keyword",
								"offset": 0,
								"slot": "5",
								"type": "t_string_storage"
							}
						],
						"numberOfBytes": "192"
					},
					"t_uint256": {
						"encoding": "inplace",
						"label": "uint256",
						"numberOfBytes": "32"
					}
				}
			},
			"userdoc": {
				"kind": "user",
				"methods": {},
				"version": 1
			}
		}
	}
}