{
	"data": {
		"bytecode": {
			"linkReferences": {},
			"object": "60806040526000805534801561001457600080fd5b5060f5806100236000396000f3fe6080604052348015600f57600080fd5b506004361060285760003560e01c80639ff9a60314602d575b600080fd5b60336035565b005b5b6001156057576001600080828254604c91906092565b925050819055506036565b565b6000819050919050565b7f4e487b7100000000000000000000000000000000000000000000000000000000600052601160045260246000fd5b6000609b826059565b915060a4836059565b925082820190508082111560b95760b86063565b5b9291505056fea2646970667358221220f1bfa861922e0bebac9f00b836cbd0cee1015f829aba1cc5868d8f8f957199e064736f6c63430008100033",
			"opcodes": "PUSH1 0x80 PUSH1 0x40 MSTORE PUSH1 0x0 DUP1 SSTORE CALLVALUE DUP1 ISZERO PUSH2 0x14 JUMPI PUSH1 0x0 DUP1 REVERT JUMPDEST POP PUSH1 0xF5 DUP1 PUSH2 0x23 PUSH1 0x0 CODECOPY PUSH1 0x0 RETURN INVALID PUSH1 0x80 PUSH1 0x40 MSTORE CALLVALUE DUP1 ISZERO PUSH1 0xF JUMPI PUSH1 0x0 DUP1 REVERT JUMPDEST POP PUSH1 0x4 CALLDATASIZE LT PUSH1 0x28 JUMPI PUSH1 0x0 CALLDATALOAD PUSH1 0xE0 SHR DUP1 PUSH4 0x9FF9A603 EQ PUSH1 0x2D JUMPI JUMPDEST PUSH1 0x0 DUP1 REVERT JUMPDEST PUSH1 0x33 PUSH1 0x35 JUMP JUMPDEST STOP JUMPDEST JUMPDEST PUSH1 0x1 ISZERO PUSH1 0x57 JUMPI PUSH1 0x1 PUSH1 0x0 DUP1 DUP3 DUP3 SLOAD PUSH1 0x4C SWAP2 SWAP1 PUSH1 0x92 JUMP JUMPDEST SWAP3 POP POP DUP2 SWAP1 SSTORE POP PUSH1 0x36 JUMP JUMPDEST JUMP JUMPDEST PUSH1 0x0 DUP2 SWAP1 POP SWAP2 SWAP1 POP JUMP JUMPDEST PUSH32 0x4E487B7100000000000000000000000000000000000000000000000000000000 PUSH1 0x0 MSTORE PUSH1 0x11 PUSH1 0x4 MSTORE PUSH1 0x24 PUSH1 0x0 REVERT JUMPDEST PUSH1 0x0 PUSH1 0x9B DUP3 PUSH1 0x59 JUMP JUMPDEST SWAP2 POP PUSH1 0xA4 DUP4 PUSH1 0x59 JUMP JUMPDEST SWAP3 POP DUP3 DUP3 ADD SWAP1 POP DUP1 DUP3 GT ISZERO PUSH1 0xB9 JUMPI PUSH1 0xB8 PUSH1 0x63 JUMP JUMPDEST JUMPDEST SWAP3 SWAP2 POP POP JUMP INVALID LOG2 PUSH5 0x6970667358 0x22 SLT KECCAK256 CALL 0xBF 0xA8 PUSH2 0x922E SIGNEXTEND 0xEB 0xAC SWAP16 STOP 0xB8 CALLDATASIZE 0xCB 0xD0 0xCE 0xE1 ADD 0x5F DUP3 SWAP11 0xBA SHR 0xC5 DUP7 DUP14 DUP16 DUP16 SWAP6 PUSH18 0x99E064736F6C634300081000330000000000 "
		},
		"gasEstimates": {
			"creation": {
				"codeDepositCost": "49000",
				"executionCost": "5105",
				"totalCost": "54105"
			},
			"external": {
				"forever()": "infinite"
			}
		},
		"methodIdentifiers": {
			"forever()": "9ff9a603"
		}
	},
	"abi": [
		{
			"inputs": [],
			"name": "forever",
			"outputs": [],
			"stateMutability": "nonpayable",
			"type": "function"
		}
	]
}